{
  "address": "0x88c261CcC6Cb9c840fec09876Ed1Ae1Eb94FF80d",
  "abi": [
    {
      "inputs": [],
      "name": "Forbidden",
      "type": "error"
    },
    {
      "inputs": [],
      "name": "NoZeroChecks",
      "type": "error"
    },
    {
      "inputs": [],
      "name": "NotAllowed",
      "type": "error"
    },
    {
      "inputs": [],
      "name": "TokenNotAllowed",
      "type": "error"
    },
    {
      "anonymous": false,
      "inputs": [
        {
          "indexed": true,
          "internalType": "bytes32",
          "name": "role",
          "type": "bytes32"
        },
        {
          "indexed": true,
          "internalType": "bytes32",
          "name": "previousAdminRole",
          "type": "bytes32"
        },
        {
          "indexed": true,
          "internalType": "bytes32",
          "name": "newAdminRole",
          "type": "bytes32"
        }
      ],
      "name": "RoleAdminChanged",
      "type": "event"
    },
    {
      "anonymous": false,
      "inputs": [
        {
          "indexed": true,
          "internalType": "bytes32",
          "name": "role",
          "type": "bytes32"
        },
        {
          "indexed": true,
          "internalType": "address",
          "name": "account",
          "type": "address"
        },
        {
          "indexed": true,
          "internalType": "address",
          "name": "sender",
          "type": "address"
        }
      ],
      "name": "RoleGranted",
      "type": "event"
    },
    {
      "anonymous": false,
      "inputs": [
        {
          "indexed": true,
          "internalType": "bytes32",
          "name": "role",
          "type": "bytes32"
        },
        {
          "indexed": true,
          "internalType": "address",
          "name": "account",
          "type": "address"
        },
        {
          "indexed": true,
          "internalType": "address",
          "name": "sender",
          "type": "address"
        }
      ],
      "name": "RoleRevoked",
      "type": "event"
    },
    {
      "anonymous": false,
      "inputs": [
        {
          "indexed": true,
          "internalType": "uint256",
          "name": "id",
          "type": "uint256"
        }
      ],
      "name": "StatusChange",
      "type": "event"
    },
    {
      "inputs": [],
      "name": "APPROVER_ROLE",
      "outputs": [
        {
          "internalType": "bytes32",
          "name": "",
          "type": "bytes32"
        }
      ],
      "stateMutability": "view",
      "type": "function"
    },
    {
      "inputs": [],
      "name": "AUDITOR_ROLE",
      "outputs": [
        {
          "internalType": "bytes32",
          "name": "",
          "type": "bytes32"
        }
      ],
      "stateMutability": "view",
      "type": "function"
    },
    {
      "inputs": [],
      "name": "DEFAULT_ADMIN_ROLE",
      "outputs": [
        {
          "internalType": "bytes32",
          "name": "",
          "type": "bytes32"
        }
      ],
      "stateMutability": "view",
      "type": "function"
    },
    {
      "inputs": [],
      "name": "EXECUTOR_ROLE",
      "outputs": [
        {
          "internalType": "bytes32",
          "name": "",
          "type": "bytes32"
        }
      ],
      "stateMutability": "view",
      "type": "function"
    },
    {
      "inputs": [],
      "name": "FACTORY_ROLE",
      "outputs": [
        {
          "internalType": "bytes32",
          "name": "",
          "type": "bytes32"
        }
      ],
      "stateMutability": "view",
      "type": "function"
    },
    {
      "inputs": [],
      "name": "FINALIZER_ROLE",
      "outputs": [
        {
          "internalType": "bytes32",
          "name": "",
          "type": "bytes32"
        }
      ],
      "stateMutability": "view",
      "type": "function"
    },
    {
      "inputs": [],
      "name": "OWNER_ROLE",
      "outputs": [
        {
          "internalType": "bytes32",
          "name": "",
          "type": "bytes32"
        }
      ],
      "stateMutability": "view",
      "type": "function"
    },
    {
      "inputs": [
        {
          "internalType": "bytes32[2]",
          "name": "_check",
          "type": "bytes32[2]"
        }
      ],
      "name": "addCheck",
      "outputs": [
        {
          "internalType": "bool",
          "name": "",
          "type": "bool"
        }
      ],
      "stateMutability": "nonpayable",
      "type": "function"
    },
    {
      "inputs": [
        {
          "internalType": "address",
          "name": "_address",
          "type": "address"
        }
      ],
      "name": "addToken",
      "outputs": [
        {
          "internalType": "bool",
          "name": "",
          "type": "bool"
        }
      ],
      "stateMutability": "nonpayable",
      "type": "function"
    },
    {
      "inputs": [],
      "name": "allChecks",
      "outputs": [
        {
          "internalType": "bytes32[2][]",
          "name": "",
          "type": "bytes32[2][]"
        }
      ],
      "stateMutability": "view",
      "type": "function"
    },
    {
      "inputs": [
        {
          "internalType": "uint256",
          "name": "",
          "type": "uint256"
        },
        {
          "internalType": "uint256",
          "name": "",
          "type": "uint256"
        }
      ],
      "name": "checks",
      "outputs": [
        {
          "internalType": "bytes32",
          "name": "",
          "type": "bytes32"
        }
      ],
      "stateMutability": "view",
      "type": "function"
    },
    {
      "inputs": [],
      "name": "close",
      "outputs": [
        {
          "internalType": "bool",
          "name": "",
          "type": "bool"
        }
      ],
      "stateMutability": "nonpayable",
      "type": "function"
    },
    {
      "inputs": [],
      "name": "focus",
      "outputs": [
        {
          "internalType": "string",
          "name": "",
          "type": "string"
        }
      ],
      "stateMutability": "view",
      "type": "function"
    },
    {
      "inputs": [],
      "name": "getAllowedTokens",
      "outputs": [
        {
          "internalType": "address[]",
          "name": "",
          "type": "address[]"
        }
      ],
      "stateMutability": "view",
      "type": "function"
    },
    {
      "inputs": [
        {
          "internalType": "address",
          "name": "_tokenAddress",
          "type": "address"
        }
      ],
      "name": "getBalanceForToken",
      "outputs": [
        {
          "internalType": "uint256",
          "name": "",
          "type": "uint256"
        }
      ],
      "stateMutability": "view",
      "type": "function"
    },
    {
      "inputs": [],
      "name": "getBalances",
      "outputs": [
        {
          "internalType": "address[]",
          "name": "",
          "type": "address[]"
        },
        {
          "internalType": "uint256[]",
          "name": "",
          "type": "uint256[]"
        }
      ],
      "stateMutability": "view",
      "type": "function"
    },
    {
      "inputs": [
        {
          "internalType": "uint256",
          "name": "_index",
          "type": "uint256"
        }
      ],
      "name": "getCheck",
      "outputs": [
        {
          "internalType": "bytes32[2]",
          "name": "",
          "type": "bytes32[2]"
        }
      ],
      "stateMutability": "view",
      "type": "function"
    },
    {
      "inputs": [
        {
          "internalType": "address",
          "name": "_tokenAddress",
          "type": "address"
        }
      ],
      "name": "getDepositAddressFor",
      "outputs": [
        {
          "internalType": "address",
          "name": "",
          "type": "address"
        }
      ],
      "stateMutability": "view",
      "type": "function"
    },
    {
      "inputs": [],
      "name": "getDonatedTokens",
      "outputs": [
        {
          "internalType": "address[]",
          "name": "",
          "type": "address[]"
        }
      ],
      "stateMutability": "view",
      "type": "function"
    },
    {
      "inputs": [],
      "name": "getMeta",
      "outputs": [
        {
          "internalType": "string",
          "name": "",
          "type": "string"
        },
        {
          "internalType": "string",
          "name": "",
          "type": "string"
        }
      ],
      "stateMutability": "view",
      "type": "function"
    },
    {
      "inputs": [
        {
          "internalType": "bytes32",
          "name": "role",
          "type": "bytes32"
        }
      ],
      "name": "getRoleAdmin",
      "outputs": [
        {
          "internalType": "bytes32",
          "name": "",
          "type": "bytes32"
        }
      ],
      "stateMutability": "view",
      "type": "function"
    },
    {
      "inputs": [
        {
          "internalType": "bytes32",
          "name": "role",
          "type": "bytes32"
        },
        {
          "internalType": "uint256",
          "name": "index",
          "type": "uint256"
        }
      ],
      "name": "getRoleMember",
      "outputs": [
        {
          "internalType": "address",
          "name": "",
          "type": "address"
        }
      ],
      "stateMutability": "view",
      "type": "function"
    },
    {
      "inputs": [
        {
          "internalType": "bytes32",
          "name": "role",
          "type": "bytes32"
        }
      ],
      "name": "getRoleMemberCount",
      "outputs": [
        {
          "internalType": "uint256",
          "name": "",
          "type": "uint256"
        }
      ],
      "stateMutability": "view",
      "type": "function"
    },
    {
      "inputs": [
        {
          "internalType": "bytes32",
          "name": "role",
          "type": "bytes32"
        },
        {
          "internalType": "address",
          "name": "account",
          "type": "address"
        }
      ],
      "name": "grantRole",
      "outputs": [],
      "stateMutability": "nonpayable",
      "type": "function"
    },
    {
      "inputs": [
        {
          "internalType": "bytes32",
          "name": "role",
          "type": "bytes32"
        },
        {
          "internalType": "address",
          "name": "account",
          "type": "address"
        }
      ],
      "name": "hasRole",
      "outputs": [
        {
          "internalType": "bool",
          "name": "",
          "type": "bool"
        }
      ],
      "stateMutability": "view",
      "type": "function"
    },
    {
      "inputs": [
        {
          "internalType": "string",
          "name": "_name",
          "type": "string"
        },
        {
          "internalType": "string",
          "name": "_focus",
          "type": "string"
        },
        {
          "internalType": "address",
          "name": "_safeAddress",
          "type": "address"
        },
        {
          "internalType": "address",
          "name": "_owner",
          "type": "address"
        },
        {
          "internalType": "address[]",
          "name": "_allowedTokens",
          "type": "address[]"
        },
        {
          "internalType": "bool",
          "name": "_requestable",
          "type": "bool"
        },
        {
          "internalType": "bytes32[2][]",
          "name": "_checks",
          "type": "bytes32[2][]"
        },
        {
          "internalType": "address[]",
          "name": "_whitelist",
          "type": "address[]"
        },
        {
          "internalType": "address",
          "name": "_factory",
          "type": "address"
        }
      ],
      "name": "initialize",
      "outputs": [],
      "stateMutability": "nonpayable",
      "type": "function"
    },
    {
      "inputs": [],
      "name": "isOpen",
      "outputs": [
        {
          "internalType": "bool",
          "name": "",
          "type": "bool"
        }
      ],
      "stateMutability": "view",
      "type": "function"
    },
    {
      "inputs": [
        {
          "internalType": "address",
          "name": "_address",
          "type": "address"
        }
      ],
      "name": "isTokenAllowed",
      "outputs": [
        {
          "internalType": "bool",
          "name": "",
          "type": "bool"
        }
      ],
      "stateMutability": "view",
      "type": "function"
    },
    {
      "inputs": [
        {
          "internalType": "address",
          "name": "_address",
          "type": "address"
        }
      ],
      "name": "isWhitelisted",
      "outputs": [
        {
          "internalType": "bool",
          "name": "",
          "type": "bool"
        }
      ],
      "stateMutability": "view",
      "type": "function"
    },
    {
      "inputs": [],
      "name": "name",
      "outputs": [
        {
          "internalType": "string",
          "name": "",
          "type": "string"
        }
      ],
      "stateMutability": "view",
      "type": "function"
    },
    {
      "inputs": [],
      "name": "pause",
      "outputs": [
        {
          "internalType": "bool",
          "name": "",
          "type": "bool"
        }
      ],
      "stateMutability": "nonpayable",
      "type": "function"
    },
    {
      "inputs": [
        {
          "internalType": "uint256",
          "name": "_index",
          "type": "uint256"
        }
      ],
      "name": "removeCheck",
      "outputs": [
        {
          "internalType": "bool",
          "name": "",
          "type": "bool"
        }
      ],
      "stateMutability": "nonpayable",
      "type": "function"
    },
    {
      "inputs": [
        {
          "internalType": "address",
          "name": "_address",
          "type": "address"
        }
      ],
      "name": "removeToken",
      "outputs": [
        {
          "internalType": "bool",
          "name": "",
          "type": "bool"
        }
      ],
      "stateMutability": "nonpayable",
      "type": "function"
    },
    {
      "inputs": [
        {
          "internalType": "bytes32",
          "name": "role",
          "type": "bytes32"
        },
        {
          "internalType": "address",
          "name": "account",
          "type": "address"
        }
      ],
      "name": "renounceRole",
      "outputs": [],
      "stateMutability": "nonpayable",
      "type": "function"
    },
    {
      "inputs": [],
      "name": "requestable",
      "outputs": [
        {
          "internalType": "bool",
          "name": "",
          "type": "bool"
        }
      ],
      "stateMutability": "view",
      "type": "function"
    },
    {
      "inputs": [],
      "name": "resume",
      "outputs": [
        {
          "internalType": "bool",
          "name": "",
          "type": "bool"
        }
      ],
      "stateMutability": "nonpayable",
      "type": "function"
    },
    {
      "inputs": [
        {
          "internalType": "bytes32",
          "name": "role",
          "type": "bytes32"
        },
        {
          "internalType": "address",
          "name": "account",
          "type": "address"
        }
      ],
      "name": "revokeRole",
      "outputs": [],
      "stateMutability": "nonpayable",
      "type": "function"
    },
    {
      "inputs": [],
      "name": "status",
      "outputs": [
        {
          "internalType": "enum FundV1.Status",
          "name": "",
          "type": "uint8"
        }
      ],
      "stateMutability": "view",
      "type": "function"
    },
    {
      "inputs": [
        {
          "internalType": "bytes4",
          "name": "interfaceId",
          "type": "bytes4"
        }
      ],
      "name": "supportsInterface",
      "outputs": [
        {
          "internalType": "bool",
          "name": "",
          "type": "bool"
        }
      ],
      "stateMutability": "view",
      "type": "function"
    },
    {
      "inputs": [
        {
          "internalType": "address",
          "name": "_tokenAddress",
          "type": "address"
        },
        {
          "internalType": "uint256",
          "name": "_amount",
          "type": "uint256"
        }
      ],
      "name": "updateBalance",
      "outputs": [],
      "stateMutability": "nonpayable",
      "type": "function"
    }
  ],
  "transactionHash": "0x461bc660f279b22f26fb6c7467e9635505870dda5657ba464185f63d1e9bb5b6",
  "args": [],
  "numDeployments": 1,
  "solcInputHash": "f6cd8fdf77e9ee24ff95086f9565d816",
  "bytecode": "0x608060405234801561001057600080fd5b50612375806100206000396000f3fe608060405234801561001057600080fd5b50600436106102475760003560e01c806347535d7b1161013b578063a79af2ce116100b8578063d547741f1161007c578063d547741f1461057d578063e0b1cccb14610590578063e58378bb146105a3578063ec851afe146105b8578063f9eaee0d146105c057600080fd5b8063a79af2ce1461051a578063a8bd926f14610530578063b6e4908714610543578063ca15c87314610557578063d48bfca71461056a57600080fd5b80639010d07c116100ff5780639010d07c146104b957806391d14854146104cc57806393ddbd96146104df5780639db797f0146104f2578063a217fddf1461051257600080fd5b806347535d7b146104795780635fa7b584146104815780636e1d616e14610494578063805421ed146104a95780638456cb59146104b157600080fd5b8063240626d2116101c95780633af32abf1161018d5780633af32abf146103fd5780633b5862c1146104105780633df55efd146104235780634245962b1461044a57806343d726d61461047157600080fd5b8063240626d214610376578063248a9ca31461038b5780632f2ff15d146103ae57806332dcdf7a146103c157806336568abe146103ea57600080fd5b806304a0fb171161021057806304a0fb17146102c057806306fdde03146102f557806307bd02651461030a578063200d2ed214610331578063233fd7ed1461034b57600080fd5b8062113e081461024c578063015887d61461026b57806301ffc9a714610280578063024ece89146102a3578063046f7da2146102b8575b600080fd5b6102546105d3565b604051610262929190611b4b565b60405180910390f35b610273610764565b6040516102629190611ba2565b61029361028e366004611c0b565b6107e1565b6040519015158152602001610262565b6102ab61080c565b6040516102629190611c35565b61029361081d565b6102e77fdfbefbf47cfe66b701d8cfdbce1de81c821590819cb07e71cb01b6602fb0ee2781565b604051908152602001610262565b6102fd610880565b6040516102629190611ca0565b6102e77fd8aa0f3194971a2a116679f7c2090f6939c8d4e01a2a8d7e41d55e5351469e6381565b60045461033e9060ff1681565b6040516102629190611cc9565b61035e610359366004611d0d565b61090e565b6040516001600160a01b039091168152602001610262565b610389610384366004611f59565b6109a6565b005b6102e761039936600461206e565b60009081526020819052604090206001015490565b6103896103bc366004612087565b610c57565b6102e76103cf366004611d0d565b6001600160a01b031660009081526009602052604090205490565b6103896103f8366004612087565b610c82565b61029361040b366004611d0d565b610d00565b61029361041e36600461206e565b610d23565b6102e77f53ea8c2084bd069d8c2df22bdca7223415cd9c0b605c29d1a0d06f15fcd3eed481565b6102e77f408a36151f841709116a4e8aca4e0202874f7f54687dcb863b1ea4672dc9d8cf81565b610293610d77565b610293610dd4565b61029361048f366004611d0d565b610df4565b6102e760008051602061232083398151915281565b6102fd610e13565b610293610e20565b61035e6104c73660046120b3565b610e7c565b6102936104da366004612087565b610e94565b6102e76104ed3660046120b3565b610ebd565b61050561050036600461206e565b610ef2565b60405161026291906120d5565b6102e7600081565b610522610f50565b604051610262929190612106565b61029361053e366004612134565b611077565b60055461029390600160a01b900460ff1681565b6102e761056536600461206e565b6110df565b610293610578366004611d0d565b6110f6565b61038961058b366004612087565b61110e565b61038961059e366004612150565b611134565b6102e760008051602061230083398151915281565b6102ab6111fa565b6102936105ce366004611d0d565b61125c565b60608060006105e26002611269565b905060008167ffffffffffffffff8111156105ff576105ff611d28565b604051908082528060200260200182016040528015610628578160200160208202803683370190505b50905060008267ffffffffffffffff81111561064657610646611d28565b60405190808252806020026020018201604052801561066f578160200160208202803683370190505b50905060005b8381101561075957610688600282611273565b83828151811061069a5761069a61217a565b6001600160a01b03909216602092830291909101909101526106bd600282611273565b6005546040516370a0823160e01b81526001600160a01b0391821660048201529116906370a0823190602401602060405180830381865afa158015610706573d6000803e3d6000fd5b505050506040513d601f19601f8201168201806040525081019061072a9190612190565b82828151811061073c5761073c61217a565b602090810291909101015280610751816121bf565b915050610675565b509094909350915050565b6060600a805480602002602001604051908101604052809291908181526020016000905b828210156107d85760008481526020902060408051808201918290529160028581029091019182845b8154815260200190600101908083116107b157505050505081526020019060010190610788565b50505050905090565b60006001600160e01b03198216635a05180f60e01b148061080657506108068261127f565b92915050565b606061081860026112b4565b905090565b600060008051602061230083398151915261083881336112c1565b600160045460ff16600281111561085157610851611cb3565b1461086f57604051631eb49d6d60e11b815260040160405180910390fd5b6108796000611325565b91505b5090565b6006805461088d906121da565b80601f01602080910402602001604051908101604052809291908181526020018280546108b9906121da565b80156109065780601f106108db57610100808354040283529160200191610906565b820191906000526020600020905b8154815290600101906020018083116108e957829003601f168201915b505050505081565b60008060045460ff16600281111561092857610928611cb3565b1461094657604051631eb49d6d60e11b815260040160405180910390fd5b61094f8261125c565b61096c57604051631eb49d6d60e11b815260040160405180910390fd5b6005546001600160a01b031661099557604051631eb49d6d60e11b815260040160405180910390fd5b50506005546001600160a01b031690565b60045461010090046001600160a01b0316156109d557604051631dd2188d60e31b815260040160405180910390fd5b8315610a57576000835111610a575760405162461bcd60e51b815260206004820152603c60248201527f4120736574206f6620696e697469616c20636865636b7320617265207265717560448201527f6972656420666f722061207265717565737461626c652046756e642e0000000060648201526084015b60405180910390fd5b600082511180610a68575060008351115b15610aba5783610aba5760405162461bcd60e51b815260206004820181905260248201527f46756e64206d75737420626520736574206173207265717565737461626c652e6044820152606401610a4e565b60048054610100600160a81b0319166101006001600160a01b0384811682029290921792839055610b10927fdfbefbf47cfe66b701d8cfdbce1de81c821590819cb07e71cb01b6602fb0ee27929190041661138e565b610b1b60008761138e565b610b336000805160206123008339815191528761138e565b610b4b6000805160206123208339815191528761138e565b610b757f408a36151f841709116a4e8aca4e0202874f7f54687dcb863b1ea4672dc9d8cf8761138e565b610b9f7f53ea8c2084bd069d8c2df22bdca7223415cd9c0b605c29d1a0d06f15fcd3eed48761138e565b610bc97fd8aa0f3194971a2a116679f7c2090f6939c8d4e01a2a8d7e41d55e5351469e638761138e565b6005805460ff60a01b1916600160a01b861515021790558851610bf39060069060208c019061198c565b508751610c079060079060208b019061198c565b50600580546001600160a01b0319166001600160a01b0389161790556004805460ff19169055610c3683611398565b610c41600b836113ab565b610c4c6002866113ab565b505050505050505050565b600082815260208190526040902060010154610c7381336112c1565b610c7d83836113fd565b505050565b6001600160a01b0381163314610cf25760405162461bcd60e51b815260206004820152602f60248201527f416363657373436f6e74726f6c3a2063616e206f6e6c792072656e6f756e636560448201526e103937b632b9903337b91039b2b63360891b6064820152608401610a4e565b610cfc828261141f565b5050565b6000610d0c600b611269565b610d1857506001919050565b610806600b83611441565b6000600080516020612320833981519152610d3e81336112c1565b600a54600110610d6157604051631acfaa2560e21b815260040160405180910390fd5b610d6c600a84611463565b600191505b50919050565b6000600080516020612300833981519152610d9281336112c1565b600260045460ff166002811115610dab57610dab611cb3565b1415610dca57604051631eb49d6d60e11b815260040160405180910390fd5b6108796002611325565b60008060045460ff166002811115610dee57610dee611cb3565b14905090565b600080610e0181336112c1565b610e0c600284611517565b9392505050565b6007805461088d906121da565b6000600080516020612300833981519152610e3b81336112c1565b600060045460ff166002811115610e5457610e54611cb3565b14610e7257604051631eb49d6d60e11b815260040160405180910390fd5b6108796001611325565b6000828152600160205260408120610e0c9083611273565b6000918252602082815260408084206001600160a01b0393909316845291905290205460ff1690565b600a8281548110610ecd57600080fd5b90600052602060002090600202018160028110610ee957600080fd5b01549150829050565b610efa611a0c565b600a8281548110610f0d57610f0d61217a565b600091825260209091206040805180820191829052926002908102909201919082845b815481526020019060010190808311610f30575b50505050509050919050565b60608060066007818054610f63906121da565b80601f0160208091040260200160405190810160405280929190818152602001828054610f8f906121da565b8015610fdc5780601f10610fb157610100808354040283529160200191610fdc565b820191906000526020600020905b815481529060010190602001808311610fbf57829003601f168201915b50505050509150808054610fef906121da565b80601f016020809104026020016040519081016040528092919081815260200182805461101b906121da565b80156110685780601f1061103d57610100808354040283529160200191611068565b820191906000526020600020905b81548152906001019060200180831161104b57829003601f168201915b50505050509050915091509091565b600060008051602061232083398151915261109281336112c1565b600a80546001810182556000919091526110d59060029081027fc65a7bb8d6351c1cf70c95a316cc6a92839c986682d98bc35f958f4883f9d2a801908590611a2a565b5060019392505050565b600081815260016020526040812061080690611269565b60008061110381336112c1565b610e0c60028461152c565b60008281526020819052604090206001015461112a81336112c1565b610c7d838361141f565b7fdfbefbf47cfe66b701d8cfdbce1de81c821590819cb07e71cb01b6602fb0ee2761115f81336112c1565b6001600160a01b0383166000908152600960205260409020546111c857600880546001810182556000919091527ff3f7a9fe364faab93b216da50a3214154f22a0a2b415b23a84c8169e8b636ee30180546001600160a01b0319166001600160a01b0385161790555b6001600160a01b038316600090815260096020526040812080548492906111f090849061220f565b9091555050505050565b6060600880548060200260200160405190810160405280929190818152602001828054801561125257602002820191906000526020600020905b81546001600160a01b03168152600190910190602001808311611234575b5050505050905090565b6000610806600283611441565b6000610806825490565b6000610e0c8383611541565b60006001600160e01b03198216637965db0b60e01b148061080657506301ffc9a760e01b6001600160e01b0319831614610806565b60606000610e0c8361156b565b6112cb8282610e94565b610cfc576112e3816001600160a01b031660146115c5565b6112ee8360206115c5565b6040516020016112ff929190612227565b60408051601f198184030181529082905262461bcd60e51b8252610a4e91600401611ca0565b60048054600091839160ff1916600183600281111561134657611346611cb3565b021790555081600281111561135d5761135d611cb3565b6040517f4884fc8861710f82d3dd1858f3e1978853d51909a2e9a0efafe95d8cce5f3b9a90600090a2506001919050565b610cfc82826113fd565b8051610cfc90600a906020840190611a57565b805160005b818110156113f7576113e48382815181106113cd576113cd61217a565b60200260200101518561152c90919063ffffffff16565b50806113ef816121bf565b9150506113b0565b50505050565b6114078282611761565b6000828152600160205260409020610c7d908261152c565b61142982826117e5565b6000828152600160205260409020610c7d9082611517565b6001600160a01b03811660009081526001830160205260408120541515610e0c565b815461146e57600080fd5b815461147c9060019061229c565b81111561148857600080fd5b815482906114989060019061229c565b815481106114a8576114a861217a565b90600052602060002090600202018282815481106114c8576114c861217a565b90600052602060002090600202019060026114e4929190611aad565b50818054806114f5576114f56122b3565b6000828152602081206002600019909301928302018181556001015590555050565b6000610e0c836001600160a01b03841661184a565b6000610e0c836001600160a01b03841661193d565b60008260000182815481106115585761155861217a565b9060005260206000200154905092915050565b606081600001805480602002602001604051908101604052809291908181526020018280548015610f445760200282019190600052602060002090815481526020019060010190808311610f305750505050509050919050565b606060006115d48360026122c9565b6115df90600261220f565b67ffffffffffffffff8111156115f7576115f7611d28565b6040519080825280601f01601f191660200182016040528015611621576020820181803683370190505b509050600360fc1b8160008151811061163c5761163c61217a565b60200101906001600160f81b031916908160001a905350600f60fb1b8160018151811061166b5761166b61217a565b60200101906001600160f81b031916908160001a905350600061168f8460026122c9565b61169a90600161220f565b90505b6001811115611712576f181899199a1a9b1b9c1cb0b131b232b360811b85600f16601081106116ce576116ce61217a565b1a60f81b8282815181106116e4576116e461217a565b60200101906001600160f81b031916908160001a90535060049490941c9361170b816122e8565b905061169d565b508315610e0c5760405162461bcd60e51b815260206004820181905260248201527f537472696e67733a20686578206c656e67746820696e73756666696369656e746044820152606401610a4e565b61176b8282610e94565b610cfc576000828152602081815260408083206001600160a01b03851684529091529020805460ff191660011790556117a13390565b6001600160a01b0316816001600160a01b0316837f2f8788117e7eff1d82e926ec794901d17c78024a50270940304540a733656f0d60405160405180910390a45050565b6117ef8282610e94565b15610cfc576000828152602081815260408083206001600160a01b0385168085529252808320805460ff1916905551339285917ff6391f5c32d9c69d2a47ea670b442974b53935d1edc7fd64eb21e047a839171b9190a45050565b6000818152600183016020526040812054801561193357600061186e60018361229c565b85549091506000906118829060019061229c565b90508181146118e75760008660000182815481106118a2576118a261217a565b90600052602060002001549050808760000184815481106118c5576118c561217a565b6000918252602080832090910192909255918252600188019052604090208390555b85548690806118f8576118f86122b3565b600190038181906000526020600020016000905590558560010160008681526020019081526020016000206000905560019350505050610806565b6000915050610806565b600081815260018301602052604081205461198457508154600181810184556000848152602080822090930184905584548482528286019093526040902091909155610806565b506000610806565b828054611998906121da565b90600052602060002090601f0160209004810192826119ba5760008555611a00565b82601f106119d357805160ff1916838001178555611a00565b82800160010185558215611a00579182015b82811115611a005782518255916020019190600101906119e5565b5061087c929150611ad8565b60405180604001604052806002906020820280368337509192915050565b8260028101928215611a005791602002820182811115611a005782518255916020019190600101906119e5565b828054828255906000526020600020906002028101928215611aa1579160200282015b82811115611aa1578251611a919083906002611a2a565b5091602001919060020190611a7a565b5061087c929150611aed565b8260028101928215611a00579182015b82811115611a00578254825591600101919060010190611abd565b5b8082111561087c5760008155600101611ad9565b8082111561087c5760008082556001820155600201611aed565b600081518084526020808501945080840160005b83811015611b405781516001600160a01b031687529582019590820190600101611b1b565b509495945050505050565b604081526000611b5e6040830185611b07565b82810360208481019190915284518083528582019282019060005b81811015611b9557845183529383019391830191600101611b79565b5090979650505050505050565b60208082528251828201819052600091906040908185019086840185805b83811015611bfd57825185835b6002811015611bea57825182529189019190890190600101611bcd565b5050509385019391860191600101611bc0565b509298975050505050505050565b600060208284031215611c1d57600080fd5b81356001600160e01b031981168114610e0c57600080fd5b602081526000610e0c6020830184611b07565b60005b83811015611c63578181015183820152602001611c4b565b838111156113f75750506000910152565b60008151808452611c8c816020860160208601611c48565b601f01601f19169290920160200192915050565b602081526000610e0c6020830184611c74565b634e487b7160e01b600052602160045260246000fd5b6020810160038310611ceb57634e487b7160e01b600052602160045260246000fd5b91905290565b80356001600160a01b0381168114611d0857600080fd5b919050565b600060208284031215611d1f57600080fd5b610e0c82611cf1565b634e487b7160e01b600052604160045260246000fd5b604051601f8201601f1916810167ffffffffffffffff81118282101715611d6757611d67611d28565b604052919050565b600082601f830112611d8057600080fd5b813567ffffffffffffffff811115611d9a57611d9a611d28565b611dad601f8201601f1916602001611d3e565b818152846020838601011115611dc257600080fd5b816020850160208301376000918101602001919091529392505050565b600067ffffffffffffffff821115611df957611df9611d28565b5060051b60200190565b600082601f830112611e1457600080fd5b81356020611e29611e2483611ddf565b611d3e565b82815260059290921b84018101918181019086841115611e4857600080fd5b8286015b84811015611e6a57611e5d81611cf1565b8352918301918301611e4c565b509695505050505050565b80358015158114611d0857600080fd5b600082601f830112611e9657600080fd5b6040516040810181811067ffffffffffffffff82111715611eb957611eb9611d28565b8060405250806040840185811115611ed057600080fd5b845b81811015611eea578035835260209283019201611ed2565b509195945050505050565b600082601f830112611f0657600080fd5b81356020611f16611e2483611ddf565b82815260069290921b84018101918181019086841115611f3557600080fd5b8286015b84811015611e6a57611f4b8882611e85565b835291830191604001611f39565b60008060008060008060008060006101208a8c031215611f7857600080fd5b893567ffffffffffffffff80821115611f9057600080fd5b611f9c8d838e01611d6f565b9a5060208c0135915080821115611fb257600080fd5b611fbe8d838e01611d6f565b9950611fcc60408d01611cf1565b9850611fda60608d01611cf1565b975060808c0135915080821115611ff057600080fd5b611ffc8d838e01611e03565b965061200a60a08d01611e75565b955060c08c013591508082111561202057600080fd5b61202c8d838e01611ef5565b945060e08c013591508082111561204257600080fd5b5061204f8c828d01611e03565b92505061205f6101008b01611cf1565b90509295985092959850929598565b60006020828403121561208057600080fd5b5035919050565b6000806040838503121561209a57600080fd5b823591506120aa60208401611cf1565b90509250929050565b600080604083850312156120c657600080fd5b50508035926020909101359150565b60408101818360005b60028110156120fd5781518352602092830192909101906001016120de565b50505092915050565b6040815260006121196040830185611c74565b828103602084015261212b8185611c74565b95945050505050565b60006040828403121561214657600080fd5b610e0c8383611e85565b6000806040838503121561216357600080fd5b61216c83611cf1565b946020939093013593505050565b634e487b7160e01b600052603260045260246000fd5b6000602082840312156121a257600080fd5b5051919050565b634e487b7160e01b600052601160045260246000fd5b60006000198214156121d3576121d36121a9565b5060010190565b600181811c908216806121ee57607f821691505b60208210811415610d7157634e487b7160e01b600052602260045260246000fd5b60008219821115612222576122226121a9565b500190565b7f416363657373436f6e74726f6c3a206163636f756e742000000000000000000081526000835161225f816017850160208801611c48565b7001034b99036b4b9b9b4b733903937b6329607d1b6017918401918201528351612290816028840160208801611c48565b01602801949350505050565b6000828210156122ae576122ae6121a9565b500390565b634e487b7160e01b600052603160045260246000fd5b60008160001904831182151516156122e3576122e36121a9565b500290565b6000816122f7576122f76121a9565b50600019019056feb19546dff01e856fb3f010c267a7b1c60363cf8a4664e21cc89c26224620214e59a1c48e5837ad7a7f3dcedcbe129bf3249ec4fbf651fd4f5e2600ead39fe2f5a26469706673582212200868bf2484bc6fabd6502ff88c8d3d0c036ff33cc3054f3e84387a3624d3b03e64736f6c634300080a0033",
  "devdoc": {
    "kind": "dev",
    "methods": {
      "addToken(address)": {
        "details": "add a token to the list of allowed tokens",
        "params": {
          "_address": "tracker address of the token"
        },
        "returns": {
          "_0": "boolean indicating result of the operation"
        }
      },
      "close()": {
        "details": "close fund",
        "returns": {
          "_0": "boolean indicating result of the operation"
        }
      },
      "getAllowedTokens()": {
        "details": "list of allowed token contract addresses",
        "returns": {
          "_0": "return a list of allowed token contract addresses"
        }
      },
      "getBalanceForToken(address)": {
        "details": "get fund total balances",
        "returns": {
          "_0": "uint256 balance of the given token"
        }
      },
      "getBalances()": {
        "details": "get fund safe balances",
        "returns": {
          "_0": "tuple of (tokenAddress[], balance[])"
        }
      },
      "getDepositAddressFor(address)": {
        "details": "get deposit address for a token",
        "params": {
          "_tokenAddress": "tracker address of the token to deposit (must be an allowed token)"
        },
        "returns": {
          "_0": "deposit address for a token"
        }
      },
      "getDonatedTokens()": {
        "details": "get fund total balances",
        "returns": {
          "_0": "array of tokenAddress[]"
        }
      },
      "getMeta()": {
        "details": "get metadata for a fund",
        "returns": {
          "_0": "metadata of the fund"
        }
      },
      "getRoleAdmin(bytes32)": {
        "details": "Returns the admin role that controls `role`. See {grantRole} and {revokeRole}. To change a role's admin, use {_setRoleAdmin}."
      },
      "getRoleMember(bytes32,uint256)": {
        "details": "Returns one of the accounts that have `role`. `index` must be a value between 0 and {getRoleMemberCount}, non-inclusive. Role bearers are not sorted in any particular way, and their ordering may change at any point. WARNING: When using {getRoleMember} and {getRoleMemberCount}, make sure you perform all queries on the same block. See the following https://forum.openzeppelin.com/t/iterating-over-elements-on-enumerableset-in-openzeppelin-contracts/2296[forum post] for more information."
      },
      "getRoleMemberCount(bytes32)": {
        "details": "Returns the number of accounts that have `role`. Can be used together with {getRoleMember} to enumerate all bearers of a role."
      },
      "grantRole(bytes32,address)": {
        "details": "Grants `role` to `account`. If `account` had not been already granted `role`, emits a {RoleGranted} event. Requirements: - the caller must have ``role``'s admin role."
      },
      "hasRole(bytes32,address)": {
        "details": "Returns `true` if `account` has been granted `role`."
      },
      "isOpen()": {
        "details": "check if a fund is open for donations",
        "returns": {
          "_0": "boolean indicating status"
        }
      },
      "isTokenAllowed(address)": {
        "details": "add a token to the list of allowed tokens",
        "params": {
          "_address": "tracker address of the token"
        },
        "returns": {
          "_0": "boolean indicating if a token is allowed for deposit"
        }
      },
      "isWhitelisted(address)": {
        "details": "check if address is whitelisted",
        "returns": {
          "_0": "boolean indicating status"
        }
      },
      "pause()": {
        "details": "pause fund",
        "returns": {
          "_0": "boolean indicating result of the operation"
        }
      },
      "removeToken(address)": {
        "details": "remove a token from the list of allowed tokens",
        "params": {
          "_address": "tracker address of the token"
        },
        "returns": {
          "_0": "boolean indicating result of the operation"
        }
      },
      "renounceRole(bytes32,address)": {
        "details": "Revokes `role` from the calling account. Roles are often managed via {grantRole} and {revokeRole}: this function's purpose is to provide a mechanism for accounts to lose their privileges if they are compromised (such as when a trusted device is misplaced). If the calling account had been revoked `role`, emits a {RoleRevoked} event. Requirements: - the caller must be `account`."
      },
      "resume()": {
        "details": "resume fund",
        "returns": {
          "_0": "boolean indicating result of the operation"
        }
      },
      "revokeRole(bytes32,address)": {
        "details": "Revokes `role` from `account`. If `account` had been granted `role`, emits a {RoleRevoked} event. Requirements: - the caller must have ``role``'s admin role."
      },
      "supportsInterface(bytes4)": {
        "details": "See {IERC165-supportsInterface}."
      },
      "updateBalance(address,uint256)": {
        "details": "called from Donation.sol and updates total balance for the given token address"
      }
    },
    "version": 1
  },
  "userdoc": {
    "kind": "user",
    "methods": {
      "close()": {
        "notice": "this is final, a closed fund cannot be reopened"
      }
    },
    "version": 1
  },
  "storageLayout": {
    "storage": [
      {
        "astId": 4975,
        "contract": "contracts/FundV1.sol:FundV1",
        "label": "_roles",
        "offset": 0,
        "slot": "0",
        "type": "t_mapping(t_bytes32,t_struct(RoleData)4970_storage)"
      },
      {
        "astId": 5278,
        "contract": "contracts/FundV1.sol:FundV1",
        "label": "_roleMembers",
        "offset": 0,
        "slot": "1",
        "type": "t_mapping(t_bytes32,t_struct(AddressSet)9967_storage)"
      },
      {
        "astId": 13916,
        "contract": "contracts/FundV1.sol:FundV1",
        "label": "allowedTokens",
        "offset": 0,
        "slot": "2",
        "type": "t_struct(AddressSet)9967_storage"
      },
      {
        "astId": 11336,
        "contract": "contracts/FundV1.sol:FundV1",
        "label": "status",
        "offset": 0,
        "slot": "4",
        "type": "t_enum(Status)11365"
      },
      {
        "astId": 11338,
        "contract": "contracts/FundV1.sol:FundV1",
        "label": "factory",
        "offset": 1,
        "slot": "4",
        "type": "t_address"
      },
      {
        "astId": 11340,
        "contract": "contracts/FundV1.sol:FundV1",
        "label": "safeAddress",
        "offset": 0,
        "slot": "5",
        "type": "t_address"
      },
      {
        "astId": 11342,
        "contract": "contracts/FundV1.sol:FundV1",
        "label": "requestable",
        "offset": 20,
        "slot": "5",
        "type": "t_bool"
      },
      {
        "astId": 11344,
        "contract": "contracts/FundV1.sol:FundV1",
        "label": "name",
        "offset": 0,
        "slot": "6",
        "type": "t_string_storage"
      },
      {
        "astId": 11346,
        "contract": "contracts/FundV1.sol:FundV1",
        "label": "focus",
        "offset": 0,
        "slot": "7",
        "type": "t_string_storage"
      },
      {
        "astId": 11349,
        "contract": "contracts/FundV1.sol:FundV1",
        "label": "donatedTokens",
        "offset": 0,
        "slot": "8",
        "type": "t_array(t_address)dyn_storage"
      },
      {
        "astId": 11353,
        "contract": "contracts/FundV1.sol:FundV1",
        "label": "balancesMap",
        "offset": 0,
        "slot": "9",
        "type": "t_mapping(t_address,t_uint256)"
      },
      {
        "astId": 11358,
        "contract": "contracts/FundV1.sol:FundV1",
        "label": "checks",
        "offset": 0,
        "slot": "10",
        "type": "t_array(t_array(t_bytes32)2_storage)dyn_storage"
      },
      {
        "astId": 11361,
        "contract": "contracts/FundV1.sol:FundV1",
        "label": "whitelist",
        "offset": 0,
        "slot": "11",
        "type": "t_struct(AddressSet)9967_storage"
      }
    ],
    "types": {
      "t_address": {
        "encoding": "inplace",
        "label": "address",
        "numberOfBytes": "20"
      },
      "t_array(t_address)dyn_storage": {
        "base": "t_address",
        "encoding": "dynamic_array",
        "label": "address[]",
        "numberOfBytes": "32"
      },
      "t_array(t_array(t_bytes32)2_storage)dyn_storage": {
        "base": "t_array(t_bytes32)2_storage",
        "encoding": "dynamic_array",
        "label": "bytes32[2][]",
        "numberOfBytes": "32"
      },
      "t_array(t_bytes32)2_storage": {
        "base": "t_bytes32",
        "encoding": "inplace",
        "label": "bytes32[2]",
        "numberOfBytes": "64"
      },
      "t_array(t_bytes32)dyn_storage": {
        "base": "t_bytes32",
        "encoding": "dynamic_array",
        "label": "bytes32[]",
        "numberOfBytes": "32"
      },
      "t_bool": {
        "encoding": "inplace",
        "label": "bool",
        "numberOfBytes": "1"
      },
      "t_bytes32": {
        "encoding": "inplace",
        "label": "bytes32",
        "numberOfBytes": "32"
      },
      "t_enum(Status)11365": {
        "encoding": "inplace",
        "label": "enum FundV1.Status",
        "numberOfBytes": "1"
      },
      "t_mapping(t_address,t_bool)": {
        "encoding": "mapping",
        "key": "t_address",
        "label": "mapping(address => bool)",
        "numberOfBytes": "32",
        "value": "t_bool"
      },
      "t_mapping(t_address,t_uint256)": {
        "encoding": "mapping",
        "key": "t_address",
        "label": "mapping(address => uint256)",
        "numberOfBytes": "32",
        "value": "t_uint256"
      },
      "t_mapping(t_bytes32,t_struct(AddressSet)9967_storage)": {
        "encoding": "mapping",
        "key": "t_bytes32",
        "label": "mapping(bytes32 => struct EnumerableSet.AddressSet)",
        "numberOfBytes": "32",
        "value": "t_struct(AddressSet)9967_storage"
      },
      "t_mapping(t_bytes32,t_struct(RoleData)4970_storage)": {
        "encoding": "mapping",
        "key": "t_bytes32",
        "label": "mapping(bytes32 => struct AccessControl.RoleData)",
        "numberOfBytes": "32",
        "value": "t_struct(RoleData)4970_storage"
      },
      "t_mapping(t_bytes32,t_uint256)": {
        "encoding": "mapping",
        "key": "t_bytes32",
        "label": "mapping(bytes32 => uint256)",
        "numberOfBytes": "32",
        "value": "t_uint256"
      },
      "t_string_storage": {
        "encoding": "bytes",
        "label": "string",
        "numberOfBytes": "32"
      },
      "t_struct(AddressSet)9967_storage": {
        "encoding": "inplace",
        "label": "struct EnumerableSet.AddressSet",
        "members": [
          {
            "astId": 9966,
            "contract": "contracts/FundV1.sol:FundV1",
            "label": "_inner",
            "offset": 0,
            "slot": "0",
            "type": "t_struct(Set)9666_storage"
          }
        ],
        "numberOfBytes": "64"
      },
      "t_struct(RoleData)4970_storage": {
        "encoding": "inplace",
        "label": "struct AccessControl.RoleData",
        "members": [
          {
            "astId": 4967,
            "contract": "contracts/FundV1.sol:FundV1",
            "label": "members",
            "offset": 0,
            "slot": "0",
            "type": "t_mapping(t_address,t_bool)"
          },
          {
            "astId": 4969,
            "contract": "contracts/FundV1.sol:FundV1",
            "label": "adminRole",
            "offset": 0,
            "slot": "1",
            "type": "t_bytes32"
          }
        ],
        "numberOfBytes": "64"
      },
      "t_struct(Set)9666_storage": {
        "encoding": "inplace",
        "label": "struct EnumerableSet.Set",
        "members": [
          {
            "astId": 9661,
            "contract": "contracts/FundV1.sol:FundV1",
            "label": "_values",
            "offset": 0,
            "slot": "0",
            "type": "t_array(t_bytes32)dyn_storage"
          },
          {
            "astId": 9665,
            "contract": "contracts/FundV1.sol:FundV1",
            "label": "_indexes",
            "offset": 0,
            "slot": "1",
            "type": "t_mapping(t_bytes32,t_uint256)"
          }
        ],
        "numberOfBytes": "64"
      },
      "t_uint256": {
        "encoding": "inplace",
        "label": "uint256",
        "numberOfBytes": "32"
      }
    }
  }
}