{
  "address": "0x9A9f2CCfdE556A7E9Ff0848998Aa4a0CFD8863AE",
  "abi": [
    {
      "inputs": [],
      "name": "Forbidden",
      "type": "error"
    },
    {
      "inputs": [],
      "name": "NotAllowed",
      "type": "error"
    },
    {
      "inputs": [],
      "name": "TokenNotAllowed",
      "type": "error"
    },
    {
      "anonymous": false,
      "inputs": [
        {
          "indexed": true,
          "internalType": "bytes32",
          "name": "role",
          "type": "bytes32"
        },
        {
          "indexed": true,
          "internalType": "bytes32",
          "name": "previousAdminRole",
          "type": "bytes32"
        },
        {
          "indexed": true,
          "internalType": "bytes32",
          "name": "newAdminRole",
          "type": "bytes32"
        }
      ],
      "name": "RoleAdminChanged",
      "type": "event"
    },
    {
      "anonymous": false,
      "inputs": [
        {
          "indexed": true,
          "internalType": "bytes32",
          "name": "role",
          "type": "bytes32"
        },
        {
          "indexed": true,
          "internalType": "address",
          "name": "account",
          "type": "address"
        },
        {
          "indexed": true,
          "internalType": "address",
          "name": "sender",
          "type": "address"
        }
      ],
      "name": "RoleGranted",
      "type": "event"
    },
    {
      "anonymous": false,
      "inputs": [
        {
          "indexed": true,
          "internalType": "bytes32",
          "name": "role",
          "type": "bytes32"
        },
        {
          "indexed": true,
          "internalType": "address",
          "name": "account",
          "type": "address"
        },
        {
          "indexed": true,
          "internalType": "address",
          "name": "sender",
          "type": "address"
        }
      ],
      "name": "RoleRevoked",
      "type": "event"
    },
    {
      "inputs": [],
      "name": "DEFAULT_ADMIN_ROLE",
      "outputs": [
        {
          "internalType": "bytes32",
          "name": "",
          "type": "bytes32"
        }
      ],
      "stateMutability": "view",
      "type": "function"
    },
    {
      "inputs": [
        {
          "internalType": "address",
          "name": "_address",
          "type": "address"
        }
      ],
      "name": "addToken",
      "outputs": [
        {
          "internalType": "bool",
          "name": "",
          "type": "bool"
        }
      ],
      "stateMutability": "nonpayable",
      "type": "function"
    },
    {
      "inputs": [],
      "name": "close",
      "outputs": [
        {
          "internalType": "bool",
          "name": "",
          "type": "bool"
        }
      ],
      "stateMutability": "nonpayable",
      "type": "function"
    },
    {
      "inputs": [],
      "name": "description",
      "outputs": [
        {
          "internalType": "string",
          "name": "",
          "type": "string"
        }
      ],
      "stateMutability": "view",
      "type": "function"
    },
    {
      "inputs": [],
      "name": "focus",
      "outputs": [
        {
          "internalType": "string",
          "name": "",
          "type": "string"
        }
      ],
      "stateMutability": "view",
      "type": "function"
    },
    {
      "inputs": [],
      "name": "getAllowedTokens",
      "outputs": [
        {
          "internalType": "address[]",
          "name": "",
          "type": "address[]"
        }
      ],
      "stateMutability": "view",
      "type": "function"
    },
    {
      "inputs": [
        {
          "internalType": "address",
          "name": "_tokenAddress",
          "type": "address"
        }
      ],
      "name": "getDepositAddressFor",
      "outputs": [
        {
          "internalType": "address",
          "name": "",
          "type": "address"
        }
      ],
      "stateMutability": "view",
      "type": "function"
    },
    {
      "inputs": [],
      "name": "getMeta",
      "outputs": [
        {
          "internalType": "string",
          "name": "",
          "type": "string"
        },
        {
          "internalType": "string",
          "name": "",
          "type": "string"
        }
      ],
      "stateMutability": "view",
      "type": "function"
    },
    {
      "inputs": [
        {
          "internalType": "bytes32",
          "name": "role",
          "type": "bytes32"
        }
      ],
      "name": "getRoleAdmin",
      "outputs": [
        {
          "internalType": "bytes32",
          "name": "",
          "type": "bytes32"
        }
      ],
      "stateMutability": "view",
      "type": "function"
    },
    {
      "inputs": [
        {
          "internalType": "bytes32",
          "name": "role",
          "type": "bytes32"
        },
        {
          "internalType": "address",
          "name": "account",
          "type": "address"
        }
      ],
      "name": "grantRole",
      "outputs": [],
      "stateMutability": "nonpayable",
      "type": "function"
    },
    {
      "inputs": [
        {
          "internalType": "bytes32",
          "name": "role",
          "type": "bytes32"
        },
        {
          "internalType": "address",
          "name": "account",
          "type": "address"
        }
      ],
      "name": "hasRole",
      "outputs": [
        {
          "internalType": "bool",
          "name": "",
          "type": "bool"
        }
      ],
      "stateMutability": "view",
      "type": "function"
    },
    {
      "inputs": [],
      "name": "id",
      "outputs": [
        {
          "internalType": "uint256",
          "name": "",
          "type": "uint256"
        }
      ],
      "stateMutability": "view",
      "type": "function"
    },
    {
      "inputs": [
        {
          "internalType": "uint256",
          "name": "_id",
          "type": "uint256"
        },
        {
          "internalType": "string",
          "name": "_name",
          "type": "string"
        },
        {
          "internalType": "string",
          "name": "_focus",
          "type": "string"
        },
        {
          "internalType": "string",
          "name": "_description",
          "type": "string"
        },
        {
          "internalType": "address[]",
          "name": "_allowedTokens",
          "type": "address[]"
        },
        {
          "internalType": "address",
          "name": "_safeAddress",
          "type": "address"
        },
        {
          "internalType": "address",
          "name": "_owner",
          "type": "address"
        }
      ],
      "name": "initialize",
      "outputs": [],
      "stateMutability": "nonpayable",
      "type": "function"
    },
    {
      "inputs": [],
      "name": "isOpen",
      "outputs": [
        {
          "internalType": "bool",
          "name": "",
          "type": "bool"
        }
      ],
      "stateMutability": "view",
      "type": "function"
    },
    {
      "inputs": [
        {
          "internalType": "address",
          "name": "_address",
          "type": "address"
        }
      ],
      "name": "isTokenAllowed",
      "outputs": [
        {
          "internalType": "bool",
          "name": "",
          "type": "bool"
        }
      ],
      "stateMutability": "view",
      "type": "function"
    },
    {
      "inputs": [],
      "name": "name",
      "outputs": [
        {
          "internalType": "string",
          "name": "",
          "type": "string"
        }
      ],
      "stateMutability": "view",
      "type": "function"
    },
    {
      "inputs": [],
      "name": "pause",
      "outputs": [
        {
          "internalType": "bool",
          "name": "",
          "type": "bool"
        }
      ],
      "stateMutability": "nonpayable",
      "type": "function"
    },
    {
      "inputs": [
        {
          "internalType": "address",
          "name": "_address",
          "type": "address"
        }
      ],
      "name": "removeToken",
      "outputs": [
        {
          "internalType": "bool",
          "name": "",
          "type": "bool"
        }
      ],
      "stateMutability": "nonpayable",
      "type": "function"
    },
    {
      "inputs": [
        {
          "internalType": "bytes32",
          "name": "role",
          "type": "bytes32"
        },
        {
          "internalType": "address",
          "name": "account",
          "type": "address"
        }
      ],
      "name": "renounceRole",
      "outputs": [],
      "stateMutability": "nonpayable",
      "type": "function"
    },
    {
      "inputs": [],
      "name": "resume",
      "outputs": [
        {
          "internalType": "bool",
          "name": "",
          "type": "bool"
        }
      ],
      "stateMutability": "nonpayable",
      "type": "function"
    },
    {
      "inputs": [
        {
          "internalType": "bytes32",
          "name": "role",
          "type": "bytes32"
        },
        {
          "internalType": "address",
          "name": "account",
          "type": "address"
        }
      ],
      "name": "revokeRole",
      "outputs": [],
      "stateMutability": "nonpayable",
      "type": "function"
    },
    {
      "inputs": [],
      "name": "status",
      "outputs": [
        {
          "internalType": "enum Status",
          "name": "",
          "type": "uint8"
        }
      ],
      "stateMutability": "view",
      "type": "function"
    },
    {
      "inputs": [
        {
          "internalType": "bytes4",
          "name": "interfaceId",
          "type": "bytes4"
        }
      ],
      "name": "supportsInterface",
      "outputs": [
        {
          "internalType": "bool",
          "name": "",
          "type": "bool"
        }
      ],
      "stateMutability": "view",
      "type": "function"
    }
  ],
  "transactionHash": "0xc8e2f844705213aedaff07f2ef4639f84f8e5da5e450739ccfc139655d510a40",
  "args": [],
  "numDeployments": 1,
  "solcInputHash": "8e741a5d54aa5c6f7c82afbe995ed909",
  "bytecode": "0x608060405234801561001057600080fd5b50612468806100206000396000f3fe608060405234801561001057600080fd5b506004361061014d5760003560e01c806347535d7b116100c3578063a217fddf1161007c578063a217fddf146103a4578063a79af2ce146103c2578063af640d0f146103e1578063d48bfca7146103ff578063d547741f1461042f578063f9eaee0d1461044b5761014d565b806347535d7b146102cc5780635fa7b584146102ea5780637284e4161461031a578063805421ed146103385780638456cb591461035657806391d14854146103745761014d565b8063233fd7ed11610115578063233fd7ed146101fa578063248a9ca31461022a5780632ba3c4d21461025a5780632f2ff15d1461027657806336568abe1461029257806343d726d6146102ae5761014d565b806301ffc9a714610152578063024ece8914610182578063046f7da2146101a057806306fdde03146101be578063200d2ed2146101dc575b600080fd5b61016c60048036038101906101679190611829565b61047b565b6040516101799190611871565b60405180910390f35b61018a6104f5565b604051610197919061197c565b60405180910390f35b6101a8610506565b6040516101b59190611871565b60405180910390f35b6101c661059a565b6040516101d39190611a37565b60405180910390f35b6101e4610628565b6040516101f19190611ad0565b60405180910390f35b610214600480360381019061020f9190611b17565b61063b565b6040516102219190611b53565b60405180910390f35b610244600480360381019061023f9190611ba4565b61079b565b6040516102519190611be0565b60405180910390f35b610274600480360381019061026f9190611e2e565b6107ba565b005b610290600480360381019061028b9190611f40565b6109a0565b005b6102ac60048036038101906102a79190611f40565b6109c9565b005b6102b6610a4c565b6040516102c39190611871565b60405180910390f35b6102d4610ae0565b6040516102e19190611871565b60405180910390f35b61030460048036038101906102ff9190611b17565b610b1d565b6040516103119190611871565b60405180910390f35b610322610b50565b60405161032f9190611a37565b60405180910390f35b610340610bde565b60405161034d9190611a37565b60405180910390f35b61035e610c6c565b60405161036b9190611871565b60405180910390f35b61038e60048036038101906103899190611f40565b610d00565b60405161039b9190611871565b60405180910390f35b6103ac610d6a565b6040516103b99190611be0565b60405180910390f35b6103ca610d71565b6040516103d8929190611f80565b60405180910390f35b6103e9610e98565b6040516103f69190611fc6565b60405180910390f35b61041960048036038101906104149190611b17565b610e9e565b6040516104269190611871565b60405180910390f35b61044960048036038101906104449190611f40565b610ed1565b005b61046560048036038101906104609190611b17565b610efa565b6040516104729190611871565b60405180910390f35b60007f7965db0b000000000000000000000000000000000000000000000000000000007bffffffffffffffffffffffffffffffffffffffffffffffffffffffff1916827bffffffffffffffffffffffffffffffffffffffffffffffffffffffff191614806104ee57506104ed82610f17565b5b9050919050565b60606105016001610f81565b905090565b60008060001b61051d81610518610fa2565b610faa565b6001600281111561053157610530611a59565b5b600760009054906101000a900460ff16600281111561055357610552611a59565b5b1461058a576040517f3d693ada00000000000000000000000000000000000000000000000000000000815260040160405180910390fd5b6105946000611047565b91505090565b600480546105a790612010565b80601f01602080910402602001604051908101604052809291908181526020018280546105d390612010565b80156106205780601f106105f557610100808354040283529160200191610620565b820191906000526020600020905b81548152906001019060200180831161060357829003601f168201915b505050505081565b600760009054906101000a900460ff1681565b60008060028111156106505761064f611a59565b5b600760009054906101000a900460ff16600281111561067257610671611a59565b5b146106a9576040517f3d693ada00000000000000000000000000000000000000000000000000000000815260040160405180910390fd5b6106b282610efa565b6106e8576040517f3d693ada00000000000000000000000000000000000000000000000000000000815260040160405180910390fd5b600073ffffffffffffffffffffffffffffffffffffffff16600860009054906101000a900473ffffffffffffffffffffffffffffffffffffffff1673ffffffffffffffffffffffffffffffffffffffff161415610771576040517f3d693ada00000000000000000000000000000000000000000000000000000000815260040160405180910390fd5b600860009054906101000a900473ffffffffffffffffffffffffffffffffffffffff169050919050565b6000806000838152602001908152602001600020600101549050919050565b600073ffffffffffffffffffffffffffffffffffffffff16600760019054906101000a900473ffffffffffffffffffffffffffffffffffffffff1673ffffffffffffffffffffffffffffffffffffffff1614610842576040517fee90c46800000000000000000000000000000000000000000000000000000000815260040160405180910390fd5b61084f6000801b8261107c565b8660038190555033600760016101000a81548173ffffffffffffffffffffffffffffffffffffffff021916908373ffffffffffffffffffffffffffffffffffffffff16021790555085600490805190602001906108ad92919061171a565b5084600590805190602001906108c492919061171a565b5083600690805190602001906108db92919061171a565b5081600860006101000a81548173ffffffffffffffffffffffffffffffffffffffff021916908373ffffffffffffffffffffffffffffffffffffffff1602179055506000600760006101000a81548160ff0219169083600281111561094357610942611a59565b5b021790555060005b83518110156109965761098284828151811061096a57610969612042565b5b6020026020010151600161108a90919063ffffffff16565b50808061098e906120a0565b91505061094b565b5050505050505050565b6109a98261079b565b6109ba816109b5610fa2565b610faa565b6109c483836110ba565b505050565b6109d1610fa2565b73ffffffffffffffffffffffffffffffffffffffff168173ffffffffffffffffffffffffffffffffffffffff1614610a3e576040517f08c379a0000000000000000000000000000000000000000000000000000000008152600401610a359061215b565b60405180910390fd5b610a48828261119a565b5050565b60008060001b610a6381610a5e610fa2565b610faa565b600280811115610a7657610a75611a59565b5b600760009054906101000a900460ff166002811115610a9857610a97611a59565b5b1415610ad0576040517f3d693ada00000000000000000000000000000000000000000000000000000000815260040160405180910390fd5b610ada6002611047565b91505090565b6000806002811115610af557610af4611a59565b5b600760009054906101000a900460ff166002811115610b1757610b16611a59565b5b14905090565b60008060001b610b3481610b2f610fa2565b610faa565b610b4883600161127b90919063ffffffff16565b915050919050565b60068054610b5d90612010565b80601f0160208091040260200160405190810160405280929190818152602001828054610b8990612010565b8015610bd65780601f10610bab57610100808354040283529160200191610bd6565b820191906000526020600020905b815481529060010190602001808311610bb957829003601f168201915b505050505081565b60058054610beb90612010565b80601f0160208091040260200160405190810160405280929190818152602001828054610c1790612010565b8015610c645780601f10610c3957610100808354040283529160200191610c64565b820191906000526020600020905b815481529060010190602001808311610c4757829003601f168201915b505050505081565b60008060001b610c8381610c7e610fa2565b610faa565b60006002811115610c9757610c96611a59565b5b600760009054906101000a900460ff166002811115610cb957610cb8611a59565b5b14610cf0576040517f3d693ada00000000000000000000000000000000000000000000000000000000815260040160405180910390fd5b610cfa6001611047565b91505090565b600080600084815260200190815260200160002060000160008373ffffffffffffffffffffffffffffffffffffffff1673ffffffffffffffffffffffffffffffffffffffff16815260200190815260200160002060009054906101000a900460ff16905092915050565b6000801b81565b60608060046005818054610d8490612010565b80601f0160208091040260200160405190810160405280929190818152602001828054610db090612010565b8015610dfd5780601f10610dd257610100808354040283529160200191610dfd565b820191906000526020600020905b815481529060010190602001808311610de057829003601f168201915b50505050509150808054610e1090612010565b80601f0160208091040260200160405190810160405280929190818152602001828054610e3c90612010565b8015610e895780601f10610e5e57610100808354040283529160200191610e89565b820191906000526020600020905b815481529060010190602001808311610e6c57829003601f168201915b50505050509050915091509091565b60035481565b60008060001b610eb581610eb0610fa2565b610faa565b610ec983600161108a90919063ffffffff16565b915050919050565b610eda8261079b565b610eeb81610ee6610fa2565b610faa565b610ef5838361119a565b505050565b6000610f108260016112ab90919063ffffffff16565b9050919050565b60007f01ffc9a7000000000000000000000000000000000000000000000000000000007bffffffffffffffffffffffffffffffffffffffffffffffffffffffff1916827bffffffffffffffffffffffffffffffffffffffffffffffffffffffff1916149050919050565b60606000610f91836000016112db565b905060608190508092505050919050565b600033905090565b610fb48282610d00565b61104357610fd98173ffffffffffffffffffffffffffffffffffffffff166014611337565b610fe78360001c6020611337565b604051602001610ff892919061224f565b6040516020818303038152906040526040517f08c379a000000000000000000000000000000000000000000000000000000000815260040161103a9190611a37565b60405180910390fd5b5050565b600081600760006101000a81548160ff0219169083600281111561106e5761106d611a59565b5b021790555060019050919050565b61108682826110ba565b5050565b60006110b2836000018373ffffffffffffffffffffffffffffffffffffffff1660001b611573565b905092915050565b6110c48282610d00565b61119657600160008084815260200190815260200160002060000160008373ffffffffffffffffffffffffffffffffffffffff1673ffffffffffffffffffffffffffffffffffffffff16815260200190815260200160002060006101000a81548160ff02191690831515021790555061113b610fa2565b73ffffffffffffffffffffffffffffffffffffffff168173ffffffffffffffffffffffffffffffffffffffff16837f2f8788117e7eff1d82e926ec794901d17c78024a50270940304540a733656f0d60405160405180910390a45b5050565b6111a48282610d00565b1561127757600080600084815260200190815260200160002060000160008373ffffffffffffffffffffffffffffffffffffffff1673ffffffffffffffffffffffffffffffffffffffff16815260200190815260200160002060006101000a81548160ff02191690831515021790555061121c610fa2565b73ffffffffffffffffffffffffffffffffffffffff168173ffffffffffffffffffffffffffffffffffffffff16837ff6391f5c32d9c69d2a47ea670b442974b53935d1edc7fd64eb21e047a839171b60405160405180910390a45b5050565b60006112a3836000018373ffffffffffffffffffffffffffffffffffffffff1660001b6115e3565b905092915050565b60006112d3836000018373ffffffffffffffffffffffffffffffffffffffff1660001b6116f7565b905092915050565b60608160000180548060200260200160405190810160405280929190818152602001828054801561132b57602002820191906000526020600020905b815481526020019060010190808311611317575b50505050509050919050565b60606000600283600261134a9190612289565b61135491906122e3565b67ffffffffffffffff81111561136d5761136c611c3b565b5b6040519080825280601f01601f19166020018201604052801561139f5781602001600182028036833780820191505090505b5090507f3000000000000000000000000000000000000000000000000000000000000000816000815181106113d7576113d6612042565b5b60200101907effffffffffffffffffffffffffffffffffffffffffffffffffffffffffffff1916908160001a9053507f78000000000000000000000000000000000000000000000000000000000000008160018151811061143b5761143a612042565b5b60200101907effffffffffffffffffffffffffffffffffffffffffffffffffffffffffffff1916908160001a9053506000600184600261147b9190612289565b61148591906122e3565b90505b6001811115611525577f3031323334353637383961626364656600000000000000000000000000000000600f8616601081106114c7576114c6612042565b5b1a60f81b8282815181106114de576114dd612042565b5b60200101907effffffffffffffffffffffffffffffffffffffffffffffffffffffffffffff1916908160001a905350600485901c94508061151e90612339565b9050611488565b5060008414611569576040517f08c379a0000000000000000000000000000000000000000000000000000000008152600401611560906123af565b60405180910390fd5b8091505092915050565b600061157f83836116f7565b6115d85782600001829080600181540180825580915050600190039060005260206000200160009091909190915055826000018054905083600101600084815260200190815260200160002081905550600190506115dd565b600090505b92915050565b600080836001016000848152602001908152602001600020549050600081146116eb57600060018261161591906123cf565b905060006001866000018054905061162d91906123cf565b905081811461169c57600086600001828154811061164e5761164d612042565b5b906000526020600020015490508087600001848154811061167257611671612042565b5b90600052602060002001819055508387600101600083815260200190815260200160002081905550505b856000018054806116b0576116af612403565b5b6001900381819060005260206000200160009055905585600101600086815260200190815260200160002060009055600193505050506116f1565b60009150505b92915050565b600080836001016000848152602001908152602001600020541415905092915050565b82805461172690612010565b90600052602060002090601f016020900481019282611748576000855561178f565b82601f1061176157805160ff191683800117855561178f565b8280016001018555821561178f579182015b8281111561178e578251825591602001919060010190611773565b5b50905061179c91906117a0565b5090565b5b808211156117b95760008160009055506001016117a1565b5090565b6000604051905090565b600080fd5b600080fd5b60007fffffffff0000000000000000000000000000000000000000000000000000000082169050919050565b611806816117d1565b811461181157600080fd5b50565b600081359050611823816117fd565b92915050565b60006020828403121561183f5761183e6117c7565b5b600061184d84828501611814565b91505092915050565b60008115159050919050565b61186b81611856565b82525050565b60006020820190506118866000830184611862565b92915050565b600081519050919050565b600082825260208201905092915050565b6000819050602082019050919050565b600073ffffffffffffffffffffffffffffffffffffffff82169050919050565b60006118e3826118b8565b9050919050565b6118f3816118d8565b82525050565b600061190583836118ea565b60208301905092915050565b6000602082019050919050565b60006119298261188c565b6119338185611897565b935061193e836118a8565b8060005b8381101561196f57815161195688826118f9565b975061196183611911565b925050600181019050611942565b5085935050505092915050565b60006020820190508181036000830152611996818461191e565b905092915050565b600081519050919050565b600082825260208201905092915050565b60005b838110156119d85780820151818401526020810190506119bd565b838111156119e7576000848401525b50505050565b6000601f19601f8301169050919050565b6000611a098261199e565b611a1381856119a9565b9350611a238185602086016119ba565b611a2c816119ed565b840191505092915050565b60006020820190508181036000830152611a5181846119fe565b905092915050565b7f4e487b7100000000000000000000000000000000000000000000000000000000600052602160045260246000fd5b60038110611a9957611a98611a59565b5b50565b6000819050611aaa82611a88565b919050565b6000611aba82611a9c565b9050919050565b611aca81611aaf565b82525050565b6000602082019050611ae56000830184611ac1565b92915050565b611af4816118d8565b8114611aff57600080fd5b50565b600081359050611b1181611aeb565b92915050565b600060208284031215611b2d57611b2c6117c7565b5b6000611b3b84828501611b02565b91505092915050565b611b4d816118d8565b82525050565b6000602082019050611b686000830184611b44565b92915050565b6000819050919050565b611b8181611b6e565b8114611b8c57600080fd5b50565b600081359050611b9e81611b78565b92915050565b600060208284031215611bba57611bb96117c7565b5b6000611bc884828501611b8f565b91505092915050565b611bda81611b6e565b82525050565b6000602082019050611bf56000830184611bd1565b92915050565b6000819050919050565b611c0e81611bfb565b8114611c1957600080fd5b50565b600081359050611c2b81611c05565b92915050565b600080fd5b600080fd5b7f4e487b7100000000000000000000000000000000000000000000000000000000600052604160045260246000fd5b611c73826119ed565b810181811067ffffffffffffffff82111715611c9257611c91611c3b565b5b80604052505050565b6000611ca56117bd565b9050611cb18282611c6a565b919050565b600067ffffffffffffffff821115611cd157611cd0611c3b565b5b611cda826119ed565b9050602081019050919050565b82818337600083830152505050565b6000611d09611d0484611cb6565b611c9b565b905082815260208101848484011115611d2557611d24611c36565b5b611d30848285611ce7565b509392505050565b600082601f830112611d4d57611d4c611c31565b5b8135611d5d848260208601611cf6565b91505092915050565b600067ffffffffffffffff821115611d8157611d80611c3b565b5b602082029050602081019050919050565b600080fd5b6000611daa611da584611d66565b611c9b565b90508083825260208201905060208402830185811115611dcd57611dcc611d92565b5b835b81811015611df65780611de28882611b02565b845260208401935050602081019050611dcf565b5050509392505050565b600082601f830112611e1557611e14611c31565b5b8135611e25848260208601611d97565b91505092915050565b600080600080600080600060e0888a031215611e4d57611e4c6117c7565b5b6000611e5b8a828b01611c1c565b975050602088013567ffffffffffffffff811115611e7c57611e7b6117cc565b5b611e888a828b01611d38565b965050604088013567ffffffffffffffff811115611ea957611ea86117cc565b5b611eb58a828b01611d38565b955050606088013567ffffffffffffffff811115611ed657611ed56117cc565b5b611ee28a828b01611d38565b945050608088013567ffffffffffffffff811115611f0357611f026117cc565b5b611f0f8a828b01611e00565b93505060a0611f208a828b01611b02565b92505060c0611f318a828b01611b02565b91505092959891949750929550565b60008060408385031215611f5757611f566117c7565b5b6000611f6585828601611b8f565b9250506020611f7685828601611b02565b9150509250929050565b60006040820190508181036000830152611f9a81856119fe565b90508181036020830152611fae81846119fe565b90509392505050565b611fc081611bfb565b82525050565b6000602082019050611fdb6000830184611fb7565b92915050565b7f4e487b7100000000000000000000000000000000000000000000000000000000600052602260045260246000fd5b6000600282049050600182168061202857607f821691505b6020821081141561203c5761203b611fe1565b5b50919050565b7f4e487b7100000000000000000000000000000000000000000000000000000000600052603260045260246000fd5b7f4e487b7100000000000000000000000000000000000000000000000000000000600052601160045260246000fd5b60006120ab82611bfb565b91507fffffffffffffffffffffffffffffffffffffffffffffffffffffffffffffffff8214156120de576120dd612071565b5b600182019050919050565b7f416363657373436f6e74726f6c3a2063616e206f6e6c792072656e6f756e636560008201527f20726f6c657320666f722073656c660000000000000000000000000000000000602082015250565b6000612145602f836119a9565b9150612150826120e9565b604082019050919050565b6000602082019050818103600083015261217481612138565b9050919050565b600081905092915050565b7f416363657373436f6e74726f6c3a206163636f756e7420000000000000000000600082015250565b60006121bc60178361217b565b91506121c782612186565b601782019050919050565b60006121dd8261199e565b6121e7818561217b565b93506121f78185602086016119ba565b80840191505092915050565b7f206973206d697373696e6720726f6c6520000000000000000000000000000000600082015250565b600061223960118361217b565b915061224482612203565b601182019050919050565b600061225a826121af565b915061226682856121d2565b91506122718261222c565b915061227d82846121d2565b91508190509392505050565b600061229482611bfb565b915061229f83611bfb565b9250817fffffffffffffffffffffffffffffffffffffffffffffffffffffffffffffffff04831182151516156122d8576122d7612071565b5b828202905092915050565b60006122ee82611bfb565b91506122f983611bfb565b9250827fffffffffffffffffffffffffffffffffffffffffffffffffffffffffffffffff0382111561232e5761232d612071565b5b828201905092915050565b600061234482611bfb565b9150600082141561235857612357612071565b5b600182039050919050565b7f537472696e67733a20686578206c656e67746820696e73756666696369656e74600082015250565b60006123996020836119a9565b91506123a482612363565b602082019050919050565b600060208201905081810360008301526123c88161238c565b9050919050565b60006123da82611bfb565b91506123e583611bfb565b9250828210156123f8576123f7612071565b5b828203905092915050565b7f4e487b7100000000000000000000000000000000000000000000000000000000600052603160045260246000fdfea2646970667358221220974a1224acecb9d146876f78c766a50daab2cde7ea6e29771ed51a8a30c23c4064736f6c634300080a0033",
  "devdoc": {
    "kind": "dev",
    "methods": {
      "addToken(address)": {
        "details": "add a token to the list of allowed tokens",
        "params": {
          "_address": "tracker address of the token"
        },
        "returns": {
          "_0": "boolean indicating result of the operation"
        }
      },
      "close()": {
        "details": "close fund",
        "returns": {
          "_0": "boolean indicating result of the operation"
        }
      },
      "getAllowedTokens()": {
        "details": "list of allowed token contract addresses",
        "returns": {
          "_0": "return a list of allowed token contract addresses"
        }
      },
      "getDepositAddressFor(address)": {
        "details": "get deposit address for a token",
        "params": {
          "_tokenAddress": "tracker address of the token to deposit (must be an allowed token)"
        },
        "returns": {
          "_0": "deposit address for a token"
        }
      },
      "getMeta()": {
        "details": "get metadata for a fund",
        "returns": {
          "_0": "metadata of the fund"
        }
      },
      "getRoleAdmin(bytes32)": {
        "details": "Returns the admin role that controls `role`. See {grantRole} and {revokeRole}. To change a role's admin, use {_setRoleAdmin}."
      },
      "grantRole(bytes32,address)": {
        "details": "Grants `role` to `account`. If `account` had not been already granted `role`, emits a {RoleGranted} event. Requirements: - the caller must have ``role``'s admin role."
      },
      "hasRole(bytes32,address)": {
        "details": "Returns `true` if `account` has been granted `role`."
      },
      "isOpen()": {
        "details": "check if a fund is open for donations",
        "returns": {
          "_0": "boolean indicating status"
        }
      },
      "isTokenAllowed(address)": {
        "details": "add a token to the list of allowed tokens",
        "params": {
          "_address": "tracker address of the token"
        },
        "returns": {
          "_0": "boolean indicating if a token is allowed for deposit"
        }
      },
      "pause()": {
        "details": "pause fund",
        "returns": {
          "_0": "boolean indicating result of the operation"
        }
      },
      "removeToken(address)": {
        "details": "remove a token from the list of allowed tokens",
        "params": {
          "_address": "tracker address of the token"
        },
        "returns": {
          "_0": "boolean indicating result of the operation"
        }
      },
      "renounceRole(bytes32,address)": {
        "details": "Revokes `role` from the calling account. Roles are often managed via {grantRole} and {revokeRole}: this function's purpose is to provide a mechanism for accounts to lose their privileges if they are compromised (such as when a trusted device is misplaced). If the calling account had been revoked `role`, emits a {RoleRevoked} event. Requirements: - the caller must be `account`."
      },
      "resume()": {
        "details": "resume fund",
        "returns": {
          "_0": "boolean indicating result of the operation"
        }
      },
      "revokeRole(bytes32,address)": {
        "details": "Revokes `role` from `account`. If `account` had been granted `role`, emits a {RoleRevoked} event. Requirements: - the caller must have ``role``'s admin role."
      },
      "supportsInterface(bytes4)": {
        "details": "See {IERC165-supportsInterface}."
      }
    },
    "version": 1
  },
  "userdoc": {
    "kind": "user",
    "methods": {
      "close()": {
        "notice": "this is final, a closed fund cannot be reopened"
      }
    },
    "version": 1
  },
  "storageLayout": {
    "storage": [
      {
        "astId": 24,
        "contract": "contracts/FundV1.sol:FundV1",
        "label": "_roles",
        "offset": 0,
        "slot": "0",
        "type": "t_mapping(t_bytes32,t_struct(RoleData)19_storage)"
      },
      {
        "astId": 6894,
        "contract": "contracts/FundV1.sol:FundV1",
        "label": "allowedTokens",
        "offset": 0,
        "slot": "1",
        "type": "t_struct(AddressSet)3873_storage"
      },
      {
        "astId": 4729,
        "contract": "contracts/FundV1.sol:FundV1",
        "label": "id",
        "offset": 0,
        "slot": "3",
        "type": "t_uint256"
      },
      {
        "astId": 4731,
        "contract": "contracts/FundV1.sol:FundV1",
        "label": "name",
        "offset": 0,
        "slot": "4",
        "type": "t_string_storage"
      },
      {
        "astId": 4733,
        "contract": "contracts/FundV1.sol:FundV1",
        "label": "focus",
        "offset": 0,
        "slot": "5",
        "type": "t_string_storage"
      },
      {
        "astId": 4735,
        "contract": "contracts/FundV1.sol:FundV1",
        "label": "description",
        "offset": 0,
        "slot": "6",
        "type": "t_string_storage"
      },
      {
        "astId": 4738,
        "contract": "contracts/FundV1.sol:FundV1",
        "label": "status",
        "offset": 0,
        "slot": "7",
        "type": "t_enum(Status)4719"
      },
      {
        "astId": 4740,
        "contract": "contracts/FundV1.sol:FundV1",
        "label": "factory",
        "offset": 1,
        "slot": "7",
        "type": "t_address"
      },
      {
        "astId": 4742,
        "contract": "contracts/FundV1.sol:FundV1",
        "label": "safeAddress",
        "offset": 0,
        "slot": "8",
        "type": "t_address"
      }
    ],
    "types": {
      "t_address": {
        "encoding": "inplace",
        "label": "address",
        "numberOfBytes": "20"
      },
      "t_array(t_bytes32)dyn_storage": {
        "base": "t_bytes32",
        "encoding": "dynamic_array",
        "label": "bytes32[]",
        "numberOfBytes": "32"
      },
      "t_bool": {
        "encoding": "inplace",
        "label": "bool",
        "numberOfBytes": "1"
      },
      "t_bytes32": {
        "encoding": "inplace",
        "label": "bytes32",
        "numberOfBytes": "32"
      },
      "t_enum(Status)4719": {
        "encoding": "inplace",
        "label": "enum Status",
        "numberOfBytes": "1"
      },
      "t_mapping(t_address,t_bool)": {
        "encoding": "mapping",
        "key": "t_address",
        "label": "mapping(address => bool)",
        "numberOfBytes": "32",
        "value": "t_bool"
      },
      "t_mapping(t_bytes32,t_struct(RoleData)19_storage)": {
        "encoding": "mapping",
        "key": "t_bytes32",
        "label": "mapping(bytes32 => struct AccessControl.RoleData)",
        "numberOfBytes": "32",
        "value": "t_struct(RoleData)19_storage"
      },
      "t_mapping(t_bytes32,t_uint256)": {
        "encoding": "mapping",
        "key": "t_bytes32",
        "label": "mapping(bytes32 => uint256)",
        "numberOfBytes": "32",
        "value": "t_uint256"
      },
      "t_string_storage": {
        "encoding": "bytes",
        "label": "string",
        "numberOfBytes": "32"
      },
      "t_struct(AddressSet)3873_storage": {
        "encoding": "inplace",
        "label": "struct EnumerableSet.AddressSet",
        "members": [
          {
            "astId": 3872,
            "contract": "contracts/FundV1.sol:FundV1",
            "label": "_inner",
            "offset": 0,
            "slot": "0",
            "type": "t_struct(Set)3572_storage"
          }
        ],
        "numberOfBytes": "64"
      },
      "t_struct(RoleData)19_storage": {
        "encoding": "inplace",
        "label": "struct AccessControl.RoleData",
        "members": [
          {
            "astId": 16,
            "contract": "contracts/FundV1.sol:FundV1",
            "label": "members",
            "offset": 0,
            "slot": "0",
            "type": "t_mapping(t_address,t_bool)"
          },
          {
            "astId": 18,
            "contract": "contracts/FundV1.sol:FundV1",
            "label": "adminRole",
            "offset": 0,
            "slot": "1",
            "type": "t_bytes32"
          }
        ],
        "numberOfBytes": "64"
      },
      "t_struct(Set)3572_storage": {
        "encoding": "inplace",
        "label": "struct EnumerableSet.Set",
        "members": [
          {
            "astId": 3567,
            "contract": "contracts/FundV1.sol:FundV1",
            "label": "_values",
            "offset": 0,
            "slot": "0",
            "type": "t_array(t_bytes32)dyn_storage"
          },
          {
            "astId": 3571,
            "contract": "contracts/FundV1.sol:FundV1",
            "label": "_indexes",
            "offset": 0,
            "slot": "1",
            "type": "t_mapping(t_bytes32,t_uint256)"
          }
        ],
        "numberOfBytes": "64"
      },
      "t_uint256": {
        "encoding": "inplace",
        "label": "uint256",
        "numberOfBytes": "32"
      }
    }
  }
}