{
  "address": "0x922D6956C99E12DFeB3224DEA977D0939758A1Fe",
  "abi": [
    {
      "inputs": [
        {
          "internalType": "address",
          "name": "_registry",
          "type": "address"
        },
        {
          "internalType": "address",
          "name": "_impl",
          "type": "address"
        }
      ],
      "stateMutability": "nonpayable",
      "type": "constructor"
    },
    {
      "anonymous": false,
      "inputs": [
        {
          "indexed": true,
          "internalType": "uint256",
          "name": "id",
          "type": "uint256"
        },
        {
          "indexed": true,
          "internalType": "address",
          "name": "at",
          "type": "address"
        },
        {
          "indexed": false,
          "internalType": "string",
          "name": "name",
          "type": "string"
        },
        {
          "indexed": false,
          "internalType": "string",
          "name": "focus",
          "type": "string"
        },
        {
          "indexed": false,
          "internalType": "string",
          "name": "description",
          "type": "string"
        }
      ],
      "name": "FundCreated",
      "type": "event"
    },
    {
      "anonymous": false,
      "inputs": [
        {
          "indexed": true,
          "internalType": "bytes32",
          "name": "role",
          "type": "bytes32"
        },
        {
          "indexed": true,
          "internalType": "bytes32",
          "name": "previousAdminRole",
          "type": "bytes32"
        },
        {
          "indexed": true,
          "internalType": "bytes32",
          "name": "newAdminRole",
          "type": "bytes32"
        }
      ],
      "name": "RoleAdminChanged",
      "type": "event"
    },
    {
      "anonymous": false,
      "inputs": [
        {
          "indexed": true,
          "internalType": "bytes32",
          "name": "role",
          "type": "bytes32"
        },
        {
          "indexed": true,
          "internalType": "address",
          "name": "account",
          "type": "address"
        },
        {
          "indexed": true,
          "internalType": "address",
          "name": "sender",
          "type": "address"
        }
      ],
      "name": "RoleGranted",
      "type": "event"
    },
    {
      "anonymous": false,
      "inputs": [
        {
          "indexed": true,
          "internalType": "bytes32",
          "name": "role",
          "type": "bytes32"
        },
        {
          "indexed": true,
          "internalType": "address",
          "name": "account",
          "type": "address"
        },
        {
          "indexed": true,
          "internalType": "address",
          "name": "sender",
          "type": "address"
        }
      ],
      "name": "RoleRevoked",
      "type": "event"
    },
    {
      "inputs": [],
      "name": "DEFAULT_ADMIN_ROLE",
      "outputs": [
        {
          "internalType": "bytes32",
          "name": "",
          "type": "bytes32"
        }
      ],
      "stateMutability": "view",
      "type": "function"
    },
    {
      "inputs": [],
      "name": "baseFund",
      "outputs": [
        {
          "internalType": "address",
          "name": "",
          "type": "address"
        }
      ],
      "stateMutability": "view",
      "type": "function"
    },
    {
      "inputs": [
        {
          "internalType": "string",
          "name": "_name",
          "type": "string"
        },
        {
          "internalType": "string",
          "name": "_focus",
          "type": "string"
        },
        {
          "internalType": "string",
          "name": "_description",
          "type": "string"
        },
        {
          "internalType": "address[]",
          "name": "_allowedTokens",
          "type": "address[]"
        },
        {
          "internalType": "address",
          "name": "_safeAddress",
          "type": "address"
        }
      ],
      "name": "createFund",
      "outputs": [],
      "stateMutability": "nonpayable",
      "type": "function"
    },
    {
      "inputs": [
        {
          "internalType": "uint256",
          "name": "_id",
          "type": "uint256"
        }
      ],
      "name": "getAllowedTokens",
      "outputs": [
        {
          "internalType": "address[]",
          "name": "",
          "type": "address[]"
        }
      ],
      "stateMutability": "view",
      "type": "function"
    },
    {
      "inputs": [
        {
          "internalType": "uint256",
          "name": "_id",
          "type": "uint256"
        },
        {
          "internalType": "address",
          "name": "_tokenAddress",
          "type": "address"
        }
      ],
      "name": "getDepositAddressFor",
      "outputs": [
        {
          "internalType": "address",
          "name": "",
          "type": "address"
        }
      ],
      "stateMutability": "view",
      "type": "function"
    },
    {
      "inputs": [
        {
          "internalType": "uint256",
          "name": "_id",
          "type": "uint256"
        }
      ],
      "name": "getFundAddress",
      "outputs": [
        {
          "internalType": "address",
          "name": "",
          "type": "address"
        }
      ],
      "stateMutability": "view",
      "type": "function"
    },
    {
      "inputs": [
        {
          "internalType": "uint256",
          "name": "_id",
          "type": "uint256"
        }
      ],
      "name": "getFundMeta",
      "outputs": [
        {
          "internalType": "string",
          "name": "",
          "type": "string"
        },
        {
          "internalType": "string",
          "name": "",
          "type": "string"
        },
        {
          "internalType": "string",
          "name": "",
          "type": "string"
        },
        {
          "internalType": "uint256",
          "name": "",
          "type": "uint256"
        }
      ],
      "stateMutability": "view",
      "type": "function"
    },
    {
      "inputs": [],
      "name": "getFunds",
      "outputs": [
        {
          "internalType": "address[]",
          "name": "",
          "type": "address[]"
        }
      ],
      "stateMutability": "view",
      "type": "function"
    },
    {
      "inputs": [],
      "name": "getFundsMeta",
      "outputs": [
        {
          "components": [
            {
              "internalType": "uint256",
              "name": "id",
              "type": "uint256"
            },
            {
              "internalType": "address",
              "name": "at",
              "type": "address"
            },
            {
              "internalType": "string",
              "name": "name",
              "type": "string"
            },
            {
              "internalType": "string",
              "name": "focus",
              "type": "string"
            },
            {
              "internalType": "string",
              "name": "description",
              "type": "string"
            },
            {
              "internalType": "uint256",
              "name": "status",
              "type": "uint256"
            }
          ],
          "internalType": "struct FundManager.Fund[]",
          "name": "",
          "type": "tuple[]"
        }
      ],
      "stateMutability": "view",
      "type": "function"
    },
    {
      "inputs": [
        {
          "internalType": "bytes32",
          "name": "role",
          "type": "bytes32"
        }
      ],
      "name": "getRoleAdmin",
      "outputs": [
        {
          "internalType": "bytes32",
          "name": "",
          "type": "bytes32"
        }
      ],
      "stateMutability": "view",
      "type": "function"
    },
    {
      "inputs": [
        {
          "internalType": "bytes32",
          "name": "role",
          "type": "bytes32"
        },
        {
          "internalType": "address",
          "name": "account",
          "type": "address"
        }
      ],
      "name": "grantRole",
      "outputs": [],
      "stateMutability": "nonpayable",
      "type": "function"
    },
    {
      "inputs": [
        {
          "internalType": "bytes32",
          "name": "role",
          "type": "bytes32"
        },
        {
          "internalType": "address",
          "name": "account",
          "type": "address"
        }
      ],
      "name": "hasRole",
      "outputs": [
        {
          "internalType": "bool",
          "name": "",
          "type": "bool"
        }
      ],
      "stateMutability": "view",
      "type": "function"
    },
    {
      "inputs": [
        {
          "internalType": "uint256",
          "name": "_id",
          "type": "uint256"
        },
        {
          "internalType": "address",
          "name": "_tokenAddress",
          "type": "address"
        }
      ],
      "name": "isTokenAllowed",
      "outputs": [
        {
          "internalType": "bool",
          "name": "",
          "type": "bool"
        }
      ],
      "stateMutability": "view",
      "type": "function"
    },
    {
      "inputs": [
        {
          "internalType": "bytes32",
          "name": "role",
          "type": "bytes32"
        },
        {
          "internalType": "address",
          "name": "account",
          "type": "address"
        }
      ],
      "name": "renounceRole",
      "outputs": [],
      "stateMutability": "nonpayable",
      "type": "function"
    },
    {
      "inputs": [
        {
          "internalType": "bytes32",
          "name": "role",
          "type": "bytes32"
        },
        {
          "internalType": "address",
          "name": "account",
          "type": "address"
        }
      ],
      "name": "revokeRole",
      "outputs": [],
      "stateMutability": "nonpayable",
      "type": "function"
    },
    {
      "inputs": [
        {
          "internalType": "address",
          "name": "_impl",
          "type": "address"
        }
      ],
      "name": "setImplementation",
      "outputs": [
        {
          "internalType": "bool",
          "name": "",
          "type": "bool"
        }
      ],
      "stateMutability": "nonpayable",
      "type": "function"
    },
    {
      "inputs": [
        {
          "internalType": "bytes4",
          "name": "interfaceId",
          "type": "bytes4"
        }
      ],
      "name": "supportsInterface",
      "outputs": [
        {
          "internalType": "bool",
          "name": "",
          "type": "bool"
        }
      ],
      "stateMutability": "view",
      "type": "function"
    }
  ],
  "transactionHash": "0xb82806d6ee65f600a1d2549ec9f8b0dec7513acc1dcd4670e626b8d28a9cb545",
  "args": [
    "0x1291Be112d480055DaFd8a610b7d1e203891C274",
    "0x5f3f1dBD7B74C6B46e8c44f98792A1dAf8d69154"
  ],
  "numDeployments": 4,
  "solcInputHash": "6cb82f7a921c98be42a4ff10f68bfddf",
  "bytecode": "0x60806040523480156200001157600080fd5b506040516200173f3803806200173f833981016040819052620000349162000150565b600180546001600160a01b0319166001600160a01b0384161790556200005c60003362000083565b600280546001600160a01b0319166001600160a01b03929092169190911790555062000188565b6200008f828262000093565b5050565b6000828152602081815260408083206001600160a01b038516845290915290205460ff166200008f576000828152602081815260408083206001600160a01b03851684529091529020805460ff19166001179055620000ef3390565b6001600160a01b0316816001600160a01b0316837f2f8788117e7eff1d82e926ec794901d17c78024a50270940304540a733656f0d60405160405180910390a45050565b80516001600160a01b03811681146200014b57600080fd5b919050565b600080604083850312156200016457600080fd5b6200016f8362000133565b91506200017f6020840162000133565b90509250929050565b6115a780620001986000396000f3fe608060405234801561001057600080fd5b506004361061010a5760003560e01c8063381296cc116100a257806391d148541161007157806391d1485414610254578063a217fddf14610267578063ce01cdb81461026f578063d547741f14610282578063d784d4261461029557600080fd5b8063381296cc146101f65780634d9b3735146102165780634dad0c781461021e5780637a679a001461024157600080fd5b8063248a9ca3116100de578063248a9ca31461018a5780632f2ff15d146101bb57806336568abe146101d057806337b04203146101e357600080fd5b80624b287c1461010f57806301ffc9a71461013f5780630bc9dad1146101625780630c07e53114610175575b600080fd5b61012261011d366004610d87565b6102a8565b6040516001600160a01b0390911681526020015b60405180910390f35b61015261014d366004610db7565b61033b565b6040519015158152602001610136565b610152610170366004610d87565b610372565b61017d6103fe565b6040516101369190610e3d565b6101ad610198366004610f0a565b60009081526020819052604090206001015490565b604051908152602001610136565b6101ce6101c9366004610d87565b6105cb565b005b6101ce6101de366004610d87565b6105f6565b6101226101f1366004610f0a565b610679565b610209610204366004610f0a565b6106a9565b6040516101369190610f67565b610209610732565b61023161022c366004610f0a565b610794565b6040516101369493929190610f7a565b6101ce61024f3660046110ae565b610831565b610152610262366004610d87565b61095b565b6101ad600081565b600254610122906001600160a01b031681565b6101ce610290366004610d87565b610984565b6101526102a33660046111ca565b6109aa565b6000600383815481106102bd576102bd6111e7565b60009182526020909120015460405163233fd7ed60e01b81526001600160a01b0384811660048301529091169063233fd7ed90602401602060405180830381865afa158015610310573d6000803e3d6000fd5b505050506040513d601f19601f8201168201806040525081019061033491906111fd565b9392505050565b60006001600160e01b03198216637965db0b60e01b148061036c57506301ffc9a760e01b6001600160e01b03198316145b92915050565b600060038381548110610387576103876111e7565b60009182526020909120015460405163f9eaee0d60e01b81526001600160a01b0384811660048301529091169063f9eaee0d90602401602060405180830381865afa1580156103da573d6000803e3d6000fd5b505050506040513d601f19601f82011682018060405250810190610334919061121a565b60035460609060008167ffffffffffffffff81111561041f5761041f610fc5565b60405190808252806020026020018201604052801561049257816020015b61047f6040518060c001604052806000815260200160006001600160a01b03168152602001606081526020016060815260200160608152602001600081525090565b81526020019060019003908161043d5790505b50905060005b828110156105c4576000600382815481106104b5576104b56111e7565b9060005260206000200160009054906101000a90046001600160a01b031690506000819050600080600080846001600160a01b031663a79af2ce6040518163ffffffff1660e01b8152600401600060405180830381865afa15801561051e573d6000803e3d6000fd5b505050506040513d6000823e601f3d908101601f191682016040526105469190810190611289565b935093509350935080600014156105ab576040518060c00160405280888152602001876001600160a01b031681526020018581526020018481526020018381526020018281525088888151811061059f5761059f6111e7565b60200260200101819052505b50505050505080806105bc9061132f565b915050610498565b5092915050565b6000828152602081905260409020600101546105e781336109de565b6105f18383610a42565b505050565b6001600160a01b038116331461066b5760405162461bcd60e51b815260206004820152602f60248201527f416363657373436f6e74726f6c3a2063616e206f6e6c792072656e6f756e636560448201526e103937b632b9903337b91039b2b63360891b60648201526084015b60405180910390fd5b6106758282610ac6565b5050565b60006003828154811061068e5761068e6111e7565b6000918252602090912001546001600160a01b031692915050565b6060600382815481106106be576106be6111e7565b60009182526020822001546040805163024ece8960e01b815290516001600160a01b039092169263024ece89926004808401938290030181865afa15801561070a573d6000803e3d6000fd5b505050506040513d6000823e601f3d908101601f1916820160405261036c919081019061134a565b6060600380548060200260200160405190810160405280929190818152602001828054801561078a57602002820191906000526020600020905b81546001600160a01b0316815260019091019060200180831161076c575b5050505050905090565b60608060606000600385815481106107ae576107ae6111e7565b6000918252602082200154604080516353cd796760e11b815290516001600160a01b039092169263a79af2ce926004808401938290030181865afa1580156107fa573d6000803e3d6000fd5b505050506040513d6000823e601f3d908101601f191682016040526108229190810190611289565b93509350935093509193509193565b600061083d81336109de565b600354600254600090610858906001600160a01b0316610b2b565b6040516323754abd60e21b81529091506001600160a01b03821690638dd52af490610891908b908b908b908b908b9033906004016113e4565b600060405180830381600087803b1580156108ab57600080fd5b505af11580156108bf573d6000803e3d6000fd5b5050600380546001810182556000919091527fc2575a0e9e593c00f959f8c92f12db2869c3395a3b0502d05e2516446f71f85b0180546001600160a01b0319166001600160a01b0385169081179091556040519092508491507fe1cba72f01d834a5e1da118d007fd231806710dfc35e2337d91364c6b04b43a390610949908c908c908c90611458565b60405180910390a35050505050505050565b6000918252602082815260408084206001600160a01b0393909316845291905290205460ff1690565b6000828152602081905260409020600101546109a081336109de565b6105f18383610ac6565b6000806109b781336109de565b600280546001600160a01b0385166001600160a01b03199091161790556001915050919050565b6109e8828261095b565b61067557610a00816001600160a01b03166014610bc8565b610a0b836020610bc8565b604051602001610a1c92919061149b565b60408051601f198184030181529082905262461bcd60e51b825261066291600401611510565b610a4c828261095b565b610675576000828152602081815260408083206001600160a01b03851684529091529020805460ff19166001179055610a823390565b6001600160a01b0316816001600160a01b0316837f2f8788117e7eff1d82e926ec794901d17c78024a50270940304540a733656f0d60405160405180910390a45050565b610ad0828261095b565b15610675576000828152602081815260408083206001600160a01b0385168085529252808320805460ff1916905551339285917ff6391f5c32d9c69d2a47ea670b442974b53935d1edc7fd64eb21e047a839171b9190a45050565b6000604051733d602d80600a3d3981f3363d3d373d3d3d363d7360601b81528260601b60148201526e5af43d82803e903d91602b57fd5bf360881b60288201526037816000f09150506001600160a01b038116610bc35760405162461bcd60e51b8152602060048201526016602482015275115490cc4c4d8dce8818dc99585d194819985a5b195960521b6044820152606401610662565b919050565b60606000610bd7836002611523565b610be2906002611542565b67ffffffffffffffff811115610bfa57610bfa610fc5565b6040519080825280601f01601f191660200182016040528015610c24576020820181803683370190505b509050600360fc1b81600081518110610c3f57610c3f6111e7565b60200101906001600160f81b031916908160001a905350600f60fb1b81600181518110610c6e57610c6e6111e7565b60200101906001600160f81b031916908160001a9053506000610c92846002611523565b610c9d906001611542565b90505b6001811115610d15576f181899199a1a9b1b9c1cb0b131b232b360811b85600f1660108110610cd157610cd16111e7565b1a60f81b828281518110610ce757610ce76111e7565b60200101906001600160f81b031916908160001a90535060049490941c93610d0e8161155a565b9050610ca0565b5083156103345760405162461bcd60e51b815260206004820181905260248201527f537472696e67733a20686578206c656e67746820696e73756666696369656e746044820152606401610662565b6001600160a01b0381168114610d7957600080fd5b50565b8035610bc381610d64565b60008060408385031215610d9a57600080fd5b823591506020830135610dac81610d64565b809150509250929050565b600060208284031215610dc957600080fd5b81356001600160e01b03198116811461033457600080fd5b60005b83811015610dfc578181015183820152602001610de4565b83811115610e0b576000848401525b50505050565b60008151808452610e29816020860160208601610de1565b601f01601f19169290920160200192915050565b60006020808301818452808551808352604092508286019150828160051b87010184880160005b83811015610efc57888303603f19018552815180518452878101516001600160a01b0316888501528681015160c088860181905290610ea582870182610e11565b91505060608083015186830382880152610ebf8382610e11565b9250505060808083015186830382880152610eda8382610e11565b60a0948501519790940196909652505094870194925090860190600101610e64565b509098975050505050505050565b600060208284031215610f1c57600080fd5b5035919050565b600081518084526020808501945080840160005b83811015610f5c5781516001600160a01b031687529582019590820190600101610f37565b509495945050505050565b6020815260006103346020830184610f23565b608081526000610f8d6080830187610e11565b8281036020840152610f9f8187610e11565b90508281036040840152610fb38186610e11565b91505082606083015295945050505050565b634e487b7160e01b600052604160045260246000fd5b604051601f8201601f1916810167ffffffffffffffff8111828210171561100457611004610fc5565b604052919050565b600067ffffffffffffffff82111561102657611026610fc5565b50601f01601f191660200190565b600082601f83011261104557600080fd5b81356110586110538261100c565b610fdb565b81815284602083860101111561106d57600080fd5b816020850160208301376000918101602001919091529392505050565b600067ffffffffffffffff8211156110a4576110a4610fc5565b5060051b60200190565b600080600080600060a086880312156110c657600080fd5b853567ffffffffffffffff808211156110de57600080fd5b6110ea89838a01611034565b965060209150818801358181111561110157600080fd5b61110d8a828b01611034565b96505060408801358181111561112257600080fd5b61112e8a828b01611034565b95505060608801358181111561114357600080fd5b88019050601f8101891361115657600080fd5b80356111646110538261108a565b81815260059190911b8201830190838101908b83111561118357600080fd5b928401925b828410156111aa57833561119b81610d64565b82529284019290840190611188565b80965050505050506111be60808701610d7c565b90509295509295909350565b6000602082840312156111dc57600080fd5b813561033481610d64565b634e487b7160e01b600052603260045260246000fd5b60006020828403121561120f57600080fd5b815161033481610d64565b60006020828403121561122c57600080fd5b8151801515811461033457600080fd5b600082601f83011261124d57600080fd5b815161125b6110538261100c565b81815284602083860101111561127057600080fd5b611281826020830160208701610de1565b949350505050565b6000806000806080858703121561129f57600080fd5b845167ffffffffffffffff808211156112b757600080fd5b6112c38883890161123c565b955060208701519150808211156112d957600080fd5b6112e58883890161123c565b945060408701519150808211156112fb57600080fd5b506113088782880161123c565b606096909601519497939650505050565b634e487b7160e01b600052601160045260246000fd5b600060001982141561134357611343611319565b5060010190565b6000602080838503121561135d57600080fd5b825167ffffffffffffffff81111561137457600080fd5b8301601f8101851361138557600080fd5b80516113936110538261108a565b81815260059190911b820183019083810190878311156113b257600080fd5b928401925b828410156113d95783516113ca81610d64565b825292840192908401906113b7565b979650505050505050565b60c0815260006113f760c0830189610e11565b82810360208401526114098189610e11565b9050828103604084015261141d8188610e11565b905082810360608401526114318187610f23565b6001600160a01b0395861660808501529390941660a0909201919091525095945050505050565b60608152600061146b6060830186610e11565b828103602084015261147d8186610e11565b905082810360408401526114918185610e11565b9695505050505050565b7f416363657373436f6e74726f6c3a206163636f756e74200000000000000000008152600083516114d3816017850160208801610de1565b7001034b99036b4b9b9b4b733903937b6329607d1b6017918401918201528351611504816028840160208801610de1565b01602801949350505050565b6020815260006103346020830184610e11565b600081600019048311821515161561153d5761153d611319565b500290565b6000821982111561155557611555611319565b500190565b60008161156957611569611319565b50600019019056fea2646970667358221220a90a588120f18e320b68fc0b918620c66c28b1f7d202260aa84d18140804a86a64736f6c634300080a0033",
  "devdoc": {
    "kind": "dev",
    "methods": {
      "createFund(string,string,string,address[],address)": {
        "details": "setup a new fund",
        "params": {
          "_allowedTokens": "array of allowed token addresses",
          "_description": "description of the fund",
          "_focus": "focus of the fund",
          "_name": "name of the fund",
          "_safeAddress": "address of underlying Gnosis Safe"
        }
      },
      "getAllowedTokens(uint256)": {
        "details": "get a list of allowed tokens for a fund",
        "params": {
          "_id": "unique identifier of a fund"
        },
        "returns": {
          "_0": "list of addresses"
        }
      },
      "getDepositAddressFor(uint256,address)": {
        "details": "get a fund's deposit address",
        "params": {
          "_id": "unique identifier of the fund",
          "_tokenAddress": "address of token tracker"
        },
        "returns": {
          "_0": "address of the fund"
        }
      },
      "getFundAddress(uint256)": {
        "details": "get a fund's deposit address",
        "params": {
          "_id": "unique identifier of a fund"
        },
        "returns": {
          "_0": "address"
        }
      },
      "getRoleAdmin(bytes32)": {
        "details": "Returns the admin role that controls `role`. See {grantRole} and {revokeRole}. To change a role's admin, use {_setRoleAdmin}."
      },
      "grantRole(bytes32,address)": {
        "details": "Grants `role` to `account`. If `account` had not been already granted `role`, emits a {RoleGranted} event. Requirements: - the caller must have ``role``'s admin role."
      },
      "hasRole(bytes32,address)": {
        "details": "Returns `true` if `account` has been granted `role`."
      },
      "isTokenAllowed(uint256,address)": {
        "details": "check if token is allowed",
        "params": {
          "_id": "unique identifier of a fund",
          "_tokenAddress": "token address"
        },
        "returns": {
          "_0": "boolean"
        }
      },
      "renounceRole(bytes32,address)": {
        "details": "Revokes `role` from the calling account. Roles are often managed via {grantRole} and {revokeRole}: this function's purpose is to provide a mechanism for accounts to lose their privileges if they are compromised (such as when a trusted device is misplaced). If the calling account had been revoked `role`, emits a {RoleRevoked} event. Requirements: - the caller must be `account`."
      },
      "revokeRole(bytes32,address)": {
        "details": "Revokes `role` from `account`. If `account` had been granted `role`, emits a {RoleRevoked} event. Requirements: - the caller must have ``role``'s admin role."
      },
      "setImplementation(address)": {
        "details": "set implementation address",
        "params": {
          "_impl": "address of underlying Gnosis Safe"
        },
        "returns": {
          "_0": "boolean indicating op. result"
        }
      },
      "supportsInterface(bytes4)": {
        "details": "See {IERC165-supportsInterface}."
      }
    },
    "version": 1
  },
  "userdoc": {
    "kind": "user",
    "methods": {},
    "version": 1
  },
  "storageLayout": {
    "storage": [
      {
        "astId": 24,
        "contract": "contracts/FundManager.sol:FundManager",
        "label": "_roles",
        "offset": 0,
        "slot": "0",
        "type": "t_mapping(t_bytes32,t_struct(RoleData)19_storage)"
      },
      {
        "astId": 6053,
        "contract": "contracts/FundManager.sol:FundManager",
        "label": "registry",
        "offset": 0,
        "slot": "1",
        "type": "t_contract(Registry)6202"
      },
      {
        "astId": 4961,
        "contract": "contracts/FundManager.sol:FundManager",
        "label": "baseFund",
        "offset": 0,
        "slot": "2",
        "type": "t_address"
      },
      {
        "astId": 4964,
        "contract": "contracts/FundManager.sol:FundManager",
        "label": "funds",
        "offset": 0,
        "slot": "3",
        "type": "t_array(t_address)dyn_storage"
      }
    ],
    "types": {
      "t_address": {
        "encoding": "inplace",
        "label": "address",
        "numberOfBytes": "20"
      },
      "t_array(t_address)dyn_storage": {
        "base": "t_address",
        "encoding": "dynamic_array",
        "label": "address[]",
        "numberOfBytes": "32"
      },
      "t_bool": {
        "encoding": "inplace",
        "label": "bool",
        "numberOfBytes": "1"
      },
      "t_bytes32": {
        "encoding": "inplace",
        "label": "bytes32",
        "numberOfBytes": "32"
      },
      "t_contract(Registry)6202": {
        "encoding": "inplace",
        "label": "contract Registry",
        "numberOfBytes": "20"
      },
      "t_mapping(t_address,t_bool)": {
        "encoding": "mapping",
        "key": "t_address",
        "label": "mapping(address => bool)",
        "numberOfBytes": "32",
        "value": "t_bool"
      },
      "t_mapping(t_bytes32,t_struct(RoleData)19_storage)": {
        "encoding": "mapping",
        "key": "t_bytes32",
        "label": "mapping(bytes32 => struct AccessControl.RoleData)",
        "numberOfBytes": "32",
        "value": "t_struct(RoleData)19_storage"
      },
      "t_struct(RoleData)19_storage": {
        "encoding": "inplace",
        "label": "struct AccessControl.RoleData",
        "members": [
          {
            "astId": 16,
            "contract": "contracts/FundManager.sol:FundManager",
            "label": "members",
            "offset": 0,
            "slot": "0",
            "type": "t_mapping(t_address,t_bool)"
          },
          {
            "astId": 18,
            "contract": "contracts/FundManager.sol:FundManager",
            "label": "adminRole",
            "offset": 0,
            "slot": "1",
            "type": "t_bytes32"
          }
        ],
        "numberOfBytes": "64"
      }
    }
  }
}