{
  "address": "0x9fE46736679d2D9a65F0992F2272dE9f3c7fa6e0",
  "abi": [
    {
      "inputs": [
        {
          "internalType": "address",
          "name": "_registry",
          "type": "address"
        },
        {
          "internalType": "address",
          "name": "_impl",
          "type": "address"
        }
      ],
      "stateMutability": "nonpayable",
      "type": "constructor"
    },
    {
      "anonymous": false,
      "inputs": [
        {
          "indexed": true,
          "internalType": "uint256",
          "name": "id",
          "type": "uint256"
        },
        {
          "indexed": true,
          "internalType": "address",
          "name": "at",
          "type": "address"
        },
        {
          "indexed": false,
          "internalType": "string",
          "name": "name",
          "type": "string"
        },
        {
          "indexed": false,
          "internalType": "string",
          "name": "focus",
          "type": "string"
        },
        {
          "indexed": false,
          "internalType": "string",
          "name": "description",
          "type": "string"
        }
      ],
      "name": "FundCreated",
      "type": "event"
    },
    {
      "anonymous": false,
      "inputs": [
        {
          "indexed": true,
          "internalType": "bytes32",
          "name": "role",
          "type": "bytes32"
        },
        {
          "indexed": true,
          "internalType": "bytes32",
          "name": "previousAdminRole",
          "type": "bytes32"
        },
        {
          "indexed": true,
          "internalType": "bytes32",
          "name": "newAdminRole",
          "type": "bytes32"
        }
      ],
      "name": "RoleAdminChanged",
      "type": "event"
    },
    {
      "anonymous": false,
      "inputs": [
        {
          "indexed": true,
          "internalType": "bytes32",
          "name": "role",
          "type": "bytes32"
        },
        {
          "indexed": true,
          "internalType": "address",
          "name": "account",
          "type": "address"
        },
        {
          "indexed": true,
          "internalType": "address",
          "name": "sender",
          "type": "address"
        }
      ],
      "name": "RoleGranted",
      "type": "event"
    },
    {
      "anonymous": false,
      "inputs": [
        {
          "indexed": true,
          "internalType": "bytes32",
          "name": "role",
          "type": "bytes32"
        },
        {
          "indexed": true,
          "internalType": "address",
          "name": "account",
          "type": "address"
        },
        {
          "indexed": true,
          "internalType": "address",
          "name": "sender",
          "type": "address"
        }
      ],
      "name": "RoleRevoked",
      "type": "event"
    },
    {
      "inputs": [],
      "name": "DEFAULT_ADMIN_ROLE",
      "outputs": [
        {
          "internalType": "bytes32",
          "name": "",
          "type": "bytes32"
        }
      ],
      "stateMutability": "view",
      "type": "function"
    },
    {
      "inputs": [],
      "name": "baseFund",
      "outputs": [
        {
          "internalType": "address",
          "name": "",
          "type": "address"
        }
      ],
      "stateMutability": "view",
      "type": "function"
    },
    {
      "inputs": [
        {
          "internalType": "string",
          "name": "_name",
          "type": "string"
        },
        {
          "internalType": "string",
          "name": "_focus",
          "type": "string"
        },
        {
          "internalType": "string",
          "name": "_description",
          "type": "string"
        },
        {
          "internalType": "address[]",
          "name": "_allowedTokens",
          "type": "address[]"
        },
        {
          "internalType": "bytes",
          "name": "safeParams",
          "type": "bytes"
        },
        {
          "internalType": "address",
          "name": "wallet",
          "type": "address"
        },
        {
          "internalType": "address",
          "name": "factory",
          "type": "address"
        },
        {
          "internalType": "address",
          "name": "singleton",
          "type": "address"
        }
      ],
      "name": "createFund",
      "outputs": [],
      "stateMutability": "nonpayable",
      "type": "function"
    },
    {
      "inputs": [
        {
          "internalType": "address[]",
          "name": "_owners",
          "type": "address[]"
        },
        {
          "internalType": "uint256",
          "name": "_threshold",
          "type": "uint256"
        },
        {
          "internalType": "address",
          "name": "to",
          "type": "address"
        },
        {
          "internalType": "bytes",
          "name": "data",
          "type": "bytes"
        },
        {
          "internalType": "address",
          "name": "fallbackHandler",
          "type": "address"
        },
        {
          "internalType": "address",
          "name": "paymentToken",
          "type": "address"
        },
        {
          "internalType": "uint256",
          "name": "payment",
          "type": "uint256"
        },
        {
          "internalType": "address payable",
          "name": "paymentReceiver",
          "type": "address"
        }
      ],
      "name": "encodeSetup",
      "outputs": [
        {
          "internalType": "bytes",
          "name": "encoded",
          "type": "bytes"
        }
      ],
      "stateMutability": "pure",
      "type": "function"
    },
    {
      "inputs": [
        {
          "internalType": "uint256",
          "name": "_id",
          "type": "uint256"
        }
      ],
      "name": "getAllowedTokens",
      "outputs": [
        {
          "internalType": "address[]",
          "name": "",
          "type": "address[]"
        }
      ],
      "stateMutability": "view",
      "type": "function"
    },
    {
      "inputs": [
        {
          "internalType": "uint256",
          "name": "_id",
          "type": "uint256"
        },
        {
          "internalType": "address",
          "name": "_tokenAddress",
          "type": "address"
        }
      ],
      "name": "getDepositAddressFor",
      "outputs": [
        {
          "internalType": "address",
          "name": "",
          "type": "address"
        }
      ],
      "stateMutability": "view",
      "type": "function"
    },
    {
      "inputs": [
        {
          "internalType": "uint256",
          "name": "_id",
          "type": "uint256"
        }
      ],
      "name": "getFundAddress",
      "outputs": [
        {
          "internalType": "address",
          "name": "",
          "type": "address"
        }
      ],
      "stateMutability": "view",
      "type": "function"
    },
    {
      "inputs": [
        {
          "internalType": "uint256",
          "name": "_id",
          "type": "uint256"
        }
      ],
      "name": "getFundMeta",
      "outputs": [
        {
          "internalType": "string",
          "name": "",
          "type": "string"
        },
        {
          "internalType": "string",
          "name": "",
          "type": "string"
        },
        {
          "internalType": "string",
          "name": "",
          "type": "string"
        },
        {
          "internalType": "uint256",
          "name": "",
          "type": "uint256"
        }
      ],
      "stateMutability": "view",
      "type": "function"
    },
    {
      "inputs": [],
      "name": "getFunds",
      "outputs": [
        {
          "internalType": "address[]",
          "name": "",
          "type": "address[]"
        }
      ],
      "stateMutability": "view",
      "type": "function"
    },
    {
      "inputs": [],
      "name": "getFundsMeta",
      "outputs": [
        {
          "components": [
            {
              "internalType": "uint256",
              "name": "id",
              "type": "uint256"
            },
            {
              "internalType": "address",
              "name": "at",
              "type": "address"
            },
            {
              "internalType": "string",
              "name": "name",
              "type": "string"
            },
            {
              "internalType": "string",
              "name": "focus",
              "type": "string"
            },
            {
              "internalType": "string",
              "name": "description",
              "type": "string"
            },
            {
              "internalType": "uint256",
              "name": "status",
              "type": "uint256"
            }
          ],
          "internalType": "struct FundManager.Fund[]",
          "name": "",
          "type": "tuple[]"
        }
      ],
      "stateMutability": "view",
      "type": "function"
    },
    {
      "inputs": [
        {
          "internalType": "bytes32",
          "name": "role",
          "type": "bytes32"
        }
      ],
      "name": "getRoleAdmin",
      "outputs": [
        {
          "internalType": "bytes32",
          "name": "",
          "type": "bytes32"
        }
      ],
      "stateMutability": "view",
      "type": "function"
    },
    {
      "inputs": [
        {
          "internalType": "bytes32",
          "name": "role",
          "type": "bytes32"
        },
        {
          "internalType": "address",
          "name": "account",
          "type": "address"
        }
      ],
      "name": "grantRole",
      "outputs": [],
      "stateMutability": "nonpayable",
      "type": "function"
    },
    {
      "inputs": [
        {
          "internalType": "bytes32",
          "name": "role",
          "type": "bytes32"
        },
        {
          "internalType": "address",
          "name": "account",
          "type": "address"
        }
      ],
      "name": "hasRole",
      "outputs": [
        {
          "internalType": "bool",
          "name": "",
          "type": "bool"
        }
      ],
      "stateMutability": "view",
      "type": "function"
    },
    {
      "inputs": [
        {
          "internalType": "uint256",
          "name": "_id",
          "type": "uint256"
        },
        {
          "internalType": "address",
          "name": "_tokenAddress",
          "type": "address"
        }
      ],
      "name": "isTokenAllowed",
      "outputs": [
        {
          "internalType": "bool",
          "name": "",
          "type": "bool"
        }
      ],
      "stateMutability": "view",
      "type": "function"
    },
    {
      "inputs": [
        {
          "internalType": "bytes32",
          "name": "role",
          "type": "bytes32"
        },
        {
          "internalType": "address",
          "name": "account",
          "type": "address"
        }
      ],
      "name": "renounceRole",
      "outputs": [],
      "stateMutability": "nonpayable",
      "type": "function"
    },
    {
      "inputs": [
        {
          "internalType": "bytes32",
          "name": "role",
          "type": "bytes32"
        },
        {
          "internalType": "address",
          "name": "account",
          "type": "address"
        }
      ],
      "name": "revokeRole",
      "outputs": [],
      "stateMutability": "nonpayable",
      "type": "function"
    },
    {
      "inputs": [
        {
          "internalType": "address",
          "name": "_impl",
          "type": "address"
        }
      ],
      "name": "setImplementation",
      "outputs": [
        {
          "internalType": "bool",
          "name": "",
          "type": "bool"
        }
      ],
      "stateMutability": "nonpayable",
      "type": "function"
    },
    {
      "inputs": [
        {
          "internalType": "bytes4",
          "name": "interfaceId",
          "type": "bytes4"
        }
      ],
      "name": "supportsInterface",
      "outputs": [
        {
          "internalType": "bool",
          "name": "",
          "type": "bool"
        }
      ],
      "stateMutability": "view",
      "type": "function"
    }
  ],
  "transactionHash": "0xc0dfd8a10127499b1ed18a594c61361066e3e038bc129ae186927b091ae264aa",
  "args": [
    "0x5FbDB2315678afecb367f032d93F642f64180aa3",
    "0xe7f1725E7734CE288F8367e1Bb143E90bb3F0512"
  ],
  "numDeployments": 1,
  "solcInputHash": "d73f99c4c87e7424760296ea59927980",
  "bytecode": "0x60806040523480156200001157600080fd5b5060405162001b0138038062001b01833981016040819052620000349162000150565b600180546001600160a01b0319166001600160a01b0384161790556200005c60003362000083565b600280546001600160a01b0319166001600160a01b03929092169190911790555062000188565b6200008f828262000093565b5050565b6000828152602081815260408083206001600160a01b038516845290915290205460ff166200008f576000828152602081815260408083206001600160a01b03851684529091529020805460ff19166001179055620000ef3390565b6001600160a01b0316816001600160a01b0316837f2f8788117e7eff1d82e926ec794901d17c78024a50270940304540a733656f0d60405160405180910390a45050565b80516001600160a01b03811681146200014b57600080fd5b919050565b600080604083850312156200016457600080fd5b6200016f8362000133565b91506200017f6020840162000133565b90509250929050565b61196980620001986000396000f3fe608060405234801561001057600080fd5b50600436106101155760003560e01c8063381296cc116100a2578063a217fddf11610071578063a217fddf1461027f578063b0a10d4914610287578063ce01cdb81461029a578063d547741f146102ad578063d784d426146102c057600080fd5b8063381296cc146102215780634d9b3735146102415780634dad0c781461024957806391d148541461026c57600080fd5b8063248a9ca3116100e9578063248a9ca3146101955780632f2ff15d146101c6578063318bd647146101db57806336568abe146101fb57806337b042031461020e57600080fd5b80624b287c1461011a57806301ffc9a71461014a5780630bc9dad11461016d5780630c07e53114610180575b600080fd5b61012d610128366004610ea0565b6102d3565b6040516001600160a01b0390911681526020015b60405180910390f35b61015d610158366004610ed0565b610366565b6040519015158152602001610141565b61015d61017b366004610ea0565b61039d565b610188610429565b6040516101419190610f56565b6101b86101a3366004611023565b60009081526020819052604090206001015490565b604051908152602001610141565b6101d96101d4366004610ea0565b6105f6565b005b6101ee6101e9366004611085565b610621565b604051610141919061117a565b6101d9610209366004610ea0565b61067f565b61012d61021c366004611023565b610702565b61023461022f366004611023565b610732565b60405161014191906111d1565b6102346107bb565b61025c610257366004611023565b61081d565b60405161014194939291906111e4565b61015d61027a366004610ea0565b6108ba565b6101b8600081565b6101d9610295366004611387565b6108e3565b60025461012d906001600160a01b031681565b6101d96102bb366004610ea0565b610a9d565b61015d6102ce36600461148b565b610ac3565b6000600383815481106102e8576102e86114a8565b60009182526020909120015460405163233fd7ed60e01b81526001600160a01b0384811660048301529091169063233fd7ed90602401602060405180830381865afa15801561033b573d6000803e3d6000fd5b505050506040513d601f19601f8201168201806040525081019061035f91906114be565b9392505050565b60006001600160e01b03198216637965db0b60e01b148061039757506301ffc9a760e01b6001600160e01b03198316145b92915050565b6000600383815481106103b2576103b26114a8565b60009182526020909120015460405163f9eaee0d60e01b81526001600160a01b0384811660048301529091169063f9eaee0d90602401602060405180830381865afa158015610405573d6000803e3d6000fd5b505050506040513d601f19601f8201168201806040525081019061035f91906114db565b60035460609060008167ffffffffffffffff81111561044a5761044a61122f565b6040519080825280602002602001820160405280156104bd57816020015b6104aa6040518060c001604052806000815260200160006001600160a01b03168152602001606081526020016060815260200160608152602001600081525090565b8152602001906001900390816104685790505b50905060005b828110156105ef576000600382815481106104e0576104e06114a8565b9060005260206000200160009054906101000a90046001600160a01b031690506000819050600080600080846001600160a01b031663a79af2ce6040518163ffffffff1660e01b8152600401600060405180830381865afa158015610549573d6000803e3d6000fd5b505050506040513d6000823e601f3d908101601f19168201604052610571919081019061154a565b935093509350935080600014156105d6576040518060c00160405280888152602001876001600160a01b03168152602001858152602001848152602001838152602001828152508888815181106105ca576105ca6114a8565b60200260200101819052505b50505050505080806105e7906115f0565b9150506104c3565b5092915050565b6000828152602081905260409020600101546106128133610af7565b61061c8383610b5b565b505050565b60608a8a8a8a8a8a8a8a8a8a6040516024016106469a99989796959493929190611634565b60408051601f198184030181529190526020810180516001600160e01b031663b63e800d60e01b1790529b9a5050505050505050505050565b6001600160a01b03811633146106f45760405162461bcd60e51b815260206004820152602f60248201527f416363657373436f6e74726f6c3a2063616e206f6e6c792072656e6f756e636560448201526e103937b632b9903337b91039b2b63360891b60648201526084015b60405180910390fd5b6106fe8282610bdf565b5050565b600060038281548110610717576107176114a8565b6000918252602090912001546001600160a01b031692915050565b606060038281548110610747576107476114a8565b60009182526020822001546040805163024ece8960e01b815290516001600160a01b039092169263024ece89926004808401938290030181865afa158015610793573d6000803e3d6000fd5b505050506040513d6000823e601f3d908101601f1916820160405261039791908101906116fb565b6060600380548060200260200160405190810160405280929190818152602001828054801561081357602002820191906000526020600020905b81546001600160a01b031681526001909101906020018083116107f5575b5050505050905090565b6060806060600060038581548110610837576108376114a8565b6000918252602082200154604080516353cd796760e11b815290516001600160a01b039092169263a79af2ce926004808401938290030181865afa158015610883573d6000803e3d6000fd5b505050506040513d6000823e601f3d908101601f191682016040526108ab919081019061154a565b93509350935093509193509193565b6000918252602082815260408084206001600160a01b0393909316845291905290205460ff1690565b60006108ef8133610af7565b60035460025460009061090a906001600160a01b0316610c44565b905060006001600160a01b03871615610924575085610998565b6040516361b69abd60e01b81526001600160a01b038716906361b69abd906109529088908c90600401611795565b6020604051808303816000875af1158015610971573d6000803e3d6000fd5b505050506040513d601f19601f8201168201806040525081019061099591906114be565b90505b6040516323754abd60e21b81526001600160a01b03831690638dd52af4906109ce908f908f908f908f90889033906004016117b9565b600060405180830381600087803b1580156109e857600080fd5b505af11580156109fc573d6000803e3d6000fd5b505050506003829080600181540180825580915050600190039060005260206000200160009091909190916101000a8154816001600160a01b0302191690836001600160a01b03160217905550816001600160a01b0316837fe1cba72f01d834a5e1da118d007fd231806710dfc35e2337d91364c6b04b43a38e8e8e604051610a879392919061182d565b60405180910390a3505050505050505050505050565b600082815260208190526040902060010154610ab98133610af7565b61061c8383610bdf565b600080610ad08133610af7565b600280546001600160a01b0385166001600160a01b03199091161790556001915050919050565b610b0182826108ba565b6106fe57610b19816001600160a01b03166014610ce1565b610b24836020610ce1565b604051602001610b35929190611870565b60408051601f198184030181529082905262461bcd60e51b82526106eb9160040161117a565b610b6582826108ba565b6106fe576000828152602081815260408083206001600160a01b03851684529091529020805460ff19166001179055610b9b3390565b6001600160a01b0316816001600160a01b0316837f2f8788117e7eff1d82e926ec794901d17c78024a50270940304540a733656f0d60405160405180910390a45050565b610be982826108ba565b156106fe576000828152602081815260408083206001600160a01b0385168085529252808320805460ff1916905551339285917ff6391f5c32d9c69d2a47ea670b442974b53935d1edc7fd64eb21e047a839171b9190a45050565b6000604051733d602d80600a3d3981f3363d3d373d3d3d363d7360601b81528260601b60148201526e5af43d82803e903d91602b57fd5bf360881b60288201526037816000f09150506001600160a01b038116610cdc5760405162461bcd60e51b8152602060048201526016602482015275115490cc4c4d8dce8818dc99585d194819985a5b195960521b60448201526064016106eb565b919050565b60606000610cf08360026118e5565b610cfb906002611904565b67ffffffffffffffff811115610d1357610d1361122f565b6040519080825280601f01601f191660200182016040528015610d3d576020820181803683370190505b509050600360fc1b81600081518110610d5857610d586114a8565b60200101906001600160f81b031916908160001a905350600f60fb1b81600181518110610d8757610d876114a8565b60200101906001600160f81b031916908160001a9053506000610dab8460026118e5565b610db6906001611904565b90505b6001811115610e2e576f181899199a1a9b1b9c1cb0b131b232b360811b85600f1660108110610dea57610dea6114a8565b1a60f81b828281518110610e0057610e006114a8565b60200101906001600160f81b031916908160001a90535060049490941c93610e278161191c565b9050610db9565b50831561035f5760405162461bcd60e51b815260206004820181905260248201527f537472696e67733a20686578206c656e67746820696e73756666696369656e7460448201526064016106eb565b6001600160a01b0381168114610e9257600080fd5b50565b8035610cdc81610e7d565b60008060408385031215610eb357600080fd5b823591506020830135610ec581610e7d565b809150509250929050565b600060208284031215610ee257600080fd5b81356001600160e01b03198116811461035f57600080fd5b60005b83811015610f15578181015183820152602001610efd565b83811115610f24576000848401525b50505050565b60008151808452610f42816020860160208601610efa565b601f01601f19169290920160200192915050565b60006020808301818452808551808352604092508286019150828160051b87010184880160005b8381101561101557888303603f19018552815180518452878101516001600160a01b0316888501528681015160c088860181905290610fbe82870182610f2a565b91505060608083015186830382880152610fd88382610f2a565b9250505060808083015186830382880152610ff38382610f2a565b60a0948501519790940196909652505094870194925090860190600101610f7d565b509098975050505050505050565b60006020828403121561103557600080fd5b5035919050565b60008083601f84011261104e57600080fd5b50813567ffffffffffffffff81111561106657600080fd5b60208301915083602082850101111561107e57600080fd5b9250929050565b6000806000806000806000806000806101008b8d0312156110a557600080fd5b8a3567ffffffffffffffff808211156110bd57600080fd5b818d0191508d601f8301126110d157600080fd5b8135818111156110e057600080fd5b8e60208260051b85010111156110f557600080fd5b60208381019d50909b508d0135995061111060408e01610e95565b985060608d013591508082111561112657600080fd5b506111338d828e0161103c565b9097509550611146905060808c01610e95565b935061115460a08c01610e95565b925060c08b0135915061116960e08c01610e95565b90509295989b9194979a5092959850565b60208152600061035f6020830184610f2a565b600081518084526020808501945080840160005b838110156111c65781516001600160a01b0316875295820195908201906001016111a1565b509495945050505050565b60208152600061035f602083018461118d565b6080815260006111f76080830187610f2a565b82810360208401526112098187610f2a565b9050828103604084015261121d8186610f2a565b91505082606083015295945050505050565b634e487b7160e01b600052604160045260246000fd5b604051601f8201601f1916810167ffffffffffffffff8111828210171561126e5761126e61122f565b604052919050565b600067ffffffffffffffff8211156112905761129061122f565b50601f01601f191660200190565b600082601f8301126112af57600080fd5b81356112c26112bd82611276565b611245565b8181528460208386010111156112d757600080fd5b816020850160208301376000918101602001919091529392505050565b600067ffffffffffffffff82111561130e5761130e61122f565b5060051b60200190565b600082601f83011261132957600080fd5b813560206113396112bd836112f4565b82815260059290921b8401810191818101908684111561135857600080fd5b8286015b8481101561137c57803561136f81610e7d565b835291830191830161135c565b509695505050505050565b600080600080600080600080610100898b0312156113a457600080fd5b883567ffffffffffffffff808211156113bc57600080fd5b6113c88c838d0161129e565b995060208b01359150808211156113de57600080fd5b6113ea8c838d0161129e565b985060408b013591508082111561140057600080fd5b61140c8c838d0161129e565b975060608b013591508082111561142257600080fd5b61142e8c838d01611318565b965060808b013591508082111561144457600080fd5b506114518b828c0161129e565b94505061146060a08a01610e95565b925061146e60c08a01610e95565b915061147c60e08a01610e95565b90509295985092959890939650565b60006020828403121561149d57600080fd5b813561035f81610e7d565b634e487b7160e01b600052603260045260246000fd5b6000602082840312156114d057600080fd5b815161035f81610e7d565b6000602082840312156114ed57600080fd5b8151801515811461035f57600080fd5b600082601f83011261150e57600080fd5b815161151c6112bd82611276565b81815284602083860101111561153157600080fd5b611542826020830160208701610efa565b949350505050565b6000806000806080858703121561156057600080fd5b845167ffffffffffffffff8082111561157857600080fd5b611584888389016114fd565b9550602087015191508082111561159a57600080fd5b6115a6888389016114fd565b945060408701519150808211156115bc57600080fd5b506115c9878288016114fd565b606096909601519497939650505050565b634e487b7160e01b600052601160045260246000fd5b6000600019821415611604576116046115da565b5060010190565b81835281816020850137506000828201602090810191909152601f909101601f19169091010190565b61010080825281018a9052600061012082018c825b8d81101561167a57813561165c81610e7d565b6001600160a01b031683526020928301929190910190600101611649565b50508a6020840152611697604084018b6001600160a01b03169052565b82810360608401526116aa81898b61160b565b9150506116c260808301876001600160a01b03169052565b6001600160a01b03851660a08301528360c08301526116ec60e08301846001600160a01b03169052565b9b9a5050505050505050505050565b6000602080838503121561170e57600080fd5b825167ffffffffffffffff81111561172557600080fd5b8301601f8101851361173657600080fd5b80516117446112bd826112f4565b81815260059190911b8201830190838101908783111561176357600080fd5b928401925b8284101561178a57835161177b81610e7d565b82529284019290840190611768565b979650505050505050565b6001600160a01b038316815260406020820181905260009061154290830184610f2a565b60c0815260006117cc60c0830189610f2a565b82810360208401526117de8189610f2a565b905082810360408401526117f28188610f2a565b90508281036060840152611806818761118d565b6001600160a01b0395861660808501529390941660a0909201919091525095945050505050565b6060815260006118406060830186610f2a565b82810360208401526118528186610f2a565b905082810360408401526118668185610f2a565b9695505050505050565b7f416363657373436f6e74726f6c3a206163636f756e74200000000000000000008152600083516118a8816017850160208801610efa565b7001034b99036b4b9b9b4b733903937b6329607d1b60179184019182015283516118d9816028840160208801610efa565b01602801949350505050565b60008160001904831182151516156118ff576118ff6115da565b500290565b60008219821115611917576119176115da565b500190565b60008161192b5761192b6115da565b50600019019056fea2646970667358221220566ca046761c5e9efcca51c71c142b8f8b30e941c77b3193c566b79a295e067564736f6c634300080a0033",
  "devdoc": {
    "kind": "dev",
    "methods": {
      "createFund(string,string,string,address[],bytes,address,address,address)": {
        "details": "setup a new fund",
        "params": {
          "_allowedTokens": "array of allowed token addresses",
          "_description": "description of the fund",
          "_focus": "focus of the fund",
          "_name": "name of the fund",
          "safeParams": "params for safe generation"
        }
      },
      "encodeSetup(address[],uint256,address,bytes,address,address,uint256,address)": {
        "details": "Encodes params and function for proxy creation",
        "params": {
          "_owners": "List of Safe owners.",
          "_threshold": "Number of required confirmations for a Safe transaction.",
          "data": "Data payload for optional delegate call.",
          "fallbackHandler": "Handler for fallback calls to this contract",
          "payment": "Value that should be paid",
          "paymentReceiver": "Address that should receive the payment (or 0 if tx.origin)",
          "paymentToken": "Token that should be used for the payment (0 is ETH)",
          "to": "Contract address for optional delegate call."
        },
        "returns": {
          "encoded": "Bytes representation of the params with setup signature"
        }
      },
      "getAllowedTokens(uint256)": {
        "details": "get a list of allowed tokens for a fund",
        "params": {
          "_id": "unique identifier of a fund"
        },
        "returns": {
          "_0": "list of addresses"
        }
      },
      "getDepositAddressFor(uint256,address)": {
        "details": "get a fund's deposit address",
        "params": {
          "_id": "unique identifier of the fund",
          "_tokenAddress": "address of token tracker"
        },
        "returns": {
          "_0": "address of the fund"
        }
      },
      "getFundAddress(uint256)": {
        "details": "get a fund's deposit address",
        "params": {
          "_id": "unique identifier of a fund"
        },
        "returns": {
          "_0": "address"
        }
      },
      "getRoleAdmin(bytes32)": {
        "details": "Returns the admin role that controls `role`. See {grantRole} and {revokeRole}. To change a role's admin, use {_setRoleAdmin}."
      },
      "grantRole(bytes32,address)": {
        "details": "Grants `role` to `account`. If `account` had not been already granted `role`, emits a {RoleGranted} event. Requirements: - the caller must have ``role``'s admin role."
      },
      "hasRole(bytes32,address)": {
        "details": "Returns `true` if `account` has been granted `role`."
      },
      "isTokenAllowed(uint256,address)": {
        "details": "check if token is allowed",
        "params": {
          "_id": "unique identifier of a fund",
          "_tokenAddress": "token address"
        },
        "returns": {
          "_0": "boolean"
        }
      },
      "renounceRole(bytes32,address)": {
        "details": "Revokes `role` from the calling account. Roles are often managed via {grantRole} and {revokeRole}: this function's purpose is to provide a mechanism for accounts to lose their privileges if they are compromised (such as when a trusted device is misplaced). If the calling account had been revoked `role`, emits a {RoleRevoked} event. Requirements: - the caller must be `account`."
      },
      "revokeRole(bytes32,address)": {
        "details": "Revokes `role` from `account`. If `account` had been granted `role`, emits a {RoleRevoked} event. Requirements: - the caller must have ``role``'s admin role."
      },
      "setImplementation(address)": {
        "details": "set implementation address",
        "params": {
          "_impl": "address of underlying Gnosis Safe"
        },
        "returns": {
          "_0": "boolean indicating op. result"
        }
      },
      "supportsInterface(bytes4)": {
        "details": "See {IERC165-supportsInterface}."
      }
    },
    "version": 1
  },
  "userdoc": {
    "kind": "user",
    "methods": {},
    "version": 1
  },
  "storageLayout": {
    "storage": [
      {
        "astId": 327,
        "contract": "contracts/FundManager.sol:FundManager",
        "label": "_roles",
        "offset": 0,
        "slot": "0",
        "type": "t_mapping(t_bytes32,t_struct(RoleData)322_storage)"
      },
      {
        "astId": 6431,
        "contract": "contracts/FundManager.sol:FundManager",
        "label": "registry",
        "offset": 0,
        "slot": "1",
        "type": "t_contract(Registry)6580"
      },
      {
        "astId": 5265,
        "contract": "contracts/FundManager.sol:FundManager",
        "label": "baseFund",
        "offset": 0,
        "slot": "2",
        "type": "t_address"
      },
      {
        "astId": 5268,
        "contract": "contracts/FundManager.sol:FundManager",
        "label": "funds",
        "offset": 0,
        "slot": "3",
        "type": "t_array(t_address)dyn_storage"
      }
    ],
    "types": {
      "t_address": {
        "encoding": "inplace",
        "label": "address",
        "numberOfBytes": "20"
      },
      "t_array(t_address)dyn_storage": {
        "base": "t_address",
        "encoding": "dynamic_array",
        "label": "address[]",
        "numberOfBytes": "32"
      },
      "t_bool": {
        "encoding": "inplace",
        "label": "bool",
        "numberOfBytes": "1"
      },
      "t_bytes32": {
        "encoding": "inplace",
        "label": "bytes32",
        "numberOfBytes": "32"
      },
      "t_contract(Registry)6580": {
        "encoding": "inplace",
        "label": "contract Registry",
        "numberOfBytes": "20"
      },
      "t_mapping(t_address,t_bool)": {
        "encoding": "mapping",
        "key": "t_address",
        "label": "mapping(address => bool)",
        "numberOfBytes": "32",
        "value": "t_bool"
      },
      "t_mapping(t_bytes32,t_struct(RoleData)322_storage)": {
        "encoding": "mapping",
        "key": "t_bytes32",
        "label": "mapping(bytes32 => struct AccessControl.RoleData)",
        "numberOfBytes": "32",
        "value": "t_struct(RoleData)322_storage"
      },
      "t_struct(RoleData)322_storage": {
        "encoding": "inplace",
        "label": "struct AccessControl.RoleData",
        "members": [
          {
            "astId": 319,
            "contract": "contracts/FundManager.sol:FundManager",
            "label": "members",
            "offset": 0,
            "slot": "0",
            "type": "t_mapping(t_address,t_bool)"
          },
          {
            "astId": 321,
            "contract": "contracts/FundManager.sol:FundManager",
            "label": "adminRole",
            "offset": 0,
            "slot": "1",
            "type": "t_bytes32"
          }
        ],
        "numberOfBytes": "64"
      }
    }
  }
}