{
  "address": "0xc5a5C42992dECbae36851359345FE25997F5C42d",
  "abi": [
    {
      "inputs": [
        {
          "internalType": "address",
          "name": "_registry",
          "type": "address"
        },
        {
          "internalType": "address",
          "name": "_impl",
          "type": "address"
        }
      ],
      "stateMutability": "nonpayable",
      "type": "constructor"
    },
    {
      "anonymous": false,
      "inputs": [
        {
          "indexed": true,
          "internalType": "uint256",
          "name": "id",
          "type": "uint256"
        },
        {
          "indexed": true,
          "internalType": "address",
          "name": "at",
          "type": "address"
        },
        {
          "indexed": false,
          "internalType": "string",
          "name": "name",
          "type": "string"
        },
        {
          "indexed": false,
          "internalType": "string",
          "name": "focus",
          "type": "string"
        },
        {
          "indexed": false,
          "internalType": "string",
          "name": "description",
          "type": "string"
        }
      ],
      "name": "FundCreated",
      "type": "event"
    },
    {
      "anonymous": false,
      "inputs": [
        {
          "indexed": true,
          "internalType": "bytes32",
          "name": "role",
          "type": "bytes32"
        },
        {
          "indexed": true,
          "internalType": "bytes32",
          "name": "previousAdminRole",
          "type": "bytes32"
        },
        {
          "indexed": true,
          "internalType": "bytes32",
          "name": "newAdminRole",
          "type": "bytes32"
        }
      ],
      "name": "RoleAdminChanged",
      "type": "event"
    },
    {
      "anonymous": false,
      "inputs": [
        {
          "indexed": true,
          "internalType": "bytes32",
          "name": "role",
          "type": "bytes32"
        },
        {
          "indexed": true,
          "internalType": "address",
          "name": "account",
          "type": "address"
        },
        {
          "indexed": true,
          "internalType": "address",
          "name": "sender",
          "type": "address"
        }
      ],
      "name": "RoleGranted",
      "type": "event"
    },
    {
      "anonymous": false,
      "inputs": [
        {
          "indexed": true,
          "internalType": "bytes32",
          "name": "role",
          "type": "bytes32"
        },
        {
          "indexed": true,
          "internalType": "address",
          "name": "account",
          "type": "address"
        },
        {
          "indexed": true,
          "internalType": "address",
          "name": "sender",
          "type": "address"
        }
      ],
      "name": "RoleRevoked",
      "type": "event"
    },
    {
      "inputs": [],
      "name": "DEFAULT_ADMIN_ROLE",
      "outputs": [
        {
          "internalType": "bytes32",
          "name": "",
          "type": "bytes32"
        }
      ],
      "stateMutability": "view",
      "type": "function"
    },
    {
      "inputs": [],
      "name": "baseFund",
      "outputs": [
        {
          "internalType": "address",
          "name": "",
          "type": "address"
        }
      ],
      "stateMutability": "view",
      "type": "function"
    },
    {
      "inputs": [
        {
          "internalType": "string",
          "name": "_name",
          "type": "string"
        },
        {
          "internalType": "string",
          "name": "_focus",
          "type": "string"
        },
        {
          "internalType": "string",
          "name": "_description",
          "type": "string"
        },
        {
          "internalType": "address[]",
          "name": "_allowedTokens",
          "type": "address[]"
        },
        {
          "internalType": "address",
          "name": "_safeAddress",
          "type": "address"
        }
      ],
      "name": "createFund",
      "outputs": [],
      "stateMutability": "nonpayable",
      "type": "function"
    },
    {
      "inputs": [
        {
          "internalType": "uint256",
          "name": "_id",
          "type": "uint256"
        }
      ],
      "name": "getAllowedTokens",
      "outputs": [
        {
          "internalType": "address[]",
          "name": "",
          "type": "address[]"
        }
      ],
      "stateMutability": "view",
      "type": "function"
    },
    {
      "inputs": [
        {
          "internalType": "uint256",
          "name": "_id",
          "type": "uint256"
        },
        {
          "internalType": "address",
          "name": "_tokenAddress",
          "type": "address"
        }
      ],
      "name": "getDepositAddressFor",
      "outputs": [
        {
          "internalType": "address",
          "name": "",
          "type": "address"
        }
      ],
      "stateMutability": "view",
      "type": "function"
    },
    {
      "inputs": [
        {
          "internalType": "uint256",
          "name": "_id",
          "type": "uint256"
        }
      ],
      "name": "getFundAddress",
      "outputs": [
        {
          "internalType": "address",
          "name": "",
          "type": "address"
        }
      ],
      "stateMutability": "view",
      "type": "function"
    },
    {
      "inputs": [],
      "name": "getFunds",
      "outputs": [
        {
          "internalType": "address[]",
          "name": "",
          "type": "address[]"
        }
      ],
      "stateMutability": "view",
      "type": "function"
    },
    {
      "inputs": [
        {
          "internalType": "bytes32",
          "name": "role",
          "type": "bytes32"
        }
      ],
      "name": "getRoleAdmin",
      "outputs": [
        {
          "internalType": "bytes32",
          "name": "",
          "type": "bytes32"
        }
      ],
      "stateMutability": "view",
      "type": "function"
    },
    {
      "inputs": [
        {
          "internalType": "bytes32",
          "name": "role",
          "type": "bytes32"
        },
        {
          "internalType": "address",
          "name": "account",
          "type": "address"
        }
      ],
      "name": "grantRole",
      "outputs": [],
      "stateMutability": "nonpayable",
      "type": "function"
    },
    {
      "inputs": [
        {
          "internalType": "bytes32",
          "name": "role",
          "type": "bytes32"
        },
        {
          "internalType": "address",
          "name": "account",
          "type": "address"
        }
      ],
      "name": "hasRole",
      "outputs": [
        {
          "internalType": "bool",
          "name": "",
          "type": "bool"
        }
      ],
      "stateMutability": "view",
      "type": "function"
    },
    {
      "inputs": [
        {
          "internalType": "string",
          "name": "_name",
          "type": "string"
        },
        {
          "internalType": "string",
          "name": "_focus",
          "type": "string"
        },
        {
          "internalType": "string",
          "name": "_description",
          "type": "string"
        }
      ],
      "name": "hashFund",
      "outputs": [
        {
          "internalType": "uint256",
          "name": "",
          "type": "uint256"
        }
      ],
      "stateMutability": "pure",
      "type": "function"
    },
    {
      "inputs": [
        {
          "internalType": "uint256",
          "name": "_id",
          "type": "uint256"
        },
        {
          "internalType": "address",
          "name": "_tokenAddress",
          "type": "address"
        }
      ],
      "name": "isTokenAllowed",
      "outputs": [
        {
          "internalType": "bool",
          "name": "",
          "type": "bool"
        }
      ],
      "stateMutability": "view",
      "type": "function"
    },
    {
      "inputs": [
        {
          "internalType": "bytes32",
          "name": "role",
          "type": "bytes32"
        },
        {
          "internalType": "address",
          "name": "account",
          "type": "address"
        }
      ],
      "name": "renounceRole",
      "outputs": [],
      "stateMutability": "nonpayable",
      "type": "function"
    },
    {
      "inputs": [
        {
          "internalType": "bytes32",
          "name": "role",
          "type": "bytes32"
        },
        {
          "internalType": "address",
          "name": "account",
          "type": "address"
        }
      ],
      "name": "revokeRole",
      "outputs": [],
      "stateMutability": "nonpayable",
      "type": "function"
    },
    {
      "inputs": [
        {
          "internalType": "address",
          "name": "_impl",
          "type": "address"
        }
      ],
      "name": "setImplementation",
      "outputs": [
        {
          "internalType": "bool",
          "name": "",
          "type": "bool"
        }
      ],
      "stateMutability": "nonpayable",
      "type": "function"
    },
    {
      "inputs": [
        {
          "internalType": "bytes4",
          "name": "interfaceId",
          "type": "bytes4"
        }
      ],
      "name": "supportsInterface",
      "outputs": [
        {
          "internalType": "bool",
          "name": "",
          "type": "bool"
        }
      ],
      "stateMutability": "view",
      "type": "function"
    }
  ],
  "transactionHash": "0x4870e9bb9eaa2e57a4974a2a93141c5850f359ad1d2477f78c20c4b4b8d26264",
  "args": [
    "0x09635F643e140090A9A8Dcd712eD6285858ceBef",
    "0x9A9f2CCfdE556A7E9Ff0848998Aa4a0CFD8863AE"
  ],
  "numDeployments": 2,
  "solcInputHash": "d0b77f2a3c5e65abe0ad8ab465e0bc73",
  "bytecode": "0x60806040523480156200001157600080fd5b506040516200222b3803806200222b8339818101604052810190620000379190620002bb565b8180600160006101000a81548173ffffffffffffffffffffffffffffffffffffffff021916908373ffffffffffffffffffffffffffffffffffffffff160217905550506200008f6000801b33620000d860201b60201c565b80600260006101000a81548173ffffffffffffffffffffffffffffffffffffffff021916908373ffffffffffffffffffffffffffffffffffffffff160217905550505062000302565b620000ea8282620000ee60201b60201c565b5050565b620001008282620001df60201b60201c565b620001db57600160008084815260200190815260200160002060000160008373ffffffffffffffffffffffffffffffffffffffff1673ffffffffffffffffffffffffffffffffffffffff16815260200190815260200160002060006101000a81548160ff021916908315150217905550620001806200024960201b60201c565b73ffffffffffffffffffffffffffffffffffffffff168173ffffffffffffffffffffffffffffffffffffffff16837f2f8788117e7eff1d82e926ec794901d17c78024a50270940304540a733656f0d60405160405180910390a45b5050565b600080600084815260200190815260200160002060000160008373ffffffffffffffffffffffffffffffffffffffff1673ffffffffffffffffffffffffffffffffffffffff16815260200190815260200160002060009054906101000a900460ff16905092915050565b600033905090565b600080fd5b600073ffffffffffffffffffffffffffffffffffffffff82169050919050565b6000620002838262000256565b9050919050565b620002958162000276565b8114620002a157600080fd5b50565b600081519050620002b5816200028a565b92915050565b60008060408385031215620002d557620002d462000251565b5b6000620002e585828601620002a4565b9250506020620002f885828601620002a4565b9150509250929050565b611f1980620003126000396000f3fe608060405234801561001057600080fd5b50600436106100ff5760003560e01c80634d9b373511610097578063a217fddf11610066578063a217fddf146102f6578063ce01cdb814610314578063d547741f14610332578063d784d4261461034e576100ff565b80634d9b37351461025c57806379a559f61461027a5780637a679a00146102aa57806391d14854146102c6576100ff565b80632f2ff15d116100d35780632f2ff15d146101c457806336568abe146101e057806337b04203146101fc578063381296cc1461022c576100ff565b80624b287c1461010457806301ffc9a7146101345780630bc9dad114610164578063248a9ca314610194575b600080fd5b61011e60048036038101906101199190611141565b61037e565b60405161012b9190611190565b60405180910390f35b61014e60048036038101906101499190611203565b610440565b60405161015b919061124b565b60405180910390f35b61017e60048036038101906101799190611141565b6104ba565b60405161018b919061124b565b60405180910390f35b6101ae60048036038101906101a9919061129c565b61057c565b6040516101bb91906112d8565b60405180910390f35b6101de60048036038101906101d991906112f3565b61059b565b005b6101fa60048036038101906101f591906112f3565b6105c4565b005b61021660048036038101906102119190611333565b610647565b6040516102239190611190565b60405180910390f35b61024660048036038101906102419190611333565b61068f565b604051610253919061141e565b60405180910390f35b61026461074a565b604051610271919061141e565b60405180910390f35b610294600480360381019061028f9190611586565b6107d8565b6040516102a1919061163c565b60405180910390f35b6102c460048036038101906102bf919061171f565b610811565b005b6102e060048036038101906102db91906112f3565b610996565b6040516102ed919061124b565b60405180910390f35b6102fe610a00565b60405161030b91906112d8565b60405180910390f35b61031c610a07565b6040516103299190611190565b60405180910390f35b61034c600480360381019061034791906112f3565b610a2d565b005b6103686004803603810190610363919061180a565b610a56565b604051610375919061124b565b60405180910390f35b60006003838154811061039457610393611837565b5b9060005260206000200160009054906101000a900473ffffffffffffffffffffffffffffffffffffffff1673ffffffffffffffffffffffffffffffffffffffff1663233fd7ed836040518263ffffffff1660e01b81526004016103f79190611190565b602060405180830381865afa158015610414573d6000803e3d6000fd5b505050506040513d601f19601f82011682018060405250810190610438919061187b565b905092915050565b60007f7965db0b000000000000000000000000000000000000000000000000000000007bffffffffffffffffffffffffffffffffffffffffffffffffffffffff1916827bffffffffffffffffffffffffffffffffffffffffffffffffffffffff191614806104b357506104b282610ab8565b5b9050919050565b6000600383815481106104d0576104cf611837565b5b9060005260206000200160009054906101000a900473ffffffffffffffffffffffffffffffffffffffff1673ffffffffffffffffffffffffffffffffffffffff1663f9eaee0d836040518263ffffffff1660e01b81526004016105339190611190565b602060405180830381865afa158015610550573d6000803e3d6000fd5b505050506040513d601f19601f8201168201806040525081019061057491906118d4565b905092915050565b6000806000838152602001908152602001600020600101549050919050565b6105a48261057c565b6105b5816105b0610b22565b610b2a565b6105bf8383610bc7565b505050565b6105cc610b22565b73ffffffffffffffffffffffffffffffffffffffff168173ffffffffffffffffffffffffffffffffffffffff1614610639576040517f08c379a000000000000000000000000000000000000000000000000000000000815260040161063090611984565b60405180910390fd5b6106438282610ca7565b5050565b60006003828154811061065d5761065c611837565b5b9060005260206000200160009054906101000a900473ffffffffffffffffffffffffffffffffffffffff169050919050565b6060600382815481106106a5576106a4611837565b5b9060005260206000200160009054906101000a900473ffffffffffffffffffffffffffffffffffffffff1673ffffffffffffffffffffffffffffffffffffffff1663024ece896040518163ffffffff1660e01b8152600401600060405180830381865afa15801561071a573d6000803e3d6000fd5b505050506040513d6000823e3d601f19601f820116820180604052508101906107439190611a3b565b9050919050565b606060038054806020026020016040519081016040528092919081815260200182805480156107ce57602002820191906000526020600020905b8160009054906101000a900473ffffffffffffffffffffffffffffffffffffffff1673ffffffffffffffffffffffffffffffffffffffff1681526020019060010190808311610784575b5050505050905090565b60008383836040516020016107ef93929190611afb565b6040516020818303038152906040528051906020012060001c90509392505050565b6000801b61082681610821610b22565b610b2a565b60006003805490509050600061085d600260009054906101000a900473ffffffffffffffffffffffffffffffffffffffff16610d88565b90508073ffffffffffffffffffffffffffffffffffffffff16632ba3c4d2838a8a8a8a8a336040518863ffffffff1660e01b81526004016108a49796959493929190611b47565b600060405180830381600087803b1580156108be57600080fd5b505af11580156108d2573d6000803e3d6000fd5b505050506003819080600181540180825580915050600190039060005260206000200160009091909190916101000a81548173ffffffffffffffffffffffffffffffffffffffff021916908373ffffffffffffffffffffffffffffffffffffffff1602179055508073ffffffffffffffffffffffffffffffffffffffff16827fe1cba72f01d834a5e1da118d007fd231806710dfc35e2337d91364c6b04b43a38a8a8a60405161098493929190611afb565b60405180910390a35050505050505050565b600080600084815260200190815260200160002060000160008373ffffffffffffffffffffffffffffffffffffffff1673ffffffffffffffffffffffffffffffffffffffff16815260200190815260200160002060009054906101000a900460ff16905092915050565b6000801b81565b600260009054906101000a900473ffffffffffffffffffffffffffffffffffffffff1681565b610a368261057c565b610a4781610a42610b22565b610b2a565b610a518383610ca7565b505050565b60008060001b610a6d81610a68610b22565b610b2a565b82600260006101000a81548173ffffffffffffffffffffffffffffffffffffffff021916908373ffffffffffffffffffffffffffffffffffffffff1602179055506001915050919050565b60007f01ffc9a7000000000000000000000000000000000000000000000000000000007bffffffffffffffffffffffffffffffffffffffffffffffffffffffff1916827bffffffffffffffffffffffffffffffffffffffffffffffffffffffff1916149050919050565b600033905090565b610b348282610996565b610bc357610b598173ffffffffffffffffffffffffffffffffffffffff166014610e5d565b610b678360001c6020610e5d565b604051602001610b78929190611ca6565b6040516020818303038152906040526040517f08c379a0000000000000000000000000000000000000000000000000000000008152600401610bba9190611ce0565b60405180910390fd5b5050565b610bd18282610996565b610ca357600160008084815260200190815260200160002060000160008373ffffffffffffffffffffffffffffffffffffffff1673ffffffffffffffffffffffffffffffffffffffff16815260200190815260200160002060006101000a81548160ff021916908315150217905550610c48610b22565b73ffffffffffffffffffffffffffffffffffffffff168173ffffffffffffffffffffffffffffffffffffffff16837f2f8788117e7eff1d82e926ec794901d17c78024a50270940304540a733656f0d60405160405180910390a45b5050565b610cb18282610996565b15610d8457600080600084815260200190815260200160002060000160008373ffffffffffffffffffffffffffffffffffffffff1673ffffffffffffffffffffffffffffffffffffffff16815260200190815260200160002060006101000a81548160ff021916908315150217905550610d29610b22565b73ffffffffffffffffffffffffffffffffffffffff168173ffffffffffffffffffffffffffffffffffffffff16837ff6391f5c32d9c69d2a47ea670b442974b53935d1edc7fd64eb21e047a839171b60405160405180910390a45b5050565b60006040517f3d602d80600a3d3981f3363d3d373d3d3d363d7300000000000000000000000081528260601b60148201527f5af43d82803e903d91602b57fd5bf3000000000000000000000000000000000060288201526037816000f0915050600073ffffffffffffffffffffffffffffffffffffffff168173ffffffffffffffffffffffffffffffffffffffff161415610e58576040517f08c379a0000000000000000000000000000000000000000000000000000000008152600401610e4f90611d4e565b60405180910390fd5b919050565b606060006002836002610e709190611d9d565b610e7a9190611df7565b67ffffffffffffffff811115610e9357610e9261145b565b5b6040519080825280601f01601f191660200182016040528015610ec55781602001600182028036833780820191505090505b5090507f300000000000000000000000000000000000000000000000000000000000000081600081518110610efd57610efc611837565b5b60200101907effffffffffffffffffffffffffffffffffffffffffffffffffffffffffffff1916908160001a9053507f780000000000000000000000000000000000000000000000000000000000000081600181518110610f6157610f60611837565b5b60200101907effffffffffffffffffffffffffffffffffffffffffffffffffffffffffffff1916908160001a90535060006001846002610fa19190611d9d565b610fab9190611df7565b90505b600181111561104b577f3031323334353637383961626364656600000000000000000000000000000000600f861660108110610fed57610fec611837565b5b1a60f81b82828151811061100457611003611837565b5b60200101907effffffffffffffffffffffffffffffffffffffffffffffffffffffffffffff1916908160001a905350600485901c94508061104490611e4d565b9050610fae565b506000841461108f576040517f08c379a000000000000000000000000000000000000000000000000000000000815260040161108690611ec3565b60405180910390fd5b8091505092915050565b6000604051905090565b600080fd5b600080fd5b6000819050919050565b6110c0816110ad565b81146110cb57600080fd5b50565b6000813590506110dd816110b7565b92915050565b600073ffffffffffffffffffffffffffffffffffffffff82169050919050565b600061110e826110e3565b9050919050565b61111e81611103565b811461112957600080fd5b50565b60008135905061113b81611115565b92915050565b60008060408385031215611158576111576110a3565b5b6000611166858286016110ce565b92505060206111778582860161112c565b9150509250929050565b61118a81611103565b82525050565b60006020820190506111a56000830184611181565b92915050565b60007fffffffff0000000000000000000000000000000000000000000000000000000082169050919050565b6111e0816111ab565b81146111eb57600080fd5b50565b6000813590506111fd816111d7565b92915050565b600060208284031215611219576112186110a3565b5b6000611227848285016111ee565b91505092915050565b60008115159050919050565b61124581611230565b82525050565b6000602082019050611260600083018461123c565b92915050565b6000819050919050565b61127981611266565b811461128457600080fd5b50565b60008135905061129681611270565b92915050565b6000602082840312156112b2576112b16110a3565b5b60006112c084828501611287565b91505092915050565b6112d281611266565b82525050565b60006020820190506112ed60008301846112c9565b92915050565b6000806040838503121561130a576113096110a3565b5b600061131885828601611287565b92505060206113298582860161112c565b9150509250929050565b600060208284031215611349576113486110a3565b5b6000611357848285016110ce565b91505092915050565b600081519050919050565b600082825260208201905092915050565b6000819050602082019050919050565b61139581611103565b82525050565b60006113a7838361138c565b60208301905092915050565b6000602082019050919050565b60006113cb82611360565b6113d5818561136b565b93506113e08361137c565b8060005b838110156114115781516113f8888261139b565b9750611403836113b3565b9250506001810190506113e4565b5085935050505092915050565b6000602082019050818103600083015261143881846113c0565b905092915050565b600080fd5b600080fd5b6000601f19601f8301169050919050565b7f4e487b7100000000000000000000000000000000000000000000000000000000600052604160045260246000fd5b6114938261144a565b810181811067ffffffffffffffff821117156114b2576114b161145b565b5b80604052505050565b60006114c5611099565b90506114d1828261148a565b919050565b600067ffffffffffffffff8211156114f1576114f061145b565b5b6114fa8261144a565b9050602081019050919050565b82818337600083830152505050565b6000611529611524846114d6565b6114bb565b90508281526020810184848401111561154557611544611445565b5b611550848285611507565b509392505050565b600082601f83011261156d5761156c611440565b5b813561157d848260208601611516565b91505092915050565b60008060006060848603121561159f5761159e6110a3565b5b600084013567ffffffffffffffff8111156115bd576115bc6110a8565b5b6115c986828701611558565b935050602084013567ffffffffffffffff8111156115ea576115e96110a8565b5b6115f686828701611558565b925050604084013567ffffffffffffffff811115611617576116166110a8565b5b61162386828701611558565b9150509250925092565b611636816110ad565b82525050565b6000602082019050611651600083018461162d565b92915050565b600067ffffffffffffffff8211156116725761167161145b565b5b602082029050602081019050919050565b600080fd5b600061169b61169684611657565b6114bb565b905080838252602082019050602084028301858111156116be576116bd611683565b5b835b818110156116e757806116d3888261112c565b8452602084019350506020810190506116c0565b5050509392505050565b600082601f83011261170657611705611440565b5b8135611716848260208601611688565b91505092915050565b600080600080600060a0868803121561173b5761173a6110a3565b5b600086013567ffffffffffffffff811115611759576117586110a8565b5b61176588828901611558565b955050602086013567ffffffffffffffff811115611786576117856110a8565b5b61179288828901611558565b945050604086013567ffffffffffffffff8111156117b3576117b26110a8565b5b6117bf88828901611558565b935050606086013567ffffffffffffffff8111156117e0576117df6110a8565b5b6117ec888289016116f1565b92505060806117fd8882890161112c565b9150509295509295909350565b6000602082840312156118205761181f6110a3565b5b600061182e8482850161112c565b91505092915050565b7f4e487b7100000000000000000000000000000000000000000000000000000000600052603260045260246000fd5b60008151905061187581611115565b92915050565b600060208284031215611891576118906110a3565b5b600061189f84828501611866565b91505092915050565b6118b181611230565b81146118bc57600080fd5b50565b6000815190506118ce816118a8565b92915050565b6000602082840312156118ea576118e96110a3565b5b60006118f8848285016118bf565b91505092915050565b600082825260208201905092915050565b7f416363657373436f6e74726f6c3a2063616e206f6e6c792072656e6f756e636560008201527f20726f6c657320666f722073656c660000000000000000000000000000000000602082015250565b600061196e602f83611901565b915061197982611912565b604082019050919050565b6000602082019050818103600083015261199d81611961565b9050919050565b60006119b76119b284611657565b6114bb565b905080838252602082019050602084028301858111156119da576119d9611683565b5b835b81811015611a0357806119ef8882611866565b8452602084019350506020810190506119dc565b5050509392505050565b600082601f830112611a2257611a21611440565b5b8151611a328482602086016119a4565b91505092915050565b600060208284031215611a5157611a506110a3565b5b600082015167ffffffffffffffff811115611a6f57611a6e6110a8565b5b611a7b84828501611a0d565b91505092915050565b600081519050919050565b60005b83811015611aad578082015181840152602081019050611a92565b83811115611abc576000848401525b50505050565b6000611acd82611a84565b611ad78185611901565b9350611ae7818560208601611a8f565b611af08161144a565b840191505092915050565b60006060820190508181036000830152611b158186611ac2565b90508181036020830152611b298185611ac2565b90508181036040830152611b3d8184611ac2565b9050949350505050565b600060e082019050611b5c600083018a61162d565b8181036020830152611b6e8189611ac2565b90508181036040830152611b828188611ac2565b90508181036060830152611b968187611ac2565b90508181036080830152611baa81866113c0565b9050611bb960a0830185611181565b611bc660c0830184611181565b98975050505050505050565b600081905092915050565b7f416363657373436f6e74726f6c3a206163636f756e7420000000000000000000600082015250565b6000611c13601783611bd2565b9150611c1e82611bdd565b601782019050919050565b6000611c3482611a84565b611c3e8185611bd2565b9350611c4e818560208601611a8f565b80840191505092915050565b7f206973206d697373696e6720726f6c6520000000000000000000000000000000600082015250565b6000611c90601183611bd2565b9150611c9b82611c5a565b601182019050919050565b6000611cb182611c06565b9150611cbd8285611c29565b9150611cc882611c83565b9150611cd48284611c29565b91508190509392505050565b60006020820190508181036000830152611cfa8184611ac2565b905092915050565b7f455243313136373a20637265617465206661696c656400000000000000000000600082015250565b6000611d38601683611901565b9150611d4382611d02565b602082019050919050565b60006020820190508181036000830152611d6781611d2b565b9050919050565b7f4e487b7100000000000000000000000000000000000000000000000000000000600052601160045260246000fd5b6000611da8826110ad565b9150611db3836110ad565b9250817fffffffffffffffffffffffffffffffffffffffffffffffffffffffffffffffff0483118215151615611dec57611deb611d6e565b5b828202905092915050565b6000611e02826110ad565b9150611e0d836110ad565b9250827fffffffffffffffffffffffffffffffffffffffffffffffffffffffffffffffff03821115611e4257611e41611d6e565b5b828201905092915050565b6000611e58826110ad565b91506000821415611e6c57611e6b611d6e565b5b600182039050919050565b7f537472696e67733a20686578206c656e67746820696e73756666696369656e74600082015250565b6000611ead602083611901565b9150611eb882611e77565b602082019050919050565b60006020820190508181036000830152611edc81611ea0565b905091905056fea26469706673582212201a42d16bbd5e9dcd3068708a303ebde3e9d76f5a7aa6594ac6c8474b0c00174f64736f6c634300080a0033",
  "devdoc": {
    "kind": "dev",
    "methods": {
      "createFund(string,string,string,address[],address)": {
        "details": "setup a new fund",
        "params": {
          "_allowedTokens": "array of allowed token addresses",
          "_description": "description of the fund",
          "_focus": "focus of the fund",
          "_name": "name of the fund",
          "_safeAddress": "address of underlying Gnosis Safe"
        }
      },
      "getAllowedTokens(uint256)": {
        "details": "get a list of allowed tokens for a fund",
        "params": {
          "_id": "unique identifier of a fund"
        },
        "returns": {
          "_0": "list of addresses"
        }
      },
      "getDepositAddressFor(uint256,address)": {
        "details": "get a fund's deposit address",
        "params": {
          "_id": "unique identifier of the fund",
          "_tokenAddress": "address of token tracker"
        },
        "returns": {
          "_0": "address of the fund"
        }
      },
      "getFundAddress(uint256)": {
        "details": "get a fund's deposit address",
        "params": {
          "_id": "unique identifier of a fund"
        },
        "returns": {
          "_0": "address"
        }
      },
      "getRoleAdmin(bytes32)": {
        "details": "Returns the admin role that controls `role`. See {grantRole} and {revokeRole}. To change a role's admin, use {_setRoleAdmin}."
      },
      "grantRole(bytes32,address)": {
        "details": "Grants `role` to `account`. If `account` had not been already granted `role`, emits a {RoleGranted} event. Requirements: - the caller must have ``role``'s admin role."
      },
      "hasRole(bytes32,address)": {
        "details": "Returns `true` if `account` has been granted `role`."
      },
      "isTokenAllowed(uint256,address)": {
        "details": "check if token is allowed",
        "params": {
          "_id": "unique identifier of a fund",
          "_tokenAddress": "token address"
        },
        "returns": {
          "_0": "boolean"
        }
      },
      "renounceRole(bytes32,address)": {
        "details": "Revokes `role` from the calling account. Roles are often managed via {grantRole} and {revokeRole}: this function's purpose is to provide a mechanism for accounts to lose their privileges if they are compromised (such as when a trusted device is misplaced). If the calling account had been revoked `role`, emits a {RoleRevoked} event. Requirements: - the caller must be `account`."
      },
      "revokeRole(bytes32,address)": {
        "details": "Revokes `role` from `account`. If `account` had been granted `role`, emits a {RoleRevoked} event. Requirements: - the caller must have ``role``'s admin role."
      },
      "setImplementation(address)": {
        "details": "set implementation address",
        "params": {
          "_impl": "address of underlying Gnosis Safe"
        },
        "returns": {
          "_0": "boolean indicating op. result"
        }
      },
      "supportsInterface(bytes4)": {
        "details": "See {IERC165-supportsInterface}."
      }
    },
    "version": 1
  },
  "userdoc": {
    "kind": "user",
    "methods": {},
    "version": 1
  },
  "storageLayout": {
    "storage": [
      {
        "astId": 24,
        "contract": "contracts/FundManager.sol:FundManager",
        "label": "_roles",
        "offset": 0,
        "slot": "0",
        "type": "t_mapping(t_bytes32,t_struct(RoleData)19_storage)"
      },
      {
        "astId": 5363,
        "contract": "contracts/FundManager.sol:FundManager",
        "label": "registry",
        "offset": 0,
        "slot": "1",
        "type": "t_contract(Registry)5512"
      },
      {
        "astId": 3873,
        "contract": "contracts/FundManager.sol:FundManager",
        "label": "baseFund",
        "offset": 0,
        "slot": "2",
        "type": "t_address"
      },
      {
        "astId": 3876,
        "contract": "contracts/FundManager.sol:FundManager",
        "label": "funds",
        "offset": 0,
        "slot": "3",
        "type": "t_array(t_address)dyn_storage"
      }
    ],
    "types": {
      "t_address": {
        "encoding": "inplace",
        "label": "address",
        "numberOfBytes": "20"
      },
      "t_array(t_address)dyn_storage": {
        "base": "t_address",
        "encoding": "dynamic_array",
        "label": "address[]",
        "numberOfBytes": "32"
      },
      "t_bool": {
        "encoding": "inplace",
        "label": "bool",
        "numberOfBytes": "1"
      },
      "t_bytes32": {
        "encoding": "inplace",
        "label": "bytes32",
        "numberOfBytes": "32"
      },
      "t_contract(Registry)5512": {
        "encoding": "inplace",
        "label": "contract Registry",
        "numberOfBytes": "20"
      },
      "t_mapping(t_address,t_bool)": {
        "encoding": "mapping",
        "key": "t_address",
        "label": "mapping(address => bool)",
        "numberOfBytes": "32",
        "value": "t_bool"
      },
      "t_mapping(t_bytes32,t_struct(RoleData)19_storage)": {
        "encoding": "mapping",
        "key": "t_bytes32",
        "label": "mapping(bytes32 => struct AccessControl.RoleData)",
        "numberOfBytes": "32",
        "value": "t_struct(RoleData)19_storage"
      },
      "t_struct(RoleData)19_storage": {
        "encoding": "inplace",
        "label": "struct AccessControl.RoleData",
        "members": [
          {
            "astId": 16,
            "contract": "contracts/FundManager.sol:FundManager",
            "label": "members",
            "offset": 0,
            "slot": "0",
            "type": "t_mapping(t_address,t_bool)"
          },
          {
            "astId": 18,
            "contract": "contracts/FundManager.sol:FundManager",
            "label": "adminRole",
            "offset": 0,
            "slot": "1",
            "type": "t_bytes32"
          }
        ],
        "numberOfBytes": "64"
      }
    }
  }
}