{
  "address": "0xe7f1725E7734CE288F8367e1Bb143E90bb3F0512",
  "abi": [
    {
      "inputs": [],
      "name": "Forbidden",
      "type": "error"
    },
    {
      "inputs": [],
      "name": "NoZeroChecks",
      "type": "error"
    },
    {
      "inputs": [],
      "name": "NotAllowed",
      "type": "error"
    },
    {
      "inputs": [],
      "name": "TokenNotAllowed",
      "type": "error"
    },
    {
      "anonymous": false,
      "inputs": [
        {
          "indexed": true,
          "internalType": "bytes32",
          "name": "role",
          "type": "bytes32"
        },
        {
          "indexed": true,
          "internalType": "bytes32",
          "name": "previousAdminRole",
          "type": "bytes32"
        },
        {
          "indexed": true,
          "internalType": "bytes32",
          "name": "newAdminRole",
          "type": "bytes32"
        }
      ],
      "name": "RoleAdminChanged",
      "type": "event"
    },
    {
      "anonymous": false,
      "inputs": [
        {
          "indexed": true,
          "internalType": "bytes32",
          "name": "role",
          "type": "bytes32"
        },
        {
          "indexed": true,
          "internalType": "address",
          "name": "account",
          "type": "address"
        },
        {
          "indexed": true,
          "internalType": "address",
          "name": "sender",
          "type": "address"
        }
      ],
      "name": "RoleGranted",
      "type": "event"
    },
    {
      "anonymous": false,
      "inputs": [
        {
          "indexed": true,
          "internalType": "bytes32",
          "name": "role",
          "type": "bytes32"
        },
        {
          "indexed": true,
          "internalType": "address",
          "name": "account",
          "type": "address"
        },
        {
          "indexed": true,
          "internalType": "address",
          "name": "sender",
          "type": "address"
        }
      ],
      "name": "RoleRevoked",
      "type": "event"
    },
    {
      "anonymous": false,
      "inputs": [
        {
          "indexed": true,
          "internalType": "uint256",
          "name": "id",
          "type": "uint256"
        }
      ],
      "name": "StatusChange",
      "type": "event"
    },
    {
      "inputs": [],
      "name": "APPROVER_ROLE",
      "outputs": [
        {
          "internalType": "bytes32",
          "name": "",
          "type": "bytes32"
        }
      ],
      "stateMutability": "view",
      "type": "function"
    },
    {
      "inputs": [],
      "name": "AUDIT_ROLE",
      "outputs": [
        {
          "internalType": "bytes32",
          "name": "",
          "type": "bytes32"
        }
      ],
      "stateMutability": "view",
      "type": "function"
    },
    {
      "inputs": [],
      "name": "DEFAULT_ADMIN_ROLE",
      "outputs": [
        {
          "internalType": "bytes32",
          "name": "",
          "type": "bytes32"
        }
      ],
      "stateMutability": "view",
      "type": "function"
    },
    {
      "inputs": [],
      "name": "EXECUTOR_ROLE",
      "outputs": [
        {
          "internalType": "bytes32",
          "name": "",
          "type": "bytes32"
        }
      ],
      "stateMutability": "view",
      "type": "function"
    },
    {
      "inputs": [],
      "name": "FINALIZER_ROLE",
      "outputs": [
        {
          "internalType": "bytes32",
          "name": "",
          "type": "bytes32"
        }
      ],
      "stateMutability": "view",
      "type": "function"
    },
    {
      "inputs": [
        {
          "internalType": "bytes32",
          "name": "_check",
          "type": "bytes32"
        }
      ],
      "name": "addCheck",
      "outputs": [
        {
          "internalType": "bool",
          "name": "",
          "type": "bool"
        }
      ],
      "stateMutability": "nonpayable",
      "type": "function"
    },
    {
      "inputs": [
        {
          "internalType": "address",
          "name": "_address",
          "type": "address"
        }
      ],
      "name": "addToken",
      "outputs": [
        {
          "internalType": "bool",
          "name": "",
          "type": "bool"
        }
      ],
      "stateMutability": "nonpayable",
      "type": "function"
    },
    {
      "inputs": [],
      "name": "allChecks",
      "outputs": [
        {
          "internalType": "bytes32[]",
          "name": "",
          "type": "bytes32[]"
        }
      ],
      "stateMutability": "view",
      "type": "function"
    },
    {
      "inputs": [],
      "name": "close",
      "outputs": [
        {
          "internalType": "bool",
          "name": "",
          "type": "bool"
        }
      ],
      "stateMutability": "nonpayable",
      "type": "function"
    },
    {
      "inputs": [],
      "name": "focus",
      "outputs": [
        {
          "internalType": "string",
          "name": "",
          "type": "string"
        }
      ],
      "stateMutability": "view",
      "type": "function"
    },
    {
      "inputs": [],
      "name": "getAllowedTokens",
      "outputs": [
        {
          "internalType": "address[]",
          "name": "",
          "type": "address[]"
        }
      ],
      "stateMutability": "view",
      "type": "function"
    },
    {
      "inputs": [],
      "name": "getBalances",
      "outputs": [
        {
          "internalType": "address[]",
          "name": "",
          "type": "address[]"
        },
        {
          "internalType": "uint256[]",
          "name": "",
          "type": "uint256[]"
        }
      ],
      "stateMutability": "view",
      "type": "function"
    },
    {
      "inputs": [
        {
          "internalType": "uint256",
          "name": "_index",
          "type": "uint256"
        }
      ],
      "name": "getCheck",
      "outputs": [
        {
          "internalType": "bytes32",
          "name": "",
          "type": "bytes32"
        }
      ],
      "stateMutability": "view",
      "type": "function"
    },
    {
      "inputs": [
        {
          "internalType": "address",
          "name": "_tokenAddress",
          "type": "address"
        }
      ],
      "name": "getDepositAddressFor",
      "outputs": [
        {
          "internalType": "address",
          "name": "",
          "type": "address"
        }
      ],
      "stateMutability": "view",
      "type": "function"
    },
    {
      "inputs": [],
      "name": "getMeta",
      "outputs": [
        {
          "internalType": "string",
          "name": "",
          "type": "string"
        },
        {
          "internalType": "string",
          "name": "",
          "type": "string"
        }
      ],
      "stateMutability": "view",
      "type": "function"
    },
    {
      "inputs": [
        {
          "internalType": "bytes32",
          "name": "role",
          "type": "bytes32"
        }
      ],
      "name": "getRoleAdmin",
      "outputs": [
        {
          "internalType": "bytes32",
          "name": "",
          "type": "bytes32"
        }
      ],
      "stateMutability": "view",
      "type": "function"
    },
    {
      "inputs": [
        {
          "internalType": "bytes32",
          "name": "role",
          "type": "bytes32"
        },
        {
          "internalType": "address",
          "name": "account",
          "type": "address"
        }
      ],
      "name": "grantRole",
      "outputs": [],
      "stateMutability": "nonpayable",
      "type": "function"
    },
    {
      "inputs": [
        {
          "internalType": "bytes32",
          "name": "role",
          "type": "bytes32"
        },
        {
          "internalType": "address",
          "name": "account",
          "type": "address"
        }
      ],
      "name": "hasRole",
      "outputs": [
        {
          "internalType": "bool",
          "name": "",
          "type": "bool"
        }
      ],
      "stateMutability": "view",
      "type": "function"
    },
    {
      "inputs": [
        {
          "internalType": "string",
          "name": "_name",
          "type": "string"
        },
        {
          "internalType": "string",
          "name": "_focus",
          "type": "string"
        },
        {
          "internalType": "address",
          "name": "_safeAddress",
          "type": "address"
        },
        {
          "internalType": "address",
          "name": "_owner",
          "type": "address"
        },
        {
          "internalType": "address[]",
          "name": "_allowedTokens",
          "type": "address[]"
        },
        {
          "internalType": "bool",
          "name": "_requestable",
          "type": "bool"
        },
        {
          "internalType": "bytes32[]",
          "name": "_checks",
          "type": "bytes32[]"
        },
        {
          "internalType": "address[]",
          "name": "_whitelist",
          "type": "address[]"
        }
      ],
      "name": "initialize",
      "outputs": [],
      "stateMutability": "nonpayable",
      "type": "function"
    },
    {
      "inputs": [],
      "name": "isOpen",
      "outputs": [
        {
          "internalType": "bool",
          "name": "",
          "type": "bool"
        }
      ],
      "stateMutability": "view",
      "type": "function"
    },
    {
      "inputs": [
        {
          "internalType": "address",
          "name": "_address",
          "type": "address"
        }
      ],
      "name": "isTokenAllowed",
      "outputs": [
        {
          "internalType": "bool",
          "name": "",
          "type": "bool"
        }
      ],
      "stateMutability": "view",
      "type": "function"
    },
    {
      "inputs": [
        {
          "internalType": "address",
          "name": "_address",
          "type": "address"
        }
      ],
      "name": "isWhitelisted",
      "outputs": [
        {
          "internalType": "bool",
          "name": "",
          "type": "bool"
        }
      ],
      "stateMutability": "view",
      "type": "function"
    },
    {
      "inputs": [],
      "name": "name",
      "outputs": [
        {
          "internalType": "string",
          "name": "",
          "type": "string"
        }
      ],
      "stateMutability": "view",
      "type": "function"
    },
    {
      "inputs": [],
      "name": "pause",
      "outputs": [
        {
          "internalType": "bool",
          "name": "",
          "type": "bool"
        }
      ],
      "stateMutability": "nonpayable",
      "type": "function"
    },
    {
      "inputs": [
        {
          "internalType": "uint256",
          "name": "_index",
          "type": "uint256"
        }
      ],
      "name": "removeCheck",
      "outputs": [
        {
          "internalType": "bool",
          "name": "",
          "type": "bool"
        }
      ],
      "stateMutability": "nonpayable",
      "type": "function"
    },
    {
      "inputs": [
        {
          "internalType": "address",
          "name": "_address",
          "type": "address"
        }
      ],
      "name": "removeToken",
      "outputs": [
        {
          "internalType": "bool",
          "name": "",
          "type": "bool"
        }
      ],
      "stateMutability": "nonpayable",
      "type": "function"
    },
    {
      "inputs": [
        {
          "internalType": "bytes32",
          "name": "role",
          "type": "bytes32"
        },
        {
          "internalType": "address",
          "name": "account",
          "type": "address"
        }
      ],
      "name": "renounceRole",
      "outputs": [],
      "stateMutability": "nonpayable",
      "type": "function"
    },
    {
      "inputs": [],
      "name": "requestable",
      "outputs": [
        {
          "internalType": "bool",
          "name": "",
          "type": "bool"
        }
      ],
      "stateMutability": "view",
      "type": "function"
    },
    {
      "inputs": [],
      "name": "resume",
      "outputs": [
        {
          "internalType": "bool",
          "name": "",
          "type": "bool"
        }
      ],
      "stateMutability": "nonpayable",
      "type": "function"
    },
    {
      "inputs": [
        {
          "internalType": "bytes32",
          "name": "role",
          "type": "bytes32"
        },
        {
          "internalType": "address",
          "name": "account",
          "type": "address"
        }
      ],
      "name": "revokeRole",
      "outputs": [],
      "stateMutability": "nonpayable",
      "type": "function"
    },
    {
      "inputs": [],
      "name": "status",
      "outputs": [
        {
          "internalType": "enum FundV1.Status",
          "name": "",
          "type": "uint8"
        }
      ],
      "stateMutability": "view",
      "type": "function"
    },
    {
      "inputs": [
        {
          "internalType": "bytes4",
          "name": "interfaceId",
          "type": "bytes4"
        }
      ],
      "name": "supportsInterface",
      "outputs": [
        {
          "internalType": "bool",
          "name": "",
          "type": "bool"
        }
      ],
      "stateMutability": "view",
      "type": "function"
    }
  ],
  "transactionHash": "0x4631a1e614f491f10611a7ee404bebd6c2bdefcaee04c49e3ca92c5faf9a91b2",
  "args": [],
  "numDeployments": 1,
  "solcInputHash": "d19b2e139582d461b78f652310f0aedd",
  "bytecode": "0x608060405234801561001057600080fd5b50611cc3806100206000396000f3fe608060405234801561001057600080fd5b50600436106101ef5760003560e01c806343d726d61161010f5780639db797f0116100a2578063b6e4908711610071578063b6e490871461047a578063d48bfca71461048e578063d547741f146104a1578063f9eaee0d146104b457600080fd5b80639db797f014610436578063a217fddf14610449578063a79af2ce14610451578063accbd8c91461046757600080fd5b806377a80589116100de57806377a8058914610400578063805421ed146104135780638456cb591461041b57806391d148541461042357600080fd5b806343d726d6146103b657806347535d7b146103be578063503642bb146103c65780635fa7b584146103ed57600080fd5b8063233fd7ed116101875780633af32abf116101565780633af32abf146103425780633b5862c1146103555780633df55efd146103685780634245962b1461038f57600080fd5b8063233fd7ed146102cc578063248a9ca3146102f75780632f2ff15d1461031a57806336568abe1461032f57600080fd5b8063046f7da2116101c3578063046f7da21461026057806306fdde031461026857806307bd02651461027d578063200d2ed2146102b257600080fd5b8062113e08146101f4578063015887d61461021357806301ffc9a714610228578063024ece891461024b575b600080fd5b6101fc6104c7565b60405161020a929190611621565b60405180910390f35b61021b610658565b60405161020a9190611678565b61023b6102363660046116bc565b6106b0565b604051901515815260200161020a565b6102536106e7565b60405161020a91906116e6565b61023b6106f8565b61027061074d565b60405161020a9190611751565b6102a47fd8aa0f3194971a2a116679f7c2090f6939c8d4e01a2a8d7e41d55e5351469e6381565b60405190815260200161020a565b6004546102bf9060ff1681565b60405161020a919061177a565b6102df6102da3660046117be565b6107db565b6040516001600160a01b03909116815260200161020a565b6102a46103053660046117d9565b60009081526020819052604090206001015490565b61032d6103283660046117f2565b610873565b005b61032d61033d3660046117f2565b61089e565b61023b6103503660046117be565b610921565b61023b6103633660046117d9565b610944565b6102a47f53ea8c2084bd069d8c2df22bdca7223415cd9c0b605c29d1a0d06f15fcd3eed481565b6102a47f408a36151f841709116a4e8aca4e0202874f7f54687dcb863b1ea4672dc9d8cf81565b61023b6109aa565b61023b6109f9565b6102a47f5db53b6955dc773ef555b3cc1835ee528ea8da7adbe1cd523fbff73209b77e0b81565b61023b6103fb3660046117be565b610a19565b61023b61040e3660046117d9565b610a38565b610270610aa1565b61023b610aae565b61023b6104313660046117f2565b610afc565b6102a46104443660046117d9565b610b25565b6102a4600081565b610459610b4c565b60405161020a92919061181e565b61032d610475366004611a04565b610c73565b60055461023b90600160a01b900460ff1681565b61023b61049c3660046117be565b610e31565b61032d6104af3660046117f2565b610e49565b61023b6104c23660046117be565b610e6f565b60608060006104d66001610e7c565b905060008167ffffffffffffffff8111156104f3576104f361184c565b60405190808252806020026020018201604052801561051c578160200160208202803683370190505b50905060008267ffffffffffffffff81111561053a5761053a61184c565b604051908082528060200260200182016040528015610563578160200160208202803683370190505b50905060005b8381101561064d5761057c600182610e86565b83828151811061058e5761058e611b08565b6001600160a01b03909216602092830291909101909101526105b1600182610e86565b6005546040516370a0823160e01b81526001600160a01b0391821660048201529116906370a0823190602401602060405180830381865afa1580156105fa573d6000803e3d6000fd5b505050506040513d601f19601f8201168201806040525081019061061e9190611b1e565b82828151811061063057610630611b08565b60209081029190910101528061064581611b4d565b915050610569565b509094909350915050565b606060038054806020026020016040519081016040528092919081815260200182805480156106a657602002820191906000526020600020905b815481526020019060010190808311610692575b5050505050905090565b60006001600160e01b03198216637965db0b60e01b14806106e157506301ffc9a760e01b6001600160e01b03198316145b92915050565b60606106f36001610e92565b905090565b6000806107058133610e9f565b600160045460ff16600281111561071e5761071e611764565b1461073c57604051631eb49d6d60e11b815260040160405180910390fd5b6107466000610f03565b91505b5090565b6006805461075a90611b68565b80601f016020809104026020016040519081016040528092919081815260200182805461078690611b68565b80156107d35780601f106107a8576101008083540402835291602001916107d3565b820191906000526020600020905b8154815290600101906020018083116107b657829003601f168201915b505050505081565b60008060045460ff1660028111156107f5576107f5611764565b1461081357604051631eb49d6d60e11b815260040160405180910390fd5b61081c82610e6f565b61083957604051631eb49d6d60e11b815260040160405180910390fd5b6005546001600160a01b031661086257604051631eb49d6d60e11b815260040160405180910390fd5b50506005546001600160a01b031690565b60008281526020819052604090206001015461088f8133610e9f565b6108998383610f6c565b505050565b6001600160a01b03811633146109135760405162461bcd60e51b815260206004820152602f60248201527f416363657373436f6e74726f6c3a2063616e206f6e6c792072656e6f756e636560448201526e103937b632b9903337b91039b2b63360891b60648201526084015b60405180910390fd5b61091d8282610ff0565b5050565b600061092d6008610e7c565b61093957506001919050565b6106e1600883611055565b60007f5db53b6955dc773ef555b3cc1835ee528ea8da7adbe1cd523fbff73209b77e0b6109718133610e9f565b60035460011061099457604051631acfaa2560e21b815260040160405180910390fd5b61099f600384611077565b600191505b50919050565b6000806109b78133610e9f565b600260045460ff1660028111156109d0576109d0611764565b14156109ef57604051631eb49d6d60e11b815260040160405180910390fd5b6107466002610f03565b60008060045460ff166002811115610a1357610a13611764565b14905090565b600080610a268133610e9f565b610a31600184611111565b9392505050565b60007f5db53b6955dc773ef555b3cc1835ee528ea8da7adbe1cd523fbff73209b77e0b610a658133610e9f565b505060038054600180820183556000929092527fc2575a0e9e593c00f959f8c92f12db2869c3395a3b0502d05e2516446f71f85b019190915590565b6007805461075a90611b68565b600080610abb8133610e9f565b600060045460ff166002811115610ad457610ad4611764565b14610af257604051631eb49d6d60e11b815260040160405180910390fd5b6107466001610f03565b6000918252602082815260408084206001600160a01b0393909316845291905290205460ff1690565b600060038281548110610b3a57610b3a611b08565b90600052602060002001549050919050565b60608060066007818054610b5f90611b68565b80601f0160208091040260200160405190810160405280929190818152602001828054610b8b90611b68565b8015610bd85780601f10610bad57610100808354040283529160200191610bd8565b820191906000526020600020905b815481529060010190602001808311610bbb57829003601f168201915b50505050509150808054610beb90611b68565b80601f0160208091040260200160405190810160405280929190818152602001828054610c1790611b68565b8015610c645780601f10610c3957610100808354040283529160200191610c64565b820191906000526020600020905b815481529060010190602001808311610c4757829003601f168201915b50505050509050915091509091565b60045461010090046001600160a01b031615610ca257604051631dd2188d60e31b815260040160405180910390fd5b8215610d1f576000825111610d1f5760405162461bcd60e51b815260206004820152603c60248201527f4120736574206f6620696e697469616c20636865636b7320617265207265717560448201527f6972656420666f722061207265717565737461626c652046756e642e00000000606482015260840161090a565b600081511180610d30575060008251115b15610d825782610d825760405162461bcd60e51b815260206004820181905260248201527f46756e64206d75737420626520736574206173207265717565737461626c652e604482015260640161090a565b610d8d600086611126565b60048054610100600160a81b03191633610100021790556005805460ff60a01b1916600160a01b851515021790558751610dce9060069060208b019061150e565b508651610de29060079060208a019061150e565b50600580546001600160a01b0319166001600160a01b0388161790556004805460ff19169055610e1182611130565b610e1c600882611143565b610e27600185611143565b5050505050505050565b600080610e3e8133610e9f565b610a31600184611195565b600082815260208190526040902060010154610e658133610e9f565b6108998383610ff0565b60006106e1600183611055565b60006106e1825490565b6000610a3183836111aa565b60606000610a31836111d4565b610ea98282610afc565b61091d57610ec1816001600160a01b03166014611230565b610ecc836020611230565b604051602001610edd929190611b9d565b60408051601f198184030181529082905262461bcd60e51b825261090a91600401611751565b60048054600091839160ff19166001836002811115610f2457610f24611764565b0217905550816002811115610f3b57610f3b611764565b6040517f4884fc8861710f82d3dd1858f3e1978853d51909a2e9a0efafe95d8cce5f3b9a90600090a2506001919050565b610f768282610afc565b61091d576000828152602081815260408083206001600160a01b03851684529091529020805460ff19166001179055610fac3390565b6001600160a01b0316816001600160a01b0316837f2f8788117e7eff1d82e926ec794901d17c78024a50270940304540a733656f0d60405160405180910390a45050565b610ffa8282610afc565b1561091d576000828152602081815260408083206001600160a01b0385168085529252808320805460ff1916905551339285917ff6391f5c32d9c69d2a47ea670b442974b53935d1edc7fd64eb21e047a839171b9190a45050565b6001600160a01b03811660009081526001830160205260408120541515610a31565b815461108257600080fd5b815461109090600190611c12565b81111561109c57600080fd5b815482906110ac90600190611c12565b815481106110bc576110bc611b08565b90600052602060002001548282815481106110d9576110d9611b08565b9060005260206000200181905550818054806110f7576110f7611c29565b600190038181906000526020600020016000905590555050565b6000610a31836001600160a01b0384166113cc565b61091d8282610f6c565b805161091d90600390602084019061158e565b805160005b8181101561118f5761117c83828151811061116557611165611b08565b60200260200101518561119590919063ffffffff16565b508061118781611b4d565b915050611148565b50505050565b6000610a31836001600160a01b0384166114bf565b60008260000182815481106111c1576111c1611b08565b9060005260206000200154905092915050565b60608160000180548060200260200160405190810160405280929190818152602001828054801561122457602002820191906000526020600020905b815481526020019060010190808311611210575b50505050509050919050565b6060600061123f836002611c3f565b61124a906002611c5e565b67ffffffffffffffff8111156112625761126261184c565b6040519080825280601f01601f19166020018201604052801561128c576020820181803683370190505b509050600360fc1b816000815181106112a7576112a7611b08565b60200101906001600160f81b031916908160001a905350600f60fb1b816001815181106112d6576112d6611b08565b60200101906001600160f81b031916908160001a90535060006112fa846002611c3f565b611305906001611c5e565b90505b600181111561137d576f181899199a1a9b1b9c1cb0b131b232b360811b85600f166010811061133957611339611b08565b1a60f81b82828151811061134f5761134f611b08565b60200101906001600160f81b031916908160001a90535060049490941c9361137681611c76565b9050611308565b508315610a315760405162461bcd60e51b815260206004820181905260248201527f537472696e67733a20686578206c656e67746820696e73756666696369656e74604482015260640161090a565b600081815260018301602052604081205480156114b55760006113f0600183611c12565b855490915060009061140490600190611c12565b905081811461146957600086600001828154811061142457611424611b08565b906000526020600020015490508087600001848154811061144757611447611b08565b6000918252602080832090910192909255918252600188019052604090208390555b855486908061147a5761147a611c29565b6001900381819060005260206000200160009055905585600101600086815260200190815260200160002060009055600193505050506106e1565b60009150506106e1565b6000818152600183016020526040812054611506575081546001818101845560008481526020808220909301849055845484825282860190935260409020919091556106e1565b5060006106e1565b82805461151a90611b68565b90600052602060002090601f01602090048101928261153c5760008555611582565b82601f1061155557805160ff1916838001178555611582565b82800160010185558215611582579182015b82811115611582578251825591602001919060010190611567565b506107499291506115c8565b8280548282559060005260206000209081019282156115825791602002820182811115611582578251825591602001919060010190611567565b5b8082111561074957600081556001016115c9565b600081518084526020808501945080840160005b838110156116165781516001600160a01b0316875295820195908201906001016115f1565b509495945050505050565b60408152600061163460408301856115dd565b82810360208481019190915284518083528582019282019060005b8181101561166b5784518352938301939183019160010161164f565b5090979650505050505050565b6020808252825182820181905260009190848201906040850190845b818110156116b057835183529284019291840191600101611694565b50909695505050505050565b6000602082840312156116ce57600080fd5b81356001600160e01b031981168114610a3157600080fd5b602081526000610a3160208301846115dd565b60005b838110156117145781810151838201526020016116fc565b8381111561118f5750506000910152565b6000815180845261173d8160208601602086016116f9565b601f01601f19169290920160200192915050565b602081526000610a316020830184611725565b634e487b7160e01b600052602160045260246000fd5b602081016003831061179c57634e487b7160e01b600052602160045260246000fd5b91905290565b80356001600160a01b03811681146117b957600080fd5b919050565b6000602082840312156117d057600080fd5b610a31826117a2565b6000602082840312156117eb57600080fd5b5035919050565b6000806040838503121561180557600080fd5b82359150611815602084016117a2565b90509250929050565b6040815260006118316040830185611725565b82810360208401526118438185611725565b95945050505050565b634e487b7160e01b600052604160045260246000fd5b604051601f8201601f1916810167ffffffffffffffff8111828210171561188b5761188b61184c565b604052919050565b600082601f8301126118a457600080fd5b813567ffffffffffffffff8111156118be576118be61184c565b6118d1601f8201601f1916602001611862565b8181528460208386010111156118e657600080fd5b816020850160208301376000918101602001919091529392505050565b600067ffffffffffffffff82111561191d5761191d61184c565b5060051b60200190565b600082601f83011261193857600080fd5b8135602061194d61194883611903565b611862565b82815260059290921b8401810191818101908684111561196c57600080fd5b8286015b8481101561198e57611981816117a2565b8352918301918301611970565b509695505050505050565b803580151581146117b957600080fd5b600082601f8301126119ba57600080fd5b813560206119ca61194883611903565b82815260059290921b840181019181810190868411156119e957600080fd5b8286015b8481101561198e57803583529183019183016119ed565b600080600080600080600080610100898b031215611a2157600080fd5b883567ffffffffffffffff80821115611a3957600080fd5b611a458c838d01611893565b995060208b0135915080821115611a5b57600080fd5b611a678c838d01611893565b9850611a7560408c016117a2565b9750611a8360608c016117a2565b965060808b0135915080821115611a9957600080fd5b611aa58c838d01611927565b9550611ab360a08c01611999565b945060c08b0135915080821115611ac957600080fd5b611ad58c838d016119a9565b935060e08b0135915080821115611aeb57600080fd5b50611af88b828c01611927565b9150509295985092959890939650565b634e487b7160e01b600052603260045260246000fd5b600060208284031215611b3057600080fd5b5051919050565b634e487b7160e01b600052601160045260246000fd5b6000600019821415611b6157611b61611b37565b5060010190565b600181811c90821680611b7c57607f821691505b602082108114156109a457634e487b7160e01b600052602260045260246000fd5b7f416363657373436f6e74726f6c3a206163636f756e7420000000000000000000815260008351611bd58160178501602088016116f9565b7001034b99036b4b9b9b4b733903937b6329607d1b6017918401918201528351611c068160288401602088016116f9565b01602801949350505050565b600082821015611c2457611c24611b37565b500390565b634e487b7160e01b600052603160045260246000fd5b6000816000190483118215151615611c5957611c59611b37565b500290565b60008219821115611c7157611c71611b37565b500190565b600081611c8557611c85611b37565b50600019019056fea26469706673582212207f1ff49b2f3d0115174db6d0e29ca89375e150e4f5c0c98157882ff994d7527964736f6c634300080a0033",
  "devdoc": {
    "kind": "dev",
    "methods": {
      "addToken(address)": {
        "details": "add a token to the list of allowed tokens",
        "params": {
          "_address": "tracker address of the token"
        },
        "returns": {
          "_0": "boolean indicating result of the operation"
        }
      },
      "close()": {
        "details": "close fund",
        "returns": {
          "_0": "boolean indicating result of the operation"
        }
      },
      "getAllowedTokens()": {
        "details": "list of allowed token contract addresses",
        "returns": {
          "_0": "return a list of allowed token contract addresses"
        }
      },
      "getBalances()": {
        "details": "get fund safe balances",
        "returns": {
          "_0": "tuple of (tokenAddress[], balance[])"
        }
      },
      "getDepositAddressFor(address)": {
        "details": "get deposit address for a token",
        "params": {
          "_tokenAddress": "tracker address of the token to deposit (must be an allowed token)"
        },
        "returns": {
          "_0": "deposit address for a token"
        }
      },
      "getMeta()": {
        "details": "get metadata for a fund",
        "returns": {
          "_0": "metadata of the fund"
        }
      },
      "getRoleAdmin(bytes32)": {
        "details": "Returns the admin role that controls `role`. See {grantRole} and {revokeRole}. To change a role's admin, use {_setRoleAdmin}."
      },
      "grantRole(bytes32,address)": {
        "details": "Grants `role` to `account`. If `account` had not been already granted `role`, emits a {RoleGranted} event. Requirements: - the caller must have ``role``'s admin role."
      },
      "hasRole(bytes32,address)": {
        "details": "Returns `true` if `account` has been granted `role`."
      },
      "isOpen()": {
        "details": "check if a fund is open for donations",
        "returns": {
          "_0": "boolean indicating status"
        }
      },
      "isTokenAllowed(address)": {
        "details": "add a token to the list of allowed tokens",
        "params": {
          "_address": "tracker address of the token"
        },
        "returns": {
          "_0": "boolean indicating if a token is allowed for deposit"
        }
      },
      "isWhitelisted(address)": {
        "details": "check if address is whitelisted",
        "returns": {
          "_0": "boolean indicating status"
        }
      },
      "pause()": {
        "details": "pause fund",
        "returns": {
          "_0": "boolean indicating result of the operation"
        }
      },
      "removeToken(address)": {
        "details": "remove a token from the list of allowed tokens",
        "params": {
          "_address": "tracker address of the token"
        },
        "returns": {
          "_0": "boolean indicating result of the operation"
        }
      },
      "renounceRole(bytes32,address)": {
        "details": "Revokes `role` from the calling account. Roles are often managed via {grantRole} and {revokeRole}: this function's purpose is to provide a mechanism for accounts to lose their privileges if they are compromised (such as when a trusted device is misplaced). If the calling account had been revoked `role`, emits a {RoleRevoked} event. Requirements: - the caller must be `account`."
      },
      "resume()": {
        "details": "resume fund",
        "returns": {
          "_0": "boolean indicating result of the operation"
        }
      },
      "revokeRole(bytes32,address)": {
        "details": "Revokes `role` from `account`. If `account` had been granted `role`, emits a {RoleRevoked} event. Requirements: - the caller must have ``role``'s admin role."
      },
      "supportsInterface(bytes4)": {
        "details": "See {IERC165-supportsInterface}."
      }
    },
    "version": 1
  },
  "userdoc": {
    "kind": "user",
    "methods": {
      "close()": {
        "notice": "this is final, a closed fund cannot be reopened"
      }
    },
    "version": 1
  },
  "storageLayout": {
    "storage": [
      {
        "astId": 4975,
        "contract": "contracts/FundV1.sol:FundV1",
        "label": "_roles",
        "offset": 0,
        "slot": "0",
        "type": "t_mapping(t_bytes32,t_struct(RoleData)4970_storage)"
      },
      {
        "astId": 12550,
        "contract": "contracts/FundV1.sol:FundV1",
        "label": "allowedTokens",
        "offset": 0,
        "slot": "1",
        "type": "t_struct(AddressSet)9240_storage"
      },
      {
        "astId": 9761,
        "contract": "contracts/FundV1.sol:FundV1",
        "label": "checks",
        "offset": 0,
        "slot": "3",
        "type": "t_array(t_bytes32)dyn_storage"
      },
      {
        "astId": 10352,
        "contract": "contracts/FundV1.sol:FundV1",
        "label": "status",
        "offset": 0,
        "slot": "4",
        "type": "t_enum(Status)10369"
      },
      {
        "astId": 10354,
        "contract": "contracts/FundV1.sol:FundV1",
        "label": "factory",
        "offset": 1,
        "slot": "4",
        "type": "t_address"
      },
      {
        "astId": 10356,
        "contract": "contracts/FundV1.sol:FundV1",
        "label": "safeAddress",
        "offset": 0,
        "slot": "5",
        "type": "t_address"
      },
      {
        "astId": 10358,
        "contract": "contracts/FundV1.sol:FundV1",
        "label": "requestable",
        "offset": 20,
        "slot": "5",
        "type": "t_bool"
      },
      {
        "astId": 10360,
        "contract": "contracts/FundV1.sol:FundV1",
        "label": "name",
        "offset": 0,
        "slot": "6",
        "type": "t_string_storage"
      },
      {
        "astId": 10362,
        "contract": "contracts/FundV1.sol:FundV1",
        "label": "focus",
        "offset": 0,
        "slot": "7",
        "type": "t_string_storage"
      },
      {
        "astId": 10365,
        "contract": "contracts/FundV1.sol:FundV1",
        "label": "whitelist",
        "offset": 0,
        "slot": "8",
        "type": "t_struct(AddressSet)9240_storage"
      }
    ],
    "types": {
      "t_address": {
        "encoding": "inplace",
        "label": "address",
        "numberOfBytes": "20"
      },
      "t_array(t_bytes32)dyn_storage": {
        "base": "t_bytes32",
        "encoding": "dynamic_array",
        "label": "bytes32[]",
        "numberOfBytes": "32"
      },
      "t_bool": {
        "encoding": "inplace",
        "label": "bool",
        "numberOfBytes": "1"
      },
      "t_bytes32": {
        "encoding": "inplace",
        "label": "bytes32",
        "numberOfBytes": "32"
      },
      "t_enum(Status)10369": {
        "encoding": "inplace",
        "label": "enum FundV1.Status",
        "numberOfBytes": "1"
      },
      "t_mapping(t_address,t_bool)": {
        "encoding": "mapping",
        "key": "t_address",
        "label": "mapping(address => bool)",
        "numberOfBytes": "32",
        "value": "t_bool"
      },
      "t_mapping(t_bytes32,t_struct(RoleData)4970_storage)": {
        "encoding": "mapping",
        "key": "t_bytes32",
        "label": "mapping(bytes32 => struct AccessControl.RoleData)",
        "numberOfBytes": "32",
        "value": "t_struct(RoleData)4970_storage"
      },
      "t_mapping(t_bytes32,t_uint256)": {
        "encoding": "mapping",
        "key": "t_bytes32",
        "label": "mapping(bytes32 => uint256)",
        "numberOfBytes": "32",
        "value": "t_uint256"
      },
      "t_string_storage": {
        "encoding": "bytes",
        "label": "string",
        "numberOfBytes": "32"
      },
      "t_struct(AddressSet)9240_storage": {
        "encoding": "inplace",
        "label": "struct EnumerableSet.AddressSet",
        "members": [
          {
            "astId": 9239,
            "contract": "contracts/FundV1.sol:FundV1",
            "label": "_inner",
            "offset": 0,
            "slot": "0",
            "type": "t_struct(Set)8939_storage"
          }
        ],
        "numberOfBytes": "64"
      },
      "t_struct(RoleData)4970_storage": {
        "encoding": "inplace",
        "label": "struct AccessControl.RoleData",
        "members": [
          {
            "astId": 4967,
            "contract": "contracts/FundV1.sol:FundV1",
            "label": "members",
            "offset": 0,
            "slot": "0",
            "type": "t_mapping(t_address,t_bool)"
          },
          {
            "astId": 4969,
            "contract": "contracts/FundV1.sol:FundV1",
            "label": "adminRole",
            "offset": 0,
            "slot": "1",
            "type": "t_bytes32"
          }
        ],
        "numberOfBytes": "64"
      },
      "t_struct(Set)8939_storage": {
        "encoding": "inplace",
        "label": "struct EnumerableSet.Set",
        "members": [
          {
            "astId": 8934,
            "contract": "contracts/FundV1.sol:FundV1",
            "label": "_values",
            "offset": 0,
            "slot": "0",
            "type": "t_array(t_bytes32)dyn_storage"
          },
          {
            "astId": 8938,
            "contract": "contracts/FundV1.sol:FundV1",
            "label": "_indexes",
            "offset": 0,
            "slot": "1",
            "type": "t_mapping(t_bytes32,t_uint256)"
          }
        ],
        "numberOfBytes": "64"
      },
      "t_uint256": {
        "encoding": "inplace",
        "label": "uint256",
        "numberOfBytes": "32"
      }
    }
  }
}