{
  "address": "0x9A9f2CCfdE556A7E9Ff0848998Aa4a0CFD8863AE",
  "abi": [
    {
      "inputs": [
        {
          "internalType": "address",
          "name": "_oracle",
          "type": "address"
        },
        {
          "internalType": "address",
          "name": "_chainlink",
          "type": "address"
        }
      ],
      "stateMutability": "nonpayable",
      "type": "constructor"
    },
    {
      "anonymous": false,
      "inputs": [
        {
          "indexed": true,
          "internalType": "bytes32",
          "name": "id",
          "type": "bytes32"
        }
      ],
      "name": "ChainlinkCancelled",
      "type": "event"
    },
    {
      "anonymous": false,
      "inputs": [
        {
          "indexed": true,
          "internalType": "bytes32",
          "name": "id",
          "type": "bytes32"
        }
      ],
      "name": "ChainlinkFulfilled",
      "type": "event"
    },
    {
      "anonymous": false,
      "inputs": [
        {
          "indexed": true,
          "internalType": "bytes32",
          "name": "id",
          "type": "bytes32"
        }
      ],
      "name": "ChainlinkRequested",
      "type": "event"
    },
    {
      "anonymous": false,
      "inputs": [
        {
          "indexed": true,
          "internalType": "address",
          "name": "from",
          "type": "address"
        },
        {
          "indexed": true,
          "internalType": "address",
          "name": "to",
          "type": "address"
        }
      ],
      "name": "OwnershipTransferRequested",
      "type": "event"
    },
    {
      "anonymous": false,
      "inputs": [
        {
          "indexed": true,
          "internalType": "address",
          "name": "from",
          "type": "address"
        },
        {
          "indexed": true,
          "internalType": "address",
          "name": "to",
          "type": "address"
        }
      ],
      "name": "OwnershipTransferred",
      "type": "event"
    },
    {
      "anonymous": false,
      "inputs": [
        {
          "indexed": true,
          "internalType": "bytes32",
          "name": "_requestId",
          "type": "bytes32"
        },
        {
          "indexed": true,
          "internalType": "uint256",
          "name": "_govRequestId",
          "type": "uint256"
        },
        {
          "indexed": true,
          "internalType": "bytes32",
          "name": "_checkId",
          "type": "bytes32"
        },
        {
          "indexed": false,
          "internalType": "bool",
          "name": "_success",
          "type": "bool"
        }
      ],
      "name": "RequestFullfiled",
      "type": "event"
    },
    {
      "inputs": [],
      "name": "acceptOwnership",
      "outputs": [],
      "stateMutability": "nonpayable",
      "type": "function"
    },
    {
      "inputs": [
        {
          "internalType": "bytes32",
          "name": "_requestId",
          "type": "bytes32"
        },
        {
          "internalType": "bool",
          "name": "_data",
          "type": "bool"
        },
        {
          "internalType": "bytes32",
          "name": "_checkId",
          "type": "bytes32"
        },
        {
          "internalType": "uint256",
          "name": "_govRequestId",
          "type": "uint256"
        }
      ],
      "name": "approveCheck",
      "outputs": [],
      "stateMutability": "nonpayable",
      "type": "function"
    },
    {
      "inputs": [
        {
          "internalType": "bytes32",
          "name": "_requestId",
          "type": "bytes32"
        },
        {
          "internalType": "uint256",
          "name": "_payment",
          "type": "uint256"
        },
        {
          "internalType": "bytes4",
          "name": "_callbackFunctionId",
          "type": "bytes4"
        },
        {
          "internalType": "uint256",
          "name": "_expiration",
          "type": "uint256"
        }
      ],
      "name": "cancelRequest",
      "outputs": [],
      "stateMutability": "nonpayable",
      "type": "function"
    },
    {
      "inputs": [],
      "name": "chainlink",
      "outputs": [
        {
          "internalType": "address",
          "name": "",
          "type": "address"
        }
      ],
      "stateMutability": "view",
      "type": "function"
    },
    {
      "inputs": [],
      "name": "fee",
      "outputs": [
        {
          "internalType": "uint256",
          "name": "",
          "type": "uint256"
        }
      ],
      "stateMutability": "view",
      "type": "function"
    },
    {
      "inputs": [],
      "name": "getChainlinkToken",
      "outputs": [
        {
          "internalType": "address",
          "name": "",
          "type": "address"
        }
      ],
      "stateMutability": "view",
      "type": "function"
    },
    {
      "inputs": [],
      "name": "oracle",
      "outputs": [
        {
          "internalType": "address",
          "name": "",
          "type": "address"
        }
      ],
      "stateMutability": "view",
      "type": "function"
    },
    {
      "inputs": [],
      "name": "owner",
      "outputs": [
        {
          "internalType": "address",
          "name": "",
          "type": "address"
        }
      ],
      "stateMutability": "view",
      "type": "function"
    },
    {
      "inputs": [
        {
          "internalType": "uint256",
          "name": "_fee",
          "type": "uint256"
        }
      ],
      "name": "setFee",
      "outputs": [],
      "stateMutability": "nonpayable",
      "type": "function"
    },
    {
      "inputs": [
        {
          "internalType": "address",
          "name": "_oracle",
          "type": "address"
        }
      ],
      "name": "setOracle",
      "outputs": [],
      "stateMutability": "nonpayable",
      "type": "function"
    },
    {
      "inputs": [
        {
          "internalType": "string",
          "name": "source",
          "type": "string"
        }
      ],
      "name": "stringToBytes32",
      "outputs": [
        {
          "internalType": "bytes32",
          "name": "result",
          "type": "bytes32"
        }
      ],
      "stateMutability": "pure",
      "type": "function"
    },
    {
      "inputs": [
        {
          "internalType": "address",
          "name": "to",
          "type": "address"
        }
      ],
      "name": "transferOwnership",
      "outputs": [],
      "stateMutability": "nonpayable",
      "type": "function"
    },
    {
      "inputs": [
        {
          "internalType": "bytes32",
          "name": "_jobId",
          "type": "bytes32"
        },
        {
          "internalType": "bytes",
          "name": "_params",
          "type": "bytes"
        }
      ],
      "name": "tryApprove",
      "outputs": [
        {
          "internalType": "bytes32",
          "name": "",
          "type": "bytes32"
        }
      ],
      "stateMutability": "nonpayable",
      "type": "function"
    },
    {
      "inputs": [],
      "name": "withdrawLink",
      "outputs": [],
      "stateMutability": "nonpayable",
      "type": "function"
    }
  ],
  "transactionHash": "0x6632af80259f825bbadf94688742e568b76e9a0ba110231e3833be5cb6eddd0c",
  "args": [
    "0x0B306BF915C4d645ff596e518fAf3F9669b97016",
    "0x9A676e781A523b5d0C0e43731313A708CB607508"
  ],
  "numDeployments": 1,
  "solcInputHash": "d19b2e139582d461b78f652310f0aedd",
  "bytecode": "0x608060405260016004553480156200001657600080fd5b5060405162001545380380620015458339810160408190526200003991620001d1565b3380600081620000905760405162461bcd60e51b815260206004820152601860248201527f43616e6e6f7420736574206f776e657220746f207a65726f000000000000000060448201526064015b60405180910390fd5b600680546001600160a01b0319166001600160a01b0384811691909117909155811615620000c357620000c38162000107565b5050600a80546001600160a01b039384166001600160a01b031991821617909155600980549490931693169290921790555067016345785d8a000060085562000209565b6001600160a01b038116331415620001625760405162461bcd60e51b815260206004820152601760248201527f43616e6e6f74207472616e7366657220746f2073656c66000000000000000000604482015260640162000087565b600780546001600160a01b0319166001600160a01b03838116918217909255600654604051919216907fed8889f560326eb138920d842192f0eb3dd22b4f139c87a2c57538e05bae127890600090a350565b80516001600160a01b0381168114620001cc57600080fd5b919050565b60008060408385031215620001e557600080fd5b620001f083620001b4565b91506200020060208401620001b4565b90509250929050565b61132c80620002196000396000f3fe608060405234801561001057600080fd5b50600436106100ea5760003560e01c80638dc654a21161008c578063cfb5192811610066578063cfb51928146101bc578063ddca3f43146101cf578063ec65d0f8146101d8578063f2fde38b146101eb57600080fd5b80638dc654a21461018e5780639c3feeb714610196578063a4dbf8d1146101a957600080fd5b806379ba5097116100c857806379ba50971461014f5780637adbf973146101575780637dc0d1d01461016a5780638da5cb5b1461017d57600080fd5b8063165d35e1146100ef57806369fe0e2d146101195780637993a7a71461012e575b600080fd5b600a546001600160a01b03165b6040516001600160a01b0390911681526020015b60405180910390f35b61012c610127366004610e65565b6101fe565b005b61014161013c366004610f0a565b61020b565b604051908152602001610110565b61012c61027a565b61012c610165366004610f65565b61032d565b6009546100fc906001600160a01b031681565b6006546001600160a01b03166100fc565b61012c610357565b600a546100fc906001600160a01b031681565b61012c6101b7366004610f9c565b61048a565b6101416101ca366004610fd9565b61058b565b61014160085481565b61012c6101e6366004611022565b6105a8565b61012c6101f9366004610f65565b6105c2565b6102066105d3565b600855565b60006102156105d3565b6000610229843063a4dbf8d160e01b610628565b604080518082019091526006815265706172616d7360d01b60208201529091506102559082908561064d565b600954600854610270916001600160a01b0316908390610670565b9150505b92915050565b6007546001600160a01b031633146102d25760405162461bcd60e51b815260206004820152601660248201527526bab9ba10313290383937b837b9b2b21037bbb732b960511b60448201526064015b60405180910390fd5b600680546001600160a01b0319808216339081179093556007805490911690556040516001600160a01b03909116919082907f8be0079c531659141344cd1fd0a4f28419497f9722a3daafe3b4186f6b6457e090600090a350565b6103356105d3565b600980546001600160a01b0319166001600160a01b0392909216919091179055565b61035f6105d3565b600a546040516370a0823160e01b81523060048201526001600160a01b0390911690819063a9059cbb90339083906370a0823190602401602060405180830381865afa1580156103b3573d6000803e3d6000fd5b505050506040513d601f19601f820116820180604052508101906103d7919061106e565b6040516001600160e01b031960e085901b1681526001600160a01b03909216600483015260248201526044016020604051808303816000875af1158015610422573d6000803e3d6000fd5b505050506040513d601f19601f820116820180604052508101906104469190611087565b6104875760405162461bcd60e51b81526020600482015260126024820152712ab730b13632903a37903a3930b739b332b960711b60448201526064016102c9565b50565b60008481526005602052604090205484906001600160a01b031633146105035760405162461bcd60e51b815260206004820152602860248201527f536f75726365206d75737420626520746865206f7261636c65206f6620746865604482015267081c995c5d595cdd60c21b60648201526084016102c9565b60008181526005602052604080822080546001600160a01b03191690555182917f7cc135e0cebb02c3480ae5d74d377283180a2601f8f644edf7987b009316c63a91a28282867f29664ad51db0e05ab092d85ee607d95bd71462cb7a84e6e0edf84cc2235242c98760405161057c911515815260200190565b60405180910390a45050505050565b8051600090829061059f5750600092915050565b50506020015190565b6105b06105d3565b6105bc84848484610703565b50505050565b6105ca6105d3565b610487816107d5565b6006546001600160a01b031633146106265760405162461bcd60e51b815260206004820152601660248201527527b7363c9031b0b63630b1363290313c9037bbb732b960511b60448201526064016102c9565b565b610630610e2a565b610638610e2a565b61064481868686610880565b95945050505050565b608083015161065c90836108c6565b608083015161066b90826108dd565b505050565b6004546000906106818160016110ba565b600455835160408086015160808701515191516000936320214ca360e11b936106b99386938493923092918a9160019160240161111f565b60408051601f198184030181529190526020810180516001600160e01b03166001600160e01b03199093169290921790915290506106f9868386846108ea565b9695505050505050565b60008481526005602052604080822080546001600160a01b0319811690915590516001600160a01b039091169186917fe1fe3afa0f7f761ff0a8b89086790efd5140d2907ebd5b7ff6bfcb5e075fd4c59190a2604051636ee4d55360e01b815260048101869052602481018590526001600160e01b031984166044820152606481018390526001600160a01b03821690636ee4d55390608401600060405180830381600087803b1580156107b657600080fd5b505af11580156107ca573d6000803e3d6000fd5b505050505050505050565b6001600160a01b03811633141561082e5760405162461bcd60e51b815260206004820152601760248201527f43616e6e6f74207472616e7366657220746f2073656c6600000000000000000060448201526064016102c9565b600780546001600160a01b0319166001600160a01b03838116918217909255600654604051919216907fed8889f560326eb138920d842192f0eb3dd22b4f139c87a2c57538e05bae127890600090a350565b610888610e2a565b6108988560800151610100610a48565b50508284526001600160a01b03821660208501526001600160e01b031981166040850152835b949350505050565b6108d38260038351610aad565b61066b8282610bbc565b6108d38260028351610aad565b6040516bffffffffffffffffffffffff193060601b1660208201526034810184905260009060540160408051808303601f1901815282825280516020918201206000818152600590925291812080546001600160a01b0319166001600160a01b038a1617905590925082917fb5e6e01e79f91267dc17b4e6314d5d4d03593d2ceee0fbb452b750bd70ea5af99190a2600254604051630200057560e51b81526001600160a01b0390911690634000aea0906109ad90889087908790600401611187565b6020604051808303816000875af11580156109cc573d6000803e3d6000fd5b505050506040513d601f19601f820116820180604052508101906109f09190611087565b6108be5760405162461bcd60e51b815260206004820152602360248201527f756e61626c6520746f207472616e73666572416e6443616c6c20746f206f7261604482015262636c6560e81b60648201526084016102c9565b604080518082019091526060815260006020820152610a686020836111ae565b15610a9057610a786020836111ae565b610a839060206111d0565b610a8d90836110ba565b91505b506020828101829052604080518085526000815290920101905290565b60178167ffffffffffffffff1611610ad2576105bc8360e0600585901b168317610bea565b60ff8167ffffffffffffffff1611610b1057610af9836018611fe0600586901b1617610bea565b506105bc8367ffffffffffffffff83166001610c0f565b61ffff8167ffffffffffffffff1611610b4f57610b38836019611fe0600586901b1617610bea565b506105bc8367ffffffffffffffff83166002610c0f565b63ffffffff8167ffffffffffffffff1611610b9057610b7983601a611fe0600586901b1617610bea565b506105bc8367ffffffffffffffff83166004610c0f565b610ba583601b611fe0600586901b1617610bea565b506105bc8367ffffffffffffffff83166008610c0f565b604080518082019091526060815260006020820152610be383846000015151848551610c35565b9392505050565b604080518082019091526060815260006020820152610be38384600001515184610d1f565b6040805180820190915260608152600060208201526108be848560000151518585610d7b565b6040805180820190915260608152600060208201528251821115610c5857600080fd5b6020850151610c6783866110ba565b1115610c9a57610c9a85610c8a87602001518786610c8591906110ba565b610dfc565b610c959060026111e7565b610e13565b600080865180518760208301019350808887011115610cb95787860182525b505050602084015b60208410610cf95780518252610cd86020836110ba565b9150610ce56020826110ba565b9050610cf26020856111d0565b9350610cc1565b51815160001960208690036101000a019081169019919091161790525083949350505050565b60408051808201909152606081526000602082015283602001518310610d5457610d548485602001516002610c9591906111e7565b835180516020858301018481535080851415610d71576001810182525b5093949350505050565b6040805180820190915260608152600060208201526020850151610d9f85846110ba565b1115610db357610db385610c8a86856110ba565b60006001610dc3846101006112ea565b610dcd91906111d0565b9050855183868201018583198251161781525080518487011115610df15783860181525b509495945050505050565b600081831115610e0d575081610274565b50919050565b8151610e1f8383610a48565b506105bc8382610bbc565b6040805160a0810182526000808252602080830182905282840182905260608084018390528451808601909552845283015290608082015290565b600060208284031215610e7757600080fd5b5035919050565b634e487b7160e01b600052604160045260246000fd5b600067ffffffffffffffff80841115610eaf57610eaf610e7e565b604051601f8501601f19908116603f01168101908282118183101715610ed757610ed7610e7e565b81604052809350858152868686011115610ef057600080fd5b858560208301376000602087830101525050509392505050565b60008060408385031215610f1d57600080fd5b82359150602083013567ffffffffffffffff811115610f3b57600080fd5b8301601f81018513610f4c57600080fd5b610f5b85823560208401610e94565b9150509250929050565b600060208284031215610f7757600080fd5b81356001600160a01b0381168114610be357600080fd5b801515811461048757600080fd5b60008060008060808587031215610fb257600080fd5b843593506020850135610fc481610f8e565b93969395505050506040820135916060013590565b600060208284031215610feb57600080fd5b813567ffffffffffffffff81111561100257600080fd5b8201601f8101841361101357600080fd5b61027084823560208401610e94565b6000806000806080858703121561103857600080fd5b843593506020850135925060408501356001600160e01b03198116811461105e57600080fd5b9396929550929360600135925050565b60006020828403121561108057600080fd5b5051919050565b60006020828403121561109957600080fd5b8151610be381610f8e565b634e487b7160e01b600052601160045260246000fd5b600082198211156110cd576110cd6110a4565b500190565b6000815180845260005b818110156110f8576020818501810151868301820152016110dc565b8181111561110a576000602083870101525b50601f01601f19169290920160200192915050565b6001600160a01b0389811682526020820189905260408201889052861660608201526001600160e01b03198516608082015260a0810184905260c0810183905261010060e08201819052600090611178838201856110d2565b9b9a5050505050505050505050565b60018060a01b038416815282602082015260606040820152600061064460608301846110d2565b6000826111cb57634e487b7160e01b600052601260045260246000fd5b500690565b6000828210156111e2576111e26110a4565b500390565b6000816000190483118215151615611201576112016110a4565b500290565b600181815b80851115611241578160001904821115611227576112276110a4565b8085161561123457918102915b93841c939080029061120b565b509250929050565b60008261125857506001610274565b8161126557506000610274565b816001811461127b5760028114611285576112a1565b6001915050610274565b60ff841115611296576112966110a4565b50506001821b610274565b5060208310610133831016604e8410600b84101617156112c4575081810a610274565b6112ce8383611206565b80600019048211156112e2576112e26110a4565b029392505050565b6000610be3838361124956fea264697066735822122041c332abe0a265914de7772a0861724f6bdfdbbfad29437a70f82ab6e4f5759a64736f6c634300080a0033",
  "devdoc": {
    "kind": "dev",
    "methods": {},
    "version": 1
  },
  "userdoc": {
    "kind": "user",
    "methods": {
      "acceptOwnership()": {
        "notice": "Allows an ownership transfer to be completed by the recipient."
      },
      "owner()": {
        "notice": "Get the current owner"
      },
      "transferOwnership(address)": {
        "notice": "Allows an owner to begin transferring ownership to a new address, pending."
      }
    },
    "version": 1
  },
  "storageLayout": {
    "storage": [
      {
        "astId": 319,
        "contract": "contracts/mock/mockOracleConsumer.sol:MockOracleConsumer",
        "label": "s_ens",
        "offset": 0,
        "slot": "0",
        "type": "t_contract(ENSInterface)1156"
      },
      {
        "astId": 321,
        "contract": "contracts/mock/mockOracleConsumer.sol:MockOracleConsumer",
        "label": "s_ensNode",
        "offset": 0,
        "slot": "1",
        "type": "t_bytes32"
      },
      {
        "astId": 324,
        "contract": "contracts/mock/mockOracleConsumer.sol:MockOracleConsumer",
        "label": "s_link",
        "offset": 0,
        "slot": "2",
        "type": "t_contract(LinkTokenInterface)1251"
      },
      {
        "astId": 327,
        "contract": "contracts/mock/mockOracleConsumer.sol:MockOracleConsumer",
        "label": "s_oracle",
        "offset": 0,
        "slot": "3",
        "type": "t_contract(OperatorInterface)1331"
      },
      {
        "astId": 330,
        "contract": "contracts/mock/mockOracleConsumer.sol:MockOracleConsumer",
        "label": "s_requestCount",
        "offset": 0,
        "slot": "4",
        "type": "t_uint256"
      },
      {
        "astId": 334,
        "contract": "contracts/mock/mockOracleConsumer.sol:MockOracleConsumer",
        "label": "s_pendingRequests",
        "offset": 0,
        "slot": "5",
        "type": "t_mapping(t_bytes32,t_address)"
      },
      {
        "astId": 889,
        "contract": "contracts/mock/mockOracleConsumer.sol:MockOracleConsumer",
        "label": "s_owner",
        "offset": 0,
        "slot": "6",
        "type": "t_address"
      },
      {
        "astId": 891,
        "contract": "contracts/mock/mockOracleConsumer.sol:MockOracleConsumer",
        "label": "s_pendingOwner",
        "offset": 0,
        "slot": "7",
        "type": "t_address"
      },
      {
        "astId": 13040,
        "contract": "contracts/mock/mockOracleConsumer.sol:MockOracleConsumer",
        "label": "fee",
        "offset": 0,
        "slot": "8",
        "type": "t_uint256"
      },
      {
        "astId": 13042,
        "contract": "contracts/mock/mockOracleConsumer.sol:MockOracleConsumer",
        "label": "oracle",
        "offset": 0,
        "slot": "9",
        "type": "t_address"
      },
      {
        "astId": 13044,
        "contract": "contracts/mock/mockOracleConsumer.sol:MockOracleConsumer",
        "label": "chainlink",
        "offset": 0,
        "slot": "10",
        "type": "t_address"
      }
    ],
    "types": {
      "t_address": {
        "encoding": "inplace",
        "label": "address",
        "numberOfBytes": "20"
      },
      "t_bytes32": {
        "encoding": "inplace",
        "label": "bytes32",
        "numberOfBytes": "32"
      },
      "t_contract(ENSInterface)1156": {
        "encoding": "inplace",
        "label": "contract ENSInterface",
        "numberOfBytes": "20"
      },
      "t_contract(LinkTokenInterface)1251": {
        "encoding": "inplace",
        "label": "contract LinkTokenInterface",
        "numberOfBytes": "20"
      },
      "t_contract(OperatorInterface)1331": {
        "encoding": "inplace",
        "label": "contract OperatorInterface",
        "numberOfBytes": "20"
      },
      "t_mapping(t_bytes32,t_address)": {
        "encoding": "mapping",
        "key": "t_bytes32",
        "label": "mapping(bytes32 => address)",
        "numberOfBytes": "32",
        "value": "t_address"
      },
      "t_uint256": {
        "encoding": "inplace",
        "label": "uint256",
        "numberOfBytes": "32"
      }
    }
  }
}