{
  "address": "0x5FbDB2315678afecb367f032d93F642f64180aa3",
  "abi": [
    {
      "inputs": [],
      "name": "NotFound",
      "type": "error"
    },
    {
      "anonymous": false,
      "inputs": [
        {
          "indexed": true,
          "internalType": "address",
          "name": "previousOwner",
          "type": "address"
        },
        {
          "indexed": true,
          "internalType": "address",
          "name": "newOwner",
          "type": "address"
        }
      ],
      "name": "OwnershipTransferred",
      "type": "event"
    },
    {
      "inputs": [
        {
          "internalType": "bytes32[]",
          "name": "_names",
          "type": "bytes32[]"
        }
      ],
      "name": "batchGet",
      "outputs": [
        {
          "internalType": "address[]",
          "name": "",
          "type": "address[]"
        }
      ],
      "stateMutability": "view",
      "type": "function"
    },
    {
      "inputs": [
        {
          "internalType": "bytes32[]",
          "name": "_name",
          "type": "bytes32[]"
        },
        {
          "internalType": "address[]",
          "name": "_address",
          "type": "address[]"
        }
      ],
      "name": "batchRegister",
      "outputs": [
        {
          "internalType": "bool",
          "name": "",
          "type": "bool"
        }
      ],
      "stateMutability": "nonpayable",
      "type": "function"
    },
    {
      "inputs": [
        {
          "internalType": "bytes32[]",
          "name": "_name",
          "type": "bytes32[]"
        },
        {
          "internalType": "address[]",
          "name": "_address",
          "type": "address[]"
        }
      ],
      "name": "batchUpdate",
      "outputs": [
        {
          "internalType": "bool",
          "name": "",
          "type": "bool"
        }
      ],
      "stateMutability": "nonpayable",
      "type": "function"
    },
    {
      "inputs": [
        {
          "internalType": "bytes32",
          "name": "_name",
          "type": "bytes32"
        }
      ],
      "name": "get",
      "outputs": [
        {
          "internalType": "address",
          "name": "",
          "type": "address"
        }
      ],
      "stateMutability": "view",
      "type": "function"
    },
    {
      "inputs": [],
      "name": "owner",
      "outputs": [
        {
          "internalType": "address",
          "name": "",
          "type": "address"
        }
      ],
      "stateMutability": "view",
      "type": "function"
    },
    {
      "inputs": [
        {
          "internalType": "bytes32",
          "name": "_name",
          "type": "bytes32"
        },
        {
          "internalType": "address",
          "name": "_address",
          "type": "address"
        }
      ],
      "name": "register",
      "outputs": [
        {
          "internalType": "bool",
          "name": "",
          "type": "bool"
        }
      ],
      "stateMutability": "nonpayable",
      "type": "function"
    },
    {
      "inputs": [],
      "name": "registered",
      "outputs": [
        {
          "internalType": "bytes32[]",
          "name": "",
          "type": "bytes32[]"
        }
      ],
      "stateMutability": "view",
      "type": "function"
    },
    {
      "inputs": [],
      "name": "renounceOwnership",
      "outputs": [],
      "stateMutability": "nonpayable",
      "type": "function"
    },
    {
      "inputs": [
        {
          "internalType": "address",
          "name": "newOwner",
          "type": "address"
        }
      ],
      "name": "transferOwnership",
      "outputs": [],
      "stateMutability": "nonpayable",
      "type": "function"
    },
    {
      "inputs": [
        {
          "internalType": "bytes32",
          "name": "_name",
          "type": "bytes32"
        },
        {
          "internalType": "address",
          "name": "_address",
          "type": "address"
        }
      ],
      "name": "update",
      "outputs": [
        {
          "internalType": "bool",
          "name": "",
          "type": "bool"
        }
      ],
      "stateMutability": "nonpayable",
      "type": "function"
    }
  ],
  "transactionHash": "0x05327b926ed223275e91d9311260e3ba60006ba8ec525001e6998cf087d56f50",
  "args": [],
  "numDeployments": 1,
  "solcInputHash": "f0d852ee4f43f83472f08184e797cbf9",
  "bytecode": "0x608060405234801561001057600080fd5b5061001a3361001f565b61006f565b600080546001600160a01b038381166001600160a01b0319831681178455604051919092169283917f8be0079c531659141344cd1fd0a4f28419497f9722a3daafe3b4186f6b6457e09190a35050565b610b348061007e6000396000f3fe608060405234801561001057600080fd5b506004361061009e5760003560e01c80638ac29416116100665780638ac294161461011d5780638da5cb5b146101305780638eaa6ac014610155578063d22057a914610168578063f2fde38b1461017b57600080fd5b80631782783d146100a35780632de40ce3146100cb5780633b3e4b27146100e05780634ae2ffc014610100578063715018a614610113575b600080fd5b6100b66100b136600461089f565b61018e565b60405190151581526020015b60405180910390f35b6100d36102db565b6040516100c29190610961565b6100f36100ee3660046109a5565b610333565b6040516100c291906109e2565b6100b661010e366004610a23565b6103f0565b61011b610482565b005b6100b661012b36600461089f565b6104b8565b6000546001600160a01b03165b6040516001600160a01b0390911681526020016100c2565b61013d610163366004610a4f565b6105bd565b6100b6610176366004610a23565b61060e565b61011b610189366004610a68565b6106c2565b600080546001600160a01b031633146101c25760405162461bcd60e51b81526004016101b990610a8a565b60405180910390fd5b825160005b818110156102ce5760006001600160a01b0316600260008784815181106101f0576101f0610abf565b6020908102919091018101518252810191909152604001600020546001600160a01b03161461021e576102bc565b83818151811061023057610230610abf565b60200260200101516002600087848151811061024e5761024e610abf565b6020026020010151815260200190815260200160002060006101000a8154816001600160a01b0302191690836001600160a01b03160217905550600185828151811061029c5761029c610abf565b602090810291909101810151825460018101845560009384529190922001555b806102c681610ad5565b9150506101c7565b5060019150505b92915050565b6060600180548060200260200160405190810160405280929190818152602001828054801561032957602002820191906000526020600020905b815481526020019060010190808311610315575b5050505050905090565b805160609060008167ffffffffffffffff811115610353576103536107ad565b60405190808252806020026020018201604052801561037c578160200160208202803683370190505b50905060005b828110156103e8576103ac85828151811061039f5761039f610abf565b60200260200101516105bd565b8282815181106103be576103be610abf565b6001600160a01b0390921660209283029190910190910152806103e081610ad5565b915050610382565b509392505050565b600080546001600160a01b0316331461041b5760405162461bcd60e51b81526004016101b990610a8a565b6000838152600260205260409020546001600160a01b03166104505760405163c5723b5160e01b815260040160405180910390fd5b50600082815260026020526040902080546001600160a01b0383166001600160a01b0319909116179055600192915050565b6000546001600160a01b031633146104ac5760405162461bcd60e51b81526004016101b990610a8a565b6104b6600061075d565b565b600080546001600160a01b031633146104e35760405162461bcd60e51b81526004016101b990610a8a565b825160005b818110156102ce5760006001600160a01b03166002600087848151811061051157610511610abf565b6020908102919091018101518252810191909152604001600020546001600160a01b03161415610540576105ab565b83818151811061055257610552610abf565b60200260200101516002600087848151811061057057610570610abf565b6020026020010151815260200190815260200160002060006101000a8154816001600160a01b0302191690836001600160a01b031602179055505b806105b581610ad5565b9150506104e8565b6000818152600260205260408120546001600160a01b03166105f25760405163c5723b5160e01b815260040160405180910390fd5b506000908152600260205260409020546001600160a01b031690565b600080546001600160a01b031633146106395760405162461bcd60e51b81526004016101b990610a8a565b6000838152600260205260409020546001600160a01b03161561065e575060016102d5565b50600082815260026020526040812080546001600160a01b0384166001600160a01b0319909116179055600180548082018255918190527fb10e2d527612073b26eecdfd717e6a320cf44b4afac2b0732d9fcbe2b7fa0cf690910183905592915050565b6000546001600160a01b031633146106ec5760405162461bcd60e51b81526004016101b990610a8a565b6001600160a01b0381166107515760405162461bcd60e51b815260206004820152602660248201527f4f776e61626c653a206e6577206f776e657220697320746865207a65726f206160448201526564647265737360d01b60648201526084016101b9565b61075a8161075d565b50565b600080546001600160a01b038381166001600160a01b0319831681178455604051919092169283917f8be0079c531659141344cd1fd0a4f28419497f9722a3daafe3b4186f6b6457e09190a35050565b634e487b7160e01b600052604160045260246000fd5b604051601f8201601f1916810167ffffffffffffffff811182821017156107ec576107ec6107ad565b604052919050565b600067ffffffffffffffff82111561080e5761080e6107ad565b5060051b60200190565b600082601f83011261082957600080fd5b8135602061083e610839836107f4565b6107c3565b82815260059290921b8401810191818101908684111561085d57600080fd5b8286015b848110156108785780358352918301918301610861565b509695505050505050565b80356001600160a01b038116811461089a57600080fd5b919050565b600080604083850312156108b257600080fd5b823567ffffffffffffffff808211156108ca57600080fd5b6108d686838701610818565b93506020915081850135818111156108ed57600080fd5b85019050601f8101861361090057600080fd5b803561090e610839826107f4565b81815260059190911b8201830190838101908883111561092d57600080fd5b928401925b828410156109525761094384610883565b82529284019290840190610932565b80955050505050509250929050565b6020808252825182820181905260009190848201906040850190845b818110156109995783518352928401929184019160010161097d565b50909695505050505050565b6000602082840312156109b757600080fd5b813567ffffffffffffffff8111156109ce57600080fd5b6109da84828501610818565b949350505050565b6020808252825182820181905260009190848201906040850190845b818110156109995783516001600160a01b0316835292840192918401916001016109fe565b60008060408385031215610a3657600080fd5b82359150610a4660208401610883565b90509250929050565b600060208284031215610a6157600080fd5b5035919050565b600060208284031215610a7a57600080fd5b610a8382610883565b9392505050565b6020808252818101527f4f776e61626c653a2063616c6c6572206973206e6f7420746865206f776e6572604082015260600190565b634e487b7160e01b600052603260045260246000fd5b6000600019821415610af757634e487b7160e01b600052601160045260246000fd5b506001019056fea264697066735822122085b2f969ff26eb2af8e298f2887c4c16acc3ac90d5fdad12a24dd50b842ecac664736f6c634300080a0033",
  "devdoc": {
    "kind": "dev",
    "methods": {
      "batchGet(bytes32[])": {
        "details": "get contract address",
        "params": {
          "_names": "name of the contract"
        },
        "returns": {
          "_0": "addresses of the queried contracts"
        }
      },
      "batchRegister(bytes32[],address[])": {
        "details": "register contract addresses",
        "params": {
          "_address": "address arrays of contracts",
          "_name": "array of name of contracts"
        },
        "returns": {
          "_0": "boolean indicating result of the operation"
        }
      },
      "batchUpdate(bytes32[],address[])": {
        "details": "update contracts' addresses",
        "params": {
          "_address": "address arrays of contracts",
          "_name": "array of name of contracts"
        },
        "returns": {
          "_0": "boolean indicating result of the operation"
        }
      },
      "get(bytes32)": {
        "details": "get contract address",
        "params": {
          "_name": "name of the contract"
        },
        "returns": {
          "_0": "address of the queried contract"
        }
      },
      "owner()": {
        "details": "Returns the address of the current owner."
      },
      "register(bytes32,address)": {
        "details": "register contract address",
        "params": {
          "_address": "address of the contract",
          "_name": "name of the contract"
        },
        "returns": {
          "_0": "boolean indicating result of the operation"
        }
      },
      "registered()": {
        "details": "get a list of registered contract names",
        "returns": {
          "_0": "a list of registered contract names"
        }
      },
      "renounceOwnership()": {
        "details": "Leaves the contract without owner. It will not be possible to call `onlyOwner` functions anymore. Can only be called by the current owner. NOTE: Renouncing ownership will leave the contract without an owner, thereby removing any functionality that is only available to the owner."
      },
      "transferOwnership(address)": {
        "details": "Transfers ownership of the contract to a new account (`newOwner`). Can only be called by the current owner."
      },
      "update(bytes32,address)": {
        "details": "update contract address",
        "params": {
          "_address": "address of the contract",
          "_name": "name of the contract"
        },
        "returns": {
          "_0": "boolean indicating result of the operation"
        }
      }
    },
    "version": 1
  },
  "userdoc": {
    "kind": "user",
    "methods": {},
    "version": 1
  },
  "storageLayout": {
    "storage": [
      {
        "astId": 5340,
        "contract": "contracts/Registry.sol:Registry",
        "label": "_owner",
        "offset": 0,
        "slot": "0",
        "type": "t_address"
      },
      {
        "astId": 11267,
        "contract": "contracts/Registry.sol:Registry",
        "label": "contracts",
        "offset": 0,
        "slot": "1",
        "type": "t_array(t_bytes32)dyn_storage"
      },
      {
        "astId": 11271,
        "contract": "contracts/Registry.sol:Registry",
        "label": "registry",
        "offset": 0,
        "slot": "2",
        "type": "t_mapping(t_bytes32,t_address)"
      }
    ],
    "types": {
      "t_address": {
        "encoding": "inplace",
        "label": "address",
        "numberOfBytes": "20"
      },
      "t_array(t_bytes32)dyn_storage": {
        "base": "t_bytes32",
        "encoding": "dynamic_array",
        "label": "bytes32[]",
        "numberOfBytes": "32"
      },
      "t_bytes32": {
        "encoding": "inplace",
        "label": "bytes32",
        "numberOfBytes": "32"
      },
      "t_mapping(t_bytes32,t_address)": {
        "encoding": "mapping",
        "key": "t_bytes32",
        "label": "mapping(bytes32 => address)",
        "numberOfBytes": "32",
        "value": "t_address"
      }
    }
  }
}