{
  "address": "0xc6e7DF5E7b4f2A278906862b61205850344D4e7d",
  "abi": [
    {
      "inputs": [
        {
          "internalType": "bytes",
          "name": "_key",
          "type": "bytes"
        },
        {
          "internalType": "bytes",
          "name": "_value",
          "type": "bytes"
        }
      ],
      "name": "keyValue",
      "outputs": [
        {
          "internalType": "bytes",
          "name": "",
          "type": "bytes"
        }
      ],
      "stateMutability": "pure",
      "type": "function"
    },
    {
      "inputs": [
        {
          "internalType": "bytes",
          "name": "str",
          "type": "bytes"
        }
      ],
      "name": "rPad",
      "outputs": [
        {
          "internalType": "bytes",
          "name": "",
          "type": "bytes"
        }
      ],
      "stateMutability": "pure",
      "type": "function"
    },
    {
      "inputs": [
        {
          "internalType": "bytes",
          "name": "_name",
          "type": "bytes"
        },
        {
          "internalType": "bytes",
          "name": "_attributes",
          "type": "bytes"
        },
        {
          "internalType": "bytes",
          "name": "_contents",
          "type": "bytes"
        }
      ],
      "name": "tag",
      "outputs": [
        {
          "internalType": "bytes",
          "name": "",
          "type": "bytes"
        }
      ],
      "stateMutability": "pure",
      "type": "function"
    },
    {
      "inputs": [
        {
          "internalType": "uint256",
          "name": "value",
          "type": "uint256"
        }
      ],
      "name": "toPixelValue",
      "outputs": [
        {
          "internalType": "bytes",
          "name": "",
          "type": "bytes"
        }
      ],
      "stateMutability": "pure",
      "type": "function"
    },
    {
      "inputs": [
        {
          "internalType": "string",
          "name": "r",
          "type": "string"
        },
        {
          "internalType": "string",
          "name": "b",
          "type": "string"
        },
        {
          "internalType": "string",
          "name": "g",
          "type": "string"
        },
        {
          "internalType": "string",
          "name": "a",
          "type": "string"
        }
      ],
      "name": "toRGBA",
      "outputs": [
        {
          "internalType": "bytes",
          "name": "",
          "type": "bytes"
        }
      ],
      "stateMutability": "pure",
      "type": "function"
    }
  ],
  "transactionHash": "0x2fd9a0cfcbc6b25c129c29f8203b9ef34b1124bc89f6d5357322c625494526d9",
  "args": [],
  "numDeployments": 1,
  "solcInputHash": "8e741a5d54aa5c6f7c82afbe995ed909",
  "bytecode": "0x610fcd610053600b82828239805160001a607314610046577f4e487b7100000000000000000000000000000000000000000000000000000000600052600060045260246000fd5b30600052607381538281f3fe73000000000000000000000000000000000000000030146080604052600436106100615760003560e01c806315824f82146100665780635986b2b2146100965780636b74e422146100c65780639887edcd146100f6578063e89790b914610126575b600080fd5b610080600480360381019061007b91906104fa565b610156565b60405161008d91906105fa565b60405180910390f35b6100b060048036038101906100ab919061061c565b610182565b6040516100bd91906105fa565b60405180910390f35b6100e060048036038101906100db9190610706565b6101ab565b6040516100ed91906105fa565b60405180910390f35b610110600480360381019061010b91906107dd565b6101dd565b60405161011d91906105fa565b60405180910390f35b610140600480360381019061013b91906108ba565b61020e565b60405161014d91906105fa565b60405180910390f35b6060828260405160200161016b9291906109c6565b604051602081830303815290604052905092915050565b6060816040516020016101959190610a57565b6040516020818303038152906040529050919050565b6060848484846040516020016101c49493929190610b99565b6040516020818303038152906040529050949350505050565b6060838383866040516020016101f69493929190610cf2565b60405160208183030381529060405290509392505050565b60606102198261023f565b6040516020016102299190610db3565b6040516020818303038152906040529050919050565b60606000821415610287576040518060400160405280600181526020017f3000000000000000000000000000000000000000000000000000000000000000815250905061039b565b600082905060005b600082146102b95780806102a290610e04565b915050600a826102b29190610e7c565b915061028f565b60008167ffffffffffffffff8111156102d5576102d46103cf565b5b6040519080825280601f01601f1916602001820160405280156103075781602001600182028036833780820191505090505b5090505b60008514610394576001826103209190610ead565b9150600a8561032f9190610ee1565b603061033b9190610f12565b60f81b81838151811061035157610350610f68565b5b60200101907effffffffffffffffffffffffffffffffffffffffffffffffffffffffffffff1916908160001a905350600a8561038d9190610e7c565b945061030b565b8093505050505b919050565b6000604051905090565b600080fd5b600080fd5b600080fd5b600080fd5b6000601f19601f8301169050919050565b7f4e487b7100000000000000000000000000000000000000000000000000000000600052604160045260246000fd5b610407826103be565b810181811067ffffffffffffffff82111715610426576104256103cf565b5b80604052505050565b60006104396103a0565b905061044582826103fe565b919050565b600067ffffffffffffffff821115610465576104646103cf565b5b61046e826103be565b9050602081019050919050565b82818337600083830152505050565b600061049d6104988461044a565b61042f565b9050828152602081018484840111156104b9576104b86103b9565b5b6104c484828561047b565b509392505050565b600082601f8301126104e1576104e06103b4565b5b81356104f184826020860161048a565b91505092915050565b60008060408385031215610511576105106103aa565b5b600083013567ffffffffffffffff81111561052f5761052e6103af565b5b61053b858286016104cc565b925050602083013567ffffffffffffffff81111561055c5761055b6103af565b5b610568858286016104cc565b9150509250929050565b600081519050919050565b600082825260208201905092915050565b60005b838110156105ac578082015181840152602081019050610591565b838111156105bb576000848401525b50505050565b60006105cc82610572565b6105d6818561057d565b93506105e681856020860161058e565b6105ef816103be565b840191505092915050565b6000602082019050818103600083015261061481846105c1565b905092915050565b600060208284031215610632576106316103aa565b5b600082013567ffffffffffffffff8111156106505761064f6103af565b5b61065c848285016104cc565b91505092915050565b600067ffffffffffffffff8211156106805761067f6103cf565b5b610689826103be565b9050602081019050919050565b60006106a96106a484610665565b61042f565b9050828152602081018484840111156106c5576106c46103b9565b5b6106d084828561047b565b509392505050565b600082601f8301126106ed576106ec6103b4565b5b81356106fd848260208601610696565b91505092915050565b600080600080608085870312156107205761071f6103aa565b5b600085013567ffffffffffffffff81111561073e5761073d6103af565b5b61074a878288016106d8565b945050602085013567ffffffffffffffff81111561076b5761076a6103af565b5b610777878288016106d8565b935050604085013567ffffffffffffffff811115610798576107976103af565b5b6107a4878288016106d8565b925050606085013567ffffffffffffffff8111156107c5576107c46103af565b5b6107d1878288016106d8565b91505092959194509250565b6000806000606084860312156107f6576107f56103aa565b5b600084013567ffffffffffffffff811115610814576108136103af565b5b610820868287016104cc565b935050602084013567ffffffffffffffff811115610841576108406103af565b5b61084d868287016104cc565b925050604084013567ffffffffffffffff81111561086e5761086d6103af565b5b61087a868287016104cc565b9150509250925092565b6000819050919050565b61089781610884565b81146108a257600080fd5b50565b6000813590506108b48161088e565b92915050565b6000602082840312156108d0576108cf6103aa565b5b60006108de848285016108a5565b91505092915050565b600081905092915050565b60006108fd82610572565b61090781856108e7565b935061091781856020860161058e565b80840191505092915050565b600081905092915050565b7f3d00000000000000000000000000000000000000000000000000000000000000600082015250565b6000610964600183610923565b915061096f8261092e565b600182019050919050565b7f2200000000000000000000000000000000000000000000000000000000000000600082015250565b60006109b0600183610923565b91506109bb8261097a565b600182019050919050565b60006109d282856108f2565b91506109dd82610957565b91506109e8826109a3565b91506109f482846108f2565b91506109ff826109a3565b91508190509392505050565b7f2000000000000000000000000000000000000000000000000000000000000000600082015250565b6000610a41600183610923565b9150610a4c82610a0b565b600182019050919050565b6000610a6382846108f2565b9150610a6e82610a34565b915081905092915050565b7f7267626128000000000000000000000000000000000000000000000000000000600082015250565b6000610aaf600583610923565b9150610aba82610a79565b600582019050919050565b600081519050919050565b6000610adb82610ac5565b610ae58185610923565b9350610af581856020860161058e565b80840191505092915050565b7f2c00000000000000000000000000000000000000000000000000000000000000600082015250565b6000610b37600183610923565b9150610b4282610b01565b600182019050919050565b7f2900000000000000000000000000000000000000000000000000000000000000600082015250565b6000610b83600183610923565b9150610b8e82610b4d565b600182019050919050565b6000610ba482610aa2565b9150610bb08287610ad0565b9150610bbb82610b2a565b9150610bc78286610ad0565b9150610bd282610b2a565b9150610bde8285610ad0565b9150610be982610b2a565b9150610bf58284610ad0565b9150610c0082610b76565b915081905095945050505050565b7f3c00000000000000000000000000000000000000000000000000000000000000600082015250565b6000610c44600183610923565b9150610c4f82610c0e565b600182019050919050565b7f3e00000000000000000000000000000000000000000000000000000000000000600082015250565b6000610c90600183610923565b9150610c9b82610c5a565b600182019050919050565b7f3c2f000000000000000000000000000000000000000000000000000000000000600082015250565b6000610cdc600283610923565b9150610ce782610ca6565b600282019050919050565b6000610cfd82610c37565b9150610d0982876108f2565b9150610d1482610a34565b9150610d2082866108f2565b9150610d2b82610c83565b9150610d3782856108f2565b9150610d4282610ccf565b9150610d4e82846108f2565b9150610d5982610c83565b915081905095945050505050565b7f7078000000000000000000000000000000000000000000000000000000000000600082015250565b6000610d9d600283610923565b9150610da882610d67565b600282019050919050565b6000610dbf8284610ad0565b9150610dca82610d90565b915081905092915050565b7f4e487b7100000000000000000000000000000000000000000000000000000000600052601160045260246000fd5b6000610e0f82610884565b91507fffffffffffffffffffffffffffffffffffffffffffffffffffffffffffffffff821415610e4257610e41610dd5565b5b600182019050919050565b7f4e487b7100000000000000000000000000000000000000000000000000000000600052601260045260246000fd5b6000610e8782610884565b9150610e9283610884565b925082610ea257610ea1610e4d565b5b828204905092915050565b6000610eb882610884565b9150610ec383610884565b925082821015610ed657610ed5610dd5565b5b828203905092915050565b6000610eec82610884565b9150610ef783610884565b925082610f0757610f06610e4d565b5b828206905092915050565b6000610f1d82610884565b9150610f2883610884565b9250827fffffffffffffffffffffffffffffffffffffffffffffffffffffffffffffffff03821115610f5d57610f5c610dd5565b5b828201905092915050565b7f4e487b7100000000000000000000000000000000000000000000000000000000600052603260045260246000fdfea2646970667358221220f2c577ce44844993c66c3a3fff1175031bfdc8984427440e6fb971f1a6aa713f64736f6c634300080a0033",
  "devdoc": {
    "kind": "dev",
    "methods": {},
    "version": 1
  },
  "userdoc": {
    "kind": "user",
    "methods": {},
    "version": 1
  },
  "storageLayout": {
    "storage": [],
    "types": null
  }
}