{
  "address": "0xfF5782bE3f8229b07Fe2B74b89802cbf92EaAE5A",
  "abi": [
    {
      "inputs": [
        {
          "internalType": "address",
          "name": "_registry",
          "type": "address"
        }
      ],
      "stateMutability": "nonpayable",
      "type": "constructor"
    },
    {
      "anonymous": false,
      "inputs": [
        {
          "indexed": true,
          "internalType": "address",
          "name": "donor",
          "type": "address"
        },
        {
          "indexed": true,
          "internalType": "uint256",
          "name": "donationId",
          "type": "uint256"
        },
        {
          "indexed": true,
          "internalType": "uint256",
          "name": "fundId",
          "type": "uint256"
        },
        {
          "indexed": false,
          "internalType": "uint256",
          "name": "value",
          "type": "uint256"
        },
        {
          "indexed": false,
          "internalType": "address",
          "name": "tokenAddress",
          "type": "address"
        }
      ],
      "name": "Donated",
      "type": "event"
    },
    {
      "anonymous": false,
      "inputs": [
        {
          "indexed": true,
          "internalType": "bytes32",
          "name": "role",
          "type": "bytes32"
        },
        {
          "indexed": true,
          "internalType": "bytes32",
          "name": "previousAdminRole",
          "type": "bytes32"
        },
        {
          "indexed": true,
          "internalType": "bytes32",
          "name": "newAdminRole",
          "type": "bytes32"
        }
      ],
      "name": "RoleAdminChanged",
      "type": "event"
    },
    {
      "anonymous": false,
      "inputs": [
        {
          "indexed": true,
          "internalType": "bytes32",
          "name": "role",
          "type": "bytes32"
        },
        {
          "indexed": true,
          "internalType": "address",
          "name": "account",
          "type": "address"
        },
        {
          "indexed": true,
          "internalType": "address",
          "name": "sender",
          "type": "address"
        }
      ],
      "name": "RoleGranted",
      "type": "event"
    },
    {
      "anonymous": false,
      "inputs": [
        {
          "indexed": true,
          "internalType": "bytes32",
          "name": "role",
          "type": "bytes32"
        },
        {
          "indexed": true,
          "internalType": "address",
          "name": "account",
          "type": "address"
        },
        {
          "indexed": true,
          "internalType": "address",
          "name": "sender",
          "type": "address"
        }
      ],
      "name": "RoleRevoked",
      "type": "event"
    },
    {
      "inputs": [],
      "name": "DEFAULT_ADMIN_ROLE",
      "outputs": [
        {
          "internalType": "bytes32",
          "name": "",
          "type": "bytes32"
        }
      ],
      "stateMutability": "view",
      "type": "function"
    },
    {
      "inputs": [],
      "name": "STORE_ROLE",
      "outputs": [
        {
          "internalType": "bytes32",
          "name": "",
          "type": "bytes32"
        }
      ],
      "stateMutability": "view",
      "type": "function"
    },
    {
      "inputs": [
        {
          "internalType": "uint256",
          "name": "_id",
          "type": "uint256"
        }
      ],
      "name": "getRecord",
      "outputs": [
        {
          "components": [
            {
              "internalType": "address",
              "name": "donor",
              "type": "address"
            },
            {
              "internalType": "uint256",
              "name": "fundId",
              "type": "uint256"
            },
            {
              "internalType": "uint256",
              "name": "amount",
              "type": "uint256"
            },
            {
              "internalType": "address",
              "name": "token",
              "type": "address"
            }
          ],
          "internalType": "struct Donations.Record",
          "name": "",
          "type": "tuple"
        }
      ],
      "stateMutability": "view",
      "type": "function"
    },
    {
      "inputs": [
        {
          "internalType": "bytes32",
          "name": "role",
          "type": "bytes32"
        }
      ],
      "name": "getRoleAdmin",
      "outputs": [
        {
          "internalType": "bytes32",
          "name": "",
          "type": "bytes32"
        }
      ],
      "stateMutability": "view",
      "type": "function"
    },
    {
      "inputs": [
        {
          "internalType": "bytes32",
          "name": "role",
          "type": "bytes32"
        },
        {
          "internalType": "address",
          "name": "account",
          "type": "address"
        }
      ],
      "name": "grantRole",
      "outputs": [],
      "stateMutability": "nonpayable",
      "type": "function"
    },
    {
      "inputs": [
        {
          "internalType": "bytes32",
          "name": "role",
          "type": "bytes32"
        },
        {
          "internalType": "address",
          "name": "account",
          "type": "address"
        }
      ],
      "name": "hasRole",
      "outputs": [
        {
          "internalType": "bool",
          "name": "",
          "type": "bool"
        }
      ],
      "stateMutability": "view",
      "type": "function"
    },
    {
      "inputs": [
        {
          "internalType": "address",
          "name": "_donor",
          "type": "address"
        },
        {
          "internalType": "uint256",
          "name": "_fundId",
          "type": "uint256"
        },
        {
          "internalType": "address",
          "name": "_token",
          "type": "address"
        },
        {
          "internalType": "uint256",
          "name": "_amount",
          "type": "uint256"
        }
      ],
      "name": "recordDonation",
      "outputs": [
        {
          "internalType": "uint256",
          "name": "",
          "type": "uint256"
        }
      ],
      "stateMutability": "nonpayable",
      "type": "function"
    },
    {
      "inputs": [
        {
          "internalType": "bytes32",
          "name": "role",
          "type": "bytes32"
        },
        {
          "internalType": "address",
          "name": "account",
          "type": "address"
        }
      ],
      "name": "renounceRole",
      "outputs": [],
      "stateMutability": "nonpayable",
      "type": "function"
    },
    {
      "inputs": [
        {
          "internalType": "bytes32",
          "name": "role",
          "type": "bytes32"
        },
        {
          "internalType": "address",
          "name": "account",
          "type": "address"
        }
      ],
      "name": "revokeRole",
      "outputs": [],
      "stateMutability": "nonpayable",
      "type": "function"
    },
    {
      "inputs": [
        {
          "internalType": "bytes4",
          "name": "interfaceId",
          "type": "bytes4"
        }
      ],
      "name": "supportsInterface",
      "outputs": [
        {
          "internalType": "bool",
          "name": "",
          "type": "bool"
        }
      ],
      "stateMutability": "view",
      "type": "function"
    }
  ],
  "transactionHash": "0x115d528d01e825c7fbd6dafcba80be9eb6c9cab3a656f49643f82c027048a195",
  "args": [
    "0x4613604D7Be4255B224e643B7883aEDa1c84D21d"
  ],
  "numDeployments": 1,
  "solcInputHash": "f6cd8fdf77e9ee24ff95086f9565d816",
  "bytecode": "0x608060405234801561001057600080fd5b50604051610b54380380610b5483398101604081905261002f9161011b565b600080546001600160a01b0319166001600160a01b038316179055610055600033610086565b6100807f9cf888df9829983a4501c3e5076732bbf523e06c6b31f6ce065f61c2aec205676000610086565b5061014b565b6100908282610094565b5050565b60008281526001602090815260408083206001600160a01b038516845290915290205460ff166100905760008281526001602081815260408084206001600160a01b0386168086529252808420805460ff19169093179092559051339285917f2f8788117e7eff1d82e926ec794901d17c78024a50270940304540a733656f0d9190a45050565b60006020828403121561012d57600080fd5b81516001600160a01b038116811461014457600080fd5b9392505050565b6109fa8061015a6000396000f3fe608060405234801561001057600080fd5b506004361061009e5760003560e01c806336568abe1161006657806336568abe146101f957806391d148541461020c578063a217fddf1461021f578063d547741f14610227578063da0dc4f91461023a57600080fd5b806301ffc9a7146100a357806303e9e609146100cb578063248a9ca31461018b578063265d83b9146101bd5780632f2ff15d146101e4575b600080fd5b6100b66100b136600461078d565b61024d565b60405190151581526020015b60405180910390f35b61014c6100d93660046107b7565b60408051608081018252600080825260208201819052918101829052606081019190915250600090815260036020818152604092839020835160808101855281546001600160a01b0390811682526001830154938201939093526002820154948101949094529091015416606082015290565b6040516100c2919081516001600160a01b0390811682526020808401519083015260408084015190830152606092830151169181019190915260800190565b6101af6101993660046107b7565b6000908152600160208190526040909120015490565b6040519081526020016100c2565b6101af7f9cf888df9829983a4501c3e5076732bbf523e06c6b31f6ce065f61c2aec2056781565b6101f76101f23660046107ec565b610284565b005b6101f76102073660046107ec565b6102b0565b6100b661021a3660046107ec565b610333565b6101af600081565b6101f76102353660046107ec565b61035e565b6101af610248366004610818565b610385565b60006001600160e01b03198216637965db0b60e01b148061027e57506301ffc9a760e01b6001600160e01b03198316145b92915050565b600082815260016020819052604090912001546102a181336103c8565b6102ab838361042c565b505050565b6001600160a01b03811633146103255760405162461bcd60e51b815260206004820152602f60248201527f416363657373436f6e74726f6c3a2063616e206f6e6c792072656e6f756e636560448201526e103937b632b9903337b91039b2b63360891b60648201526084015b60405180910390fd5b61032f8282610497565b5050565b60009182526001602090815260408084206001600160a01b0393909316845291905290205460ff1690565b6000828152600160208190526040909120015461037b81336103c8565b6102ab8383610497565b60007f9cf888df9829983a4501c3e5076732bbf523e06c6b31f6ce065f61c2aec205676103b281336103c8565b6103be868686866104fe565b9695505050505050565b6103d28282610333565b61032f576103ea816001600160a01b031660146105ea565b6103f58360206105ea565b60405160200161040692919061088c565b60408051601f198184030181529082905262461bcd60e51b825261031c91600401610901565b6104368282610333565b61032f5760008281526001602081815260408084206001600160a01b0386168086529252808420805460ff19169093179092559051339285917f2f8788117e7eff1d82e926ec794901d17c78024a50270940304540a733656f0d9190a45050565b6104a18282610333565b1561032f5760008281526001602090815260408083206001600160a01b0385168085529252808320805460ff1916905551339285917ff6391f5c32d9c69d2a47ea670b442974b53935d1edc7fd64eb21e047a839171b9190a45050565b600061050e600280546001019055565b600061051960025490565b604080516080810182526001600160a01b03808a1680835260208084018b81528486018a81528b8516606087019081526000898152600394859052889020965187549087166001600160a01b0319918216178855925160018801559051600287015551949091018054949093169316929092179055905191925086918391907f3d64e014a5146eab4666985a36df0ecea25ead4f311b465e9c24d78824526c19906105d99088908a909182526001600160a01b0316602082015260400190565b60405180910390a495945050505050565b606060006105f983600261094a565b610604906002610969565b67ffffffffffffffff81111561061c5761061c610981565b6040519080825280601f01601f191660200182016040528015610646576020820181803683370190505b509050600360fc1b8160008151811061066157610661610997565b60200101906001600160f81b031916908160001a905350600f60fb1b8160018151811061069057610690610997565b60200101906001600160f81b031916908160001a90535060006106b484600261094a565b6106bf906001610969565b90505b6001811115610737576f181899199a1a9b1b9c1cb0b131b232b360811b85600f16601081106106f3576106f3610997565b1a60f81b82828151811061070957610709610997565b60200101906001600160f81b031916908160001a90535060049490941c93610730816109ad565b90506106c2565b5083156107865760405162461bcd60e51b815260206004820181905260248201527f537472696e67733a20686578206c656e67746820696e73756666696369656e74604482015260640161031c565b9392505050565b60006020828403121561079f57600080fd5b81356001600160e01b03198116811461078657600080fd5b6000602082840312156107c957600080fd5b5035919050565b80356001600160a01b03811681146107e757600080fd5b919050565b600080604083850312156107ff57600080fd5b8235915061080f602084016107d0565b90509250929050565b6000806000806080858703121561082e57600080fd5b610837856107d0565b93506020850135925061084c604086016107d0565b9396929550929360600135925050565b60005b8381101561087757818101518382015260200161085f565b83811115610886576000848401525b50505050565b7f416363657373436f6e74726f6c3a206163636f756e74200000000000000000008152600083516108c481601785016020880161085c565b7001034b99036b4b9b9b4b733903937b6329607d1b60179184019182015283516108f581602884016020880161085c565b01602801949350505050565b602081526000825180602084015261092081604085016020870161085c565b601f01601f19169190910160400192915050565b634e487b7160e01b600052601160045260246000fd5b600081600019048311821515161561096457610964610934565b500290565b6000821982111561097c5761097c610934565b500190565b634e487b7160e01b600052604160045260246000fd5b634e487b7160e01b600052603260045260246000fd5b6000816109bc576109bc610934565b50600019019056fea26469706673582212205d37981fb76c4f125a9a46026e58235df57deebded615e2d036358aabab3431964736f6c634300080a0033",
  "devdoc": {
    "kind": "dev",
    "methods": {
      "getRoleAdmin(bytes32)": {
        "details": "Returns the admin role that controls `role`. See {grantRole} and {revokeRole}. To change a role's admin, use {_setRoleAdmin}."
      },
      "grantRole(bytes32,address)": {
        "details": "Grants `role` to `account`. If `account` had not been already granted `role`, emits a {RoleGranted} event. Requirements: - the caller must have ``role``'s admin role."
      },
      "hasRole(bytes32,address)": {
        "details": "Returns `true` if `account` has been granted `role`."
      },
      "recordDonation(address,uint256,address,uint256)": {
        "details": "record donation",
        "params": {
          "_amount": "amount donated",
          "_donor": "donor",
          "_fundId": "fund id",
          "_token": "ERC20 address"
        },
        "returns": {
          "_0": "donation record id"
        }
      },
      "renounceRole(bytes32,address)": {
        "details": "Revokes `role` from the calling account. Roles are often managed via {grantRole} and {revokeRole}: this function's purpose is to provide a mechanism for accounts to lose their privileges if they are compromised (such as when a trusted device is misplaced). If the calling account had been revoked `role`, emits a {RoleRevoked} event. Requirements: - the caller must be `account`."
      },
      "revokeRole(bytes32,address)": {
        "details": "Revokes `role` from `account`. If `account` had been granted `role`, emits a {RoleRevoked} event. Requirements: - the caller must have ``role``'s admin role."
      },
      "supportsInterface(bytes4)": {
        "details": "See {IERC165-supportsInterface}."
      }
    },
    "version": 1
  },
  "userdoc": {
    "kind": "user",
    "methods": {},
    "version": 1
  },
  "storageLayout": {
    "storage": [
      {
        "astId": 12392,
        "contract": "contracts/DonationStorage.sol:DonationStorage",
        "label": "registry",
        "offset": 0,
        "slot": "0",
        "type": "t_contract(Registry)12712"
      },
      {
        "astId": 4975,
        "contract": "contracts/DonationStorage.sol:DonationStorage",
        "label": "_roles",
        "offset": 0,
        "slot": "1",
        "type": "t_mapping(t_bytes32,t_struct(RoleData)4970_storage)"
      },
      {
        "astId": 10453,
        "contract": "contracts/DonationStorage.sol:DonationStorage",
        "label": "donationIds",
        "offset": 0,
        "slot": "2",
        "type": "t_struct(Counter)8496_storage"
      },
      {
        "astId": 10458,
        "contract": "contracts/DonationStorage.sol:DonationStorage",
        "label": "donations",
        "offset": 0,
        "slot": "3",
        "type": "t_mapping(t_uint256,t_struct(Record)14234_storage)"
      }
    ],
    "types": {
      "t_address": {
        "encoding": "inplace",
        "label": "address",
        "numberOfBytes": "20"
      },
      "t_bool": {
        "encoding": "inplace",
        "label": "bool",
        "numberOfBytes": "1"
      },
      "t_bytes32": {
        "encoding": "inplace",
        "label": "bytes32",
        "numberOfBytes": "32"
      },
      "t_contract(Registry)12712": {
        "encoding": "inplace",
        "label": "contract Registry",
        "numberOfBytes": "20"
      },
      "t_mapping(t_address,t_bool)": {
        "encoding": "mapping",
        "key": "t_address",
        "label": "mapping(address => bool)",
        "numberOfBytes": "32",
        "value": "t_bool"
      },
      "t_mapping(t_bytes32,t_struct(RoleData)4970_storage)": {
        "encoding": "mapping",
        "key": "t_bytes32",
        "label": "mapping(bytes32 => struct AccessControl.RoleData)",
        "numberOfBytes": "32",
        "value": "t_struct(RoleData)4970_storage"
      },
      "t_mapping(t_uint256,t_struct(Record)14234_storage)": {
        "encoding": "mapping",
        "key": "t_uint256",
        "label": "mapping(uint256 => struct Donations.Record)",
        "numberOfBytes": "32",
        "value": "t_struct(Record)14234_storage"
      },
      "t_struct(Counter)8496_storage": {
        "encoding": "inplace",
        "label": "struct Counters.Counter",
        "members": [
          {
            "astId": 8495,
            "contract": "contracts/DonationStorage.sol:DonationStorage",
            "label": "_value",
            "offset": 0,
            "slot": "0",
            "type": "t_uint256"
          }
        ],
        "numberOfBytes": "32"
      },
      "t_struct(Record)14234_storage": {
        "encoding": "inplace",
        "label": "struct Donations.Record",
        "members": [
          {
            "astId": 14227,
            "contract": "contracts/DonationStorage.sol:DonationStorage",
            "label": "donor",
            "offset": 0,
            "slot": "0",
            "type": "t_address"
          },
          {
            "astId": 14229,
            "contract": "contracts/DonationStorage.sol:DonationStorage",
            "label": "fundId",
            "offset": 0,
            "slot": "1",
            "type": "t_uint256"
          },
          {
            "astId": 14231,
            "contract": "contracts/DonationStorage.sol:DonationStorage",
            "label": "amount",
            "offset": 0,
            "slot": "2",
            "type": "t_uint256"
          },
          {
            "astId": 14233,
            "contract": "contracts/DonationStorage.sol:DonationStorage",
            "label": "token",
            "offset": 0,
            "slot": "3",
            "type": "t_address"
          }
        ],
        "numberOfBytes": "128"
      },
      "t_struct(RoleData)4970_storage": {
        "encoding": "inplace",
        "label": "struct AccessControl.RoleData",
        "members": [
          {
            "astId": 4967,
            "contract": "contracts/DonationStorage.sol:DonationStorage",
            "label": "members",
            "offset": 0,
            "slot": "0",
            "type": "t_mapping(t_address,t_bool)"
          },
          {
            "astId": 4969,
            "contract": "contracts/DonationStorage.sol:DonationStorage",
            "label": "adminRole",
            "offset": 0,
            "slot": "1",
            "type": "t_bytes32"
          }
        ],
        "numberOfBytes": "64"
      },
      "t_uint256": {
        "encoding": "inplace",
        "label": "uint256",
        "numberOfBytes": "32"
      }
    }
  }
}