{
  "address": "0xdaB951cbbE80D268846a058B90A80f8af364c06A",
  "abi": [
    {
      "inputs": [
        {
          "internalType": "address",
          "name": "_registry",
          "type": "address"
        }
      ],
      "stateMutability": "nonpayable",
      "type": "constructor"
    },
    {
      "anonymous": false,
      "inputs": [
        {
          "indexed": true,
          "internalType": "address",
          "name": "donator",
          "type": "address"
        },
        {
          "indexed": true,
          "internalType": "uint256",
          "name": "donationId",
          "type": "uint256"
        },
        {
          "indexed": true,
          "internalType": "uint256",
          "name": "fundId",
          "type": "uint256"
        },
        {
          "indexed": false,
          "internalType": "uint256",
          "name": "value",
          "type": "uint256"
        },
        {
          "indexed": false,
          "internalType": "address",
          "name": "tokenAddress",
          "type": "address"
        }
      ],
      "name": "Donated",
      "type": "event"
    },
    {
      "anonymous": false,
      "inputs": [
        {
          "indexed": true,
          "internalType": "address",
          "name": "previousOwner",
          "type": "address"
        },
        {
          "indexed": true,
          "internalType": "address",
          "name": "newOwner",
          "type": "address"
        }
      ],
      "name": "OwnershipTransferred",
      "type": "event"
    },
    {
      "inputs": [
        {
          "internalType": "uint256",
          "name": "_fundId",
          "type": "uint256"
        },
        {
          "internalType": "address",
          "name": "_tokenAddress",
          "type": "address"
        },
        {
          "internalType": "uint256",
          "name": "_amount",
          "type": "uint256"
        }
      ],
      "name": "donate",
      "outputs": [
        {
          "internalType": "bool",
          "name": "",
          "type": "bool"
        }
      ],
      "stateMutability": "nonpayable",
      "type": "function"
    },
    {
      "inputs": [
        {
          "internalType": "uint256",
          "name": "_id",
          "type": "uint256"
        }
      ],
      "name": "getRecord",
      "outputs": [
        {
          "components": [
            {
              "internalType": "address",
              "name": "donator",
              "type": "address"
            },
            {
              "internalType": "uint256",
              "name": "fundId",
              "type": "uint256"
            },
            {
              "internalType": "uint256",
              "name": "amount",
              "type": "uint256"
            },
            {
              "internalType": "address",
              "name": "token",
              "type": "address"
            }
          ],
          "internalType": "struct Donations.Record",
          "name": "",
          "type": "tuple"
        }
      ],
      "stateMutability": "view",
      "type": "function"
    },
    {
      "inputs": [],
      "name": "owner",
      "outputs": [
        {
          "internalType": "address",
          "name": "",
          "type": "address"
        }
      ],
      "stateMutability": "view",
      "type": "function"
    },
    {
      "inputs": [],
      "name": "renounceOwnership",
      "outputs": [],
      "stateMutability": "nonpayable",
      "type": "function"
    },
    {
      "inputs": [
        {
          "internalType": "address",
          "name": "newOwner",
          "type": "address"
        }
      ],
      "name": "transferOwnership",
      "outputs": [],
      "stateMutability": "nonpayable",
      "type": "function"
    }
  ],
  "transactionHash": "0xce1ac0d7ef9a60421d5f4a2305d2c79ea2ab3e9acce362491f0faae61c6762a3",
  "args": [
    "0x3262A1f3948c171725B254e2ff69aE40904F5a37"
  ],
  "numDeployments": 1,
  "solcInputHash": "f0d852ee4f43f83472f08184e797cbf9",
  "bytecode": "0x608060405234801561001057600080fd5b50604051610aeb380380610aeb83398101604081905261002f916100ab565b61003833610059565b600080546001600160a01b0319166001600160a01b038316179055506100db565b600180546001600160a01b038381166001600160a01b0319831681179093556040519116919082907f8be0079c531659141344cd1fd0a4f28419497f9722a3daafe3b4186f6b6457e090600090a35050565b6000602082840312156100bd57600080fd5b81516001600160a01b03811681146100d457600080fd5b9392505050565b610a01806100ea6000396000f3fe608060405234801561001057600080fd5b50600436106100575760003560e01c806303e9e6091461005c57806325fb268014610125578063715018a6146101485780638da5cb5b14610152578063f2fde38b1461016d575b600080fd5b6100dd61006a366004610875565b60408051608081018252600080825260208201819052918101829052606081019190915250600090815260036020818152604092839020835160808101855281546001600160a01b0390811682526001830154938201939093526002820154948101949094529091015416606082015290565b60405161011c919081516001600160a01b0390811682526020808401519083015260408084015190830152606092830151169181019190915260800190565b60405180910390f35b6101386101333660046108a3565b610180565b604051901515815260200161011c565b610150610205565b005b6001546040516001600160a01b03909116815260200161011c565b61015061017b3660046108db565b610270565b600061019661018f858561033b565b83856103c6565b60006101a38585856103e0565b604080518581526001600160a01b03871660208201529192508691839133917f3d64e014a5146eab4666985a36df0ecea25ead4f311b465e9c24d78824526c19910160405180910390a46101f73382610476565b5060019150505b9392505050565b6001546001600160a01b031633146102645760405162461bcd60e51b815260206004820181905260248201527f4f776e61626c653a2063616c6c6572206973206e6f7420746865206f776e657260448201526064015b60405180910390fd5b61026e60006104fc565b565b6001546001600160a01b031633146102ca5760405162461bcd60e51b815260206004820181905260248201527f4f776e61626c653a2063616c6c6572206973206e6f7420746865206f776e6572604482015260640161025b565b6001600160a01b03811661032f5760405162461bcd60e51b815260206004820152602660248201527f4f776e61626c653a206e6577206f776e657220697320746865207a65726f206160448201526564647265737360d01b606482015260840161025b565b610338816104fc565b50565b60006103556b232aa7222fa6a0a720a3a2a960a11b61054e565b6040516212ca1f60e21b8152600481018590526001600160a01b0384811660248301529190911690624b287c90604401602060405180830381865afa1580156103a2573d6000803e3d6000fd5b505050506040513d601f19601f820116820180604052508101906101fe91906108f8565b6103db6001600160a01b0382163385856105c2565b505050565b60006103f0600280546001019055565b60006103fb60025490565b6040805160808101825233815260208082018981528284018881526001600160a01b038a811660608601908152600088815260039586905296909620945185549082166001600160a01b0319918216178655925160018601559051600285015593519290910180549290931691161790559150509392505050565b600061048762534f5360e81b61054e565b6040516340c10f1960e01b81526001600160a01b0385811660048301526024820185905291909116906340c10f19906044016020604051808303816000875af11580156104d8573d6000803e3d6000fd5b505050506040513d601f19601f820116820180604052508101906101fe9190610915565b600180546001600160a01b038381166001600160a01b0319831681179093556040519116919082907f8be0079c531659141344cd1fd0a4f28419497f9722a3daafe3b4186f6b6457e090600090a35050565b6000805460405163023aa9ab60e61b8152600481018490526001600160a01b0390911690638eaa6ac090602401602060405180830381865afa158015610598573d6000803e3d6000fd5b505050506040513d601f19601f820116820180604052508101906105bc91906108f8565b92915050565b604080516001600160a01b0385811660248301528416604482015260648082018490528251808303909101815260849091019091526020810180516001600160e01b03166323b872dd60e01b17905261061c908590610622565b50505050565b6000610677826040518060400160405280602081526020017f5361666545524332303a206c6f772d6c6576656c2063616c6c206661696c6564815250856001600160a01b03166106f49092919063ffffffff16565b8051909150156103db5780806020019051810190610695919061092e565b6103db5760405162461bcd60e51b815260206004820152602a60248201527f5361666545524332303a204552433230206f7065726174696f6e20646964206e6044820152691bdd081cdd58d8d9595960b21b606482015260840161025b565b6060610703848460008561070b565b949350505050565b60608247101561076c5760405162461bcd60e51b815260206004820152602660248201527f416464726573733a20696e73756666696369656e742062616c616e636520666f6044820152651c8818d85b1b60d21b606482015260840161025b565b6001600160a01b0385163b6107c35760405162461bcd60e51b815260206004820152601d60248201527f416464726573733a2063616c6c20746f206e6f6e2d636f6e7472616374000000604482015260640161025b565b600080866001600160a01b031685876040516107df919061097c565b60006040518083038185875af1925050503d806000811461081c576040519150601f19603f3d011682016040523d82523d6000602084013e610821565b606091505b509150915061083182828661083c565b979650505050505050565b6060831561084b5750816101fe565b82511561085b5782518084602001fd5b8160405162461bcd60e51b815260040161025b9190610998565b60006020828403121561088757600080fd5b5035919050565b6001600160a01b038116811461033857600080fd5b6000806000606084860312156108b857600080fd5b8335925060208401356108ca8161088e565b929592945050506040919091013590565b6000602082840312156108ed57600080fd5b81356101fe8161088e565b60006020828403121561090a57600080fd5b81516101fe8161088e565b60006020828403121561092757600080fd5b5051919050565b60006020828403121561094057600080fd5b815180151581146101fe57600080fd5b60005b8381101561096b578181015183820152602001610953565b8381111561061c5750506000910152565b6000825161098e818460208701610950565b9190910192915050565b60208152600082518060208401526109b7816040850160208701610950565b601f01601f1916919091016040019291505056fea2646970667358221220c8b04022b4d7f8977f5c8237bd6775dba00ab1ab1bb78ec943e4d0c0d0d506e864736f6c634300080a0033",
  "devdoc": {
    "kind": "dev",
    "methods": {
      "donate(uint256,address,uint256)": {
        "details": "deposit into the safe",
        "params": {
          "_amount": "amount to deposit",
          "_fundId": "unique identifier of the fund to deposit into",
          "_tokenAddress": "ERC20 address"
        }
      },
      "owner()": {
        "details": "Returns the address of the current owner."
      },
      "renounceOwnership()": {
        "details": "Leaves the contract without owner. It will not be possible to call `onlyOwner` functions anymore. Can only be called by the current owner. NOTE: Renouncing ownership will leave the contract without an owner, thereby removing any functionality that is only available to the owner."
      },
      "transferOwnership(address)": {
        "details": "Transfers ownership of the contract to a new account (`newOwner`). Can only be called by the current owner."
      }
    },
    "version": 1
  },
  "userdoc": {
    "kind": "user",
    "methods": {},
    "version": 1
  },
  "storageLayout": {
    "storage": [
      {
        "astId": 11228,
        "contract": "contracts/Donation.sol:Donation",
        "label": "registry",
        "offset": 0,
        "slot": "0",
        "type": "t_contract(Registry)11549"
      },
      {
        "astId": 5340,
        "contract": "contracts/Donation.sol:Donation",
        "label": "_owner",
        "offset": 0,
        "slot": "1",
        "type": "t_address"
      },
      {
        "astId": 9553,
        "contract": "contracts/Donation.sol:Donation",
        "label": "donationIds",
        "offset": 0,
        "slot": "2",
        "type": "t_struct(Counter)7829_storage"
      },
      {
        "astId": 9558,
        "contract": "contracts/Donation.sol:Donation",
        "label": "donations",
        "offset": 0,
        "slot": "3",
        "type": "t_mapping(t_uint256,t_struct(Record)13077_storage)"
      }
    ],
    "types": {
      "t_address": {
        "encoding": "inplace",
        "label": "address",
        "numberOfBytes": "20"
      },
      "t_contract(Registry)11549": {
        "encoding": "inplace",
        "label": "contract Registry",
        "numberOfBytes": "20"
      },
      "t_mapping(t_uint256,t_struct(Record)13077_storage)": {
        "encoding": "mapping",
        "key": "t_uint256",
        "label": "mapping(uint256 => struct Donations.Record)",
        "numberOfBytes": "32",
        "value": "t_struct(Record)13077_storage"
      },
      "t_struct(Counter)7829_storage": {
        "encoding": "inplace",
        "label": "struct Counters.Counter",
        "members": [
          {
            "astId": 7828,
            "contract": "contracts/Donation.sol:Donation",
            "label": "_value",
            "offset": 0,
            "slot": "0",
            "type": "t_uint256"
          }
        ],
        "numberOfBytes": "32"
      },
      "t_struct(Record)13077_storage": {
        "encoding": "inplace",
        "label": "struct Donations.Record",
        "members": [
          {
            "astId": 13070,
            "contract": "contracts/Donation.sol:Donation",
            "label": "donator",
            "offset": 0,
            "slot": "0",
            "type": "t_address"
          },
          {
            "astId": 13072,
            "contract": "contracts/Donation.sol:Donation",
            "label": "fundId",
            "offset": 0,
            "slot": "1",
            "type": "t_uint256"
          },
          {
            "astId": 13074,
            "contract": "contracts/Donation.sol:Donation",
            "label": "amount",
            "offset": 0,
            "slot": "2",
            "type": "t_uint256"
          },
          {
            "astId": 13076,
            "contract": "contracts/Donation.sol:Donation",
            "label": "token",
            "offset": 0,
            "slot": "3",
            "type": "t_address"
          }
        ],
        "numberOfBytes": "128"
      },
      "t_uint256": {
        "encoding": "inplace",
        "label": "uint256",
        "numberOfBytes": "32"
      }
    }
  }
}