{
  "address": "0x27500C9ecbbfCE4b65319B9D807e081f9364fde2",
  "abi": [
    {
      "inputs": [],
      "name": "NotAllowed",
      "type": "error"
    },
    {
      "anonymous": false,
      "inputs": [
        {
          "indexed": true,
          "internalType": "uint256",
          "name": "id",
          "type": "uint256"
        },
        {
          "indexed": true,
          "internalType": "address",
          "name": "at",
          "type": "address"
        },
        {
          "indexed": false,
          "internalType": "string",
          "name": "name",
          "type": "string"
        },
        {
          "indexed": false,
          "internalType": "string",
          "name": "focus",
          "type": "string"
        },
        {
          "indexed": false,
          "internalType": "string",
          "name": "description",
          "type": "string"
        },
        {
          "indexed": false,
          "internalType": "bool",
          "name": "requestable",
          "type": "bool"
        }
      ],
      "name": "FundCreated",
      "type": "event"
    },
    {
      "anonymous": false,
      "inputs": [
        {
          "indexed": true,
          "internalType": "bytes32",
          "name": "role",
          "type": "bytes32"
        },
        {
          "indexed": true,
          "internalType": "bytes32",
          "name": "previousAdminRole",
          "type": "bytes32"
        },
        {
          "indexed": true,
          "internalType": "bytes32",
          "name": "newAdminRole",
          "type": "bytes32"
        }
      ],
      "name": "RoleAdminChanged",
      "type": "event"
    },
    {
      "anonymous": false,
      "inputs": [
        {
          "indexed": true,
          "internalType": "bytes32",
          "name": "role",
          "type": "bytes32"
        },
        {
          "indexed": true,
          "internalType": "address",
          "name": "account",
          "type": "address"
        },
        {
          "indexed": true,
          "internalType": "address",
          "name": "sender",
          "type": "address"
        }
      ],
      "name": "RoleGranted",
      "type": "event"
    },
    {
      "anonymous": false,
      "inputs": [
        {
          "indexed": true,
          "internalType": "bytes32",
          "name": "role",
          "type": "bytes32"
        },
        {
          "indexed": true,
          "internalType": "address",
          "name": "account",
          "type": "address"
        },
        {
          "indexed": true,
          "internalType": "address",
          "name": "sender",
          "type": "address"
        }
      ],
      "name": "RoleRevoked",
      "type": "event"
    },
    {
      "inputs": [],
      "name": "CREATOR_ROLE",
      "outputs": [
        {
          "internalType": "bytes32",
          "name": "",
          "type": "bytes32"
        }
      ],
      "stateMutability": "view",
      "type": "function"
    },
    {
      "inputs": [],
      "name": "DEFAULT_ADMIN_ROLE",
      "outputs": [
        {
          "internalType": "bytes32",
          "name": "",
          "type": "bytes32"
        }
      ],
      "stateMutability": "view",
      "type": "function"
    },
    {
      "inputs": [],
      "name": "baseFund",
      "outputs": [
        {
          "internalType": "address",
          "name": "",
          "type": "address"
        }
      ],
      "stateMutability": "view",
      "type": "function"
    },
    {
      "inputs": [
        {
          "internalType": "string",
          "name": "_name",
          "type": "string"
        },
        {
          "internalType": "string",
          "name": "_focus",
          "type": "string"
        },
        {
          "internalType": "string",
          "name": "_description",
          "type": "string"
        },
        {
          "internalType": "address",
          "name": "_safeAddress",
          "type": "address"
        },
        {
          "internalType": "address[]",
          "name": "_allowedTokens",
          "type": "address[]"
        },
        {
          "internalType": "bool",
          "name": "_requestable",
          "type": "bool"
        },
        {
          "internalType": "bytes32[2][]",
          "name": "_checks",
          "type": "bytes32[2][]"
        },
        {
          "internalType": "address[]",
          "name": "_whitelist",
          "type": "address[]"
        }
      ],
      "name": "createFund",
      "outputs": [],
      "stateMutability": "nonpayable",
      "type": "function"
    },
    {
      "inputs": [
        {
          "internalType": "string",
          "name": "_name",
          "type": "string"
        },
        {
          "internalType": "string",
          "name": "_focus",
          "type": "string"
        },
        {
          "internalType": "string",
          "name": "_description",
          "type": "string"
        },
        {
          "internalType": "address[]",
          "name": "_allowedTokens",
          "type": "address[]"
        },
        {
          "internalType": "bool",
          "name": "_requestable",
          "type": "bool"
        },
        {
          "internalType": "bytes32[2][]",
          "name": "_checks",
          "type": "bytes32[2][]"
        },
        {
          "internalType": "address[]",
          "name": "_whitelist",
          "type": "address[]"
        },
        {
          "internalType": "address[]",
          "name": "_owners",
          "type": "address[]"
        },
        {
          "internalType": "uint256",
          "name": "_threshold",
          "type": "uint256"
        }
      ],
      "name": "createFundWithSafe",
      "outputs": [],
      "stateMutability": "nonpayable",
      "type": "function"
    },
    {
      "inputs": [
        {
          "internalType": "uint256",
          "name": "_id",
          "type": "uint256"
        }
      ],
      "name": "getAllowedTokens",
      "outputs": [
        {
          "internalType": "address[]",
          "name": "",
          "type": "address[]"
        }
      ],
      "stateMutability": "view",
      "type": "function"
    },
    {
      "inputs": [
        {
          "internalType": "uint256",
          "name": "_id",
          "type": "uint256"
        },
        {
          "internalType": "address",
          "name": "_tokenAddress",
          "type": "address"
        }
      ],
      "name": "getDepositAddressFor",
      "outputs": [
        {
          "internalType": "address",
          "name": "",
          "type": "address"
        }
      ],
      "stateMutability": "view",
      "type": "function"
    },
    {
      "inputs": [
        {
          "internalType": "uint256",
          "name": "_id",
          "type": "uint256"
        }
      ],
      "name": "getFundAddress",
      "outputs": [
        {
          "internalType": "address",
          "name": "",
          "type": "address"
        }
      ],
      "stateMutability": "view",
      "type": "function"
    },
    {
      "inputs": [
        {
          "internalType": "uint256",
          "name": "_id",
          "type": "uint256"
        }
      ],
      "name": "getFundMeta",
      "outputs": [
        {
          "internalType": "string",
          "name": "",
          "type": "string"
        },
        {
          "internalType": "string",
          "name": "",
          "type": "string"
        }
      ],
      "stateMutability": "view",
      "type": "function"
    },
    {
      "inputs": [],
      "name": "getFunds",
      "outputs": [
        {
          "internalType": "address[]",
          "name": "",
          "type": "address[]"
        }
      ],
      "stateMutability": "view",
      "type": "function"
    },
    {
      "inputs": [
        {
          "internalType": "bytes32",
          "name": "role",
          "type": "bytes32"
        }
      ],
      "name": "getRoleAdmin",
      "outputs": [
        {
          "internalType": "bytes32",
          "name": "",
          "type": "bytes32"
        }
      ],
      "stateMutability": "view",
      "type": "function"
    },
    {
      "inputs": [
        {
          "internalType": "bytes32",
          "name": "role",
          "type": "bytes32"
        },
        {
          "internalType": "address",
          "name": "account",
          "type": "address"
        }
      ],
      "name": "grantRole",
      "outputs": [],
      "stateMutability": "nonpayable",
      "type": "function"
    },
    {
      "inputs": [
        {
          "internalType": "bytes32",
          "name": "role",
          "type": "bytes32"
        },
        {
          "internalType": "address",
          "name": "account",
          "type": "address"
        }
      ],
      "name": "hasRole",
      "outputs": [
        {
          "internalType": "bool",
          "name": "",
          "type": "bool"
        }
      ],
      "stateMutability": "view",
      "type": "function"
    },
    {
      "inputs": [
        {
          "internalType": "bytes",
          "name": "data",
          "type": "bytes"
        }
      ],
      "name": "initialize",
      "outputs": [],
      "stateMutability": "nonpayable",
      "type": "function"
    },
    {
      "inputs": [
        {
          "internalType": "uint256",
          "name": "_id",
          "type": "uint256"
        },
        {
          "internalType": "address",
          "name": "_tokenAddress",
          "type": "address"
        }
      ],
      "name": "isTokenAllowed",
      "outputs": [
        {
          "internalType": "bool",
          "name": "",
          "type": "bool"
        }
      ],
      "stateMutability": "view",
      "type": "function"
    },
    {
      "inputs": [
        {
          "internalType": "bytes32",
          "name": "role",
          "type": "bytes32"
        },
        {
          "internalType": "address",
          "name": "account",
          "type": "address"
        }
      ],
      "name": "renounceRole",
      "outputs": [],
      "stateMutability": "nonpayable",
      "type": "function"
    },
    {
      "inputs": [
        {
          "internalType": "bytes32",
          "name": "role",
          "type": "bytes32"
        },
        {
          "internalType": "address",
          "name": "account",
          "type": "address"
        }
      ],
      "name": "revokeRole",
      "outputs": [],
      "stateMutability": "nonpayable",
      "type": "function"
    },
    {
      "inputs": [
        {
          "internalType": "address",
          "name": "_roleAddress",
          "type": "address"
        }
      ],
      "name": "setCreatorRole",
      "outputs": [],
      "stateMutability": "nonpayable",
      "type": "function"
    },
    {
      "inputs": [
        {
          "internalType": "address",
          "name": "_impl",
          "type": "address"
        }
      ],
      "name": "setImplementation",
      "outputs": [
        {
          "internalType": "bool",
          "name": "",
          "type": "bool"
        }
      ],
      "stateMutability": "nonpayable",
      "type": "function"
    },
    {
      "inputs": [
        {
          "internalType": "bytes4",
          "name": "interfaceId",
          "type": "bytes4"
        }
      ],
      "name": "supportsInterface",
      "outputs": [
        {
          "internalType": "bool",
          "name": "",
          "type": "bool"
        }
      ],
      "stateMutability": "view",
      "type": "function"
    }
  ],
  "transactionHash": "0x4cda145ba533c5d191d949972ad6ec4ef35f64880d4b7a774c6e51d7637eb709",
  "args": [],
  "numDeployments": 1,
  "solcInputHash": "f1c57c3205b656d47a133d0135af6360",
  "bytecode": "0x608060405234801561001057600080fd5b50611bf9806100206000396000f3fe608060405234801561001057600080fd5b506004361061012b5760003560e01c80634d9b3735116100ad578063a217fddf11610071578063a217fddf146102ac578063b1aada7d146102b4578063ce01cdb8146102c7578063d547741f146102da578063d784d426146102ed57600080fd5b80634d9b3735146102485780634dad0c78146102505780638aeda25a1461027157806391d1485414610286578063a022ad691461029957600080fd5b80632f2ff15d116100f45780632f2ff15d146101dc57806336568abe146101ef57806337b0420314610202578063381296cc14610215578063439fab911461023557600080fd5b80624b287c1461013057806301ffc9a7146101605780630bc9dad114610183578063248a9ca3146101965780632b6b1e6d146101c7575b600080fd5b61014361013e3660046110ca565b610300565b6040516001600160a01b0390911681526020015b60405180910390f35b61017361016e3660046110fa565b610393565b6040519015158152602001610157565b6101736101913660046110ca565b6103ca565b6101b96101a4366004611124565b60009081526020819052604090206001015490565b604051908152602001610157565b6101da6101d536600461138c565b610456565b005b6101da6101ea3660046110ca565b6105dd565b6101da6101fd3660046110ca565b610608565b610143610210366004611124565b61068b565b610228610223366004611124565b6106bb565b6040516101579190611506565b6101da610243366004611519565b610744565b610228610878565b61026361025e366004611124565b6108da565b6040516101579291906115be565b6101b9600080516020611ba483398151915281565b6101736102943660046110ca565b61096d565b6101da6102a73660046115ec565b610996565b6101b9600081565b6101da6102c2366004611609565b6109ba565b600254610143906001600160a01b031681565b6101da6102e83660046110ca565b610b0e565b6101736102fb3660046115ec565b610b34565b60006003838154811061031557610315611721565b60009182526020909120015460405163233fd7ed60e01b81526001600160a01b0384811660048301529091169063233fd7ed90602401602060405180830381865afa158015610368573d6000803e3d6000fd5b505050506040513d601f19601f8201168201806040525081019061038c9190611737565b9392505050565b60006001600160e01b03198216637965db0b60e01b14806103c457506301ffc9a760e01b6001600160e01b03198316145b92915050565b6000600383815481106103df576103df611721565b60009182526020909120015460405163f9eaee0d60e01b81526001600160a01b0384811660048301529091169063f9eaee0d90602401602060405180830381865afa158015610432573d6000803e3d6000fd5b505050506040513d601f19601f8201168201806040525081019061038c9190611754565b600080516020611ba483398151915261046f8133610b68565b825182111561049157604051631eb49d6d60e11b815260040160405180910390fd5b6003546002546000906104ac906001600160a01b0316610bcc565b905060006104ba8686610c69565b9050816001600160a01b031663240626d28e8e84338f8f8f8f6104e7672227a720aa24a7a760c11b610d52565b6040518a63ffffffff1660e01b815260040161050b99989796959493929190611771565b600060405180830381600087803b15801561052557600080fd5b505af1158015610539573d6000803e3d6000fd5b505050506003829080600181540180825580915050600190039060005260206000200160009091909190916101000a8154816001600160a01b0302191690836001600160a01b03160217905550816001600160a01b0316837f59e2c74eec80fd2f4206c919ae2d792790f37756550629fbf38dda88b0c6a9138f8f8f8e6040516105c69493929190611869565b60405180910390a350505050505050505050505050565b6000828152602081905260409020600101546105f98133610b68565b6106038383610dc0565b505050565b6001600160a01b038116331461067d5760405162461bcd60e51b815260206004820152602f60248201527f416363657373436f6e74726f6c3a2063616e206f6e6c792072656e6f756e636560448201526e103937b632b9903337b91039b2b63360891b60648201526084015b60405180910390fd5b6106878282610e44565b5050565b6000600382815481106106a0576106a0611721565b6000918252602090912001546001600160a01b031692915050565b6060600382815481106106d0576106d0611721565b60009182526020822001546040805163024ece8960e01b815290516001600160a01b039092169263024ece89926004808401938290030181865afa15801561071c573d6000803e3d6000fd5b505050506040513d6000823e601f3d908101601f191682016040526103c491908101906118b6565b600154600160a81b900460ff1661076857600154600160a01b900460ff161561076c565b303b155b6107cf5760405162461bcd60e51b815260206004820152602e60248201527f496e697469616c697a61626c653a20636f6e747261637420697320616c72656160448201526d191e481a5b9a5d1a585b1a5e995960921b6064820152608401610674565b600154600160a81b900460ff161580156107f9576001805461ffff60a01b191661010160a01b1790555b610804600033610ea9565b61081c600080516020611ba483398151915233610ea9565b600080838060200190518101906108339190611950565b600180546001600160a01b039384166001600160a01b0319918216179091556002805492909316911617905550508015610687576001805460ff60a81b191690555050565b606060038054806020026020016040519081016040528092919081815260200182805480156108d057602002820191906000526020600020905b81546001600160a01b031681526001909101906020018083116108b2575b5050505050905090565b606080600383815481106108f0576108f0611721565b6000918252602082200154604080516353cd796760e11b815290516001600160a01b039092169263a79af2ce926004808401938290030181865afa15801561093c573d6000803e3d6000fd5b505050506040513d6000823e601f3d908101601f1916820160405261096491908101906119c4565b91509150915091565b6000918252602082815260408084206001600160a01b0393909316845291905290205460ff1690565b60006109a28133610b68565b610687600080516020611ba483398151915283610ea9565b600080516020611ba48339815191526109d38133610b68565b6003546002546000906109ee906001600160a01b0316610bcc565b9050806001600160a01b031663240626d28c8c8b338c8c8c8c610a1b672227a720aa24a7a760c11b610d52565b6040518a63ffffffff1660e01b8152600401610a3f99989796959493929190611771565b600060405180830381600087803b158015610a5957600080fd5b505af1158015610a6d573d6000803e3d6000fd5b5050600380546001810182556000919091527fc2575a0e9e593c00f959f8c92f12db2869c3395a3b0502d05e2516446f71f85b0180546001600160a01b0319166001600160a01b0385169081179091556040519092508491507f59e2c74eec80fd2f4206c919ae2d792790f37756550629fbf38dda88b0c6a91390610af9908f908f908f908d90611869565b60405180910390a35050505050505050505050565b600082815260208190526040902060010154610b2a8133610b68565b6106038383610e44565b600080610b418133610b68565b600280546001600160a01b0385166001600160a01b03199091161790556001915050919050565b610b72828261096d565b61068757610b8a816001600160a01b03166014610eb3565b610b95836020610eb3565b604051602001610ba6929190611a28565b60408051601f198184030181529082905262461bcd60e51b825261067491600401611a9d565b6000604051733d602d80600a3d3981f3363d3d373d3d3d363d7360601b81528260601b60148201526e5af43d82803e903d91602b57fd5bf360881b60288201526037816000f09150506001600160a01b038116610c645760405162461bcd60e51b8152602060048201526016602482015275115490cc4c4d8dce8818dc99585d194819985a5b195960521b6044820152606401610674565b919050565b600080610c998484600060405180604001604052806002815260200161060f60f31b81525060008060008061104f565b9050610cc47f474e4f5349535f534146455f50524f58595f464143544f525900000000000000610d52565b6001600160a01b03166361b69abd610ce96a474e4f5349535f5341464560a81b610d52565b836040518363ffffffff1660e01b8152600401610d07929190611ab0565b6020604051808303816000875af1158015610d26573d6000803e3d6000fd5b505050506040513d601f19601f82011682018060405250810190610d4a9190611737565b949350505050565b60015460405163023aa9ab60e61b8152600481018390526000916001600160a01b031690638eaa6ac090602401602060405180830381865afa158015610d9c573d6000803e3d6000fd5b505050506040513d601f19601f820116820180604052508101906103c49190611737565b610dca828261096d565b610687576000828152602081815260408083206001600160a01b03851684529091529020805460ff19166001179055610e003390565b6001600160a01b0316816001600160a01b0316837f2f8788117e7eff1d82e926ec794901d17c78024a50270940304540a733656f0d60405160405180910390a45050565b610e4e828261096d565b15610687576000828152602081815260408083206001600160a01b0385168085529252808320805460ff1916905551339285917ff6391f5c32d9c69d2a47ea670b442974b53935d1edc7fd64eb21e047a839171b9190a45050565b6106878282610dc0565b60606000610ec2836002611aea565b610ecd906002611b09565b67ffffffffffffffff811115610ee557610ee561113d565b6040519080825280601f01601f191660200182016040528015610f0f576020820181803683370190505b509050600360fc1b81600081518110610f2a57610f2a611721565b60200101906001600160f81b031916908160001a905350600f60fb1b81600181518110610f5957610f59611721565b60200101906001600160f81b031916908160001a9053506000610f7d846002611aea565b610f88906001611b09565b90505b6001811115611000576f181899199a1a9b1b9c1cb0b131b232b360811b85600f1660108110610fbc57610fbc611721565b1a60f81b828281518110610fd257610fd2611721565b60200101906001600160f81b031916908160001a90535060049490941c93610ff981611b21565b9050610f8b565b50831561038c5760405162461bcd60e51b815260206004820181905260248201527f537472696e67733a20686578206c656e67746820696e73756666696369656e746044820152606401610674565b60608888888888888888604051602401611070989796959493929190611b38565b60408051601f198184030181529190526020810180516001600160e01b031663b63e800d60e01b1790529998505050505050505050565b6001600160a01b03811681146110bc57600080fd5b50565b8035610c64816110a7565b600080604083850312156110dd57600080fd5b8235915060208301356110ef816110a7565b809150509250929050565b60006020828403121561110c57600080fd5b81356001600160e01b03198116811461038c57600080fd5b60006020828403121561113657600080fd5b5035919050565b634e487b7160e01b600052604160045260246000fd5b6040805190810167ffffffffffffffff811182821017156111765761117661113d565b60405290565b604051601f8201601f1916810167ffffffffffffffff811182821017156111a5576111a561113d565b604052919050565b600067ffffffffffffffff8211156111c7576111c761113d565b50601f01601f191660200190565b60006111e86111e3846111ad565b61117c565b90508281528383830111156111fc57600080fd5b828260208301376000602084830101529392505050565b600082601f83011261122457600080fd5b61038c838335602085016111d5565b600067ffffffffffffffff82111561124d5761124d61113d565b5060051b60200190565b600082601f83011261126857600080fd5b813560206112786111e383611233565b82815260059290921b8401810191818101908684111561129757600080fd5b8286015b848110156112bb5780356112ae816110a7565b835291830191830161129b565b509695505050505050565b80151581146110bc57600080fd5b8035610c64816112c6565b6000601f83818401126112f157600080fd5b823560206113016111e383611233565b82815260069290921b8501810191818101908784111561132057600080fd5b8287015b8481101561138057888682011261133b5760008081fd5b611343611153565b80604083018b8111156113565760008081fd5b835b8181101561136f5780358452928701928701611358565b505084525091830191604001611324565b50979650505050505050565b60008060008060008060008060006101208a8c0312156113ab57600080fd5b893567ffffffffffffffff808211156113c357600080fd5b6113cf8d838e01611213565b9a5060208c01359150808211156113e557600080fd5b6113f18d838e01611213565b995060408c013591508082111561140757600080fd5b6114138d838e01611213565b985060608c013591508082111561142957600080fd5b6114358d838e01611257565b975061144360808d016112d4565b965060a08c013591508082111561145957600080fd5b6114658d838e016112df565b955060c08c013591508082111561147b57600080fd5b6114878d838e01611257565b945060e08c013591508082111561149d57600080fd5b506114aa8c828d01611257565b9250506101008a013590509295985092959850929598565b600081518084526020808501945080840160005b838110156114fb5781516001600160a01b0316875295820195908201906001016114d6565b509495945050505050565b60208152600061038c60208301846114c2565b60006020828403121561152b57600080fd5b813567ffffffffffffffff81111561154257600080fd5b8201601f8101841361155357600080fd5b610d4a848235602084016111d5565b60005b8381101561157d578181015183820152602001611565565b8381111561158c576000848401525b50505050565b600081518084526115aa816020860160208601611562565b601f01601f19169290920160200192915050565b6040815260006115d16040830185611592565b82810360208401526115e38185611592565b95945050505050565b6000602082840312156115fe57600080fd5b813561038c816110a7565b600080600080600080600080610100898b03121561162657600080fd5b883567ffffffffffffffff8082111561163e57600080fd5b61164a8c838d01611213565b995060208b013591508082111561166057600080fd5b61166c8c838d01611213565b985060408b013591508082111561168257600080fd5b61168e8c838d01611213565b975061169c60608c016110bf565b965060808b01359150808211156116b257600080fd5b6116be8c838d01611257565b95506116cc60a08c016112d4565b945060c08b01359150808211156116e257600080fd5b6116ee8c838d016112df565b935060e08b013591508082111561170457600080fd5b506117118b828c01611257565b9150509295985092959890939650565b634e487b7160e01b600052603260045260246000fd5b60006020828403121561174957600080fd5b815161038c816110a7565b60006020828403121561176657600080fd5b815161038c816112c6565b60006101208083526117858184018d611592565b905060208382038185015261179a828d611592565b6001600160a01b038c8116604087810191909152908c16606087015285820360808701529092506117cb838b6114c2565b89151560a087015285810360c08701528851808252838a019450908301906000805b8281101561182a57865184835b6002811015611817578251825291880191908801906001016117fa565b50505095850195928401926001016117ed565b50505085810360e087015261183f81896114c2565b94505050505061185b6101008301846001600160a01b03169052565b9a9950505050505050505050565b60808152600061187c6080830187611592565b828103602084015261188e8187611592565b905082810360408401526118a28186611592565b915050821515606083015295945050505050565b600060208083850312156118c957600080fd5b825167ffffffffffffffff8111156118e057600080fd5b8301601f810185136118f157600080fd5b80516118ff6111e382611233565b81815260059190911b8201830190838101908783111561191e57600080fd5b928401925b82841015611945578351611936816110a7565b82529284019290840190611923565b979650505050505050565b6000806040838503121561196357600080fd5b825161196e816110a7565b60208401519092506110ef816110a7565b600082601f83011261199057600080fd5b815161199e6111e3826111ad565b8181528460208386010111156119b357600080fd5b610d4a826020830160208701611562565b600080604083850312156119d757600080fd5b825167ffffffffffffffff808211156119ef57600080fd5b6119fb8683870161197f565b93506020850151915080821115611a1157600080fd5b50611a1e8582860161197f565b9150509250929050565b7f416363657373436f6e74726f6c3a206163636f756e7420000000000000000000815260008351611a60816017850160208801611562565b7001034b99036b4b9b9b4b733903937b6329607d1b6017918401918201528351611a91816028840160208801611562565b01602801949350505050565b60208152600061038c6020830184611592565b6001600160a01b0383168152604060208201819052600090610d4a90830184611592565b634e487b7160e01b600052601160045260246000fd5b6000816000190483118215151615611b0457611b04611ad4565b500290565b60008219821115611b1c57611b1c611ad4565b500190565b600081611b3057611b30611ad4565b506000190190565b6000610100808352611b4c8184018c6114c2565b602084018b90526001600160a01b038a811660408601528482036060860152909150611b78828a611592565b978116608085015295861660a0840152505060c081019290925290911660e09091015294935050505056fe828634d95e775031b9ff576b159a8509d3053581a8c9c4d7d86899e0afcd882fa2646970667358221220d7355f78c5d4bea05165cb46fb8e06b247c85b745e78ec9ce282b1f6402d56b264736f6c634300080a0033",
  "devdoc": {
    "kind": "dev",
    "methods": {
      "createFund(string,string,string,address,address[],bool,bytes32[2][],address[])": {
        "details": "setup a new fund",
        "params": {
          "_allowedTokens": "array of allowed token addresses",
          "_checks": "a list of checks if fund is requestable",
          "_description": "description of the fund",
          "_focus": "focus of the fund",
          "_name": "name of the fund",
          "_requestable": "boolean indicating if fund is requestable",
          "_safeAddress": "address of underlying Gnosis Safe"
        }
      },
      "createFundWithSafe(string,string,string,address[],bool,bytes32[2][],address[],address[],uint256)": {
        "details": "setup a new fund",
        "params": {
          "_allowedTokens": "array of allowed token addresses",
          "_description": "description of the fund",
          "_focus": "focus of the fund",
          "_name": "name of the fund",
          "_owners": "owners of the safe",
          "_threshold": "number of confirmations that the safe would need before a transaction"
        }
      },
      "getAllowedTokens(uint256)": {
        "details": "get a list of allowed tokens for a fund",
        "params": {
          "_id": "unique identifier of a fund"
        },
        "returns": {
          "_0": "list of addresses"
        }
      },
      "getDepositAddressFor(uint256,address)": {
        "details": "get a fund's deposit address",
        "params": {
          "_id": "unique identifier of the fund",
          "_tokenAddress": "address of token tracker"
        },
        "returns": {
          "_0": "address of the fund"
        }
      },
      "getFundAddress(uint256)": {
        "details": "get a fund's deposit address",
        "params": {
          "_id": "unique identifier of a fund"
        },
        "returns": {
          "_0": "address"
        }
      },
      "getFundMeta(uint256)": {
        "details": "get a fund's name and focus",
        "params": {
          "_id": "unique identifier of the fund"
        },
        "returns": {
          "_0": "fund name and focus"
        }
      },
      "getFunds()": {
        "details": "get all fund addresses",
        "returns": {
          "_0": "fund addresses"
        }
      },
      "getRoleAdmin(bytes32)": {
        "details": "Returns the admin role that controls `role`. See {grantRole} and {revokeRole}. To change a role's admin, use {_setRoleAdmin}."
      },
      "grantRole(bytes32,address)": {
        "details": "Grants `role` to `account`. If `account` had not been already granted `role`, emits a {RoleGranted} event. Requirements: - the caller must have ``role``'s admin role."
      },
      "hasRole(bytes32,address)": {
        "details": "Returns `true` if `account` has been granted `role`."
      },
      "isTokenAllowed(uint256,address)": {
        "details": "check if token is allowed",
        "params": {
          "_id": "unique identifier of a fund",
          "_tokenAddress": "token address"
        },
        "returns": {
          "_0": "boolean"
        }
      },
      "renounceRole(bytes32,address)": {
        "details": "Revokes `role` from the calling account. Roles are often managed via {grantRole} and {revokeRole}: this function's purpose is to provide a mechanism for accounts to lose their privileges if they are compromised (such as when a trusted device is misplaced). If the calling account had been revoked `role`, emits a {RoleRevoked} event. Requirements: - the caller must be `account`."
      },
      "revokeRole(bytes32,address)": {
        "details": "Revokes `role` from `account`. If `account` had been granted `role`, emits a {RoleRevoked} event. Requirements: - the caller must have ``role``'s admin role."
      },
      "setCreatorRole(address)": {
        "details": "set creator role",
        "params": {
          "_roleAddress": "address of creator"
        }
      },
      "setImplementation(address)": {
        "details": "set implementation address",
        "params": {
          "_impl": "address of underlying Gnosis Safe"
        },
        "returns": {
          "_0": "boolean indicating op. result"
        }
      },
      "supportsInterface(bytes4)": {
        "details": "See {IERC165-supportsInterface}."
      }
    },
    "version": 1
  },
  "userdoc": {
    "kind": "user",
    "methods": {},
    "version": 1
  },
  "storageLayout": {
    "storage": [
      {
        "astId": 4975,
        "contract": "contracts/FundManagerV1.sol:FundManagerV1",
        "label": "_roles",
        "offset": 0,
        "slot": "0",
        "type": "t_mapping(t_bytes32,t_struct(RoleData)4970_storage)"
      },
      {
        "astId": 12330,
        "contract": "contracts/FundManagerV1.sol:FundManagerV1",
        "label": "registry",
        "offset": 0,
        "slot": "1",
        "type": "t_contract(Registry)12650"
      },
      {
        "astId": 6117,
        "contract": "contracts/FundManagerV1.sol:FundManagerV1",
        "label": "_initialized",
        "offset": 20,
        "slot": "1",
        "type": "t_bool"
      },
      {
        "astId": 6120,
        "contract": "contracts/FundManagerV1.sol:FundManagerV1",
        "label": "_initializing",
        "offset": 21,
        "slot": "1",
        "type": "t_bool"
      },
      {
        "astId": 10790,
        "contract": "contracts/FundManagerV1.sol:FundManagerV1",
        "label": "baseFund",
        "offset": 0,
        "slot": "2",
        "type": "t_address"
      },
      {
        "astId": 10793,
        "contract": "contracts/FundManagerV1.sol:FundManagerV1",
        "label": "funds",
        "offset": 0,
        "slot": "3",
        "type": "t_array(t_address)dyn_storage"
      }
    ],
    "types": {
      "t_address": {
        "encoding": "inplace",
        "label": "address",
        "numberOfBytes": "20"
      },
      "t_array(t_address)dyn_storage": {
        "base": "t_address",
        "encoding": "dynamic_array",
        "label": "address[]",
        "numberOfBytes": "32"
      },
      "t_bool": {
        "encoding": "inplace",
        "label": "bool",
        "numberOfBytes": "1"
      },
      "t_bytes32": {
        "encoding": "inplace",
        "label": "bytes32",
        "numberOfBytes": "32"
      },
      "t_contract(Registry)12650": {
        "encoding": "inplace",
        "label": "contract Registry",
        "numberOfBytes": "20"
      },
      "t_mapping(t_address,t_bool)": {
        "encoding": "mapping",
        "key": "t_address",
        "label": "mapping(address => bool)",
        "numberOfBytes": "32",
        "value": "t_bool"
      },
      "t_mapping(t_bytes32,t_struct(RoleData)4970_storage)": {
        "encoding": "mapping",
        "key": "t_bytes32",
        "label": "mapping(bytes32 => struct AccessControl.RoleData)",
        "numberOfBytes": "32",
        "value": "t_struct(RoleData)4970_storage"
      },
      "t_struct(RoleData)4970_storage": {
        "encoding": "inplace",
        "label": "struct AccessControl.RoleData",
        "members": [
          {
            "astId": 4967,
            "contract": "contracts/FundManagerV1.sol:FundManagerV1",
            "label": "members",
            "offset": 0,
            "slot": "0",
            "type": "t_mapping(t_address,t_bool)"
          },
          {
            "astId": 4969,
            "contract": "contracts/FundManagerV1.sol:FundManagerV1",
            "label": "adminRole",
            "offset": 0,
            "slot": "1",
            "type": "t_bytes32"
          }
        ],
        "numberOfBytes": "64"
      }
    }
  }
}