{
  "address": "0x480C1ceeAC9cf82826796214A780ce62b8F687cE",
  "abi": [
    {
      "inputs": [
        {
          "internalType": "address",
          "name": "_registry",
          "type": "address"
        },
        {
          "internalType": "address",
          "name": "_impl",
          "type": "address"
        }
      ],
      "stateMutability": "nonpayable",
      "type": "constructor"
    },
    {
      "anonymous": false,
      "inputs": [
        {
          "indexed": true,
          "internalType": "uint256",
          "name": "id",
          "type": "uint256"
        },
        {
          "indexed": true,
          "internalType": "address",
          "name": "at",
          "type": "address"
        },
        {
          "indexed": false,
          "internalType": "string",
          "name": "name",
          "type": "string"
        },
        {
          "indexed": false,
          "internalType": "string",
          "name": "focus",
          "type": "string"
        },
        {
          "indexed": false,
          "internalType": "string",
          "name": "description",
          "type": "string"
        }
      ],
      "name": "FundCreated",
      "type": "event"
    },
    {
      "anonymous": false,
      "inputs": [
        {
          "indexed": true,
          "internalType": "bytes32",
          "name": "role",
          "type": "bytes32"
        },
        {
          "indexed": true,
          "internalType": "bytes32",
          "name": "previousAdminRole",
          "type": "bytes32"
        },
        {
          "indexed": true,
          "internalType": "bytes32",
          "name": "newAdminRole",
          "type": "bytes32"
        }
      ],
      "name": "RoleAdminChanged",
      "type": "event"
    },
    {
      "anonymous": false,
      "inputs": [
        {
          "indexed": true,
          "internalType": "bytes32",
          "name": "role",
          "type": "bytes32"
        },
        {
          "indexed": true,
          "internalType": "address",
          "name": "account",
          "type": "address"
        },
        {
          "indexed": true,
          "internalType": "address",
          "name": "sender",
          "type": "address"
        }
      ],
      "name": "RoleGranted",
      "type": "event"
    },
    {
      "anonymous": false,
      "inputs": [
        {
          "indexed": true,
          "internalType": "bytes32",
          "name": "role",
          "type": "bytes32"
        },
        {
          "indexed": true,
          "internalType": "address",
          "name": "account",
          "type": "address"
        },
        {
          "indexed": true,
          "internalType": "address",
          "name": "sender",
          "type": "address"
        }
      ],
      "name": "RoleRevoked",
      "type": "event"
    },
    {
      "inputs": [],
      "name": "DEFAULT_ADMIN_ROLE",
      "outputs": [
        {
          "internalType": "bytes32",
          "name": "",
          "type": "bytes32"
        }
      ],
      "stateMutability": "view",
      "type": "function"
    },
    {
      "inputs": [],
      "name": "baseFund",
      "outputs": [
        {
          "internalType": "address",
          "name": "",
          "type": "address"
        }
      ],
      "stateMutability": "view",
      "type": "function"
    },
    {
      "inputs": [
        {
          "internalType": "string",
          "name": "_name",
          "type": "string"
        },
        {
          "internalType": "string",
          "name": "_focus",
          "type": "string"
        },
        {
          "internalType": "string",
          "name": "_description",
          "type": "string"
        },
        {
          "internalType": "address",
          "name": "_safeAddress",
          "type": "address"
        },
        {
          "internalType": "address[]",
          "name": "_allowedTokens",
          "type": "address[]"
        },
        {
          "internalType": "bytes32[]",
          "name": "_checks",
          "type": "bytes32[]"
        }
      ],
      "name": "createFund",
      "outputs": [],
      "stateMutability": "nonpayable",
      "type": "function"
    },
    {
      "inputs": [
        {
          "internalType": "uint256",
          "name": "_id",
          "type": "uint256"
        }
      ],
      "name": "getAllowedTokens",
      "outputs": [
        {
          "internalType": "address[]",
          "name": "",
          "type": "address[]"
        }
      ],
      "stateMutability": "view",
      "type": "function"
    },
    {
      "inputs": [
        {
          "internalType": "uint256",
          "name": "_id",
          "type": "uint256"
        },
        {
          "internalType": "address",
          "name": "_tokenAddress",
          "type": "address"
        }
      ],
      "name": "getDepositAddressFor",
      "outputs": [
        {
          "internalType": "address",
          "name": "",
          "type": "address"
        }
      ],
      "stateMutability": "view",
      "type": "function"
    },
    {
      "inputs": [
        {
          "internalType": "uint256",
          "name": "_id",
          "type": "uint256"
        }
      ],
      "name": "getFundAddress",
      "outputs": [
        {
          "internalType": "address",
          "name": "",
          "type": "address"
        }
      ],
      "stateMutability": "view",
      "type": "function"
    },
    {
      "inputs": [
        {
          "internalType": "uint256",
          "name": "_id",
          "type": "uint256"
        }
      ],
      "name": "getFundMeta",
      "outputs": [
        {
          "internalType": "string",
          "name": "",
          "type": "string"
        },
        {
          "internalType": "string",
          "name": "",
          "type": "string"
        }
      ],
      "stateMutability": "view",
      "type": "function"
    },
    {
      "inputs": [],
      "name": "getFunds",
      "outputs": [
        {
          "internalType": "address[]",
          "name": "",
          "type": "address[]"
        }
      ],
      "stateMutability": "view",
      "type": "function"
    },
    {
      "inputs": [
        {
          "internalType": "bytes32",
          "name": "role",
          "type": "bytes32"
        }
      ],
      "name": "getRoleAdmin",
      "outputs": [
        {
          "internalType": "bytes32",
          "name": "",
          "type": "bytes32"
        }
      ],
      "stateMutability": "view",
      "type": "function"
    },
    {
      "inputs": [
        {
          "internalType": "bytes32",
          "name": "role",
          "type": "bytes32"
        },
        {
          "internalType": "address",
          "name": "account",
          "type": "address"
        }
      ],
      "name": "grantRole",
      "outputs": [],
      "stateMutability": "nonpayable",
      "type": "function"
    },
    {
      "inputs": [
        {
          "internalType": "bytes32",
          "name": "role",
          "type": "bytes32"
        },
        {
          "internalType": "address",
          "name": "account",
          "type": "address"
        }
      ],
      "name": "hasRole",
      "outputs": [
        {
          "internalType": "bool",
          "name": "",
          "type": "bool"
        }
      ],
      "stateMutability": "view",
      "type": "function"
    },
    {
      "inputs": [
        {
          "internalType": "uint256",
          "name": "_id",
          "type": "uint256"
        },
        {
          "internalType": "address",
          "name": "_tokenAddress",
          "type": "address"
        }
      ],
      "name": "isTokenAllowed",
      "outputs": [
        {
          "internalType": "bool",
          "name": "",
          "type": "bool"
        }
      ],
      "stateMutability": "view",
      "type": "function"
    },
    {
      "inputs": [
        {
          "internalType": "bytes32",
          "name": "role",
          "type": "bytes32"
        },
        {
          "internalType": "address",
          "name": "account",
          "type": "address"
        }
      ],
      "name": "renounceRole",
      "outputs": [],
      "stateMutability": "nonpayable",
      "type": "function"
    },
    {
      "inputs": [
        {
          "internalType": "bytes32",
          "name": "role",
          "type": "bytes32"
        },
        {
          "internalType": "address",
          "name": "account",
          "type": "address"
        }
      ],
      "name": "revokeRole",
      "outputs": [],
      "stateMutability": "nonpayable",
      "type": "function"
    },
    {
      "inputs": [
        {
          "internalType": "address",
          "name": "_impl",
          "type": "address"
        }
      ],
      "name": "setImplementation",
      "outputs": [
        {
          "internalType": "bool",
          "name": "",
          "type": "bool"
        }
      ],
      "stateMutability": "nonpayable",
      "type": "function"
    },
    {
      "inputs": [
        {
          "internalType": "bytes4",
          "name": "interfaceId",
          "type": "bytes4"
        }
      ],
      "name": "supportsInterface",
      "outputs": [
        {
          "internalType": "bool",
          "name": "",
          "type": "bool"
        }
      ],
      "stateMutability": "view",
      "type": "function"
    }
  ],
  "transactionHash": "0x810ac5f4f3014c85c90e39b08548a1a3a91efff5476956f9d0885cf5d44758c0",
  "args": [
    "0xCE43F7B45BbBe0E9f4c4E4EDa11ed9bdbED562Bf",
    "0x83E47e6d10737cb382c064f8A72517943746CE91"
  ],
  "numDeployments": 3,
  "solcInputHash": "b5125ff03efe129277a825bcce0b6f8b",
  "bytecode": "0x60806040523480156200001157600080fd5b50604051620014cb380380620014cb833981016040819052620000349162000158565b620000416000336200008b565b600280546001600160a01b0319166001600160a01b0383161790556200008382600180546001600160a01b0319166001600160a01b0392909216919091179055565b505062000190565b6200009782826200009b565b5050565b6000828152602081815260408083206001600160a01b038516845290915290205460ff1662000097576000828152602081815260408083206001600160a01b03851684529091529020805460ff19166001179055620000f73390565b6001600160a01b0316816001600160a01b0316837f2f8788117e7eff1d82e926ec794901d17c78024a50270940304540a733656f0d60405160405180910390a45050565b80516001600160a01b03811681146200015357600080fd5b919050565b600080604083850312156200016c57600080fd5b62000177836200013b565b915062000187602084016200013b565b90509250929050565b61132b80620001a06000396000f3fe608060405234801561001057600080fd5b50600436106100ff5760003560e01c80634d9b373511610097578063a217fddf11610066578063a217fddf14610245578063ce01cdb81461024d578063d547741f14610260578063d784d4261461027357600080fd5b80634d9b3735146101f65780634dad0c78146101fe5780635a8f456e1461021f57806391d148541461023257600080fd5b80632f2ff15d116100d35780632f2ff15d1461019b57806336568abe146101b057806337b04203146101c3578063381296cc146101d657600080fd5b80624b287c1461010457806301ffc9a7146101345780630bc9dad114610157578063248a9ca31461016a575b600080fd5b610117610112366004610b8f565b610286565b6040516001600160a01b0390911681526020015b60405180910390f35b610147610142366004610bbf565b610319565b604051901515815260200161012b565b610147610165366004610b8f565b610350565b61018d610178366004610be9565b60009081526020819052604090206001015490565b60405190815260200161012b565b6101ae6101a9366004610b8f565b6103dc565b005b6101ae6101be366004610b8f565b610407565b6101176101d1366004610be9565b61048a565b6101e96101e4366004610be9565b6104ba565b60405161012b9190610c46565b6101e9610543565b61021161020c366004610be9565b6105a5565b60405161012b929190610cb5565b6101ae61022d366004610e96565b610638565b610147610240366004610b8f565b610763565b61018d600081565b600254610117906001600160a01b031681565b6101ae61026e366004610b8f565b61078c565b610147610281366004610f77565b6107b2565b60006003838154811061029b5761029b610f94565b60009182526020909120015460405163233fd7ed60e01b81526001600160a01b0384811660048301529091169063233fd7ed90602401602060405180830381865afa1580156102ee573d6000803e3d6000fd5b505050506040513d601f19601f820116820180604052508101906103129190610faa565b9392505050565b60006001600160e01b03198216637965db0b60e01b148061034a57506301ffc9a760e01b6001600160e01b03198316145b92915050565b60006003838154811061036557610365610f94565b60009182526020909120015460405163f9eaee0d60e01b81526001600160a01b0384811660048301529091169063f9eaee0d90602401602060405180830381865afa1580156103b8573d6000803e3d6000fd5b505050506040513d601f19601f820116820180604052508101906103129190610fc7565b6000828152602081905260409020600101546103f881336107e6565b610402838361084a565b505050565b6001600160a01b038116331461047c5760405162461bcd60e51b815260206004820152602f60248201527f416363657373436f6e74726f6c3a2063616e206f6e6c792072656e6f756e636560448201526e103937b632b9903337b91039b2b63360891b60648201526084015b60405180910390fd5b61048682826108ce565b5050565b60006003828154811061049f5761049f610f94565b6000918252602090912001546001600160a01b031692915050565b6060600382815481106104cf576104cf610f94565b60009182526020822001546040805163024ece8960e01b815290516001600160a01b039092169263024ece89926004808401938290030181865afa15801561051b573d6000803e3d6000fd5b505050506040513d6000823e601f3d908101601f1916820160405261034a9190810190610fe9565b6060600380548060200260200160405190810160405280929190818152602001828054801561059b57602002820191906000526020600020905b81546001600160a01b0316815260019091019060200180831161057d575b5050505050905090565b606080600383815481106105bb576105bb610f94565b6000918252602082200154604080516353cd796760e11b815290516001600160a01b039092169263a79af2ce926004808401938290030181865afa158015610607573d6000803e3d6000fd5b505050506040513d6000823e601f3d908101601f1916820160405261062f91908101906110d0565b91509150915091565b600061064481336107e6565b60035460025460009061065f906001600160a01b0316610933565b60405163a478663d60e01b81529091506001600160a01b0382169063a478663d90610698908c908c908a908a908d903390600401611134565b600060405180830381600087803b1580156106b257600080fd5b505af11580156106c6573d6000803e3d6000fd5b5050600380546001810182556000919091527fc2575a0e9e593c00f959f8c92f12db2869c3395a3b0502d05e2516446f71f85b0180546001600160a01b0319166001600160a01b0385169081179091556040519092508491507fe1cba72f01d834a5e1da118d007fd231806710dfc35e2337d91364c6b04b43a390610750908d908d908d906111c6565b60405180910390a3505050505050505050565b6000918252602082815260408084206001600160a01b0393909316845291905290205460ff1690565b6000828152602081905260409020600101546107a881336107e6565b61040283836108ce565b6000806107bf81336107e6565b600280546001600160a01b0385166001600160a01b03199091161790556001915050919050565b6107f08282610763565b61048657610808816001600160a01b031660146109d0565b6108138360206109d0565b604051602001610824929190611209565b60408051601f198184030181529082905262461bcd60e51b82526104739160040161127e565b6108548282610763565b610486576000828152602081815260408083206001600160a01b03851684529091529020805460ff1916600117905561088a3390565b6001600160a01b0316816001600160a01b0316837f2f8788117e7eff1d82e926ec794901d17c78024a50270940304540a733656f0d60405160405180910390a45050565b6108d88282610763565b15610486576000828152602081815260408083206001600160a01b0385168085529252808320805460ff1916905551339285917ff6391f5c32d9c69d2a47ea670b442974b53935d1edc7fd64eb21e047a839171b9190a45050565b6000604051733d602d80600a3d3981f3363d3d373d3d3d363d7360601b81528260601b60148201526e5af43d82803e903d91602b57fd5bf360881b60288201526037816000f09150506001600160a01b0381166109cb5760405162461bcd60e51b8152602060048201526016602482015275115490cc4c4d8dce8818dc99585d194819985a5b195960521b6044820152606401610473565b919050565b606060006109df8360026112a7565b6109ea9060026112c6565b67ffffffffffffffff811115610a0257610a02610ce3565b6040519080825280601f01601f191660200182016040528015610a2c576020820181803683370190505b509050600360fc1b81600081518110610a4757610a47610f94565b60200101906001600160f81b031916908160001a905350600f60fb1b81600181518110610a7657610a76610f94565b60200101906001600160f81b031916908160001a9053506000610a9a8460026112a7565b610aa59060016112c6565b90505b6001811115610b1d576f181899199a1a9b1b9c1cb0b131b232b360811b85600f1660108110610ad957610ad9610f94565b1a60f81b828281518110610aef57610aef610f94565b60200101906001600160f81b031916908160001a90535060049490941c93610b16816112de565b9050610aa8565b5083156103125760405162461bcd60e51b815260206004820181905260248201527f537472696e67733a20686578206c656e67746820696e73756666696369656e746044820152606401610473565b6001600160a01b0381168114610b8157600080fd5b50565b80356109cb81610b6c565b60008060408385031215610ba257600080fd5b823591506020830135610bb481610b6c565b809150509250929050565b600060208284031215610bd157600080fd5b81356001600160e01b03198116811461031257600080fd5b600060208284031215610bfb57600080fd5b5035919050565b600081518084526020808501945080840160005b83811015610c3b5781516001600160a01b031687529582019590820190600101610c16565b509495945050505050565b6020815260006103126020830184610c02565b60005b83811015610c74578181015183820152602001610c5c565b83811115610c83576000848401525b50505050565b60008151808452610ca1816020860160208601610c59565b601f01601f19169290920160200192915050565b604081526000610cc86040830185610c89565b8281036020840152610cda8185610c89565b95945050505050565b634e487b7160e01b600052604160045260246000fd5b604051601f8201601f1916810167ffffffffffffffff81118282101715610d2257610d22610ce3565b604052919050565b600067ffffffffffffffff821115610d4457610d44610ce3565b50601f01601f191660200190565b600082601f830112610d6357600080fd5b8135610d76610d7182610d2a565b610cf9565b818152846020838601011115610d8b57600080fd5b816020850160208301376000918101602001919091529392505050565b600067ffffffffffffffff821115610dc257610dc2610ce3565b5060051b60200190565b600082601f830112610ddd57600080fd5b81356020610ded610d7183610da8565b82815260059290921b84018101918181019086841115610e0c57600080fd5b8286015b84811015610e30578035610e2381610b6c565b8352918301918301610e10565b509695505050505050565b600082601f830112610e4c57600080fd5b81356020610e5c610d7183610da8565b82815260059290921b84018101918181019086841115610e7b57600080fd5b8286015b84811015610e305780358352918301918301610e7f565b60008060008060008060c08789031215610eaf57600080fd5b863567ffffffffffffffff80821115610ec757600080fd5b610ed38a838b01610d52565b97506020890135915080821115610ee957600080fd5b610ef58a838b01610d52565b96506040890135915080821115610f0b57600080fd5b610f178a838b01610d52565b9550610f2560608a01610b84565b94506080890135915080821115610f3b57600080fd5b610f478a838b01610dcc565b935060a0890135915080821115610f5d57600080fd5b50610f6a89828a01610e3b565b9150509295509295509295565b600060208284031215610f8957600080fd5b813561031281610b6c565b634e487b7160e01b600052603260045260246000fd5b600060208284031215610fbc57600080fd5b815161031281610b6c565b600060208284031215610fd957600080fd5b8151801515811461031257600080fd5b60006020808385031215610ffc57600080fd5b825167ffffffffffffffff81111561101357600080fd5b8301601f8101851361102457600080fd5b8051611032610d7182610da8565b81815260059190911b8201830190838101908783111561105157600080fd5b928401925b8284101561107857835161106981610b6c565b82529284019290840190611056565b979650505050505050565b600082601f83011261109457600080fd5b81516110a2610d7182610d2a565b8181528460208386010111156110b757600080fd5b6110c8826020830160208701610c59565b949350505050565b600080604083850312156110e357600080fd5b825167ffffffffffffffff808211156110fb57600080fd5b61110786838701611083565b9350602085015191508082111561111d57600080fd5b5061112a85828601611083565b9150509250929050565b60c08152600061114760c0830189610c89565b60208382038185015261115a828a610c89565b9150838203604085015261116e8289610c02565b8481036060860152875180825282890193509082019060005b818110156111a357845183529383019391830191600101611187565b50506001600160a01b038781166080870152861660a08601529250611078915050565b6060815260006111d96060830186610c89565b82810360208401526111eb8186610c89565b905082810360408401526111ff8185610c89565b9695505050505050565b7f416363657373436f6e74726f6c3a206163636f756e7420000000000000000000815260008351611241816017850160208801610c59565b7001034b99036b4b9b9b4b733903937b6329607d1b6017918401918201528351611272816028840160208801610c59565b01602801949350505050565b6020815260006103126020830184610c89565b634e487b7160e01b600052601160045260246000fd5b60008160001904831182151516156112c1576112c1611291565b500290565b600082198211156112d9576112d9611291565b500190565b6000816112ed576112ed611291565b50600019019056fea2646970667358221220cb764cc9ca175597b5c5a3f4fb037a2268484eea7045d4b71c43e3cd4a7e685e64736f6c634300080a0033",
  "devdoc": {
    "kind": "dev",
    "methods": {
      "createFund(string,string,string,address,address[],bytes32[])": {
        "details": "setup a new fund",
        "params": {
          "_allowedTokens": "array of allowed token addresses",
          "_description": "description of the fund",
          "_focus": "focus of the fund",
          "_name": "name of the fund",
          "_safeAddress": "address of underlying Gnosis Safe"
        }
      },
      "getAllowedTokens(uint256)": {
        "details": "get a list of allowed tokens for a fund",
        "params": {
          "_id": "unique identifier of a fund"
        },
        "returns": {
          "_0": "list of addresses"
        }
      },
      "getDepositAddressFor(uint256,address)": {
        "details": "get a fund's deposit address",
        "params": {
          "_id": "unique identifier of the fund",
          "_tokenAddress": "address of token tracker"
        },
        "returns": {
          "_0": "address of the fund"
        }
      },
      "getFundAddress(uint256)": {
        "details": "get a fund's deposit address",
        "params": {
          "_id": "unique identifier of a fund"
        },
        "returns": {
          "_0": "address"
        }
      },
      "getFundMeta(uint256)": {
        "details": "get a fund's name and focus",
        "params": {
          "_id": "unique identifier of the fund"
        },
        "returns": {
          "_0": "fund name and focus"
        }
      },
      "getFunds()": {
        "details": "get all fund addresses",
        "returns": {
          "_0": "fund addresses"
        }
      },
      "getRoleAdmin(bytes32)": {
        "details": "Returns the admin role that controls `role`. See {grantRole} and {revokeRole}. To change a role's admin, use {_setRoleAdmin}."
      },
      "grantRole(bytes32,address)": {
        "details": "Grants `role` to `account`. If `account` had not been already granted `role`, emits a {RoleGranted} event. Requirements: - the caller must have ``role``'s admin role."
      },
      "hasRole(bytes32,address)": {
        "details": "Returns `true` if `account` has been granted `role`."
      },
      "isTokenAllowed(uint256,address)": {
        "details": "check if token is allowed",
        "params": {
          "_id": "unique identifier of a fund",
          "_tokenAddress": "token address"
        },
        "returns": {
          "_0": "boolean"
        }
      },
      "renounceRole(bytes32,address)": {
        "details": "Revokes `role` from the calling account. Roles are often managed via {grantRole} and {revokeRole}: this function's purpose is to provide a mechanism for accounts to lose their privileges if they are compromised (such as when a trusted device is misplaced). If the calling account had been revoked `role`, emits a {RoleRevoked} event. Requirements: - the caller must be `account`."
      },
      "revokeRole(bytes32,address)": {
        "details": "Revokes `role` from `account`. If `account` had been granted `role`, emits a {RoleRevoked} event. Requirements: - the caller must have ``role``'s admin role."
      },
      "setImplementation(address)": {
        "details": "set implementation address",
        "params": {
          "_impl": "address of underlying Gnosis Safe"
        },
        "returns": {
          "_0": "boolean indicating op. result"
        }
      },
      "supportsInterface(bytes4)": {
        "details": "See {IERC165-supportsInterface}."
      }
    },
    "version": 1
  },
  "userdoc": {
    "kind": "user",
    "methods": {},
    "version": 1
  },
  "storageLayout": {
    "storage": [
      {
        "astId": 24,
        "contract": "contracts/FundManager.sol:FundManager",
        "label": "_roles",
        "offset": 0,
        "slot": "0",
        "type": "t_mapping(t_bytes32,t_struct(RoleData)19_storage)"
      },
      {
        "astId": 5893,
        "contract": "contracts/FundManager.sol:FundManager",
        "label": "registry",
        "offset": 0,
        "slot": "1",
        "type": "t_contract(Registry)6043"
      },
      {
        "astId": 4972,
        "contract": "contracts/FundManager.sol:FundManager",
        "label": "baseFund",
        "offset": 0,
        "slot": "2",
        "type": "t_address"
      },
      {
        "astId": 4975,
        "contract": "contracts/FundManager.sol:FundManager",
        "label": "funds",
        "offset": 0,
        "slot": "3",
        "type": "t_array(t_address)dyn_storage"
      }
    ],
    "types": {
      "t_address": {
        "encoding": "inplace",
        "label": "address",
        "numberOfBytes": "20"
      },
      "t_array(t_address)dyn_storage": {
        "base": "t_address",
        "encoding": "dynamic_array",
        "label": "address[]",
        "numberOfBytes": "32"
      },
      "t_bool": {
        "encoding": "inplace",
        "label": "bool",
        "numberOfBytes": "1"
      },
      "t_bytes32": {
        "encoding": "inplace",
        "label": "bytes32",
        "numberOfBytes": "32"
      },
      "t_contract(Registry)6043": {
        "encoding": "inplace",
        "label": "contract Registry",
        "numberOfBytes": "20"
      },
      "t_mapping(t_address,t_bool)": {
        "encoding": "mapping",
        "key": "t_address",
        "label": "mapping(address => bool)",
        "numberOfBytes": "32",
        "value": "t_bool"
      },
      "t_mapping(t_bytes32,t_struct(RoleData)19_storage)": {
        "encoding": "mapping",
        "key": "t_bytes32",
        "label": "mapping(bytes32 => struct AccessControl.RoleData)",
        "numberOfBytes": "32",
        "value": "t_struct(RoleData)19_storage"
      },
      "t_struct(RoleData)19_storage": {
        "encoding": "inplace",
        "label": "struct AccessControl.RoleData",
        "members": [
          {
            "astId": 16,
            "contract": "contracts/FundManager.sol:FundManager",
            "label": "members",
            "offset": 0,
            "slot": "0",
            "type": "t_mapping(t_address,t_bool)"
          },
          {
            "astId": 18,
            "contract": "contracts/FundManager.sol:FundManager",
            "label": "adminRole",
            "offset": 0,
            "slot": "1",
            "type": "t_bytes32"
          }
        ],
        "numberOfBytes": "64"
      }
    }
  }
}