{
  "address": "0xC4564e6914F844fb944F760b190c68ADa2418656",
  "abi": [
    {
      "inputs": [
        {
          "internalType": "address",
          "name": "_registry",
          "type": "address"
        },
        {
          "internalType": "address",
          "name": "_impl",
          "type": "address"
        }
      ],
      "stateMutability": "nonpayable",
      "type": "constructor"
    },
    {
      "inputs": [],
      "name": "NotAllowed",
      "type": "error"
    },
    {
      "anonymous": false,
      "inputs": [
        {
          "indexed": true,
          "internalType": "uint256",
          "name": "id",
          "type": "uint256"
        },
        {
          "indexed": true,
          "internalType": "address",
          "name": "at",
          "type": "address"
        },
        {
          "indexed": false,
          "internalType": "string",
          "name": "name",
          "type": "string"
        },
        {
          "indexed": false,
          "internalType": "string",
          "name": "focus",
          "type": "string"
        },
        {
          "indexed": false,
          "internalType": "string",
          "name": "description",
          "type": "string"
        }
      ],
      "name": "FundCreated",
      "type": "event"
    },
    {
      "anonymous": false,
      "inputs": [
        {
          "indexed": true,
          "internalType": "bytes32",
          "name": "role",
          "type": "bytes32"
        },
        {
          "indexed": true,
          "internalType": "bytes32",
          "name": "previousAdminRole",
          "type": "bytes32"
        },
        {
          "indexed": true,
          "internalType": "bytes32",
          "name": "newAdminRole",
          "type": "bytes32"
        }
      ],
      "name": "RoleAdminChanged",
      "type": "event"
    },
    {
      "anonymous": false,
      "inputs": [
        {
          "indexed": true,
          "internalType": "bytes32",
          "name": "role",
          "type": "bytes32"
        },
        {
          "indexed": true,
          "internalType": "address",
          "name": "account",
          "type": "address"
        },
        {
          "indexed": true,
          "internalType": "address",
          "name": "sender",
          "type": "address"
        }
      ],
      "name": "RoleGranted",
      "type": "event"
    },
    {
      "anonymous": false,
      "inputs": [
        {
          "indexed": true,
          "internalType": "bytes32",
          "name": "role",
          "type": "bytes32"
        },
        {
          "indexed": true,
          "internalType": "address",
          "name": "account",
          "type": "address"
        },
        {
          "indexed": true,
          "internalType": "address",
          "name": "sender",
          "type": "address"
        }
      ],
      "name": "RoleRevoked",
      "type": "event"
    },
    {
      "inputs": [],
      "name": "DEFAULT_ADMIN_ROLE",
      "outputs": [
        {
          "internalType": "bytes32",
          "name": "",
          "type": "bytes32"
        }
      ],
      "stateMutability": "view",
      "type": "function"
    },
    {
      "inputs": [],
      "name": "baseFund",
      "outputs": [
        {
          "internalType": "address",
          "name": "",
          "type": "address"
        }
      ],
      "stateMutability": "view",
      "type": "function"
    },
    {
      "inputs": [
        {
          "internalType": "string[3]",
          "name": "_details",
          "type": "string[3]"
        },
        {
          "internalType": "address",
          "name": "_safeAddress",
          "type": "address"
        },
        {
          "internalType": "address[]",
          "name": "_allowedTokens",
          "type": "address[]"
        },
        {
          "internalType": "bool",
          "name": "_requestable",
          "type": "bool"
        },
        {
          "internalType": "bytes32[2][]",
          "name": "_checks",
          "type": "bytes32[2][]"
        },
        {
          "internalType": "address[]",
          "name": "_whitelist",
          "type": "address[]"
        },
        {
          "internalType": "address",
          "name": "_oracleConsumer",
          "type": "address"
        }
      ],
      "name": "createFund",
      "outputs": [],
      "stateMutability": "nonpayable",
      "type": "function"
    },
    {
      "inputs": [
        {
          "internalType": "string[3]",
          "name": "_details",
          "type": "string[3]"
        },
        {
          "internalType": "address[]",
          "name": "_allowedTokens",
          "type": "address[]"
        },
        {
          "internalType": "bool",
          "name": "_requestable",
          "type": "bool"
        },
        {
          "internalType": "bytes32[2][]",
          "name": "_checks",
          "type": "bytes32[2][]"
        },
        {
          "internalType": "address[]",
          "name": "_whitelist",
          "type": "address[]"
        },
        {
          "internalType": "address[]",
          "name": "_owners",
          "type": "address[]"
        },
        {
          "internalType": "uint256",
          "name": "_threshold",
          "type": "uint256"
        },
        {
          "internalType": "address",
          "name": "_oracleConsumer",
          "type": "address"
        }
      ],
      "name": "createFundWithSafe",
      "outputs": [],
      "stateMutability": "nonpayable",
      "type": "function"
    },
    {
      "inputs": [
        {
          "internalType": "uint256",
          "name": "_id",
          "type": "uint256"
        }
      ],
      "name": "getAllowedTokens",
      "outputs": [
        {
          "internalType": "address[]",
          "name": "",
          "type": "address[]"
        }
      ],
      "stateMutability": "view",
      "type": "function"
    },
    {
      "inputs": [
        {
          "internalType": "uint256",
          "name": "_id",
          "type": "uint256"
        },
        {
          "internalType": "address",
          "name": "_tokenAddress",
          "type": "address"
        }
      ],
      "name": "getDepositAddressFor",
      "outputs": [
        {
          "internalType": "address",
          "name": "",
          "type": "address"
        }
      ],
      "stateMutability": "view",
      "type": "function"
    },
    {
      "inputs": [
        {
          "internalType": "uint256",
          "name": "_id",
          "type": "uint256"
        }
      ],
      "name": "getFundAddress",
      "outputs": [
        {
          "internalType": "address",
          "name": "",
          "type": "address"
        }
      ],
      "stateMutability": "view",
      "type": "function"
    },
    {
      "inputs": [
        {
          "internalType": "uint256",
          "name": "_id",
          "type": "uint256"
        }
      ],
      "name": "getFundMeta",
      "outputs": [
        {
          "internalType": "string",
          "name": "",
          "type": "string"
        },
        {
          "internalType": "string",
          "name": "",
          "type": "string"
        }
      ],
      "stateMutability": "view",
      "type": "function"
    },
    {
      "inputs": [],
      "name": "getFunds",
      "outputs": [
        {
          "internalType": "address[]",
          "name": "",
          "type": "address[]"
        }
      ],
      "stateMutability": "view",
      "type": "function"
    },
    {
      "inputs": [
        {
          "internalType": "bytes32",
          "name": "role",
          "type": "bytes32"
        }
      ],
      "name": "getRoleAdmin",
      "outputs": [
        {
          "internalType": "bytes32",
          "name": "",
          "type": "bytes32"
        }
      ],
      "stateMutability": "view",
      "type": "function"
    },
    {
      "inputs": [
        {
          "internalType": "bytes32",
          "name": "role",
          "type": "bytes32"
        },
        {
          "internalType": "address",
          "name": "account",
          "type": "address"
        }
      ],
      "name": "grantRole",
      "outputs": [],
      "stateMutability": "nonpayable",
      "type": "function"
    },
    {
      "inputs": [
        {
          "internalType": "bytes32",
          "name": "role",
          "type": "bytes32"
        },
        {
          "internalType": "address",
          "name": "account",
          "type": "address"
        }
      ],
      "name": "hasRole",
      "outputs": [
        {
          "internalType": "bool",
          "name": "",
          "type": "bool"
        }
      ],
      "stateMutability": "view",
      "type": "function"
    },
    {
      "inputs": [
        {
          "internalType": "uint256",
          "name": "_id",
          "type": "uint256"
        },
        {
          "internalType": "address",
          "name": "_tokenAddress",
          "type": "address"
        }
      ],
      "name": "isTokenAllowed",
      "outputs": [
        {
          "internalType": "bool",
          "name": "",
          "type": "bool"
        }
      ],
      "stateMutability": "view",
      "type": "function"
    },
    {
      "inputs": [
        {
          "internalType": "bytes32",
          "name": "role",
          "type": "bytes32"
        },
        {
          "internalType": "address",
          "name": "account",
          "type": "address"
        }
      ],
      "name": "renounceRole",
      "outputs": [],
      "stateMutability": "nonpayable",
      "type": "function"
    },
    {
      "inputs": [
        {
          "internalType": "bytes32",
          "name": "role",
          "type": "bytes32"
        },
        {
          "internalType": "address",
          "name": "account",
          "type": "address"
        }
      ],
      "name": "revokeRole",
      "outputs": [],
      "stateMutability": "nonpayable",
      "type": "function"
    },
    {
      "inputs": [
        {
          "internalType": "address",
          "name": "_impl",
          "type": "address"
        }
      ],
      "name": "setImplementation",
      "outputs": [
        {
          "internalType": "bool",
          "name": "",
          "type": "bool"
        }
      ],
      "stateMutability": "nonpayable",
      "type": "function"
    },
    {
      "inputs": [
        {
          "internalType": "bytes4",
          "name": "interfaceId",
          "type": "bytes4"
        }
      ],
      "name": "supportsInterface",
      "outputs": [
        {
          "internalType": "bool",
          "name": "",
          "type": "bool"
        }
      ],
      "stateMutability": "view",
      "type": "function"
    }
  ],
  "transactionHash": "0x034128eeea93e114a1d3830c2f9fa3fa9843168e7a458e4eebd76274f548e013",
  "args": [
    "0x5472cdcfc4af5d3E40ddf0a6747CA1104AEF5165",
    "0x4E00A3a8FcFE19F7239f44bA7A5b38050F56ab76"
  ],
  "numDeployments": 2,
  "solcInputHash": "745e132d83522fec885a43d487704d44",
  "bytecode": "0x60806040523480156200001157600080fd5b5060405162001b9938038062001b99833981016040819052620000349162000158565b620000416000336200008b565b600280546001600160a01b0319166001600160a01b0383161790556200008382600180546001600160a01b0319166001600160a01b0392909216919091179055565b505062000190565b6200009782826200009b565b5050565b6000828152602081815260408083206001600160a01b038516845290915290205460ff1662000097576000828152602081815260408083206001600160a01b03851684529091529020805460ff19166001179055620000f73390565b6001600160a01b0316816001600160a01b0316837f2f8788117e7eff1d82e926ec794901d17c78024a50270940304540a733656f0d60405160405180910390a45050565b80516001600160a01b03811681146200015357600080fd5b919050565b600080604083850312156200016c57600080fd5b62000177836200013b565b915062000187602084016200013b565b90509250929050565b6119f980620001a06000396000f3fe608060405234801561001057600080fd5b506004361061010a5760003560e01c806337b04203116100a257806391d148541161007157806391d1485414610250578063a217fddf14610263578063ce01cdb81461026b578063d547741f1461027e578063d784d4261461029157600080fd5b806337b04203146101f4578063381296cc146102075780634d9b3735146102275780634dad0c781461022f57600080fd5b8063248a9ca3116100de578063248a9ca31461018a57806325b27b34146101bb5780632f2ff15d146101ce57806336568abe146101e157600080fd5b80624b287c1461010f57806301ffc9a71461013f578063032833f7146101625780630bc9dad114610177575b600080fd5b61012261011d366004610f3d565b6102a4565b6040516001600160a01b0390911681526020015b60405180910390f35b61015261014d366004610f6d565b610337565b6040519015158152602001610136565b610175610170366004611264565b61036e565b005b610152610185366004610f3d565b61051c565b6101ad610198366004611361565b60009081526020819052604090206001015490565b604051908152602001610136565b6101756101c936600461137a565b6105a8565b6101756101dc366004610f3d565b610706565b6101756101ef366004610f3d565b610731565b610122610202366004611361565b6107b4565b61021a610215366004611361565b6107e4565b604051610136919061149d565b61021a61086d565b61024261023d366004611361565b6108cf565b60405161013692919061150c565b61015261025e366004610f3d565b610962565b6101ad600081565b600254610122906001600160a01b031681565b61017561028c366004610f3d565b61098b565b61015261029f36600461153a565b6109b1565b6000600383815481106102b9576102b9611557565b60009182526020909120015460405163233fd7ed60e01b81526001600160a01b0384811660048301529091169063233fd7ed90602401602060405180830381865afa15801561030c573d6000803e3d6000fd5b505050506040513d601f19601f82011682018060405250810190610330919061156d565b9392505050565b60006001600160e01b03198216637965db0b60e01b148061036857506301ffc9a760e01b6001600160e01b03198316145b92915050565b600061037a81336109e5565b835183111561039c57604051631eb49d6d60e11b815260040160405180910390fd5b6003546002546000906103b7906001600160a01b0316610a49565b8b5160208d01519192506001600160a01b0383169163c5c68bca91906103dd8a8a610ae6565b6040518060400160405280336001600160a01b03166001600160a01b031681526020018a6001600160a01b03166001600160a01b03168152508f8f8f8f6040518963ffffffff1660e01b815260040161043d9897969594939291906115eb565b600060405180830381600087803b15801561045757600080fd5b505af115801561046b573d6000803e3d6000fd5b50506003805460018101825560009182527fc2575a0e9e593c00f959f8c92f12db2869c3395a3b0502d05e2516446f71f85b0180546001600160a01b0319166001600160a01b03861690811790915592508491507fe1cba72f01d834a5e1da118d007fd231806710dfc35e2337d91364c6b04b43a3908e9060200201518e600160200201518f60026020020151604051610507939291906116a5565b60405180910390a35050505050505050505050565b60006003838154811061053157610531611557565b60009182526020909120015460405163f9eaee0d60e01b81526001600160a01b0384811660048301529091169063f9eaee0d90602401602060405180830381865afa158015610584573d6000803e3d6000fd5b505050506040513d601f19601f8201168201806040525081019061033091906116e8565b60006105b481336109e5565b6003546002546000906105cf906001600160a01b0316610a49565b8a516020808d01516040805180820182523381526001600160a01b038a81169482019490945290516362e345e560e11b81529495509185169363c5c68bca93610628939092918f91908f908f908f908f906004016115eb565b600060405180830381600087803b15801561064257600080fd5b505af1158015610656573d6000803e3d6000fd5b50506003805460018101825560009182527fc2575a0e9e593c00f959f8c92f12db2869c3395a3b0502d05e2516446f71f85b0180546001600160a01b0319166001600160a01b03861690811790915592508491507fe1cba72f01d834a5e1da118d007fd231806710dfc35e2337d91364c6b04b43a3908d9060200201518d600160200201518e600260200201516040516106f2939291906116a5565b60405180910390a350505050505050505050565b60008281526020819052604090206001015461072281336109e5565b61072c8383610bcf565b505050565b6001600160a01b03811633146107a65760405162461bcd60e51b815260206004820152602f60248201527f416363657373436f6e74726f6c3a2063616e206f6e6c792072656e6f756e636560448201526e103937b632b9903337b91039b2b63360891b60648201526084015b60405180910390fd5b6107b08282610c53565b5050565b6000600382815481106107c9576107c9611557565b6000918252602090912001546001600160a01b031692915050565b6060600382815481106107f9576107f9611557565b60009182526020822001546040805163024ece8960e01b815290516001600160a01b039092169263024ece89926004808401938290030181865afa158015610845573d6000803e3d6000fd5b505050506040513d6000823e601f3d908101601f191682016040526103689190810190611705565b606060038054806020026020016040519081016040528092919081815260200182805480156108c557602002820191906000526020600020905b81546001600160a01b031681526001909101906020018083116108a7575b5050505050905090565b606080600383815481106108e5576108e5611557565b6000918252602082200154604080516353cd796760e11b815290516001600160a01b039092169263a79af2ce926004808401938290030181865afa158015610931573d6000803e3d6000fd5b505050506040513d6000823e601f3d908101601f1916820160405261095991908101906117e4565b91509150915091565b6000918252602082815260408084206001600160a01b0393909316845291905290205460ff1690565b6000828152602081905260409020600101546109a781336109e5565b61072c8383610c53565b6000806109be81336109e5565b600280546001600160a01b0385166001600160a01b03199091161790556001915050919050565b6109ef8282610962565b6107b057610a07816001600160a01b03166014610cb8565b610a12836020610cb8565b604051602001610a23929190611848565b60408051601f198184030181529082905262461bcd60e51b825261079d916004016118bd565b6000604051733d602d80600a3d3981f3363d3d373d3d3d363d7360601b81528260601b60148201526e5af43d82803e903d91602b57fd5bf360881b60288201526037816000f09150506001600160a01b038116610ae15760405162461bcd60e51b8152602060048201526016602482015275115490cc4c4d8dce8818dc99585d194819985a5b195960521b604482015260640161079d565b919050565b600080610b168484600060405180604001604052806002815260200161060f60f31b815250600080600080610e54565b9050610b417f474e4f5349535f534146455f50524f58595f464143544f525900000000000000610eac565b6001600160a01b03166361b69abd610b666a474e4f5349535f5341464560a81b610eac565b836040518363ffffffff1660e01b8152600401610b849291906118d0565b6020604051808303816000875af1158015610ba3573d6000803e3d6000fd5b505050506040513d601f19601f82011682018060405250810190610bc7919061156d565b949350505050565b610bd98282610962565b6107b0576000828152602081815260408083206001600160a01b03851684529091529020805460ff19166001179055610c0f3390565b6001600160a01b0316816001600160a01b0316837f2f8788117e7eff1d82e926ec794901d17c78024a50270940304540a733656f0d60405160405180910390a45050565b610c5d8282610962565b156107b0576000828152602081815260408083206001600160a01b0385168085529252808320805460ff1916905551339285917ff6391f5c32d9c69d2a47ea670b442974b53935d1edc7fd64eb21e047a839171b9190a45050565b60606000610cc783600261190a565b610cd2906002611929565b67ffffffffffffffff811115610cea57610cea610f97565b6040519080825280601f01601f191660200182016040528015610d14576020820181803683370190505b509050600360fc1b81600081518110610d2f57610d2f611557565b60200101906001600160f81b031916908160001a905350600f60fb1b81600181518110610d5e57610d5e611557565b60200101906001600160f81b031916908160001a9053506000610d8284600261190a565b610d8d906001611929565b90505b6001811115610e05576f181899199a1a9b1b9c1cb0b131b232b360811b85600f1660108110610dc157610dc1611557565b1a60f81b828281518110610dd757610dd7611557565b60200101906001600160f81b031916908160001a90535060049490941c93610dfe81611941565b9050610d90565b5083156103305760405162461bcd60e51b815260206004820181905260248201527f537472696e67733a20686578206c656e67746820696e73756666696369656e74604482015260640161079d565b60608888888888888888604051602401610e75989796959493929190611958565b60408051601f198184030181529190526020810180516001600160e01b031663b63e800d60e01b1790529998505050505050505050565b60015460405163023aa9ab60e61b8152600481018390526000916001600160a01b031690638eaa6ac090602401602060405180830381865afa158015610ef6573d6000803e3d6000fd5b505050506040513d601f19601f82011682018060405250810190610368919061156d565b6001600160a01b0381168114610f2f57600080fd5b50565b8035610ae181610f1a565b60008060408385031215610f5057600080fd5b823591506020830135610f6281610f1a565b809150509250929050565b600060208284031215610f7f57600080fd5b81356001600160e01b03198116811461033057600080fd5b634e487b7160e01b600052604160045260246000fd5b6040516060810167ffffffffffffffff81118282101715610fd057610fd0610f97565b60405290565b6040805190810167ffffffffffffffff81118282101715610fd057610fd0610f97565b604051601f8201601f1916810167ffffffffffffffff8111828210171561102257611022610f97565b604052919050565b600067ffffffffffffffff82111561104457611044610f97565b50601f01601f191660200190565b6000601f838184011261106457600080fd5b61106c610fad565b80606085018681111561107e57600080fd5b855b818110156110ff57803567ffffffffffffffff8111156110a05760008081fd5b870185810189136110b15760008081fd5b803560206110c66110c18361102a565b610ff9565b8281528b828486010111156110db5760008081fd5b82828501838301376000928101820192909252908652949094019350602001611080565b50909695505050505050565b600067ffffffffffffffff82111561112557611125610f97565b5060051b60200190565b600082601f83011261114057600080fd5b813560206111506110c18361110b565b82815260059290921b8401810191818101908684111561116f57600080fd5b8286015b8481101561119357803561118681610f1a565b8352918301918301611173565b509695505050505050565b8015158114610f2f57600080fd5b8035610ae18161119e565b6000601f83818401126111c957600080fd5b823560206111d96110c18361110b565b82815260069290921b850181019181810190878411156111f857600080fd5b8287015b848110156112585788868201126112135760008081fd5b61121b610fd6565b80604083018b81111561122e5760008081fd5b835b818110156112475780358452928701928701611230565b5050845250918301916040016111fc565b50979650505050505050565b600080600080600080600080610100898b03121561128157600080fd5b883567ffffffffffffffff8082111561129957600080fd5b6112a58c838d01611052565b995060208b01359150808211156112bb57600080fd5b6112c78c838d0161112f565b98506112d560408c016111ac565b975060608b01359150808211156112eb57600080fd5b6112f78c838d016111b7565b965060808b013591508082111561130d57600080fd5b6113198c838d0161112f565b955060a08b013591508082111561132f57600080fd5b5061133c8b828c0161112f565b93505060c0890135915061135260e08a01610f32565b90509295985092959890939650565b60006020828403121561137357600080fd5b5035919050565b600080600080600080600060e0888a03121561139557600080fd5b873567ffffffffffffffff808211156113ad57600080fd5b6113b98b838c01611052565b98506113c760208b01610f32565b975060408a01359150808211156113dd57600080fd5b6113e98b838c0161112f565b96506113f760608b016111ac565b955060808a013591508082111561140d57600080fd5b6114198b838c016111b7565b945060a08a013591508082111561142f57600080fd5b5061143c8a828b0161112f565b92505061144b60c08901610f32565b905092959891949750929550565b600081518084526020808501945080840160005b838110156114925781516001600160a01b03168752958201959082019060010161146d565b509495945050505050565b6020815260006103306020830184611459565b60005b838110156114cb5781810151838201526020016114b3565b838111156114da576000848401525b50505050565b600081518084526114f88160208601602086016114b0565b601f01601f19169290920160200192915050565b60408152600061151f60408301856114e0565b828103602084015261153181856114e0565b95945050505050565b60006020828403121561154c57600080fd5b813561033081610f1a565b634e487b7160e01b600052603260045260246000fd5b60006020828403121561157f57600080fd5b815161033081610f1a565b60008151808452602080850194508084016000805b848110156115df57825188835b60028110156115c9578251825291860191908601906001016115ac565b505050604097909701969183019160010161159f565b50959695505050505050565b60006101208083526115ff8184018c6114e0565b9050602083820381850152611614828c6114e0565b6001600160a01b038b81166040870152909250606085018a60005b600281101561164e57815184168352918401919084019060010161162f565b505050505082810360a08401526116658188611459565b86151560c0850152905082810360e0840152611681818661158a565b90508281036101008401526116968185611459565b9b9a5050505050505050505050565b6060815260006116b860608301866114e0565b82810360208401526116ca81866114e0565b905082810360408401526116de81856114e0565b9695505050505050565b6000602082840312156116fa57600080fd5b81516103308161119e565b6000602080838503121561171857600080fd5b825167ffffffffffffffff81111561172f57600080fd5b8301601f8101851361174057600080fd5b805161174e6110c18261110b565b81815260059190911b8201830190838101908783111561176d57600080fd5b928401925b8284101561179457835161178581610f1a565b82529284019290840190611772565b979650505050505050565b600082601f8301126117b057600080fd5b81516117be6110c18261102a565b8181528460208386010111156117d357600080fd5b610bc78260208301602087016114b0565b600080604083850312156117f757600080fd5b825167ffffffffffffffff8082111561180f57600080fd5b61181b8683870161179f565b9350602085015191508082111561183157600080fd5b5061183e8582860161179f565b9150509250929050565b7f416363657373436f6e74726f6c3a206163636f756e74200000000000000000008152600083516118808160178501602088016114b0565b7001034b99036b4b9b9b4b733903937b6329607d1b60179184019182015283516118b18160288401602088016114b0565b01602801949350505050565b60208152600061033060208301846114e0565b6001600160a01b0383168152604060208201819052600090610bc7908301846114e0565b634e487b7160e01b600052601160045260246000fd5b6000816000190483118215151615611924576119246118f4565b500290565b6000821982111561193c5761193c6118f4565b500190565b600081611950576119506118f4565b506000190190565b600061010080835261196c8184018c611459565b602084018b90526001600160a01b038a811660408601528482036060860152909150611998828a6114e0565b978116608085015295861660a0840152505060c081019290925290911660e09091015294935050505056fea2646970667358221220ce2d1487eef3bd21b20008bfc4b12c4afa669dd3720e5a3829894a32c898de4a64736f6c634300080a0033",
  "devdoc": {
    "kind": "dev",
    "methods": {
      "createFund(string[3],address,address[],bool,bytes32[2][],address[],address)": {
        "details": "setup a new fund",
        "params": {
          "_allowedTokens": "array of allowed token addresses",
          "_checks": "a list of checks if fund is requestable",
          "_details": "[2]    description of the fund",
          "_requestable": "boolean indicating if fund is requestable",
          "_safeAddress": "address of underlying Gnosis Safe"
        }
      },
      "createFundWithSafe(string[3],address[],bool,bytes32[2][],address[],address[],uint256,address)": {
        "details": "setup a new fund",
        "params": {
          "_allowedTokens": "array of allowed token addresses",
          "_details": "[2]    description of the fund",
          "_owners": "owners of the safe",
          "_threshold": "number of confirmations that the safe would need before a transaction"
        }
      },
      "getAllowedTokens(uint256)": {
        "details": "get a list of allowed tokens for a fund",
        "params": {
          "_id": "unique identifier of a fund"
        },
        "returns": {
          "_0": "list of addresses"
        }
      },
      "getDepositAddressFor(uint256,address)": {
        "details": "get a fund's deposit address",
        "params": {
          "_id": "unique identifier of the fund",
          "_tokenAddress": "address of token tracker"
        },
        "returns": {
          "_0": "address of the fund"
        }
      },
      "getFundAddress(uint256)": {
        "details": "get a fund's deposit address",
        "params": {
          "_id": "unique identifier of a fund"
        },
        "returns": {
          "_0": "address"
        }
      },
      "getFundMeta(uint256)": {
        "details": "get a fund's name and focus",
        "params": {
          "_id": "unique identifier of the fund"
        },
        "returns": {
          "_0": "fund name and focus"
        }
      },
      "getFunds()": {
        "details": "get all fund addresses",
        "returns": {
          "_0": "fund addresses"
        }
      },
      "getRoleAdmin(bytes32)": {
        "details": "Returns the admin role that controls `role`. See {grantRole} and {revokeRole}. To change a role's admin, use {_setRoleAdmin}."
      },
      "grantRole(bytes32,address)": {
        "details": "Grants `role` to `account`. If `account` had not been already granted `role`, emits a {RoleGranted} event. Requirements: - the caller must have ``role``'s admin role."
      },
      "hasRole(bytes32,address)": {
        "details": "Returns `true` if `account` has been granted `role`."
      },
      "isTokenAllowed(uint256,address)": {
        "details": "check if token is allowed",
        "params": {
          "_id": "unique identifier of a fund",
          "_tokenAddress": "token address"
        },
        "returns": {
          "_0": "boolean"
        }
      },
      "renounceRole(bytes32,address)": {
        "details": "Revokes `role` from the calling account. Roles are often managed via {grantRole} and {revokeRole}: this function's purpose is to provide a mechanism for accounts to lose their privileges if they are compromised (such as when a trusted device is misplaced). If the calling account had been revoked `role`, emits a {RoleRevoked} event. Requirements: - the caller must be `account`."
      },
      "revokeRole(bytes32,address)": {
        "details": "Revokes `role` from `account`. If `account` had been granted `role`, emits a {RoleRevoked} event. Requirements: - the caller must have ``role``'s admin role."
      },
      "setImplementation(address)": {
        "details": "set implementation address",
        "params": {
          "_impl": "address of underlying Gnosis Safe"
        },
        "returns": {
          "_0": "boolean indicating op. result"
        }
      },
      "supportsInterface(bytes4)": {
        "details": "See {IERC165-supportsInterface}."
      }
    },
    "version": 1
  },
  "userdoc": {
    "kind": "user",
    "methods": {},
    "version": 1
  },
  "storageLayout": {
    "storage": [
      {
        "astId": 4975,
        "contract": "contracts/FundManager.sol:FundManager",
        "label": "_roles",
        "offset": 0,
        "slot": "0",
        "type": "t_mapping(t_bytes32,t_struct(RoleData)4970_storage)"
      },
      {
        "astId": 11419,
        "contract": "contracts/FundManager.sol:FundManager",
        "label": "registry",
        "offset": 0,
        "slot": "1",
        "type": "t_contract(Registry)11740"
      },
      {
        "astId": 10063,
        "contract": "contracts/FundManager.sol:FundManager",
        "label": "baseFund",
        "offset": 0,
        "slot": "2",
        "type": "t_address"
      },
      {
        "astId": 10066,
        "contract": "contracts/FundManager.sol:FundManager",
        "label": "funds",
        "offset": 0,
        "slot": "3",
        "type": "t_array(t_address)dyn_storage"
      }
    ],
    "types": {
      "t_address": {
        "encoding": "inplace",
        "label": "address",
        "numberOfBytes": "20"
      },
      "t_array(t_address)dyn_storage": {
        "base": "t_address",
        "encoding": "dynamic_array",
        "label": "address[]",
        "numberOfBytes": "32"
      },
      "t_bool": {
        "encoding": "inplace",
        "label": "bool",
        "numberOfBytes": "1"
      },
      "t_bytes32": {
        "encoding": "inplace",
        "label": "bytes32",
        "numberOfBytes": "32"
      },
      "t_contract(Registry)11740": {
        "encoding": "inplace",
        "label": "contract Registry",
        "numberOfBytes": "20"
      },
      "t_mapping(t_address,t_bool)": {
        "encoding": "mapping",
        "key": "t_address",
        "label": "mapping(address => bool)",
        "numberOfBytes": "32",
        "value": "t_bool"
      },
      "t_mapping(t_bytes32,t_struct(RoleData)4970_storage)": {
        "encoding": "mapping",
        "key": "t_bytes32",
        "label": "mapping(bytes32 => struct AccessControl.RoleData)",
        "numberOfBytes": "32",
        "value": "t_struct(RoleData)4970_storage"
      },
      "t_struct(RoleData)4970_storage": {
        "encoding": "inplace",
        "label": "struct AccessControl.RoleData",
        "members": [
          {
            "astId": 4967,
            "contract": "contracts/FundManager.sol:FundManager",
            "label": "members",
            "offset": 0,
            "slot": "0",
            "type": "t_mapping(t_address,t_bool)"
          },
          {
            "astId": 4969,
            "contract": "contracts/FundManager.sol:FundManager",
            "label": "adminRole",
            "offset": 0,
            "slot": "1",
            "type": "t_bytes32"
          }
        ],
        "numberOfBytes": "64"
      }
    }
  }
}