{
  "address": "0x83E47e6d10737cb382c064f8A72517943746CE91",
  "abi": [
    {
      "inputs": [],
      "name": "CheckAlreadyApproved",
      "type": "error"
    },
    {
      "inputs": [],
      "name": "Forbidden",
      "type": "error"
    },
    {
      "inputs": [],
      "name": "NoZeroChecks",
      "type": "error"
    },
    {
      "inputs": [],
      "name": "NotAllowed",
      "type": "error"
    },
    {
      "inputs": [],
      "name": "TokenNotAllowed",
      "type": "error"
    },
    {
      "anonymous": false,
      "inputs": [
        {
          "indexed": true,
          "internalType": "bytes32",
          "name": "role",
          "type": "bytes32"
        },
        {
          "indexed": true,
          "internalType": "bytes32",
          "name": "previousAdminRole",
          "type": "bytes32"
        },
        {
          "indexed": true,
          "internalType": "bytes32",
          "name": "newAdminRole",
          "type": "bytes32"
        }
      ],
      "name": "RoleAdminChanged",
      "type": "event"
    },
    {
      "anonymous": false,
      "inputs": [
        {
          "indexed": true,
          "internalType": "bytes32",
          "name": "role",
          "type": "bytes32"
        },
        {
          "indexed": true,
          "internalType": "address",
          "name": "account",
          "type": "address"
        },
        {
          "indexed": true,
          "internalType": "address",
          "name": "sender",
          "type": "address"
        }
      ],
      "name": "RoleGranted",
      "type": "event"
    },
    {
      "anonymous": false,
      "inputs": [
        {
          "indexed": true,
          "internalType": "bytes32",
          "name": "role",
          "type": "bytes32"
        },
        {
          "indexed": true,
          "internalType": "address",
          "name": "account",
          "type": "address"
        },
        {
          "indexed": true,
          "internalType": "address",
          "name": "sender",
          "type": "address"
        }
      ],
      "name": "RoleRevoked",
      "type": "event"
    },
    {
      "anonymous": false,
      "inputs": [
        {
          "indexed": true,
          "internalType": "uint256",
          "name": "id",
          "type": "uint256"
        }
      ],
      "name": "StatusChange",
      "type": "event"
    },
    {
      "inputs": [],
      "name": "AUDIT_ROLE",
      "outputs": [
        {
          "internalType": "bytes32",
          "name": "",
          "type": "bytes32"
        }
      ],
      "stateMutability": "view",
      "type": "function"
    },
    {
      "inputs": [],
      "name": "DEFAULT_ADMIN_ROLE",
      "outputs": [
        {
          "internalType": "bytes32",
          "name": "",
          "type": "bytes32"
        }
      ],
      "stateMutability": "view",
      "type": "function"
    },
    {
      "inputs": [
        {
          "internalType": "bytes32",
          "name": "_check",
          "type": "bytes32"
        }
      ],
      "name": "addCheck",
      "outputs": [
        {
          "internalType": "bool",
          "name": "",
          "type": "bool"
        }
      ],
      "stateMutability": "nonpayable",
      "type": "function"
    },
    {
      "inputs": [
        {
          "internalType": "address",
          "name": "_address",
          "type": "address"
        }
      ],
      "name": "addToken",
      "outputs": [
        {
          "internalType": "bool",
          "name": "",
          "type": "bool"
        }
      ],
      "stateMutability": "nonpayable",
      "type": "function"
    },
    {
      "inputs": [],
      "name": "allChecks",
      "outputs": [
        {
          "internalType": "bytes32[]",
          "name": "",
          "type": "bytes32[]"
        }
      ],
      "stateMutability": "view",
      "type": "function"
    },
    {
      "inputs": [],
      "name": "close",
      "outputs": [
        {
          "internalType": "bool",
          "name": "",
          "type": "bool"
        }
      ],
      "stateMutability": "nonpayable",
      "type": "function"
    },
    {
      "inputs": [],
      "name": "focus",
      "outputs": [
        {
          "internalType": "string",
          "name": "",
          "type": "string"
        }
      ],
      "stateMutability": "view",
      "type": "function"
    },
    {
      "inputs": [],
      "name": "getAllowedTokens",
      "outputs": [
        {
          "internalType": "address[]",
          "name": "",
          "type": "address[]"
        }
      ],
      "stateMutability": "view",
      "type": "function"
    },
    {
      "inputs": [],
      "name": "getBalances",
      "outputs": [
        {
          "internalType": "address[]",
          "name": "",
          "type": "address[]"
        },
        {
          "internalType": "uint256[]",
          "name": "",
          "type": "uint256[]"
        }
      ],
      "stateMutability": "view",
      "type": "function"
    },
    {
      "inputs": [
        {
          "internalType": "uint256",
          "name": "_index",
          "type": "uint256"
        }
      ],
      "name": "getCheck",
      "outputs": [
        {
          "internalType": "bytes32",
          "name": "",
          "type": "bytes32"
        }
      ],
      "stateMutability": "view",
      "type": "function"
    },
    {
      "inputs": [
        {
          "internalType": "address",
          "name": "_tokenAddress",
          "type": "address"
        }
      ],
      "name": "getDepositAddressFor",
      "outputs": [
        {
          "internalType": "address",
          "name": "",
          "type": "address"
        }
      ],
      "stateMutability": "view",
      "type": "function"
    },
    {
      "inputs": [],
      "name": "getMeta",
      "outputs": [
        {
          "internalType": "string",
          "name": "",
          "type": "string"
        },
        {
          "internalType": "string",
          "name": "",
          "type": "string"
        }
      ],
      "stateMutability": "view",
      "type": "function"
    },
    {
      "inputs": [
        {
          "internalType": "bytes32",
          "name": "role",
          "type": "bytes32"
        }
      ],
      "name": "getRoleAdmin",
      "outputs": [
        {
          "internalType": "bytes32",
          "name": "",
          "type": "bytes32"
        }
      ],
      "stateMutability": "view",
      "type": "function"
    },
    {
      "inputs": [
        {
          "internalType": "bytes32",
          "name": "role",
          "type": "bytes32"
        },
        {
          "internalType": "address",
          "name": "account",
          "type": "address"
        }
      ],
      "name": "grantRole",
      "outputs": [],
      "stateMutability": "nonpayable",
      "type": "function"
    },
    {
      "inputs": [
        {
          "internalType": "bytes32",
          "name": "role",
          "type": "bytes32"
        },
        {
          "internalType": "address",
          "name": "account",
          "type": "address"
        }
      ],
      "name": "hasRole",
      "outputs": [
        {
          "internalType": "bool",
          "name": "",
          "type": "bool"
        }
      ],
      "stateMutability": "view",
      "type": "function"
    },
    {
      "inputs": [
        {
          "internalType": "string",
          "name": "_name",
          "type": "string"
        },
        {
          "internalType": "string",
          "name": "_focus",
          "type": "string"
        },
        {
          "internalType": "address[]",
          "name": "_allowedTokens",
          "type": "address[]"
        },
        {
          "internalType": "bytes32[]",
          "name": "_checks",
          "type": "bytes32[]"
        },
        {
          "internalType": "address",
          "name": "_safeAddress",
          "type": "address"
        },
        {
          "internalType": "address",
          "name": "_owner",
          "type": "address"
        }
      ],
      "name": "initialize",
      "outputs": [],
      "stateMutability": "nonpayable",
      "type": "function"
    },
    {
      "inputs": [],
      "name": "isOpen",
      "outputs": [
        {
          "internalType": "bool",
          "name": "",
          "type": "bool"
        }
      ],
      "stateMutability": "view",
      "type": "function"
    },
    {
      "inputs": [
        {
          "internalType": "address",
          "name": "_address",
          "type": "address"
        }
      ],
      "name": "isTokenAllowed",
      "outputs": [
        {
          "internalType": "bool",
          "name": "",
          "type": "bool"
        }
      ],
      "stateMutability": "view",
      "type": "function"
    },
    {
      "inputs": [],
      "name": "name",
      "outputs": [
        {
          "internalType": "string",
          "name": "",
          "type": "string"
        }
      ],
      "stateMutability": "view",
      "type": "function"
    },
    {
      "inputs": [],
      "name": "pause",
      "outputs": [
        {
          "internalType": "bool",
          "name": "",
          "type": "bool"
        }
      ],
      "stateMutability": "nonpayable",
      "type": "function"
    },
    {
      "inputs": [
        {
          "internalType": "uint256",
          "name": "_index",
          "type": "uint256"
        }
      ],
      "name": "removeCheck",
      "outputs": [
        {
          "internalType": "bool",
          "name": "",
          "type": "bool"
        }
      ],
      "stateMutability": "nonpayable",
      "type": "function"
    },
    {
      "inputs": [
        {
          "internalType": "address",
          "name": "_address",
          "type": "address"
        }
      ],
      "name": "removeToken",
      "outputs": [
        {
          "internalType": "bool",
          "name": "",
          "type": "bool"
        }
      ],
      "stateMutability": "nonpayable",
      "type": "function"
    },
    {
      "inputs": [
        {
          "internalType": "bytes32",
          "name": "role",
          "type": "bytes32"
        },
        {
          "internalType": "address",
          "name": "account",
          "type": "address"
        }
      ],
      "name": "renounceRole",
      "outputs": [],
      "stateMutability": "nonpayable",
      "type": "function"
    },
    {
      "inputs": [],
      "name": "requestable",
      "outputs": [
        {
          "internalType": "bool",
          "name": "",
          "type": "bool"
        }
      ],
      "stateMutability": "view",
      "type": "function"
    },
    {
      "inputs": [],
      "name": "resume",
      "outputs": [
        {
          "internalType": "bool",
          "name": "",
          "type": "bool"
        }
      ],
      "stateMutability": "nonpayable",
      "type": "function"
    },
    {
      "inputs": [
        {
          "internalType": "bytes32",
          "name": "role",
          "type": "bytes32"
        },
        {
          "internalType": "address",
          "name": "account",
          "type": "address"
        }
      ],
      "name": "revokeRole",
      "outputs": [],
      "stateMutability": "nonpayable",
      "type": "function"
    },
    {
      "inputs": [],
      "name": "status",
      "outputs": [
        {
          "internalType": "enum FundV1.Status",
          "name": "",
          "type": "uint8"
        }
      ],
      "stateMutability": "view",
      "type": "function"
    },
    {
      "inputs": [
        {
          "internalType": "bytes4",
          "name": "interfaceId",
          "type": "bytes4"
        }
      ],
      "name": "supportsInterface",
      "outputs": [
        {
          "internalType": "bool",
          "name": "",
          "type": "bool"
        }
      ],
      "stateMutability": "view",
      "type": "function"
    }
  ],
  "transactionHash": "0x7c80d9bf30f817033205bf7b2b8985017b335cf2c63ff27170ba9547019bf3fd",
  "args": [],
  "numDeployments": 2,
  "solcInputHash": "2b161a718884c024b021f3f9a717f55c",
  "bytecode": "0x608060405234801561001057600080fd5b50611ad2806100206000396000f3fe608060405234801561001057600080fd5b50600436106101c35760003560e01c8063503642bb116100f9578063a217fddf11610097578063b6e4908711610071578063b6e49087146103c6578063d48bfca7146103d3578063d547741f146103e6578063f9eaee0d146103f957600080fd5b8063a217fddf14610395578063a478663d1461039d578063a79af2ce146103b057600080fd5b8063805421ed116100d3578063805421ed1461035f5780638456cb591461036757806391d148541461036f5780639db797f01461038257600080fd5b8063503642bb146103125780635fa7b5841461033957806377a805891461034c57600080fd5b8063233fd7ed1161016657806336568abe1161014057806336568abe146102dc5780633b5862c1146102ef57806343d726d61461030257806347535d7b1461030a57600080fd5b8063233fd7ed1461026b578063248a9ca3146102965780632f2ff15d146102c757600080fd5b8063024ece89116101a2578063024ece891461021f578063046f7da21461023457806306fdde031461023c578063200d2ed21461025157600080fd5b8062113e08146101c8578063015887d6146101e757806301ffc9a7146101fc575b600080fd5b6101d061040c565b6040516101de929190611473565b60405180910390f35b6101ef61059d565b6040516101de91906114ca565b61020f61020a36600461150e565b6105f5565b60405190151581526020016101de565b61022761062c565b6040516101de9190611538565b61020f61063d565b610244610692565b6040516101de91906115a7565b60045461025e9060ff1681565b6040516101de91906115d0565b61027e610279366004611614565b610720565b6040516001600160a01b0390911681526020016101de565b6102b96102a436600461162f565b60009081526020819052604090206001015490565b6040519081526020016101de565b6102da6102d5366004611648565b6107b8565b005b6102da6102ea366004611648565b6107e3565b61020f6102fd36600461162f565b610866565b61020f6108cc565b61020f61091b565b6102b97f5db53b6955dc773ef555b3cc1835ee528ea8da7adbe1cd523fbff73209b77e0b81565b61020f610347366004611614565b61093b565b61020f61035a36600461162f565b61095a565b6102446109c3565b61020f6109d0565b61020f61037d366004611648565b610a1e565b6102b961039036600461162f565b610a47565b6102b9600081565b6102da6103ab36600461181c565b610a6e565b6103b8610b6a565b6040516101de9291906118e9565b60085461020f9060ff1681565b61020f6103e1366004611614565b610c91565b6102da6103f4366004611648565b610ca9565b61020f610407366004611614565b610ccf565b606080600061041b6001610cdc565b905060008167ffffffffffffffff81111561043857610438611674565b604051908082528060200260200182016040528015610461578160200160208202803683370190505b50905060008267ffffffffffffffff81111561047f5761047f611674565b6040519080825280602002602001820160405280156104a8578160200160208202803683370190505b50905060005b83811015610592576104c1600182610ce6565b8382815181106104d3576104d3611917565b6001600160a01b03909216602092830291909101909101526104f6600182610ce6565b6005546040516370a0823160e01b81526001600160a01b0391821660048201529116906370a0823190602401602060405180830381865afa15801561053f573d6000803e3d6000fd5b505050506040513d601f19601f82011682018060405250810190610563919061192d565b82828151811061057557610575611917565b60209081029190910101528061058a8161195c565b9150506104ae565b509094909350915050565b606060038054806020026020016040519081016040528092919081815260200182805480156105eb57602002820191906000526020600020905b8154815260200190600101908083116105d7575b5050505050905090565b60006001600160e01b03198216637965db0b60e01b148061062657506301ffc9a760e01b6001600160e01b03198316145b92915050565b60606106386001610cf2565b905090565b60008061064a8133610cff565b600160045460ff166002811115610663576106636115ba565b1461068157604051631eb49d6d60e11b815260040160405180910390fd5b61068b6000610d63565b91505b5090565b6006805461069f90611977565b80601f01602080910402602001604051908101604052809291908181526020018280546106cb90611977565b80156107185780601f106106ed57610100808354040283529160200191610718565b820191906000526020600020905b8154815290600101906020018083116106fb57829003601f168201915b505050505081565b60008060045460ff16600281111561073a5761073a6115ba565b1461075857604051631eb49d6d60e11b815260040160405180910390fd5b61076182610ccf565b61077e57604051631eb49d6d60e11b815260040160405180910390fd5b6005546001600160a01b03166107a757604051631eb49d6d60e11b815260040160405180910390fd5b50506005546001600160a01b031690565b6000828152602081905260409020600101546107d48133610cff565b6107de8383610dcc565b505050565b6001600160a01b03811633146108585760405162461bcd60e51b815260206004820152602f60248201527f416363657373436f6e74726f6c3a2063616e206f6e6c792072656e6f756e636560448201526e103937b632b9903337b91039b2b63360891b60648201526084015b60405180910390fd5b6108628282610e50565b5050565b60007f5db53b6955dc773ef555b3cc1835ee528ea8da7adbe1cd523fbff73209b77e0b6108938133610cff565b6003546001106108b657604051631acfaa2560e21b815260040160405180910390fd5b6108c1600384610eb5565b600191505b50919050565b6000806108d98133610cff565b600260045460ff1660028111156108f2576108f26115ba565b141561091157604051631eb49d6d60e11b815260040160405180910390fd5b61068b6002610d63565b60008060045460ff166002811115610935576109356115ba565b14905090565b6000806109488133610cff565b610953600184610f4f565b9392505050565b60007f5db53b6955dc773ef555b3cc1835ee528ea8da7adbe1cd523fbff73209b77e0b6109878133610cff565b505060038054600180820183556000929092527fc2575a0e9e593c00f959f8c92f12db2869c3395a3b0502d05e2516446f71f85b019190915590565b6007805461069f90611977565b6000806109dd8133610cff565b600060045460ff1660028111156109f6576109f66115ba565b14610a1457604051631eb49d6d60e11b815260040160405180910390fd5b61068b6001610d63565b6000918252602082815260408084206001600160a01b0393909316845291905290205460ff1690565b600060038281548110610a5c57610a5c611917565b90600052602060002001549050919050565b60045461010090046001600160a01b031615610a9d57604051631dd2188d60e31b815260040160405180910390fd5b610aa8600082610f64565b60048054610100600160a81b03191633610100021790558551610ad2906006906020890190611360565b508451610ae6906007906020880190611360565b50600580546001600160a01b0319166001600160a01b0384161790556004805460ff19169055610b1583610f6e565b60005b8451811015610b6157610b4e858281518110610b3657610b36611917565b60200260200101516001610fc590919063ffffffff16565b5080610b598161195c565b915050610b18565b50505050505050565b60608060066007818054610b7d90611977565b80601f0160208091040260200160405190810160405280929190818152602001828054610ba990611977565b8015610bf65780601f10610bcb57610100808354040283529160200191610bf6565b820191906000526020600020905b815481529060010190602001808311610bd957829003601f168201915b50505050509150808054610c0990611977565b80601f0160208091040260200160405190810160405280929190818152602001828054610c3590611977565b8015610c825780601f10610c5757610100808354040283529160200191610c82565b820191906000526020600020905b815481529060010190602001808311610c6557829003601f168201915b50505050509050915091509091565b600080610c9e8133610cff565b610953600184610fc5565b600082815260208190526040902060010154610cc58133610cff565b6107de8383610e50565b6000610626600183610fda565b6000610626825490565b60006109538383610ffc565b6060600061095383611026565b610d098282610a1e565b61086257610d21816001600160a01b03166014611082565b610d2c836020611082565b604051602001610d3d9291906119ac565b60408051601f198184030181529082905262461bcd60e51b825261084f916004016115a7565b60048054600091839160ff19166001836002811115610d8457610d846115ba565b0217905550816002811115610d9b57610d9b6115ba565b6040517f4884fc8861710f82d3dd1858f3e1978853d51909a2e9a0efafe95d8cce5f3b9a90600090a2506001919050565b610dd68282610a1e565b610862576000828152602081815260408083206001600160a01b03851684529091529020805460ff19166001179055610e0c3390565b6001600160a01b0316816001600160a01b0316837f2f8788117e7eff1d82e926ec794901d17c78024a50270940304540a733656f0d60405160405180910390a45050565b610e5a8282610a1e565b15610862576000828152602081815260408083206001600160a01b0385168085529252808320805460ff1916905551339285917ff6391f5c32d9c69d2a47ea670b442974b53935d1edc7fd64eb21e047a839171b9190a45050565b8154610ec057600080fd5b8154610ece90600190611a21565b811115610eda57600080fd5b81548290610eea90600190611a21565b81548110610efa57610efa611917565b9060005260206000200154828281548110610f1757610f17611917565b906000526020600020018190555081805480610f3557610f35611a38565b600190038181906000526020600020016000905590555050565b6000610953836001600160a01b03841661121e565b6108628282610dcc565b60035415610f8f57604051631dd2188d60e31b815260040160405180910390fd5b600181511015610fb257604051631acfaa2560e21b815260040160405180910390fd5b80516108629060039060208401906113e0565b6000610953836001600160a01b038416611311565b6001600160a01b03811660009081526001830160205260408120541515610953565b600082600001828154811061101357611013611917565b9060005260206000200154905092915050565b60608160000180548060200260200160405190810160405280929190818152602001828054801561107657602002820191906000526020600020905b815481526020019060010190808311611062575b50505050509050919050565b60606000611091836002611a4e565b61109c906002611a6d565b67ffffffffffffffff8111156110b4576110b4611674565b6040519080825280601f01601f1916602001820160405280156110de576020820181803683370190505b509050600360fc1b816000815181106110f9576110f9611917565b60200101906001600160f81b031916908160001a905350600f60fb1b8160018151811061112857611128611917565b60200101906001600160f81b031916908160001a905350600061114c846002611a4e565b611157906001611a6d565b90505b60018111156111cf576f181899199a1a9b1b9c1cb0b131b232b360811b85600f166010811061118b5761118b611917565b1a60f81b8282815181106111a1576111a1611917565b60200101906001600160f81b031916908160001a90535060049490941c936111c881611a85565b905061115a565b5083156109535760405162461bcd60e51b815260206004820181905260248201527f537472696e67733a20686578206c656e67746820696e73756666696369656e74604482015260640161084f565b60008181526001830160205260408120548015611307576000611242600183611a21565b855490915060009061125690600190611a21565b90508181146112bb57600086600001828154811061127657611276611917565b906000526020600020015490508087600001848154811061129957611299611917565b6000918252602080832090910192909255918252600188019052604090208390555b85548690806112cc576112cc611a38565b600190038181906000526020600020016000905590558560010160008681526020019081526020016000206000905560019350505050610626565b6000915050610626565b600081815260018301602052604081205461135857508154600181810184556000848152602080822090930184905584548482528286019093526040902091909155610626565b506000610626565b82805461136c90611977565b90600052602060002090601f01602090048101928261138e57600085556113d4565b82601f106113a757805160ff19168380011785556113d4565b828001600101855582156113d4579182015b828111156113d45782518255916020019190600101906113b9565b5061068e92915061141a565b8280548282559060005260206000209081019282156113d457916020028201828111156113d45782518255916020019190600101906113b9565b5b8082111561068e576000815560010161141b565b600081518084526020808501945080840160005b838110156114685781516001600160a01b031687529582019590820190600101611443565b509495945050505050565b604081526000611486604083018561142f565b82810360208481019190915284518083528582019282019060005b818110156114bd578451835293830193918301916001016114a1565b5090979650505050505050565b6020808252825182820181905260009190848201906040850190845b81811015611502578351835292840192918401916001016114e6565b50909695505050505050565b60006020828403121561152057600080fd5b81356001600160e01b03198116811461095357600080fd5b602081526000610953602083018461142f565b60005b8381101561156657818101518382015260200161154e565b83811115611575576000848401525b50505050565b6000815180845261159381602086016020860161154b565b601f01601f19169290920160200192915050565b602081526000610953602083018461157b565b634e487b7160e01b600052602160045260246000fd5b60208101600383106115f257634e487b7160e01b600052602160045260246000fd5b91905290565b80356001600160a01b038116811461160f57600080fd5b919050565b60006020828403121561162657600080fd5b610953826115f8565b60006020828403121561164157600080fd5b5035919050565b6000806040838503121561165b57600080fd5b8235915061166b602084016115f8565b90509250929050565b634e487b7160e01b600052604160045260246000fd5b604051601f8201601f1916810167ffffffffffffffff811182821017156116b3576116b3611674565b604052919050565b600082601f8301126116cc57600080fd5b813567ffffffffffffffff8111156116e6576116e6611674565b6116f9601f8201601f191660200161168a565b81815284602083860101111561170e57600080fd5b816020850160208301376000918101602001919091529392505050565b600067ffffffffffffffff82111561174557611745611674565b5060051b60200190565b600082601f83011261176057600080fd5b813560206117756117708361172b565b61168a565b82815260059290921b8401810191818101908684111561179457600080fd5b8286015b848110156117b6576117a9816115f8565b8352918301918301611798565b509695505050505050565b600082601f8301126117d257600080fd5b813560206117e26117708361172b565b82815260059290921b8401810191818101908684111561180157600080fd5b8286015b848110156117b65780358352918301918301611805565b60008060008060008060c0878903121561183557600080fd5b863567ffffffffffffffff8082111561184d57600080fd5b6118598a838b016116bb565b9750602089013591508082111561186f57600080fd5b61187b8a838b016116bb565b9650604089013591508082111561189157600080fd5b61189d8a838b0161174f565b955060608901359150808211156118b357600080fd5b506118c089828a016117c1565b9350506118cf608088016115f8565b91506118dd60a088016115f8565b90509295509295509295565b6040815260006118fc604083018561157b565b828103602084015261190e818561157b565b95945050505050565b634e487b7160e01b600052603260045260246000fd5b60006020828403121561193f57600080fd5b5051919050565b634e487b7160e01b600052601160045260246000fd5b600060001982141561197057611970611946565b5060010190565b600181811c9082168061198b57607f821691505b602082108114156108c657634e487b7160e01b600052602260045260246000fd5b7f416363657373436f6e74726f6c3a206163636f756e74200000000000000000008152600083516119e481601785016020880161154b565b7001034b99036b4b9b9b4b733903937b6329607d1b6017918401918201528351611a1581602884016020880161154b565b01602801949350505050565b600082821015611a3357611a33611946565b500390565b634e487b7160e01b600052603160045260246000fd5b6000816000190483118215151615611a6857611a68611946565b500290565b60008219821115611a8057611a80611946565b500190565b600081611a9457611a94611946565b50600019019056fea2646970667358221220d8bc858c243fd60e2adc9a84a64daa8f33f890f8bb04ac11fc1981b4069d536864736f6c634300080a0033",
  "devdoc": {
    "kind": "dev",
    "methods": {
      "addToken(address)": {
        "details": "add a token to the list of allowed tokens",
        "params": {
          "_address": "tracker address of the token"
        },
        "returns": {
          "_0": "boolean indicating result of the operation"
        }
      },
      "close()": {
        "details": "close fund",
        "returns": {
          "_0": "boolean indicating result of the operation"
        }
      },
      "getAllowedTokens()": {
        "details": "list of allowed token contract addresses",
        "returns": {
          "_0": "return a list of allowed token contract addresses"
        }
      },
      "getBalances()": {
        "details": "get fund safe balances",
        "returns": {
          "_0": "tuple of (tokenAddress[], balance[])"
        }
      },
      "getDepositAddressFor(address)": {
        "details": "get deposit address for a token",
        "params": {
          "_tokenAddress": "tracker address of the token to deposit (must be an allowed token)"
        },
        "returns": {
          "_0": "deposit address for a token"
        }
      },
      "getMeta()": {
        "details": "get metadata for a fund",
        "returns": {
          "_0": "metadata of the fund"
        }
      },
      "getRoleAdmin(bytes32)": {
        "details": "Returns the admin role that controls `role`. See {grantRole} and {revokeRole}. To change a role's admin, use {_setRoleAdmin}."
      },
      "grantRole(bytes32,address)": {
        "details": "Grants `role` to `account`. If `account` had not been already granted `role`, emits a {RoleGranted} event. Requirements: - the caller must have ``role``'s admin role."
      },
      "hasRole(bytes32,address)": {
        "details": "Returns `true` if `account` has been granted `role`."
      },
      "isOpen()": {
        "details": "check if a fund is open for donations",
        "returns": {
          "_0": "boolean indicating status"
        }
      },
      "isTokenAllowed(address)": {
        "details": "add a token to the list of allowed tokens",
        "params": {
          "_address": "tracker address of the token"
        },
        "returns": {
          "_0": "boolean indicating if a token is allowed for deposit"
        }
      },
      "pause()": {
        "details": "pause fund",
        "returns": {
          "_0": "boolean indicating result of the operation"
        }
      },
      "removeToken(address)": {
        "details": "remove a token from the list of allowed tokens",
        "params": {
          "_address": "tracker address of the token"
        },
        "returns": {
          "_0": "boolean indicating result of the operation"
        }
      },
      "renounceRole(bytes32,address)": {
        "details": "Revokes `role` from the calling account. Roles are often managed via {grantRole} and {revokeRole}: this function's purpose is to provide a mechanism for accounts to lose their privileges if they are compromised (such as when a trusted device is misplaced). If the calling account had been revoked `role`, emits a {RoleRevoked} event. Requirements: - the caller must be `account`."
      },
      "resume()": {
        "details": "resume fund",
        "returns": {
          "_0": "boolean indicating result of the operation"
        }
      },
      "revokeRole(bytes32,address)": {
        "details": "Revokes `role` from `account`. If `account` had been granted `role`, emits a {RoleRevoked} event. Requirements: - the caller must have ``role``'s admin role."
      },
      "supportsInterface(bytes4)": {
        "details": "See {IERC165-supportsInterface}."
      }
    },
    "version": 1
  },
  "userdoc": {
    "kind": "user",
    "methods": {
      "close()": {
        "notice": "this is final, a closed fund cannot be reopened"
      }
    },
    "version": 1
  },
  "storageLayout": {
    "storage": [
      {
        "astId": 24,
        "contract": "contracts/FundV1.sol:FundV1",
        "label": "_roles",
        "offset": 0,
        "slot": "0",
        "type": "t_mapping(t_bytes32,t_struct(RoleData)19_storage)"
      },
      {
        "astId": 7109,
        "contract": "contracts/FundV1.sol:FundV1",
        "label": "allowedTokens",
        "offset": 0,
        "slot": "1",
        "type": "t_struct(AddressSet)4289_storage"
      },
      {
        "astId": 4812,
        "contract": "contracts/FundV1.sol:FundV1",
        "label": "checks",
        "offset": 0,
        "slot": "3",
        "type": "t_array(t_bytes32)dyn_storage"
      },
      {
        "astId": 5226,
        "contract": "contracts/FundV1.sol:FundV1",
        "label": "status",
        "offset": 0,
        "slot": "4",
        "type": "t_enum(Status)5240"
      },
      {
        "astId": 5228,
        "contract": "contracts/FundV1.sol:FundV1",
        "label": "factory",
        "offset": 1,
        "slot": "4",
        "type": "t_address"
      },
      {
        "astId": 5230,
        "contract": "contracts/FundV1.sol:FundV1",
        "label": "safeAddress",
        "offset": 0,
        "slot": "5",
        "type": "t_address"
      },
      {
        "astId": 5232,
        "contract": "contracts/FundV1.sol:FundV1",
        "label": "name",
        "offset": 0,
        "slot": "6",
        "type": "t_string_storage"
      },
      {
        "astId": 5234,
        "contract": "contracts/FundV1.sol:FundV1",
        "label": "focus",
        "offset": 0,
        "slot": "7",
        "type": "t_string_storage"
      },
      {
        "astId": 5236,
        "contract": "contracts/FundV1.sol:FundV1",
        "label": "requestable",
        "offset": 0,
        "slot": "8",
        "type": "t_bool"
      }
    ],
    "types": {
      "t_address": {
        "encoding": "inplace",
        "label": "address",
        "numberOfBytes": "20"
      },
      "t_array(t_bytes32)dyn_storage": {
        "base": "t_bytes32",
        "encoding": "dynamic_array",
        "label": "bytes32[]",
        "numberOfBytes": "32"
      },
      "t_bool": {
        "encoding": "inplace",
        "label": "bool",
        "numberOfBytes": "1"
      },
      "t_bytes32": {
        "encoding": "inplace",
        "label": "bytes32",
        "numberOfBytes": "32"
      },
      "t_enum(Status)5240": {
        "encoding": "inplace",
        "label": "enum FundV1.Status",
        "numberOfBytes": "1"
      },
      "t_mapping(t_address,t_bool)": {
        "encoding": "mapping",
        "key": "t_address",
        "label": "mapping(address => bool)",
        "numberOfBytes": "32",
        "value": "t_bool"
      },
      "t_mapping(t_bytes32,t_struct(RoleData)19_storage)": {
        "encoding": "mapping",
        "key": "t_bytes32",
        "label": "mapping(bytes32 => struct AccessControl.RoleData)",
        "numberOfBytes": "32",
        "value": "t_struct(RoleData)19_storage"
      },
      "t_mapping(t_bytes32,t_uint256)": {
        "encoding": "mapping",
        "key": "t_bytes32",
        "label": "mapping(bytes32 => uint256)",
        "numberOfBytes": "32",
        "value": "t_uint256"
      },
      "t_string_storage": {
        "encoding": "bytes",
        "label": "string",
        "numberOfBytes": "32"
      },
      "t_struct(AddressSet)4289_storage": {
        "encoding": "inplace",
        "label": "struct EnumerableSet.AddressSet",
        "members": [
          {
            "astId": 4288,
            "contract": "contracts/FundV1.sol:FundV1",
            "label": "_inner",
            "offset": 0,
            "slot": "0",
            "type": "t_struct(Set)3988_storage"
          }
        ],
        "numberOfBytes": "64"
      },
      "t_struct(RoleData)19_storage": {
        "encoding": "inplace",
        "label": "struct AccessControl.RoleData",
        "members": [
          {
            "astId": 16,
            "contract": "contracts/FundV1.sol:FundV1",
            "label": "members",
            "offset": 0,
            "slot": "0",
            "type": "t_mapping(t_address,t_bool)"
          },
          {
            "astId": 18,
            "contract": "contracts/FundV1.sol:FundV1",
            "label": "adminRole",
            "offset": 0,
            "slot": "1",
            "type": "t_bytes32"
          }
        ],
        "numberOfBytes": "64"
      },
      "t_struct(Set)3988_storage": {
        "encoding": "inplace",
        "label": "struct EnumerableSet.Set",
        "members": [
          {
            "astId": 3983,
            "contract": "contracts/FundV1.sol:FundV1",
            "label": "_values",
            "offset": 0,
            "slot": "0",
            "type": "t_array(t_bytes32)dyn_storage"
          },
          {
            "astId": 3987,
            "contract": "contracts/FundV1.sol:FundV1",
            "label": "_indexes",
            "offset": 0,
            "slot": "1",
            "type": "t_mapping(t_bytes32,t_uint256)"
          }
        ],
        "numberOfBytes": "64"
      },
      "t_uint256": {
        "encoding": "inplace",
        "label": "uint256",
        "numberOfBytes": "32"
      }
    }
  }
}