{
  "address": "0x4E00A3a8FcFE19F7239f44bA7A5b38050F56ab76",
  "abi": [
    {
      "inputs": [],
      "name": "Forbidden",
      "type": "error"
    },
    {
      "inputs": [],
      "name": "NoZeroChecks",
      "type": "error"
    },
    {
      "inputs": [],
      "name": "NotAllowed",
      "type": "error"
    },
    {
      "inputs": [],
      "name": "TokenNotAllowed",
      "type": "error"
    },
    {
      "anonymous": false,
      "inputs": [
        {
          "indexed": true,
          "internalType": "bytes32",
          "name": "role",
          "type": "bytes32"
        },
        {
          "indexed": true,
          "internalType": "bytes32",
          "name": "previousAdminRole",
          "type": "bytes32"
        },
        {
          "indexed": true,
          "internalType": "bytes32",
          "name": "newAdminRole",
          "type": "bytes32"
        }
      ],
      "name": "RoleAdminChanged",
      "type": "event"
    },
    {
      "anonymous": false,
      "inputs": [
        {
          "indexed": true,
          "internalType": "bytes32",
          "name": "role",
          "type": "bytes32"
        },
        {
          "indexed": true,
          "internalType": "address",
          "name": "account",
          "type": "address"
        },
        {
          "indexed": true,
          "internalType": "address",
          "name": "sender",
          "type": "address"
        }
      ],
      "name": "RoleGranted",
      "type": "event"
    },
    {
      "anonymous": false,
      "inputs": [
        {
          "indexed": true,
          "internalType": "bytes32",
          "name": "role",
          "type": "bytes32"
        },
        {
          "indexed": true,
          "internalType": "address",
          "name": "account",
          "type": "address"
        },
        {
          "indexed": true,
          "internalType": "address",
          "name": "sender",
          "type": "address"
        }
      ],
      "name": "RoleRevoked",
      "type": "event"
    },
    {
      "anonymous": false,
      "inputs": [
        {
          "indexed": true,
          "internalType": "uint256",
          "name": "id",
          "type": "uint256"
        }
      ],
      "name": "StatusChange",
      "type": "event"
    },
    {
      "inputs": [],
      "name": "APPROVER_ROLE",
      "outputs": [
        {
          "internalType": "bytes32",
          "name": "",
          "type": "bytes32"
        }
      ],
      "stateMutability": "view",
      "type": "function"
    },
    {
      "inputs": [],
      "name": "AUDITOR_ROLE",
      "outputs": [
        {
          "internalType": "bytes32",
          "name": "",
          "type": "bytes32"
        }
      ],
      "stateMutability": "view",
      "type": "function"
    },
    {
      "inputs": [],
      "name": "DEFAULT_ADMIN_ROLE",
      "outputs": [
        {
          "internalType": "bytes32",
          "name": "",
          "type": "bytes32"
        }
      ],
      "stateMutability": "view",
      "type": "function"
    },
    {
      "inputs": [],
      "name": "EXECUTOR_ROLE",
      "outputs": [
        {
          "internalType": "bytes32",
          "name": "",
          "type": "bytes32"
        }
      ],
      "stateMutability": "view",
      "type": "function"
    },
    {
      "inputs": [],
      "name": "FINALIZER_ROLE",
      "outputs": [
        {
          "internalType": "bytes32",
          "name": "",
          "type": "bytes32"
        }
      ],
      "stateMutability": "view",
      "type": "function"
    },
    {
      "inputs": [
        {
          "internalType": "bytes32[2]",
          "name": "_check",
          "type": "bytes32[2]"
        }
      ],
      "name": "addCheck",
      "outputs": [
        {
          "internalType": "bool",
          "name": "",
          "type": "bool"
        }
      ],
      "stateMutability": "nonpayable",
      "type": "function"
    },
    {
      "inputs": [
        {
          "internalType": "address",
          "name": "_address",
          "type": "address"
        }
      ],
      "name": "addToken",
      "outputs": [
        {
          "internalType": "bool",
          "name": "",
          "type": "bool"
        }
      ],
      "stateMutability": "nonpayable",
      "type": "function"
    },
    {
      "inputs": [],
      "name": "allChecks",
      "outputs": [
        {
          "internalType": "bytes32[2][]",
          "name": "",
          "type": "bytes32[2][]"
        }
      ],
      "stateMutability": "view",
      "type": "function"
    },
    {
      "inputs": [
        {
          "internalType": "uint256",
          "name": "",
          "type": "uint256"
        },
        {
          "internalType": "uint256",
          "name": "",
          "type": "uint256"
        }
      ],
      "name": "checks",
      "outputs": [
        {
          "internalType": "bytes32",
          "name": "",
          "type": "bytes32"
        }
      ],
      "stateMutability": "view",
      "type": "function"
    },
    {
      "inputs": [],
      "name": "close",
      "outputs": [
        {
          "internalType": "bool",
          "name": "",
          "type": "bool"
        }
      ],
      "stateMutability": "nonpayable",
      "type": "function"
    },
    {
      "inputs": [],
      "name": "focus",
      "outputs": [
        {
          "internalType": "string",
          "name": "",
          "type": "string"
        }
      ],
      "stateMutability": "view",
      "type": "function"
    },
    {
      "inputs": [],
      "name": "getAllowedTokens",
      "outputs": [
        {
          "internalType": "address[]",
          "name": "",
          "type": "address[]"
        }
      ],
      "stateMutability": "view",
      "type": "function"
    },
    {
      "inputs": [],
      "name": "getBalances",
      "outputs": [
        {
          "internalType": "address[]",
          "name": "",
          "type": "address[]"
        },
        {
          "internalType": "uint256[]",
          "name": "",
          "type": "uint256[]"
        }
      ],
      "stateMutability": "view",
      "type": "function"
    },
    {
      "inputs": [
        {
          "internalType": "uint256",
          "name": "_index",
          "type": "uint256"
        }
      ],
      "name": "getCheck",
      "outputs": [
        {
          "internalType": "bytes32[2]",
          "name": "",
          "type": "bytes32[2]"
        }
      ],
      "stateMutability": "view",
      "type": "function"
    },
    {
      "inputs": [
        {
          "internalType": "address",
          "name": "_tokenAddress",
          "type": "address"
        }
      ],
      "name": "getDepositAddressFor",
      "outputs": [
        {
          "internalType": "address",
          "name": "",
          "type": "address"
        }
      ],
      "stateMutability": "view",
      "type": "function"
    },
    {
      "inputs": [],
      "name": "getMeta",
      "outputs": [
        {
          "internalType": "string",
          "name": "",
          "type": "string"
        },
        {
          "internalType": "string",
          "name": "",
          "type": "string"
        }
      ],
      "stateMutability": "view",
      "type": "function"
    },
    {
      "inputs": [
        {
          "internalType": "bytes32",
          "name": "role",
          "type": "bytes32"
        }
      ],
      "name": "getRoleAdmin",
      "outputs": [
        {
          "internalType": "bytes32",
          "name": "",
          "type": "bytes32"
        }
      ],
      "stateMutability": "view",
      "type": "function"
    },
    {
      "inputs": [
        {
          "internalType": "bytes32",
          "name": "role",
          "type": "bytes32"
        },
        {
          "internalType": "uint256",
          "name": "index",
          "type": "uint256"
        }
      ],
      "name": "getRoleMember",
      "outputs": [
        {
          "internalType": "address",
          "name": "",
          "type": "address"
        }
      ],
      "stateMutability": "view",
      "type": "function"
    },
    {
      "inputs": [
        {
          "internalType": "bytes32",
          "name": "role",
          "type": "bytes32"
        }
      ],
      "name": "getRoleMemberCount",
      "outputs": [
        {
          "internalType": "uint256",
          "name": "",
          "type": "uint256"
        }
      ],
      "stateMutability": "view",
      "type": "function"
    },
    {
      "inputs": [
        {
          "internalType": "bytes32",
          "name": "role",
          "type": "bytes32"
        },
        {
          "internalType": "address",
          "name": "account",
          "type": "address"
        }
      ],
      "name": "grantRole",
      "outputs": [],
      "stateMutability": "nonpayable",
      "type": "function"
    },
    {
      "inputs": [
        {
          "internalType": "bytes32",
          "name": "role",
          "type": "bytes32"
        },
        {
          "internalType": "address",
          "name": "account",
          "type": "address"
        }
      ],
      "name": "hasRole",
      "outputs": [
        {
          "internalType": "bool",
          "name": "",
          "type": "bool"
        }
      ],
      "stateMutability": "view",
      "type": "function"
    },
    {
      "inputs": [
        {
          "internalType": "string",
          "name": "_name",
          "type": "string"
        },
        {
          "internalType": "string",
          "name": "_focus",
          "type": "string"
        },
        {
          "internalType": "address",
          "name": "_safeAddress",
          "type": "address"
        },
        {
          "internalType": "address[2]",
          "name": "_ownerConsumer",
          "type": "address[2]"
        },
        {
          "internalType": "address[]",
          "name": "_allowedTokens",
          "type": "address[]"
        },
        {
          "internalType": "bool",
          "name": "_requestable",
          "type": "bool"
        },
        {
          "internalType": "bytes32[2][]",
          "name": "_checks",
          "type": "bytes32[2][]"
        },
        {
          "internalType": "address[]",
          "name": "_whitelist",
          "type": "address[]"
        }
      ],
      "name": "initialize",
      "outputs": [],
      "stateMutability": "nonpayable",
      "type": "function"
    },
    {
      "inputs": [],
      "name": "isOpen",
      "outputs": [
        {
          "internalType": "bool",
          "name": "",
          "type": "bool"
        }
      ],
      "stateMutability": "view",
      "type": "function"
    },
    {
      "inputs": [
        {
          "internalType": "address",
          "name": "_address",
          "type": "address"
        }
      ],
      "name": "isTokenAllowed",
      "outputs": [
        {
          "internalType": "bool",
          "name": "",
          "type": "bool"
        }
      ],
      "stateMutability": "view",
      "type": "function"
    },
    {
      "inputs": [
        {
          "internalType": "address",
          "name": "_address",
          "type": "address"
        }
      ],
      "name": "isWhitelisted",
      "outputs": [
        {
          "internalType": "bool",
          "name": "",
          "type": "bool"
        }
      ],
      "stateMutability": "view",
      "type": "function"
    },
    {
      "inputs": [],
      "name": "name",
      "outputs": [
        {
          "internalType": "string",
          "name": "",
          "type": "string"
        }
      ],
      "stateMutability": "view",
      "type": "function"
    },
    {
      "inputs": [],
      "name": "pause",
      "outputs": [
        {
          "internalType": "bool",
          "name": "",
          "type": "bool"
        }
      ],
      "stateMutability": "nonpayable",
      "type": "function"
    },
    {
      "inputs": [
        {
          "internalType": "uint256",
          "name": "_index",
          "type": "uint256"
        }
      ],
      "name": "removeCheck",
      "outputs": [
        {
          "internalType": "bool",
          "name": "",
          "type": "bool"
        }
      ],
      "stateMutability": "nonpayable",
      "type": "function"
    },
    {
      "inputs": [
        {
          "internalType": "address",
          "name": "_address",
          "type": "address"
        }
      ],
      "name": "removeToken",
      "outputs": [
        {
          "internalType": "bool",
          "name": "",
          "type": "bool"
        }
      ],
      "stateMutability": "nonpayable",
      "type": "function"
    },
    {
      "inputs": [
        {
          "internalType": "bytes32",
          "name": "role",
          "type": "bytes32"
        },
        {
          "internalType": "address",
          "name": "account",
          "type": "address"
        }
      ],
      "name": "renounceRole",
      "outputs": [],
      "stateMutability": "nonpayable",
      "type": "function"
    },
    {
      "inputs": [],
      "name": "requestable",
      "outputs": [
        {
          "internalType": "bool",
          "name": "",
          "type": "bool"
        }
      ],
      "stateMutability": "view",
      "type": "function"
    },
    {
      "inputs": [],
      "name": "resume",
      "outputs": [
        {
          "internalType": "bool",
          "name": "",
          "type": "bool"
        }
      ],
      "stateMutability": "nonpayable",
      "type": "function"
    },
    {
      "inputs": [
        {
          "internalType": "bytes32",
          "name": "role",
          "type": "bytes32"
        },
        {
          "internalType": "address",
          "name": "account",
          "type": "address"
        }
      ],
      "name": "revokeRole",
      "outputs": [],
      "stateMutability": "nonpayable",
      "type": "function"
    },
    {
      "inputs": [],
      "name": "status",
      "outputs": [
        {
          "internalType": "enum FundV1.Status",
          "name": "",
          "type": "uint8"
        }
      ],
      "stateMutability": "view",
      "type": "function"
    },
    {
      "inputs": [
        {
          "internalType": "bytes4",
          "name": "interfaceId",
          "type": "bytes4"
        }
      ],
      "name": "supportsInterface",
      "outputs": [
        {
          "internalType": "bool",
          "name": "",
          "type": "bool"
        }
      ],
      "stateMutability": "view",
      "type": "function"
    }
  ],
  "transactionHash": "0xd9b519cd2c657edaa0d3ac7e93b1c3e5e3d3c79a3e0806217ad045c5df9a3731",
  "args": [],
  "numDeployments": 2,
  "solcInputHash": "745e132d83522fec885a43d487704d44",
  "bytecode": "0x608060405234801561001057600080fd5b506120d6806100206000396000f3fe608060405234801561001057600080fd5b50600436106102105760003560e01c806347535d7b11610125578063a217fddf116100ad578063c5c68bca1161007c578063c5c68bca146104cf578063ca15c873146104e2578063d48bfca7146104f5578063d547741f14610508578063f9eaee0d1461051b57600080fd5b8063a217fddf1461048a578063a79af2ce14610492578063a8bd926f146104a8578063b6e49087146104bb57600080fd5b80638456cb59116100f45780638456cb59146104295780639010d07c1461043157806391d148541461044457806393ddbd96146104575780639db797f01461046a57600080fd5b806347535d7b146103df5780635fa7b584146103e75780636e1d616e146103fa578063805421ed1461042157600080fd5b8063233fd7ed116101a85780633af32abf116101775780633af32abf146103635780633b5862c1146103765780633df55efd146103895780634245962b146103b057806343d726d6146103d757600080fd5b8063233fd7ed146102ed578063248a9ca3146103185780632f2ff15d1461033b57806336568abe1461035057600080fd5b8063046f7da2116101e4578063046f7da21461028157806306fdde031461028957806307bd02651461029e578063200d2ed2146102d357600080fd5b8062113e0814610215578063015887d61461023457806301ffc9a714610249578063024ece891461026c575b600080fd5b61021d61052e565b60405161022b9291906118d0565b60405180910390f35b61023c6106bf565b60405161022b9190611927565b61025c610257366004611990565b61073c565b604051901515815260200161022b565b610274610767565b60405161022b91906119ba565b61025c610778565b6102916107cd565b60405161022b9190611a25565b6102c57fd8aa0f3194971a2a116679f7c2090f6939c8d4e01a2a8d7e41d55e5351469e6381565b60405190815260200161022b565b6004546102e09060ff1681565b60405161022b9190611a4e565b6103006102fb366004611a92565b61085b565b6040516001600160a01b03909116815260200161022b565b6102c5610326366004611aad565b60009081526020819052604090206001015490565b61034e610349366004611ac6565b6108f3565b005b61034e61035e366004611ac6565b61091e565b61025c610371366004611a92565b6109a1565b61025c610384366004611aad565b6109c4565b6102c57f53ea8c2084bd069d8c2df22bdca7223415cd9c0b605c29d1a0d06f15fcd3eed481565b6102c57f408a36151f841709116a4e8aca4e0202874f7f54687dcb863b1ea4672dc9d8cf81565b61025c610a2a565b61025c610a79565b61025c6103f5366004611a92565b610a99565b6102c57f59a1c48e5837ad7a7f3dcedcbe129bf3249ec4fbf651fd4f5e2600ead39fe2f581565b610291610ab8565b61025c610ac5565b61030061043f366004611af2565b610b13565b61025c610452366004611ac6565b610b2b565b6102c5610465366004611af2565b610b54565b61047d610478366004611aad565b610b89565b60405161022b9190611b14565b6102c5600081565b61049a610be7565b60405161022b929190611b45565b61025c6104b6366004611c33565b610d0e565b60055461025c90600160a01b900460ff1681565b61034e6104dd366004611e15565b610d88565b6102c56104f0366004611aad565b610f8c565b61025c610503366004611a92565b610fa3565b61034e610516366004611ac6565b610fbb565b61025c610529366004611a92565b610fe1565b606080600061053d6002610fee565b905060008167ffffffffffffffff81111561055a5761055a611b73565b604051908082528060200260200182016040528015610583578160200160208202803683370190505b50905060008267ffffffffffffffff8111156105a1576105a1611b73565b6040519080825280602002602001820160405280156105ca578160200160208202803683370190505b50905060005b838110156106b4576105e3600282610ff8565b8382815181106105f5576105f5611f1b565b6001600160a01b0390921660209283029190910190910152610618600282610ff8565b6005546040516370a0823160e01b81526001600160a01b0391821660048201529116906370a0823190602401602060405180830381865afa158015610661573d6000803e3d6000fd5b505050506040513d601f19601f820116820180604052508101906106859190611f31565b82828151811061069757610697611f1b565b6020908102919091010152806106ac81611f60565b9150506105d0565b509094909350915050565b60606008805480602002602001604051908101604052809291908181526020016000905b828210156107335760008481526020902060408051808201918290529160028581029091019182845b81548152602001906001019080831161070c575050505050815260200190600101906106e3565b50505050905090565b60006001600160e01b03198216635a05180f60e01b1480610761575061076182611004565b92915050565b60606107736002611039565b905090565b6000806107858133611046565b600160045460ff16600281111561079e5761079e611a38565b146107bc57604051631eb49d6d60e11b815260040160405180910390fd5b6107c660006110aa565b91505b5090565b600680546107da90611f7b565b80601f016020809104026020016040519081016040528092919081815260200182805461080690611f7b565b80156108535780601f1061082857610100808354040283529160200191610853565b820191906000526020600020905b81548152906001019060200180831161083657829003601f168201915b505050505081565b60008060045460ff16600281111561087557610875611a38565b1461089357604051631eb49d6d60e11b815260040160405180910390fd5b61089c82610fe1565b6108b957604051631eb49d6d60e11b815260040160405180910390fd5b6005546001600160a01b03166108e257604051631eb49d6d60e11b815260040160405180910390fd5b50506005546001600160a01b031690565b60008281526020819052604090206001015461090f8133611046565b6109198383611113565b505050565b6001600160a01b03811633146109935760405162461bcd60e51b815260206004820152602f60248201527f416363657373436f6e74726f6c3a2063616e206f6e6c792072656e6f756e636560448201526e103937b632b9903337b91039b2b63360891b60648201526084015b60405180910390fd5b61099d8282611135565b5050565b60006109ad6009610fee565b6109b957506001919050565b610761600983611157565b60007f59a1c48e5837ad7a7f3dcedcbe129bf3249ec4fbf651fd4f5e2600ead39fe2f56109f18133611046565b600854600110610a1457604051631acfaa2560e21b815260040160405180910390fd5b610a1f600884611179565b600191505b50919050565b600080610a378133611046565b600260045460ff166002811115610a5057610a50611a38565b1415610a6f57604051631eb49d6d60e11b815260040160405180910390fd5b6107c660026110aa565b60008060045460ff166002811115610a9357610a93611a38565b14905090565b600080610aa68133611046565b610ab160028461122d565b9392505050565b600780546107da90611f7b565b600080610ad28133611046565b600060045460ff166002811115610aeb57610aeb611a38565b14610b0957604051631eb49d6d60e11b815260040160405180910390fd5b6107c660016110aa565b6000828152600160205260408120610ab19083610ff8565b6000918252602082815260408084206001600160a01b0393909316845291905290205460ff1690565b60088281548110610b6457600080fd5b90600052602060002090600202018160028110610b8057600080fd5b01549150829050565b610b91611711565b60088281548110610ba457610ba4611f1b565b600091825260209091206040805180820191829052926002908102909201919082845b815481526020019060010190808311610bc7575b50505050509050919050565b60608060066007818054610bfa90611f7b565b80601f0160208091040260200160405190810160405280929190818152602001828054610c2690611f7b565b8015610c735780601f10610c4857610100808354040283529160200191610c73565b820191906000526020600020905b815481529060010190602001808311610c5657829003601f168201915b50505050509150808054610c8690611f7b565b80601f0160208091040260200160405190810160405280929190818152602001828054610cb290611f7b565b8015610cff5780601f10610cd457610100808354040283529160200191610cff565b820191906000526020600020905b815481529060010190602001808311610ce257829003601f168201915b50505050509050915091509091565b60007f59a1c48e5837ad7a7f3dcedcbe129bf3249ec4fbf651fd4f5e2600ead39fe2f5610d3b8133611046565b60088054600181018255600091909152610d7e9060029081027ff3f7a9fe364faab93b216da50a3214154f22a0a2b415b23a84c8169e8b636ee30190859061172f565b5060019392505050565b60045461010090046001600160a01b031615610db757604051631dd2188d60e31b815260040160405180910390fd5b8215610e34576000825111610e345760405162461bcd60e51b815260206004820152603c60248201527f4120736574206f6620696e697469616c20636865636b7320617265207265717560448201527f6972656420666f722061207265717565737461626c652046756e642e00000000606482015260840161098a565b600081511180610e45575060008251115b15610e975782610e975760405162461bcd60e51b815260206004820181905260248201527f46756e64206d75737420626520736574206173207265717565737461626c652e604482015260640161098a565b610ea9600086815b6020020151611242565b60208501516001600160a01b031615610ee857610ee87f408a36151f841709116a4e8aca4e0202874f7f54687dcb863b1ea4672dc9d8cf866001610e9f565b60048054610100600160a81b03191633610100021790556005805460ff60a01b1916600160a01b851515021790558751610f299060069060208b0190611769565b508651610f3d9060079060208a0190611769565b50600580546001600160a01b0319166001600160a01b0388161790556004805460ff19169055610f6c8261124c565b610f7760098261125f565b610f8260028561125f565b5050505050505050565b600081815260016020526040812061076190610fee565b600080610fb08133611046565b610ab16002846112b1565b600082815260208190526040902060010154610fd78133611046565b6109198383611135565b6000610761600283611157565b6000610761825490565b6000610ab183836112c6565b60006001600160e01b03198216637965db0b60e01b148061076157506301ffc9a760e01b6001600160e01b0319831614610761565b60606000610ab1836112f0565b6110508282610b2b565b61099d57611068816001600160a01b0316601461134a565b61107383602061134a565b604051602001611084929190611fb0565b60408051601f198184030181529082905262461bcd60e51b825261098a91600401611a25565b60048054600091839160ff191660018360028111156110cb576110cb611a38565b02179055508160028111156110e2576110e2611a38565b6040517f4884fc8861710f82d3dd1858f3e1978853d51909a2e9a0efafe95d8cce5f3b9a90600090a2506001919050565b61111d82826114e6565b600082815260016020526040902061091990826112b1565b61113f828261156a565b6000828152600160205260409020610919908261122d565b6001600160a01b03811660009081526001830160205260408120541515610ab1565b815461118457600080fd5b815461119290600190612025565b81111561119e57600080fd5b815482906111ae90600190612025565b815481106111be576111be611f1b565b90600052602060002090600202018282815481106111de576111de611f1b565b90600052602060002090600202019060026111fa9291906117dc565b508180548061120b5761120b61203c565b6000828152602081206002600019909301928302018181556001015590555050565b6000610ab1836001600160a01b0384166115cf565b61099d8282611113565b805161099d906008906020840190611807565b805160005b818110156112ab5761129883828151811061128157611281611f1b565b6020026020010151856112b190919063ffffffff16565b50806112a381611f60565b915050611264565b50505050565b6000610ab1836001600160a01b0384166116c2565b60008260000182815481106112dd576112dd611f1b565b9060005260206000200154905092915050565b606081600001805480602002602001604051908101604052809291908181526020018280548015610bdb5760200282019190600052602060002090815481526020019060010190808311610bc75750505050509050919050565b60606000611359836002612052565b611364906002612071565b67ffffffffffffffff81111561137c5761137c611b73565b6040519080825280601f01601f1916602001820160405280156113a6576020820181803683370190505b509050600360fc1b816000815181106113c1576113c1611f1b565b60200101906001600160f81b031916908160001a905350600f60fb1b816001815181106113f0576113f0611f1b565b60200101906001600160f81b031916908160001a9053506000611414846002612052565b61141f906001612071565b90505b6001811115611497576f181899199a1a9b1b9c1cb0b131b232b360811b85600f166010811061145357611453611f1b565b1a60f81b82828151811061146957611469611f1b565b60200101906001600160f81b031916908160001a90535060049490941c9361149081612089565b9050611422565b508315610ab15760405162461bcd60e51b815260206004820181905260248201527f537472696e67733a20686578206c656e67746820696e73756666696369656e74604482015260640161098a565b6114f08282610b2b565b61099d576000828152602081815260408083206001600160a01b03851684529091529020805460ff191660011790556115263390565b6001600160a01b0316816001600160a01b0316837f2f8788117e7eff1d82e926ec794901d17c78024a50270940304540a733656f0d60405160405180910390a45050565b6115748282610b2b565b1561099d576000828152602081815260408083206001600160a01b0385168085529252808320805460ff1916905551339285917ff6391f5c32d9c69d2a47ea670b442974b53935d1edc7fd64eb21e047a839171b9190a45050565b600081815260018301602052604081205480156116b85760006115f3600183612025565b855490915060009061160790600190612025565b905081811461166c57600086600001828154811061162757611627611f1b565b906000526020600020015490508087600001848154811061164a5761164a611f1b565b6000918252602080832090910192909255918252600188019052604090208390555b855486908061167d5761167d61203c565b600190038181906000526020600020016000905590558560010160008681526020019081526020016000206000905560019350505050610761565b6000915050610761565b600081815260018301602052604081205461170957508154600181810184556000848152602080822090930184905584548482528286019093526040902091909155610761565b506000610761565b60405180604001604052806002906020820280368337509192915050565b826002810192821561175d579160200282015b8281111561175d578251825591602001919060010190611742565b506107c992915061185d565b82805461177590611f7b565b90600052602060002090601f016020900481019282611797576000855561175d565b82601f106117b057805160ff191683800117855561175d565b8280016001018555821561175d579182018281111561175d578251825591602001919060010190611742565b826002810192821561175d579182015b8281111561175d5782548255916001019190600101906117ec565b828054828255906000526020600020906002028101928215611851579160200282015b82811115611851578251611841908390600261172f565b509160200191906002019061182a565b506107c9929150611872565b5b808211156107c9576000815560010161185e565b808211156107c95760008082556001820155600201611872565b600081518084526020808501945080840160005b838110156118c55781516001600160a01b0316875295820195908201906001016118a0565b509495945050505050565b6040815260006118e3604083018561188c565b82810360208481019190915284518083528582019282019060005b8181101561191a578451835293830193918301916001016118fe565b5090979650505050505050565b60208082528251828201819052600091906040908185019086840185805b8381101561198257825185835b600281101561196f57825182529189019190890190600101611952565b5050509385019391860191600101611945565b509298975050505050505050565b6000602082840312156119a257600080fd5b81356001600160e01b031981168114610ab157600080fd5b602081526000610ab1602083018461188c565b60005b838110156119e85781810151838201526020016119d0565b838111156112ab5750506000910152565b60008151808452611a118160208601602086016119cd565b601f01601f19169290920160200192915050565b602081526000610ab160208301846119f9565b634e487b7160e01b600052602160045260246000fd5b6020810160038310611a7057634e487b7160e01b600052602160045260246000fd5b91905290565b80356001600160a01b0381168114611a8d57600080fd5b919050565b600060208284031215611aa457600080fd5b610ab182611a76565b600060208284031215611abf57600080fd5b5035919050565b60008060408385031215611ad957600080fd5b82359150611ae960208401611a76565b90509250929050565b60008060408385031215611b0557600080fd5b50508035926020909101359150565b60408101818360005b6002811015611b3c578151835260209283019290910190600101611b1d565b50505092915050565b604081526000611b5860408301856119f9565b8281036020840152611b6a81856119f9565b95945050505050565b634e487b7160e01b600052604160045260246000fd5b6040805190810167ffffffffffffffff81118282101715611bac57611bac611b73565b60405290565b604051601f8201601f1916810167ffffffffffffffff81118282101715611bdb57611bdb611b73565b604052919050565b600082601f830112611bf457600080fd5b611bfc611b89565b806040840185811115611c0e57600080fd5b845b81811015611c28578035845260209384019301611c10565b509095945050505050565b600060408284031215611c4557600080fd5b610ab18383611be3565b600082601f830112611c6057600080fd5b813567ffffffffffffffff811115611c7a57611c7a611b73565b611c8d601f8201601f1916602001611bb2565b818152846020838601011115611ca257600080fd5b816020850160208301376000918101602001919091529392505050565b600082601f830112611cd057600080fd5b611cd8611b89565b806040840185811115611cea57600080fd5b845b81811015611c2857611cfd81611a76565b845260209384019301611cec565b600067ffffffffffffffff821115611d2557611d25611b73565b5060051b60200190565b600082601f830112611d4057600080fd5b81356020611d55611d5083611d0b565b611bb2565b82815260059290921b84018101918181019086841115611d7457600080fd5b8286015b84811015611d9657611d8981611a76565b8352918301918301611d78565b509695505050505050565b80358015158114611a8d57600080fd5b600082601f830112611dc257600080fd5b81356020611dd2611d5083611d0b565b82815260069290921b84018101918181019086841115611df157600080fd5b8286015b84811015611d9657611e078882611be3565b835291830191604001611df5565b600080600080600080600080610120898b031215611e3257600080fd5b883567ffffffffffffffff80821115611e4a57600080fd5b611e568c838d01611c4f565b995060208b0135915080821115611e6c57600080fd5b611e788c838d01611c4f565b9850611e8660408c01611a76565b9750611e958c60608d01611cbf565b965060a08b0135915080821115611eab57600080fd5b611eb78c838d01611d2f565b9550611ec560c08c01611da1565b945060e08b0135915080821115611edb57600080fd5b611ee78c838d01611db1565b93506101008b0135915080821115611efe57600080fd5b50611f0b8b828c01611d2f565b9150509295985092959890939650565b634e487b7160e01b600052603260045260246000fd5b600060208284031215611f4357600080fd5b5051919050565b634e487b7160e01b600052601160045260246000fd5b6000600019821415611f7457611f74611f4a565b5060010190565b600181811c90821680611f8f57607f821691505b60208210811415610a2457634e487b7160e01b600052602260045260246000fd5b7f416363657373436f6e74726f6c3a206163636f756e7420000000000000000000815260008351611fe88160178501602088016119cd565b7001034b99036b4b9b9b4b733903937b6329607d1b60179184019182015283516120198160288401602088016119cd565b01602801949350505050565b60008282101561203757612037611f4a565b500390565b634e487b7160e01b600052603160045260246000fd5b600081600019048311821515161561206c5761206c611f4a565b500290565b6000821982111561208457612084611f4a565b500190565b60008161209857612098611f4a565b50600019019056fea2646970667358221220b699d29cb2301587108f17202f9c3ef6418ed407c4a9b2414dc26fca58c358b564736f6c634300080a0033",
  "devdoc": {
    "kind": "dev",
    "methods": {
      "addToken(address)": {
        "details": "add a token to the list of allowed tokens",
        "params": {
          "_address": "tracker address of the token"
        },
        "returns": {
          "_0": "boolean indicating result of the operation"
        }
      },
      "close()": {
        "details": "close fund",
        "returns": {
          "_0": "boolean indicating result of the operation"
        }
      },
      "getAllowedTokens()": {
        "details": "list of allowed token contract addresses",
        "returns": {
          "_0": "return a list of allowed token contract addresses"
        }
      },
      "getBalances()": {
        "details": "get fund safe balances",
        "returns": {
          "_0": "tuple of (tokenAddress[], balance[])"
        }
      },
      "getDepositAddressFor(address)": {
        "details": "get deposit address for a token",
        "params": {
          "_tokenAddress": "tracker address of the token to deposit (must be an allowed token)"
        },
        "returns": {
          "_0": "deposit address for a token"
        }
      },
      "getMeta()": {
        "details": "get metadata for a fund",
        "returns": {
          "_0": "metadata of the fund"
        }
      },
      "getRoleAdmin(bytes32)": {
        "details": "Returns the admin role that controls `role`. See {grantRole} and {revokeRole}. To change a role's admin, use {_setRoleAdmin}."
      },
      "getRoleMember(bytes32,uint256)": {
        "details": "Returns one of the accounts that have `role`. `index` must be a value between 0 and {getRoleMemberCount}, non-inclusive. Role bearers are not sorted in any particular way, and their ordering may change at any point. WARNING: When using {getRoleMember} and {getRoleMemberCount}, make sure you perform all queries on the same block. See the following https://forum.openzeppelin.com/t/iterating-over-elements-on-enumerableset-in-openzeppelin-contracts/2296[forum post] for more information."
      },
      "getRoleMemberCount(bytes32)": {
        "details": "Returns the number of accounts that have `role`. Can be used together with {getRoleMember} to enumerate all bearers of a role."
      },
      "grantRole(bytes32,address)": {
        "details": "Grants `role` to `account`. If `account` had not been already granted `role`, emits a {RoleGranted} event. Requirements: - the caller must have ``role``'s admin role."
      },
      "hasRole(bytes32,address)": {
        "details": "Returns `true` if `account` has been granted `role`."
      },
      "isOpen()": {
        "details": "check if a fund is open for donations",
        "returns": {
          "_0": "boolean indicating status"
        }
      },
      "isTokenAllowed(address)": {
        "details": "add a token to the list of allowed tokens",
        "params": {
          "_address": "tracker address of the token"
        },
        "returns": {
          "_0": "boolean indicating if a token is allowed for deposit"
        }
      },
      "isWhitelisted(address)": {
        "details": "check if address is whitelisted",
        "returns": {
          "_0": "boolean indicating status"
        }
      },
      "pause()": {
        "details": "pause fund",
        "returns": {
          "_0": "boolean indicating result of the operation"
        }
      },
      "removeToken(address)": {
        "details": "remove a token from the list of allowed tokens",
        "params": {
          "_address": "tracker address of the token"
        },
        "returns": {
          "_0": "boolean indicating result of the operation"
        }
      },
      "renounceRole(bytes32,address)": {
        "details": "Revokes `role` from the calling account. Roles are often managed via {grantRole} and {revokeRole}: this function's purpose is to provide a mechanism for accounts to lose their privileges if they are compromised (such as when a trusted device is misplaced). If the calling account had been revoked `role`, emits a {RoleRevoked} event. Requirements: - the caller must be `account`."
      },
      "resume()": {
        "details": "resume fund",
        "returns": {
          "_0": "boolean indicating result of the operation"
        }
      },
      "revokeRole(bytes32,address)": {
        "details": "Revokes `role` from `account`. If `account` had been granted `role`, emits a {RoleRevoked} event. Requirements: - the caller must have ``role``'s admin role."
      },
      "supportsInterface(bytes4)": {
        "details": "See {IERC165-supportsInterface}."
      }
    },
    "version": 1
  },
  "userdoc": {
    "kind": "user",
    "methods": {
      "close()": {
        "notice": "this is final, a closed fund cannot be reopened"
      }
    },
    "version": 1
  },
  "storageLayout": {
    "storage": [
      {
        "astId": 4975,
        "contract": "contracts/FundV1.sol:FundV1",
        "label": "_roles",
        "offset": 0,
        "slot": "0",
        "type": "t_mapping(t_bytes32,t_struct(RoleData)4970_storage)"
      },
      {
        "astId": 5278,
        "contract": "contracts/FundV1.sol:FundV1",
        "label": "_roleMembers",
        "offset": 0,
        "slot": "1",
        "type": "t_mapping(t_bytes32,t_struct(AddressSet)9390_storage)"
      },
      {
        "astId": 12947,
        "contract": "contracts/FundV1.sol:FundV1",
        "label": "allowedTokens",
        "offset": 0,
        "slot": "2",
        "type": "t_struct(AddressSet)9390_storage"
      },
      {
        "astId": 10549,
        "contract": "contracts/FundV1.sol:FundV1",
        "label": "status",
        "offset": 0,
        "slot": "4",
        "type": "t_enum(Status)10571"
      },
      {
        "astId": 10551,
        "contract": "contracts/FundV1.sol:FundV1",
        "label": "factory",
        "offset": 1,
        "slot": "4",
        "type": "t_address"
      },
      {
        "astId": 10553,
        "contract": "contracts/FundV1.sol:FundV1",
        "label": "safeAddress",
        "offset": 0,
        "slot": "5",
        "type": "t_address"
      },
      {
        "astId": 10555,
        "contract": "contracts/FundV1.sol:FundV1",
        "label": "requestable",
        "offset": 20,
        "slot": "5",
        "type": "t_bool"
      },
      {
        "astId": 10557,
        "contract": "contracts/FundV1.sol:FundV1",
        "label": "name",
        "offset": 0,
        "slot": "6",
        "type": "t_string_storage"
      },
      {
        "astId": 10559,
        "contract": "contracts/FundV1.sol:FundV1",
        "label": "focus",
        "offset": 0,
        "slot": "7",
        "type": "t_string_storage"
      },
      {
        "astId": 10564,
        "contract": "contracts/FundV1.sol:FundV1",
        "label": "checks",
        "offset": 0,
        "slot": "8",
        "type": "t_array(t_array(t_bytes32)2_storage)dyn_storage"
      },
      {
        "astId": 10567,
        "contract": "contracts/FundV1.sol:FundV1",
        "label": "whitelist",
        "offset": 0,
        "slot": "9",
        "type": "t_struct(AddressSet)9390_storage"
      }
    ],
    "types": {
      "t_address": {
        "encoding": "inplace",
        "label": "address",
        "numberOfBytes": "20"
      },
      "t_array(t_array(t_bytes32)2_storage)dyn_storage": {
        "base": "t_array(t_bytes32)2_storage",
        "encoding": "dynamic_array",
        "label": "bytes32[2][]",
        "numberOfBytes": "32"
      },
      "t_array(t_bytes32)2_storage": {
        "base": "t_bytes32",
        "encoding": "inplace",
        "label": "bytes32[2]",
        "numberOfBytes": "64"
      },
      "t_array(t_bytes32)dyn_storage": {
        "base": "t_bytes32",
        "encoding": "dynamic_array",
        "label": "bytes32[]",
        "numberOfBytes": "32"
      },
      "t_bool": {
        "encoding": "inplace",
        "label": "bool",
        "numberOfBytes": "1"
      },
      "t_bytes32": {
        "encoding": "inplace",
        "label": "bytes32",
        "numberOfBytes": "32"
      },
      "t_enum(Status)10571": {
        "encoding": "inplace",
        "label": "enum FundV1.Status",
        "numberOfBytes": "1"
      },
      "t_mapping(t_address,t_bool)": {
        "encoding": "mapping",
        "key": "t_address",
        "label": "mapping(address => bool)",
        "numberOfBytes": "32",
        "value": "t_bool"
      },
      "t_mapping(t_bytes32,t_struct(AddressSet)9390_storage)": {
        "encoding": "mapping",
        "key": "t_bytes32",
        "label": "mapping(bytes32 => struct EnumerableSet.AddressSet)",
        "numberOfBytes": "32",
        "value": "t_struct(AddressSet)9390_storage"
      },
      "t_mapping(t_bytes32,t_struct(RoleData)4970_storage)": {
        "encoding": "mapping",
        "key": "t_bytes32",
        "label": "mapping(bytes32 => struct AccessControl.RoleData)",
        "numberOfBytes": "32",
        "value": "t_struct(RoleData)4970_storage"
      },
      "t_mapping(t_bytes32,t_uint256)": {
        "encoding": "mapping",
        "key": "t_bytes32",
        "label": "mapping(bytes32 => uint256)",
        "numberOfBytes": "32",
        "value": "t_uint256"
      },
      "t_string_storage": {
        "encoding": "bytes",
        "label": "string",
        "numberOfBytes": "32"
      },
      "t_struct(AddressSet)9390_storage": {
        "encoding": "inplace",
        "label": "struct EnumerableSet.AddressSet",
        "members": [
          {
            "astId": 9389,
            "contract": "contracts/FundV1.sol:FundV1",
            "label": "_inner",
            "offset": 0,
            "slot": "0",
            "type": "t_struct(Set)9089_storage"
          }
        ],
        "numberOfBytes": "64"
      },
      "t_struct(RoleData)4970_storage": {
        "encoding": "inplace",
        "label": "struct AccessControl.RoleData",
        "members": [
          {
            "astId": 4967,
            "contract": "contracts/FundV1.sol:FundV1",
            "label": "members",
            "offset": 0,
            "slot": "0",
            "type": "t_mapping(t_address,t_bool)"
          },
          {
            "astId": 4969,
            "contract": "contracts/FundV1.sol:FundV1",
            "label": "adminRole",
            "offset": 0,
            "slot": "1",
            "type": "t_bytes32"
          }
        ],
        "numberOfBytes": "64"
      },
      "t_struct(Set)9089_storage": {
        "encoding": "inplace",
        "label": "struct EnumerableSet.Set",
        "members": [
          {
            "astId": 9084,
            "contract": "contracts/FundV1.sol:FundV1",
            "label": "_values",
            "offset": 0,
            "slot": "0",
            "type": "t_array(t_bytes32)dyn_storage"
          },
          {
            "astId": 9088,
            "contract": "contracts/FundV1.sol:FundV1",
            "label": "_indexes",
            "offset": 0,
            "slot": "1",
            "type": "t_mapping(t_bytes32,t_uint256)"
          }
        ],
        "numberOfBytes": "64"
      },
      "t_uint256": {
        "encoding": "inplace",
        "label": "uint256",
        "numberOfBytes": "32"
      }
    }
  }
}