{
  "address": "0xBd2C97F1ACB35a701cD13c4ecc8D46B20E8F938b",
  "abi": [
    {
      "inputs": [
        {
          "internalType": "address",
          "name": "_registry",
          "type": "address"
        }
      ],
      "stateMutability": "nonpayable",
      "type": "constructor"
    },
    {
      "inputs": [],
      "name": "CheckAlreadyApproved",
      "type": "error"
    },
    {
      "inputs": [],
      "name": "Forbidden",
      "type": "error"
    },
    {
      "inputs": [
        {
          "internalType": "bytes32",
          "name": "",
          "type": "bytes32"
        }
      ],
      "name": "MissingRole",
      "type": "error"
    },
    {
      "inputs": [],
      "name": "NoZeroChecks",
      "type": "error"
    },
    {
      "inputs": [],
      "name": "NotAllowed",
      "type": "error"
    },
    {
      "anonymous": false,
      "inputs": [
        {
          "indexed": true,
          "internalType": "uint256",
          "name": "id",
          "type": "uint256"
        },
        {
          "indexed": true,
          "internalType": "bytes32",
          "name": "check",
          "type": "bytes32"
        },
        {
          "indexed": true,
          "internalType": "address",
          "name": "approver",
          "type": "address"
        }
      ],
      "name": "CheckApproved",
      "type": "event"
    },
    {
      "anonymous": false,
      "inputs": [
        {
          "indexed": true,
          "internalType": "uint256",
          "name": "id",
          "type": "uint256"
        },
        {
          "indexed": true,
          "internalType": "uint256",
          "name": "fundId",
          "type": "uint256"
        },
        {
          "indexed": true,
          "internalType": "address",
          "name": "recipient",
          "type": "address"
        },
        {
          "indexed": false,
          "internalType": "uint256",
          "name": "amount",
          "type": "uint256"
        },
        {
          "indexed": false,
          "internalType": "address",
          "name": "token",
          "type": "address"
        },
        {
          "indexed": false,
          "internalType": "string",
          "name": "description",
          "type": "string"
        },
        {
          "indexed": false,
          "internalType": "bytes32[]",
          "name": "checks",
          "type": "bytes32[]"
        }
      ],
      "name": "RequestCreated",
      "type": "event"
    },
    {
      "anonymous": false,
      "inputs": [
        {
          "indexed": true,
          "internalType": "bytes32",
          "name": "role",
          "type": "bytes32"
        },
        {
          "indexed": true,
          "internalType": "bytes32",
          "name": "previousAdminRole",
          "type": "bytes32"
        },
        {
          "indexed": true,
          "internalType": "bytes32",
          "name": "newAdminRole",
          "type": "bytes32"
        }
      ],
      "name": "RoleAdminChanged",
      "type": "event"
    },
    {
      "anonymous": false,
      "inputs": [
        {
          "indexed": true,
          "internalType": "bytes32",
          "name": "role",
          "type": "bytes32"
        },
        {
          "indexed": true,
          "internalType": "address",
          "name": "account",
          "type": "address"
        },
        {
          "indexed": true,
          "internalType": "address",
          "name": "sender",
          "type": "address"
        }
      ],
      "name": "RoleGranted",
      "type": "event"
    },
    {
      "anonymous": false,
      "inputs": [
        {
          "indexed": true,
          "internalType": "bytes32",
          "name": "role",
          "type": "bytes32"
        },
        {
          "indexed": true,
          "internalType": "address",
          "name": "account",
          "type": "address"
        },
        {
          "indexed": true,
          "internalType": "address",
          "name": "sender",
          "type": "address"
        }
      ],
      "name": "RoleRevoked",
      "type": "event"
    },
    {
      "anonymous": false,
      "inputs": [
        {
          "indexed": true,
          "internalType": "uint256",
          "name": "id",
          "type": "uint256"
        },
        {
          "indexed": true,
          "internalType": "enum RequestManager.Status",
          "name": "status",
          "type": "uint8"
        }
      ],
      "name": "StatusChange",
      "type": "event"
    },
    {
      "inputs": [],
      "name": "APPROVER_ROLE",
      "outputs": [
        {
          "internalType": "bytes32",
          "name": "",
          "type": "bytes32"
        }
      ],
      "stateMutability": "view",
      "type": "function"
    },
    {
      "inputs": [],
      "name": "AUDIT_ROLE",
      "outputs": [
        {
          "internalType": "bytes32",
          "name": "",
          "type": "bytes32"
        }
      ],
      "stateMutability": "view",
      "type": "function"
    },
    {
      "inputs": [],
      "name": "DEFAULT_ADMIN_ROLE",
      "outputs": [
        {
          "internalType": "bytes32",
          "name": "",
          "type": "bytes32"
        }
      ],
      "stateMutability": "view",
      "type": "function"
    },
    {
      "inputs": [],
      "name": "EXECUTOR_ROLE",
      "outputs": [
        {
          "internalType": "bytes32",
          "name": "",
          "type": "bytes32"
        }
      ],
      "stateMutability": "view",
      "type": "function"
    },
    {
      "inputs": [],
      "name": "FINALIZER_ROLE",
      "outputs": [
        {
          "internalType": "bytes32",
          "name": "",
          "type": "bytes32"
        }
      ],
      "stateMutability": "view",
      "type": "function"
    },
    {
      "inputs": [
        {
          "internalType": "bytes32",
          "name": "_check",
          "type": "bytes32"
        }
      ],
      "name": "addCheck",
      "outputs": [
        {
          "internalType": "bool",
          "name": "",
          "type": "bool"
        }
      ],
      "stateMutability": "nonpayable",
      "type": "function"
    },
    {
      "inputs": [],
      "name": "allChecks",
      "outputs": [
        {
          "internalType": "bytes32[]",
          "name": "",
          "type": "bytes32[]"
        }
      ],
      "stateMutability": "view",
      "type": "function"
    },
    {
      "inputs": [
        {
          "internalType": "uint256",
          "name": "_id",
          "type": "uint256"
        },
        {
          "internalType": "bytes32",
          "name": "_check",
          "type": "bytes32"
        }
      ],
      "name": "approveCheck",
      "outputs": [
        {
          "internalType": "bool",
          "name": "",
          "type": "bool"
        }
      ],
      "stateMutability": "nonpayable",
      "type": "function"
    },
    {
      "inputs": [
        {
          "internalType": "uint256",
          "name": "_amount",
          "type": "uint256"
        },
        {
          "internalType": "address",
          "name": "_tokenAddress",
          "type": "address"
        },
        {
          "internalType": "address",
          "name": "_recipient",
          "type": "address"
        },
        {
          "internalType": "uint256",
          "name": "_fundId",
          "type": "uint256"
        },
        {
          "internalType": "uint256[2]",
          "name": "_coordinates",
          "type": "uint256[2]"
        },
        {
          "internalType": "string",
          "name": "_description",
          "type": "string"
        }
      ],
      "name": "createRequest",
      "outputs": [
        {
          "internalType": "uint256",
          "name": "",
          "type": "uint256"
        }
      ],
      "stateMutability": "nonpayable",
      "type": "function"
    },
    {
      "inputs": [
        {
          "internalType": "uint256",
          "name": "_id",
          "type": "uint256"
        }
      ],
      "name": "getApprovalStatus",
      "outputs": [
        {
          "internalType": "uint256",
          "name": "",
          "type": "uint256"
        },
        {
          "internalType": "uint256",
          "name": "",
          "type": "uint256"
        }
      ],
      "stateMutability": "view",
      "type": "function"
    },
    {
      "inputs": [
        {
          "internalType": "uint256",
          "name": "_id",
          "type": "uint256"
        },
        {
          "internalType": "bytes32",
          "name": "_check",
          "type": "bytes32"
        }
      ],
      "name": "getApprover",
      "outputs": [
        {
          "internalType": "address",
          "name": "",
          "type": "address"
        }
      ],
      "stateMutability": "view",
      "type": "function"
    },
    {
      "inputs": [
        {
          "internalType": "uint256",
          "name": "_index",
          "type": "uint256"
        }
      ],
      "name": "getCheck",
      "outputs": [
        {
          "internalType": "bytes32",
          "name": "",
          "type": "bytes32"
        }
      ],
      "stateMutability": "view",
      "type": "function"
    },
    {
      "inputs": [
        {
          "internalType": "uint256",
          "name": "_id",
          "type": "uint256"
        }
      ],
      "name": "getChecks",
      "outputs": [
        {
          "internalType": "bytes32[]",
          "name": "",
          "type": "bytes32[]"
        }
      ],
      "stateMutability": "view",
      "type": "function"
    },
    {
      "inputs": [
        {
          "internalType": "uint256",
          "name": "_id",
          "type": "uint256"
        }
      ],
      "name": "getRemainingChecks",
      "outputs": [
        {
          "internalType": "bytes32[]",
          "name": "",
          "type": "bytes32[]"
        }
      ],
      "stateMutability": "view",
      "type": "function"
    },
    {
      "inputs": [
        {
          "internalType": "bytes32",
          "name": "role",
          "type": "bytes32"
        }
      ],
      "name": "getRoleAdmin",
      "outputs": [
        {
          "internalType": "bytes32",
          "name": "",
          "type": "bytes32"
        }
      ],
      "stateMutability": "view",
      "type": "function"
    },
    {
      "inputs": [
        {
          "internalType": "uint256",
          "name": "_id",
          "type": "uint256"
        }
      ],
      "name": "getStatus",
      "outputs": [
        {
          "internalType": "enum RequestManager.Status",
          "name": "",
          "type": "uint8"
        }
      ],
      "stateMutability": "view",
      "type": "function"
    },
    {
      "inputs": [
        {
          "internalType": "bytes32",
          "name": "role",
          "type": "bytes32"
        },
        {
          "internalType": "address",
          "name": "account",
          "type": "address"
        }
      ],
      "name": "grantRole",
      "outputs": [],
      "stateMutability": "nonpayable",
      "type": "function"
    },
    {
      "inputs": [
        {
          "internalType": "bytes32",
          "name": "role",
          "type": "bytes32"
        },
        {
          "internalType": "address",
          "name": "account",
          "type": "address"
        }
      ],
      "name": "hasRole",
      "outputs": [
        {
          "internalType": "bool",
          "name": "",
          "type": "bool"
        }
      ],
      "stateMutability": "view",
      "type": "function"
    },
    {
      "inputs": [
        {
          "internalType": "uint256",
          "name": "_index",
          "type": "uint256"
        }
      ],
      "name": "removeCheck",
      "outputs": [
        {
          "internalType": "bool",
          "name": "",
          "type": "bool"
        }
      ],
      "stateMutability": "nonpayable",
      "type": "function"
    },
    {
      "inputs": [
        {
          "internalType": "bytes32",
          "name": "role",
          "type": "bytes32"
        },
        {
          "internalType": "address",
          "name": "account",
          "type": "address"
        }
      ],
      "name": "renounceRole",
      "outputs": [],
      "stateMutability": "nonpayable",
      "type": "function"
    },
    {
      "inputs": [
        {
          "internalType": "bytes32",
          "name": "role",
          "type": "bytes32"
        },
        {
          "internalType": "address",
          "name": "account",
          "type": "address"
        }
      ],
      "name": "revokeRole",
      "outputs": [],
      "stateMutability": "nonpayable",
      "type": "function"
    },
    {
      "inputs": [
        {
          "internalType": "bytes4",
          "name": "interfaceId",
          "type": "bytes4"
        }
      ],
      "name": "supportsInterface",
      "outputs": [
        {
          "internalType": "bool",
          "name": "",
          "type": "bool"
        }
      ],
      "stateMutability": "view",
      "type": "function"
    }
  ],
  "transactionHash": "0x664f2524f3942c3f201f39e6e63002f59dfe73ac591356ec6023edbf1e4df230",
  "args": [
    "0xCE43F7B45BbBe0E9f4c4E4EDa11ed9bdbED562Bf"
  ],
  "numDeployments": 4,
  "solcInputHash": "b5125ff03efe129277a825bcce0b6f8b",
  "bytecode": "0x60806040523480156200001157600080fd5b5060405162001b4338038062001b43833981016040819052620000349162000113565b6200004160003362000063565b600280546001600160a01b0319166001600160a01b0383161790555062000145565b6200006f828262000073565b5050565b6000828152602081815260408083206001600160a01b038516845290915290205460ff166200006f576000828152602081815260408083206001600160a01b03851684529091529020805460ff19166001179055620000cf3390565b6001600160a01b0316816001600160a01b0316837f2f8788117e7eff1d82e926ec794901d17c78024a50270940304540a733656f0d60405160405180910390a45050565b6000602082840312156200012657600080fd5b81516001600160a01b03811681146200013e57600080fd5b9392505050565b6119ee80620001556000396000f3fe608060405234801561001057600080fd5b50600436106101425760003560e01c80635c622a0e116100b8578063a217fddf1161007c578063a217fddf1461030f578063c35c68fd14610317578063cf16fd0b14610342578063d547741f1461036a578063e1d3c4e11461037d578063e79a7bbb1461039057600080fd5b80635c622a0e146102a357806377a80589146102c35780637918d3fe146102d657806391d14854146102e95780639db797f0146102fc57600080fd5b806336568abe1161010a57806336568abe146101f55780633b5862c1146102085780633df55efd1461021b5780634245962b146102425780634307252b14610269578063503642bb1461027c57600080fd5b8063015887d61461014757806301ffc9a71461016557806307bd026514610188578063248a9ca3146101bd5780632f2ff15d146101e0575b600080fd5b61014f6103a3565b60405161015c9190611423565b60405180910390f35b610178610173366004611436565b6103fb565b604051901515815260200161015c565b6101af7fd8aa0f3194971a2a116679f7c2090f6939c8d4e01a2a8d7e41d55e5351469e6381565b60405190815260200161015c565b6101af6101cb366004611460565b60009081526020819052604090206001015490565b6101f36101ee366004611491565b610432565b005b6101f3610203366004611491565b61045d565b610178610216366004611460565b6104e0565b6101af7f53ea8c2084bd069d8c2df22bdca7223415cd9c0b605c29d1a0d06f15fcd3eed481565b6101af7f408a36151f841709116a4e8aca4e0202874f7f54687dcb863b1ea4672dc9d8cf81565b6101af6102773660046115a1565b610543565b6101af7f5db53b6955dc773ef555b3cc1835ee528ea8da7adbe1cd523fbff73209b77e0b81565b6102b66102b1366004611460565b6106f4565b60405161015c9190611677565b6101786102d1366004611460565b61072d565b61014f6102e4366004611460565b610793565b6101786102f7366004611491565b6107c1565b6101af61030a366004611460565b6107ea565b6101af600081565b61032a61032536600461169f565b610811565b6040516001600160a01b03909116815260200161015c565b610355610350366004611460565b610856565b6040805192835260208301919091520161015c565b6101f3610378366004611491565b6108ba565b61014f61038b366004611460565b6108e0565b61017861039e36600461169f565b61090e565b606060018054806020026020016040519081016040528092919081815260200182805480156103f157602002820191906000526020600020905b8154815260200190600101908083116103dd575b5050505050905090565b60006001600160e01b03198216637965db0b60e01b148061042c57506301ffc9a760e01b6001600160e01b03198316145b92915050565b60008281526020819052604090206001015461044e8133610a4f565b6104588383610ab3565b505050565b6001600160a01b03811633146104d25760405162461bcd60e51b815260206004820152602f60248201527f416363657373436f6e74726f6c3a2063616e206f6e6c792072656e6f756e636560448201526e103937b632b9903337b91039b2b63360891b60648201526084015b60405180910390fd5b6104dc8282610b37565b5050565b60007f5db53b6955dc773ef555b3cc1835ee528ea8da7adbe1cd523fbff73209b77e0b61050d8133610a4f565b600180541161052f57604051631acfaa2560e21b815260040160405180910390fd5b61053a600184610b9c565b50600192915050565b6003805460018101808355600083815292839183908110610566576105666116c1565b60009182526020909120600c9091020182815560048101805460ff60a01b1916905590506105bc856040805180820182526000808252602091820152815180830190925282518252918201519181019190915290565b805160058301556020015160068201556004810180546001600160a01b03808a166001600160a01b03199283161790925560018301889055600283018b9055600383018054928b1692909116919091179055600061061987610c36565b805190915060005b8181101561069b5761065883828151811061063e5761063e6116c1565b602002602001015185600701610cb290919063ffffffff16565b5061068883828151811061066e5761066e6116c1565b602002602001015185600901610cb290919063ffffffff16565b5080610693816116ed565b915050610621565b896001600160a01b031689867fd0926f4c4dd6e5efde246a3dad7a52a499645d9f335a165cc978f494a029b42b8f8f8c896040516106dc9493929190611764565b60405180910390a450929a9950505050505050505050565b600060038281548110610709576107096116c1565b60009182526020909120600c9091020160040154600160a01b900460ff1692915050565b60007f5db53b6955dc773ef555b3cc1835ee528ea8da7adbe1cd523fbff73209b77e0b61075a8133610a4f565b505060018054808201825560008290527fb10e2d527612073b26eecdfd717e6a320cf44b4afac2b0732d9fcbe2b7fa0cf6019190915590565b606061042c600383815481106107ab576107ab6116c1565b90600052602060002090600c0201600701610cbe565b6000918252602082815260408084206001600160a01b0393909316845291905290205460ff1690565b6000600182815481106107ff576107ff6116c1565b90600052602060002001549050919050565b600060038381548110610826576108266116c1565b60009182526020808320948352600c91909102909301600b019092525060409020546001600160a01b0316919050565b6000806108856003848154811061086f5761086f6116c1565b90600052602060002090600c0201600901610cc9565b6108b16003858154811061089b5761089b6116c1565b90600052602060002090600c0201600701610cc9565b91509150915091565b6000828152602081905260409020600101546108d68133610a4f565b6104588383610b37565b606061042c600383815481106108f8576108f86116c1565b90600052602060002090600c0201600901610cbe565b600080838160038281548110610926576109266116c1565b90600052602060002090600c020160040160149054906101000a900460ff16600381111561095657610956611661565b1461097457604051631eb49d6d60e11b815260040160405180910390fd5b600060038681548110610989576109896116c1565b90600052602060002090600c020190506109a38186610cd3565b6109c057604051631eb49d6d60e11b815260040160405180910390fd5b6109cd8160010154610d0a565b6109d78186610e63565b6040513390869088907fface4d67e840993602827c65c505949d0f37252fde8a09ce7399271efc8b701f90600090a4610a1281600901610cc9565b610a1f57610a1f81610e90565b60016004820154600160a01b900460ff166003811115610a4157610a41611661565b506001979650505050505050565b610a5982826107c1565b6104dc57610a71816001600160a01b03166014610f8a565b610a7c836020610f8a565b604051602001610a8d9291906117ab565b60408051601f198184030181529082905262461bcd60e51b82526104c991600401611820565b610abd82826107c1565b6104dc576000828152602081815260408083206001600160a01b03851684529091529020805460ff19166001179055610af33390565b6001600160a01b0316816001600160a01b0316837f2f8788117e7eff1d82e926ec794901d17c78024a50270940304540a733656f0d60405160405180910390a45050565b610b4182826107c1565b156104dc576000828152602081815260408083206001600160a01b0385168085529252808320805460ff1916905551339285917ff6391f5c32d9c69d2a47ea670b442974b53935d1edc7fd64eb21e047a839171b9190a45050565b8154610ba757600080fd5b8154610bb590600190611833565b811115610bc157600080fd5b81548290610bd190600190611833565b81548110610be157610be16116c1565b9060005260206000200154828281548110610bfe57610bfe6116c1565b906000526020600020018190555081805480610c1c57610c1c61184a565b600190038181906000526020600020016000905590555050565b60606000610c4383611126565b9050806001600160a01b031663015887d66040518163ffffffff1660e01b8152600401600060405180830381865afa158015610c83573d6000803e3d6000fd5b505050506040513d6000823e601f3d908101601f19168201604052610cab9190810190611860565b9392505050565b6000610cab83836111b8565b606061042c82611207565b600061042c825490565b6000610ce26009840183611263565b8015610cab5750506000908152600b9190910160205260409020546001600160a01b03161590565b6000610d1582611126565b9050806001600160a01b03166347535d7b6040518163ffffffff1660e01b8152600401602060405180830381865afa158015610d55573d6000803e3d6000fd5b505050506040513d601f19601f82011682018060405250810190610d799190611906565b610d9657604051631eb49d6d60e11b815260040160405180910390fd5b604051632474521560e21b81527f408a36151f841709116a4e8aca4e0202874f7f54687dcb863b1ea4672dc9d8cf60048201523360248201526001600160a01b038216906391d1485490604401602060405180830381865afa158015610e00573d6000803e3d6000fd5b505050506040513d601f19601f82011682018060405250810190610e249190611906565b6104dc5760405163322ce61b60e11b81527f408a36151f841709116a4e8aca4e0202874f7f54687dcb863b1ea4672dc9d8cf60048201526024016104c9565b6000818152600b83016020526040902080546001600160a01b03191633179055610458600983018261127b565b6004810154600390600160a01b900460ff1681811115610eb257610eb2611661565b60ff161415610ed457604051631eb49d6d60e11b815260040160405180910390fd5b6004810154600160a01b900460ff166003811115610ef457610ef4611661565b610eff906001611928565b60ff166003811115610f1357610f13611661565b60048201805460ff60a01b1916600160a01b836003811115610f3757610f37611661565b02179055506004810154600160a01b900460ff166003811115610f5c57610f5c611661565b81546040517fddb4724e22824d7ff5149b1823d5658f841f871f8bb749de56e8ab88ca8ac1a790600090a350565b60606000610f9983600261194d565b610fa490600261196c565b67ffffffffffffffff811115610fbc57610fbc6114c1565b6040519080825280601f01601f191660200182016040528015610fe6576020820181803683370190505b509050600360fc1b81600081518110611001576110016116c1565b60200101906001600160f81b031916908160001a905350600f60fb1b81600181518110611030576110306116c1565b60200101906001600160f81b031916908160001a905350600061105484600261194d565b61105f90600161196c565b90505b60018111156110d7576f181899199a1a9b1b9c1cb0b131b232b360811b85600f1660108110611093576110936116c1565b1a60f81b8282815181106110a9576110a96116c1565b60200101906001600160f81b031916908160001a90535060049490941c936110d081611984565b9050611062565b508315610cab5760405162461bcd60e51b815260206004820181905260248201527f537472696e67733a20686578206c656e67746820696e73756666696369656e7460448201526064016104c9565b6000806111416b232aa7222fa6a0a720a3a2a960a11b611287565b6040516337b0420360e01b8152600481018590529091506000906001600160a01b038316906337b0420390602401602060405180830381865afa15801561118c573d6000803e3d6000fd5b505050506040513d601f19601f820116820180604052508101906111b0919061199b565b949350505050565b60008181526001830160205260408120546111ff5750815460018181018455600084815260208082209093018490558454848252828601909352604090209190915561042c565b50600061042c565b60608160000180548060200260200160405190810160405280929190818152602001828054801561125757602002820191906000526020600020905b815481526020019060010190808311611243575b50505050509050919050565b60008181526001830160205260408120541515610cab565b6000610cab83836112f5565b60025460405163023aa9ab60e61b8152600481018390526000916001600160a01b031690638eaa6ac090602401602060405180830381865afa1580156112d1573d6000803e3d6000fd5b505050506040513d601f19601f8201168201806040525081019061042c919061199b565b600081815260018301602052604081205480156113de576000611319600183611833565b855490915060009061132d90600190611833565b905081811461139257600086600001828154811061134d5761134d6116c1565b9060005260206000200154905080876000018481548110611370576113706116c1565b6000918252602080832090910192909255918252600188019052604090208390555b85548690806113a3576113a361184a565b60019003818190600052602060002001600090559055856001016000868152602001908152602001600020600090556001935050505061042c565b600091505061042c565b600081518084526020808501945080840160005b83811015611418578151875295820195908201906001016113fc565b509495945050505050565b602081526000610cab60208301846113e8565b60006020828403121561144857600080fd5b81356001600160e01b031981168114610cab57600080fd5b60006020828403121561147257600080fd5b5035919050565b6001600160a01b038116811461148e57600080fd5b50565b600080604083850312156114a457600080fd5b8235915060208301356114b681611479565b809150509250929050565b634e487b7160e01b600052604160045260246000fd5b6040805190810167ffffffffffffffff811182821017156114fa576114fa6114c1565b60405290565b604051601f8201601f1916810167ffffffffffffffff81118282101715611529576115296114c1565b604052919050565b600082601f83011261154257600080fd5b813567ffffffffffffffff81111561155c5761155c6114c1565b61156f601f8201601f1916602001611500565b81815284602083860101111561158457600080fd5b816020850160208301376000918101602001919091529392505050565b60008060008060008060e087890312156115ba57600080fd5b863595506020808801356115cd81611479565b955060408801356115dd81611479565b945060608801359350609f880189136115f557600080fd5b6115fd6114d7565b8060c08a018b81111561160f57600080fd5b60808b015b8181101561162b5780358452928401928401611614565b509094503591505067ffffffffffffffff81111561164857600080fd5b61165489828a01611531565b9150509295509295509295565b634e487b7160e01b600052602160045260246000fd5b602081016004831061169957634e487b7160e01b600052602160045260246000fd5b91905290565b600080604083850312156116b257600080fd5b50508035926020909101359150565b634e487b7160e01b600052603260045260246000fd5b634e487b7160e01b600052601160045260246000fd5b6000600019821415611701576117016116d7565b5060010190565b60005b8381101561172357818101518382015260200161170b565b83811115611732576000848401525b50505050565b60008151808452611750816020860160208601611708565b601f01601f19169290920160200192915050565b8481526001600160a01b038416602082015260806040820181905260009061178e90830185611738565b82810360608401526117a081856113e8565b979650505050505050565b7f416363657373436f6e74726f6c3a206163636f756e74200000000000000000008152600083516117e3816017850160208801611708565b7001034b99036b4b9b9b4b733903937b6329607d1b6017918401918201528351611814816028840160208801611708565b01602801949350505050565b602081526000610cab6020830184611738565b600082821015611845576118456116d7565b500390565b634e487b7160e01b600052603160045260246000fd5b6000602080838503121561187357600080fd5b825167ffffffffffffffff8082111561188b57600080fd5b818501915085601f83011261189f57600080fd5b8151818111156118b1576118b16114c1565b8060051b91506118c2848301611500565b81815291830184019184810190888411156118dc57600080fd5b938501935b838510156118fa578451825293850193908501906118e1565b98975050505050505050565b60006020828403121561191857600080fd5b81518015158114610cab57600080fd5b600060ff821660ff84168060ff03821115611945576119456116d7565b019392505050565b6000816000190483118215151615611967576119676116d7565b500290565b6000821982111561197f5761197f6116d7565b500190565b600081611993576119936116d7565b506000190190565b6000602082840312156119ad57600080fd5b8151610cab8161147956fea26469706673582212206e870a1495e41dc0b78ea530568c50236600adc3b4633742d2f249dda7bd06bf64736f6c634300080a0033",
  "devdoc": {
    "kind": "dev",
    "methods": {
      "approveCheck(uint256,bytes32)": {
        "details": "initiate a request",
        "params": {
          "_check": "check to approve",
          "_id": "type of the request"
        },
        "returns": {
          "_0": "boolean indicating op result"
        }
      },
      "createRequest(uint256,address,address,uint256,uint256[2],string)": {
        "details": "initiate a request",
        "params": {
          "_amount": "requested amount from the fund",
          "_coordinates": "coordinates pointing to request location",
          "_description": "a short description of the request",
          "_fundId": "id of the fund requested from",
          "_recipient": "ultimate recipient of the funds requested",
          "_tokenAddress": "token address"
        },
        "returns": {
          "_0": "id (index) of the initiated request"
        }
      },
      "getApprovalStatus(uint256)": {
        "details": "get approval status",
        "params": {
          "_id": "request ID"
        },
        "returns": {
          "_0": "tuple of (pending, all) checks"
        }
      },
      "getApprover(uint256,bytes32)": {
        "details": "get approver address for a check",
        "params": {
          "_check": "check",
          "_id": "request ID"
        },
        "returns": {
          "_0": "remaining checks"
        }
      },
      "getChecks(uint256)": {
        "details": "get checks for a request",
        "params": {
          "_id": "request ID"
        },
        "returns": {
          "_0": "checks"
        }
      },
      "getRemainingChecks(uint256)": {
        "details": "get remaining checks for a request",
        "params": {
          "_id": "request ID"
        },
        "returns": {
          "_0": "remaining checks"
        }
      },
      "getRoleAdmin(bytes32)": {
        "details": "Returns the admin role that controls `role`. See {grantRole} and {revokeRole}. To change a role's admin, use {_setRoleAdmin}."
      },
      "getStatus(uint256)": {
        "details": "get request status",
        "params": {
          "_id": "request ID"
        },
        "returns": {
          "_0": "request status"
        }
      },
      "grantRole(bytes32,address)": {
        "details": "Grants `role` to `account`. If `account` had not been already granted `role`, emits a {RoleGranted} event. Requirements: - the caller must have ``role``'s admin role."
      },
      "hasRole(bytes32,address)": {
        "details": "Returns `true` if `account` has been granted `role`."
      },
      "renounceRole(bytes32,address)": {
        "details": "Revokes `role` from the calling account. Roles are often managed via {grantRole} and {revokeRole}: this function's purpose is to provide a mechanism for accounts to lose their privileges if they are compromised (such as when a trusted device is misplaced). If the calling account had been revoked `role`, emits a {RoleRevoked} event. Requirements: - the caller must be `account`."
      },
      "revokeRole(bytes32,address)": {
        "details": "Revokes `role` from `account`. If `account` had been granted `role`, emits a {RoleRevoked} event. Requirements: - the caller must have ``role``'s admin role."
      },
      "supportsInterface(bytes4)": {
        "details": "See {IERC165-supportsInterface}."
      }
    },
    "version": 1
  },
  "userdoc": {
    "kind": "user",
    "methods": {},
    "version": 1
  },
  "storageLayout": {
    "storage": [
      {
        "astId": 24,
        "contract": "contracts/Governor.sol:Governor",
        "label": "_roles",
        "offset": 0,
        "slot": "0",
        "type": "t_mapping(t_bytes32,t_struct(RoleData)19_storage)"
      },
      {
        "astId": 4812,
        "contract": "contracts/Governor.sol:Governor",
        "label": "checks",
        "offset": 0,
        "slot": "1",
        "type": "t_array(t_bytes32)dyn_storage"
      },
      {
        "astId": 5893,
        "contract": "contracts/Governor.sol:Governor",
        "label": "registry",
        "offset": 0,
        "slot": "2",
        "type": "t_contract(Registry)6043"
      },
      {
        "astId": 6085,
        "contract": "contracts/Governor.sol:Governor",
        "label": "requests",
        "offset": 0,
        "slot": "3",
        "type": "t_array(t_struct(Request)6121_storage)dyn_storage"
      }
    ],
    "types": {
      "t_address": {
        "encoding": "inplace",
        "label": "address",
        "numberOfBytes": "20"
      },
      "t_array(t_bytes32)dyn_storage": {
        "base": "t_bytes32",
        "encoding": "dynamic_array",
        "label": "bytes32[]",
        "numberOfBytes": "32"
      },
      "t_array(t_struct(Request)6121_storage)dyn_storage": {
        "base": "t_struct(Request)6121_storage",
        "encoding": "dynamic_array",
        "label": "struct RequestManager.Request[]",
        "numberOfBytes": "32"
      },
      "t_bool": {
        "encoding": "inplace",
        "label": "bool",
        "numberOfBytes": "1"
      },
      "t_bytes32": {
        "encoding": "inplace",
        "label": "bytes32",
        "numberOfBytes": "32"
      },
      "t_contract(Registry)6043": {
        "encoding": "inplace",
        "label": "contract Registry",
        "numberOfBytes": "20"
      },
      "t_enum(Status)6094": {
        "encoding": "inplace",
        "label": "enum RequestManager.Status",
        "numberOfBytes": "1"
      },
      "t_mapping(t_address,t_bool)": {
        "encoding": "mapping",
        "key": "t_address",
        "label": "mapping(address => bool)",
        "numberOfBytes": "32",
        "value": "t_bool"
      },
      "t_mapping(t_bytes32,t_address)": {
        "encoding": "mapping",
        "key": "t_bytes32",
        "label": "mapping(bytes32 => address)",
        "numberOfBytes": "32",
        "value": "t_address"
      },
      "t_mapping(t_bytes32,t_struct(RoleData)19_storage)": {
        "encoding": "mapping",
        "key": "t_bytes32",
        "label": "mapping(bytes32 => struct AccessControl.RoleData)",
        "numberOfBytes": "32",
        "value": "t_struct(RoleData)19_storage"
      },
      "t_mapping(t_bytes32,t_uint256)": {
        "encoding": "mapping",
        "key": "t_bytes32",
        "label": "mapping(bytes32 => uint256)",
        "numberOfBytes": "32",
        "value": "t_uint256"
      },
      "t_struct(Bytes32Set)4182_storage": {
        "encoding": "inplace",
        "label": "struct EnumerableSet.Bytes32Set",
        "members": [
          {
            "astId": 4181,
            "contract": "contracts/Governor.sol:Governor",
            "label": "_inner",
            "offset": 0,
            "slot": "0",
            "type": "t_struct(Set)3988_storage"
          }
        ],
        "numberOfBytes": "64"
      },
      "t_struct(Coordinates)7196_storage": {
        "encoding": "inplace",
        "label": "struct Geo.Coordinates",
        "members": [
          {
            "astId": 7193,
            "contract": "contracts/Governor.sol:Governor",
            "label": "lat",
            "offset": 0,
            "slot": "0",
            "type": "t_uint256"
          },
          {
            "astId": 7195,
            "contract": "contracts/Governor.sol:Governor",
            "label": "lon",
            "offset": 0,
            "slot": "1",
            "type": "t_uint256"
          }
        ],
        "numberOfBytes": "64"
      },
      "t_struct(Request)6121_storage": {
        "encoding": "inplace",
        "label": "struct RequestManager.Request",
        "members": [
          {
            "astId": 6096,
            "contract": "contracts/Governor.sol:Governor",
            "label": "id",
            "offset": 0,
            "slot": "0",
            "type": "t_uint256"
          },
          {
            "astId": 6098,
            "contract": "contracts/Governor.sol:Governor",
            "label": "fundId",
            "offset": 0,
            "slot": "1",
            "type": "t_uint256"
          },
          {
            "astId": 6100,
            "contract": "contracts/Governor.sol:Governor",
            "label": "amount",
            "offset": 0,
            "slot": "2",
            "type": "t_uint256"
          },
          {
            "astId": 6102,
            "contract": "contracts/Governor.sol:Governor",
            "label": "token",
            "offset": 0,
            "slot": "3",
            "type": "t_address"
          },
          {
            "astId": 6104,
            "contract": "contracts/Governor.sol:Governor",
            "label": "recipient",
            "offset": 0,
            "slot": "4",
            "type": "t_address"
          },
          {
            "astId": 6107,
            "contract": "contracts/Governor.sol:Governor",
            "label": "status",
            "offset": 20,
            "slot": "4",
            "type": "t_enum(Status)6094"
          },
          {
            "astId": 6110,
            "contract": "contracts/Governor.sol:Governor",
            "label": "location",
            "offset": 0,
            "slot": "5",
            "type": "t_struct(Coordinates)7196_storage"
          },
          {
            "astId": 6113,
            "contract": "contracts/Governor.sol:Governor",
            "label": "checks",
            "offset": 0,
            "slot": "7",
            "type": "t_struct(Bytes32Set)4182_storage"
          },
          {
            "astId": 6116,
            "contract": "contracts/Governor.sol:Governor",
            "label": "pending",
            "offset": 0,
            "slot": "9",
            "type": "t_struct(Bytes32Set)4182_storage"
          },
          {
            "astId": 6120,
            "contract": "contracts/Governor.sol:Governor",
            "label": "approvals",
            "offset": 0,
            "slot": "11",
            "type": "t_mapping(t_bytes32,t_address)"
          }
        ],
        "numberOfBytes": "384"
      },
      "t_struct(RoleData)19_storage": {
        "encoding": "inplace",
        "label": "struct AccessControl.RoleData",
        "members": [
          {
            "astId": 16,
            "contract": "contracts/Governor.sol:Governor",
            "label": "members",
            "offset": 0,
            "slot": "0",
            "type": "t_mapping(t_address,t_bool)"
          },
          {
            "astId": 18,
            "contract": "contracts/Governor.sol:Governor",
            "label": "adminRole",
            "offset": 0,
            "slot": "1",
            "type": "t_bytes32"
          }
        ],
        "numberOfBytes": "64"
      },
      "t_struct(Set)3988_storage": {
        "encoding": "inplace",
        "label": "struct EnumerableSet.Set",
        "members": [
          {
            "astId": 3983,
            "contract": "contracts/Governor.sol:Governor",
            "label": "_values",
            "offset": 0,
            "slot": "0",
            "type": "t_array(t_bytes32)dyn_storage"
          },
          {
            "astId": 3987,
            "contract": "contracts/Governor.sol:Governor",
            "label": "_indexes",
            "offset": 0,
            "slot": "1",
            "type": "t_mapping(t_bytes32,t_uint256)"
          }
        ],
        "numberOfBytes": "64"
      },
      "t_uint256": {
        "encoding": "inplace",
        "label": "uint256",
        "numberOfBytes": "32"
      }
    }
  }
}