{
  "address": "0xdF63ced64a6008975eB419C96310eF5C601B4dEf",
  "abi": [
    {
      "inputs": [
        {
          "internalType": "address",
          "name": "_registry",
          "type": "address"
        }
      ],
      "stateMutability": "nonpayable",
      "type": "constructor"
    },
    {
      "inputs": [],
      "name": "Forbidden",
      "type": "error"
    },
    {
      "inputs": [
        {
          "internalType": "bytes32",
          "name": "",
          "type": "bytes32"
        }
      ],
      "name": "MissingRole",
      "type": "error"
    },
    {
      "inputs": [],
      "name": "NoZeroChecks",
      "type": "error"
    },
    {
      "inputs": [],
      "name": "NotAllowed",
      "type": "error"
    },
    {
      "anonymous": false,
      "inputs": [
        {
          "indexed": true,
          "internalType": "uint256",
          "name": "requestId",
          "type": "uint256"
        },
        {
          "indexed": true,
          "internalType": "bytes32",
          "name": "jobId",
          "type": "bytes32"
        },
        {
          "indexed": true,
          "internalType": "bytes32",
          "name": "oracleRequestId",
          "type": "bytes32"
        },
        {
          "indexed": false,
          "internalType": "bytes",
          "name": "data",
          "type": "bytes"
        }
      ],
      "name": "OracleRequest",
      "type": "event"
    },
    {
      "anonymous": false,
      "inputs": [
        {
          "indexed": true,
          "internalType": "uint256",
          "name": "id",
          "type": "uint256"
        },
        {
          "indexed": true,
          "internalType": "uint256",
          "name": "fundId",
          "type": "uint256"
        },
        {
          "indexed": true,
          "internalType": "address",
          "name": "recipient",
          "type": "address"
        },
        {
          "indexed": false,
          "internalType": "uint256",
          "name": "amount",
          "type": "uint256"
        },
        {
          "indexed": false,
          "internalType": "address",
          "name": "token",
          "type": "address"
        },
        {
          "indexed": false,
          "internalType": "string",
          "name": "description",
          "type": "string"
        },
        {
          "indexed": false,
          "internalType": "bytes32[2][]",
          "name": "checks",
          "type": "bytes32[2][]"
        }
      ],
      "name": "RequestCreated",
      "type": "event"
    },
    {
      "anonymous": false,
      "inputs": [
        {
          "indexed": true,
          "internalType": "bytes32",
          "name": "role",
          "type": "bytes32"
        },
        {
          "indexed": true,
          "internalType": "bytes32",
          "name": "previousAdminRole",
          "type": "bytes32"
        },
        {
          "indexed": true,
          "internalType": "bytes32",
          "name": "newAdminRole",
          "type": "bytes32"
        }
      ],
      "name": "RoleAdminChanged",
      "type": "event"
    },
    {
      "anonymous": false,
      "inputs": [
        {
          "indexed": true,
          "internalType": "bytes32",
          "name": "role",
          "type": "bytes32"
        },
        {
          "indexed": true,
          "internalType": "address",
          "name": "account",
          "type": "address"
        },
        {
          "indexed": true,
          "internalType": "address",
          "name": "sender",
          "type": "address"
        }
      ],
      "name": "RoleGranted",
      "type": "event"
    },
    {
      "anonymous": false,
      "inputs": [
        {
          "indexed": true,
          "internalType": "bytes32",
          "name": "role",
          "type": "bytes32"
        },
        {
          "indexed": true,
          "internalType": "address",
          "name": "account",
          "type": "address"
        },
        {
          "indexed": true,
          "internalType": "address",
          "name": "sender",
          "type": "address"
        }
      ],
      "name": "RoleRevoked",
      "type": "event"
    },
    {
      "anonymous": false,
      "inputs": [
        {
          "indexed": true,
          "internalType": "uint256",
          "name": "id",
          "type": "uint256"
        },
        {
          "indexed": true,
          "internalType": "uint256",
          "name": "check",
          "type": "uint256"
        },
        {
          "indexed": true,
          "internalType": "address",
          "name": "approver",
          "type": "address"
        },
        {
          "indexed": false,
          "internalType": "bool",
          "name": "approved",
          "type": "bool"
        }
      ],
      "name": "Signed",
      "type": "event"
    },
    {
      "anonymous": false,
      "inputs": [
        {
          "indexed": true,
          "internalType": "uint256",
          "name": "id",
          "type": "uint256"
        },
        {
          "indexed": true,
          "internalType": "enum RequestManager.Status",
          "name": "status",
          "type": "uint8"
        }
      ],
      "name": "StatusChange",
      "type": "event"
    },
    {
      "inputs": [],
      "name": "APPROVER_ROLE",
      "outputs": [
        {
          "internalType": "bytes32",
          "name": "",
          "type": "bytes32"
        }
      ],
      "stateMutability": "view",
      "type": "function"
    },
    {
      "inputs": [],
      "name": "AUDIT_ROLE",
      "outputs": [
        {
          "internalType": "bytes32",
          "name": "",
          "type": "bytes32"
        }
      ],
      "stateMutability": "view",
      "type": "function"
    },
    {
      "inputs": [],
      "name": "DEFAULT_ADMIN_ROLE",
      "outputs": [
        {
          "internalType": "bytes32",
          "name": "",
          "type": "bytes32"
        }
      ],
      "stateMutability": "view",
      "type": "function"
    },
    {
      "inputs": [],
      "name": "EXECUTOR_ROLE",
      "outputs": [
        {
          "internalType": "bytes32",
          "name": "",
          "type": "bytes32"
        }
      ],
      "stateMutability": "view",
      "type": "function"
    },
    {
      "inputs": [],
      "name": "FINALIZER_ROLE",
      "outputs": [
        {
          "internalType": "bytes32",
          "name": "",
          "type": "bytes32"
        }
      ],
      "stateMutability": "view",
      "type": "function"
    },
    {
      "inputs": [
        {
          "internalType": "uint256",
          "name": "_id",
          "type": "uint256"
        },
        {
          "internalType": "uint256",
          "name": "_checkId",
          "type": "uint256"
        }
      ],
      "name": "_packRequestWithCheck",
      "outputs": [
        {
          "internalType": "bytes",
          "name": "",
          "type": "bytes"
        }
      ],
      "stateMutability": "view",
      "type": "function"
    },
    {
      "inputs": [
        {
          "internalType": "bytes32[2]",
          "name": "_check",
          "type": "bytes32[2]"
        }
      ],
      "name": "addCheck",
      "outputs": [
        {
          "internalType": "bool",
          "name": "",
          "type": "bool"
        }
      ],
      "stateMutability": "nonpayable",
      "type": "function"
    },
    {
      "inputs": [],
      "name": "allChecks",
      "outputs": [
        {
          "internalType": "bytes32[2][]",
          "name": "",
          "type": "bytes32[2][]"
        }
      ],
      "stateMutability": "view",
      "type": "function"
    },
    {
      "inputs": [
        {
          "internalType": "uint256",
          "name": "_requestId",
          "type": "uint256"
        },
        {
          "internalType": "uint256",
          "name": "_checkId",
          "type": "uint256"
        },
        {
          "internalType": "bool",
          "name": "_success",
          "type": "bool"
        }
      ],
      "name": "approveCheck",
      "outputs": [
        {
          "internalType": "bool",
          "name": "",
          "type": "bool"
        }
      ],
      "stateMutability": "nonpayable",
      "type": "function"
    },
    {
      "inputs": [
        {
          "internalType": "uint256",
          "name": "_requestId",
          "type": "uint256"
        },
        {
          "internalType": "uint256",
          "name": "_checkId",
          "type": "uint256"
        }
      ],
      "name": "callOracle",
      "outputs": [
        {
          "internalType": "bool",
          "name": "",
          "type": "bool"
        }
      ],
      "stateMutability": "nonpayable",
      "type": "function"
    },
    {
      "inputs": [
        {
          "internalType": "uint256",
          "name": "_amount",
          "type": "uint256"
        },
        {
          "internalType": "address",
          "name": "_tokenAddress",
          "type": "address"
        },
        {
          "internalType": "address",
          "name": "_recipient",
          "type": "address"
        },
        {
          "internalType": "uint256",
          "name": "_fundId",
          "type": "uint256"
        },
        {
          "internalType": "uint256[2]",
          "name": "_coordinates",
          "type": "uint256[2]"
        },
        {
          "internalType": "string",
          "name": "_description",
          "type": "string"
        }
      ],
      "name": "createRequest",
      "outputs": [
        {
          "internalType": "uint256",
          "name": "",
          "type": "uint256"
        }
      ],
      "stateMutability": "nonpayable",
      "type": "function"
    },
    {
      "inputs": [
        {
          "internalType": "uint256",
          "name": "_index",
          "type": "uint256"
        }
      ],
      "name": "getCheck",
      "outputs": [
        {
          "internalType": "bytes32[2]",
          "name": "",
          "type": "bytes32[2]"
        }
      ],
      "stateMutability": "view",
      "type": "function"
    },
    {
      "inputs": [
        {
          "internalType": "uint256",
          "name": "_requestId",
          "type": "uint256"
        }
      ],
      "name": "getPendingChecksCount",
      "outputs": [
        {
          "internalType": "uint256",
          "name": "",
          "type": "uint256"
        }
      ],
      "stateMutability": "view",
      "type": "function"
    },
    {
      "inputs": [
        {
          "internalType": "bytes32",
          "name": "role",
          "type": "bytes32"
        }
      ],
      "name": "getRoleAdmin",
      "outputs": [
        {
          "internalType": "bytes32",
          "name": "",
          "type": "bytes32"
        }
      ],
      "stateMutability": "view",
      "type": "function"
    },
    {
      "inputs": [
        {
          "internalType": "uint256",
          "name": "_id",
          "type": "uint256"
        },
        {
          "internalType": "uint256",
          "name": "_checkId",
          "type": "uint256"
        }
      ],
      "name": "getSigner",
      "outputs": [
        {
          "internalType": "address",
          "name": "",
          "type": "address"
        }
      ],
      "stateMutability": "view",
      "type": "function"
    },
    {
      "inputs": [
        {
          "internalType": "uint256",
          "name": "_requestId",
          "type": "uint256"
        }
      ],
      "name": "getStatus",
      "outputs": [
        {
          "internalType": "enum RequestManager.Status",
          "name": "",
          "type": "uint8"
        }
      ],
      "stateMutability": "view",
      "type": "function"
    },
    {
      "inputs": [
        {
          "internalType": "bytes32",
          "name": "role",
          "type": "bytes32"
        },
        {
          "internalType": "address",
          "name": "account",
          "type": "address"
        }
      ],
      "name": "grantRole",
      "outputs": [],
      "stateMutability": "nonpayable",
      "type": "function"
    },
    {
      "inputs": [
        {
          "internalType": "bytes32",
          "name": "role",
          "type": "bytes32"
        },
        {
          "internalType": "address",
          "name": "account",
          "type": "address"
        }
      ],
      "name": "hasRole",
      "outputs": [
        {
          "internalType": "bool",
          "name": "",
          "type": "bool"
        }
      ],
      "stateMutability": "view",
      "type": "function"
    },
    {
      "inputs": [
        {
          "internalType": "uint256",
          "name": "_index",
          "type": "uint256"
        }
      ],
      "name": "removeCheck",
      "outputs": [
        {
          "internalType": "bool",
          "name": "",
          "type": "bool"
        }
      ],
      "stateMutability": "nonpayable",
      "type": "function"
    },
    {
      "inputs": [
        {
          "internalType": "bytes32",
          "name": "role",
          "type": "bytes32"
        },
        {
          "internalType": "address",
          "name": "account",
          "type": "address"
        }
      ],
      "name": "renounceRole",
      "outputs": [],
      "stateMutability": "nonpayable",
      "type": "function"
    },
    {
      "inputs": [
        {
          "internalType": "bytes32",
          "name": "role",
          "type": "bytes32"
        },
        {
          "internalType": "address",
          "name": "account",
          "type": "address"
        }
      ],
      "name": "revokeRole",
      "outputs": [],
      "stateMutability": "nonpayable",
      "type": "function"
    },
    {
      "inputs": [
        {
          "internalType": "bytes4",
          "name": "interfaceId",
          "type": "bytes4"
        }
      ],
      "name": "supportsInterface",
      "outputs": [
        {
          "internalType": "bool",
          "name": "",
          "type": "bool"
        }
      ],
      "stateMutability": "view",
      "type": "function"
    }
  ],
  "transactionHash": "0x420cb7ae84fe55ff3c51d1e30f248dc2c4ebce8477e057c1ebff38e89855464d",
  "args": [
    "0x3262A1f3948c171725B254e2ff69aE40904F5a37"
  ],
  "numDeployments": 4,
  "solcInputHash": "3a8b113aa9f8884b9ec38c78dfe8725f",
  "bytecode": "0x60806040523480156200001157600080fd5b5060405162001fcc38038062001fcc833981016040819052620000349162000113565b6200004160003362000063565b600280546001600160a01b0319166001600160a01b0383161790555062000145565b6200006f828262000073565b5050565b6000828152602081815260408083206001600160a01b038516845290915290205460ff166200006f576000828152602081815260408083206001600160a01b03851684529091529020805460ff19166001179055620000cf3390565b6001600160a01b0316816001600160a01b0316837f2f8788117e7eff1d82e926ec794901d17c78024a50270940304540a733656f0d60405160405180910390a45050565b6000602082840312156200012657600080fd5b81516001600160a01b03811681146200013e57600080fd5b9392505050565b611e7780620001556000396000f3fe608060405234801561001057600080fd5b50600436106101425760003560e01c80635c622a0e116100b85780639db797f01161007c5780639db797f01461031c578063a217fddf1461033c578063a8bd926f14610344578063c0a816ac14610357578063d547741f14610382578063e2b4dde21461039557600080fd5b80635c622a0e146102a35780636b787fd2146102c35780636ea5d55a146102e357806391d14854146102f65780639aee046b1461030957600080fd5b806336568abe1161010a57806336568abe146101f55780633b5862c1146102085780633df55efd1461021b5780634245962b146102425780634307252b14610269578063503642bb1461027c57600080fd5b8063015887d61461014757806301ffc9a71461016557806307bd026514610188578063248a9ca3146101bd5780632f2ff15d146101e0575b600080fd5b61014f6103a8565b60405161015c9190611672565b60405180910390f35b6101786101733660046116db565b610425565b604051901515815260200161015c565b6101af7fd8aa0f3194971a2a116679f7c2090f6939c8d4e01a2a8d7e41d55e5351469e6381565b60405190815260200161015c565b6101af6101cb366004611705565b60009081526020819052604090206001015490565b6101f36101ee366004611736565b61045c565b005b6101f3610203366004611736565b610487565b610178610216366004611705565b61050a565b6101af7f53ea8c2084bd069d8c2df22bdca7223415cd9c0b605c29d1a0d06f15fcd3eed481565b6101af7f408a36151f841709116a4e8aca4e0202874f7f54687dcb863b1ea4672dc9d8cf81565b6101af610277366004611846565b61056d565b6101af7f5db53b6955dc773ef555b3cc1835ee528ea8da7adbe1cd523fbff73209b77e0b81565b6102b66102b1366004611705565b61069d565b60405161015c919061193e565b6102d66102d136600461194c565b6106d6565b60405161015c91906119ca565b6101af6102f1366004611705565b610763565b610178610304366004611736565b610791565b61017861031736600461194c565b6107ba565b61032f61032a366004611705565b61097e565b60405161015c91906119dd565b6101af600081565b610178610352366004611a0e565b6109db565b61036a61036536600461194c565b610a54565b6040516001600160a01b03909116815260200161015c565b6101f3610390366004611736565b610a9e565b6101786103a3366004611a7c565b610ac4565b60606001805480602002602001604051908101604052809291908181526020016000905b8282101561041c5760008481526020902060408051808201918290529160028581029091019182845b8154815260200190600101908083116103f5575050505050815260200190600101906103cc565b50505050905090565b60006001600160e01b03198216637965db0b60e01b148061045657506301ffc9a760e01b6001600160e01b03198316145b92915050565b6000828152602081905260409020600101546104788133610beb565b6104828383610c4f565b505050565b6001600160a01b03811633146104fc5760405162461bcd60e51b815260206004820152602f60248201527f416363657373436f6e74726f6c3a2063616e206f6e6c792072656e6f756e636560448201526e103937b632b9903337b91039b2b63360891b60648201526084015b60405180910390fd5b6105068282610cd3565b5050565b60007f5db53b6955dc773ef555b3cc1835ee528ea8da7adbe1cd523fbff73209b77e0b6105378133610beb565b600180541161055957604051631acfaa2560e21b815260040160405180910390fd5b610564600184610d38565b50600192915050565b60008061057985610dec565b9050806001600160a01b031663b6e490876040518163ffffffff1660e01b8152600401602060405180830381865afa1580156105b9573d6000803e3d6000fd5b505050506040513d601f19601f820116820180604052508101906105dd9190611ab5565b6105fa57604051631eb49d6d60e11b815260040160405180910390fd5b604051633af32abf60e01b81523360048201526001600160a01b03821690633af32abf90602401602060405180830381865afa15801561063e573d6000803e3d6000fd5b505050506040513d601f19601f820116820180604052508101906106629190611ab5565b61067f57604051631eb49d6d60e11b815260040160405180910390fd5b600061069089898989868a8a610e7e565b9998505050505050505050565b6000600382815481106106b2576106b2611ad2565b60009182526020909120600a9091020160040154600160a01b900460ff1692915050565b60606000600384815481106106ed576106ed611ad2565b6000918252602091829020600a90910201805460048201546005830154600684015460018501546002860154600387015460405197995061074b988c9860ff600160a01b890416976001600160a01b03908116959493169101611ae8565b60405160208183030381529060405291505092915050565b60006003828154811061077857610778611ad2565b90600052602060002090600a0201600801549050919050565b6000918252602082815260408084206001600160a01b0393909316845291905290205460ff1690565b600080600384815481106107d0576107d0611ad2565b90600052602060002090600a0201905060008160070184815481106107f7576107f7611ad2565b600091825260209091206040805180820191829052926002908102909201919082845b81548152602001906001019080831161081a57505050505090506108418160200151151590565b61088d5760405162461bcd60e51b815260206004820152601960248201527f4175746f6d6174656420636865636b2072657175697265642e0000000000000060448201526064016104f3565b600061089986866106d6565b905060006108b86e27a920a1a622afa1a7a729aaa6a2a960891b610fd2565b6020840151604051637993a7a760e01b81526001600160a01b039290921691637993a7a7916108eb918690600401611b40565b6020604051808303816000875af115801561090a573d6000803e3d6000fd5b505050506040513d601f19601f8201168201806040525081019061092e9190611b59565b9050808360016020020151887f0b2ea59c28b498d446cb7a9cc2ef9fc6eca3c046ddf4756c88db73c7fae4de7b8560405161096991906119ca565b60405180910390a45060019695505050505050565b610986611566565b6001828154811061099957610999611ad2565b600091825260209091206040805180820191829052926002908102909201919082845b8154815260200190600101908083116109bc5750505050509050919050565b60007f5db53b6955dc773ef555b3cc1835ee528ea8da7adbe1cd523fbff73209b77e0b610a088133610beb565b600180548082018255600091909152610a4a9060029081027fb10e2d527612073b26eecdfd717e6a320cf44b4afac2b0732d9fcbe2b7fa0cf601908590611584565b5060019392505050565b600060038381548110610a6957610a69611ad2565b60009182526020808320948352600a9190910290930160090190925250604090205461010090046001600160a01b0316919050565b600082815260208190526040902060010154610aba8133610beb565b6104828383610cd3565b60008060038581548110610ada57610ada611ad2565b90600052602060002090600a020190506000610af98260010154610dec565b9050610b058286611040565b1580610b175750610b1581611088565b155b15610b3557604051631eb49d6d60e11b815260040160405180910390fd5b610b5f817f408a36151f841709116a4e8aca4e0202874f7f54687dcb863b1ea4672dc9d8cf6110ec565b610b9e5760405163322ce61b60e11b81527f408a36151f841709116a4e8aca4e0202874f7f54687dcb863b1ea4672dc9d8cf60048201526024016104f3565b610ba982868661115e565b6008820154610bbb57610bbb8261125c565b60016004830154600160a01b900460ff166003811115610bdd57610bdd611906565b506001979650505050505050565b610bf58282610791565b61050657610c0d816001600160a01b03166014611356565b610c18836020611356565b604051602001610c29929190611b72565b60408051601f198184030181529082905262461bcd60e51b82526104f3916004016119ca565b610c598282610791565b610506576000828152602081815260408083206001600160a01b03851684529091529020805460ff19166001179055610c8f3390565b6001600160a01b0316816001600160a01b0316837f2f8788117e7eff1d82e926ec794901d17c78024a50270940304540a733656f0d60405160405180910390a45050565b610cdd8282610791565b15610506576000828152602081815260408083206001600160a01b0385168085529252808320805460ff1916905551339285917ff6391f5c32d9c69d2a47ea670b442974b53935d1edc7fd64eb21e047a839171b9190a45050565b8154610d4357600080fd5b8154610d5190600190611bfd565b811115610d5d57600080fd5b81548290610d6d90600190611bfd565b81548110610d7d57610d7d611ad2565b9060005260206000209060020201828281548110610d9d57610d9d611ad2565b9060005260206000209060020201906002610db99291906115c2565b5081805480610dca57610dca611c14565b6000828152602081206002600019909301928302018181556001015590555050565b600080610e076b232aa7222fa6a0a720a3a2a960a11b610fd2565b6040516337b0420360e01b8152600481018590529091506000906001600160a01b038316906337b0420390602401602060405180830381865afa158015610e52573d6000803e3d6000fd5b505050506040513d601f19601f82011682018060405250810190610e769190611c2a565b949350505050565b6003805460018101808355600083815292839183908110610ea157610ea1611ad2565b60009182526020909120600a9091020182815560048101805460ff60a01b191690559050610ef7856040805180820182526000808252602091820152815180830190925282518252918201519181019190915290565b805160058301556020015160068201556004810180546001600160a01b03808b166001600160a01b03199283161790925560018301899055600283018c9055600383018054928c1692909116919091179055610f52866114f2565b8051610f689160078401916020909101906115ed565b5080600701805490508160080181905550876001600160a01b031687837fcf4f307f91969a61c390bf29a973ddd0a11601109d3586a4a87b4ae4820b53118d8d8987600701604051610fbd9493929190611c47565b60405180910390a45098975050505050505050565b60025460405163023aa9ab60e61b8152600481018390526000916001600160a01b031690638eaa6ac090602401602060405180830381865afa15801561101c573d6000803e3d6000fd5b505050506040513d601f19601f820116820180604052508101906104569190611c2a565b6000806004840154600160a01b900460ff16600381111561106357611063611906565b1480156110815750600082815260098401602052604090205460ff16155b9392505050565b6000816001600160a01b03166347535d7b6040518163ffffffff1660e01b8152600401602060405180830381865afa1580156110c8573d6000803e3d6000fd5b505050506040513d601f19601f820116820180604052508101906104569190611ab5565b604051632474521560e21b8152600481018290523360248201526000906001600160a01b038416906391d1485490604401602060405180830381865afa15801561113a573d6000803e3d6000fd5b505050506040513d601f19601f820116820180604052508101906110819190611ab5565b60008360080154116111a75760405162461bcd60e51b81526020600482015260126024820152712737903832b73234b7339031b432b1b5b99760711b60448201526064016104f3565b80156111c35760088301546111bd90600161155a565b60088401555b604080518082018252821515808252336020808401828152600088815260098a0183528690209451855491516001600160a81b0319909216901515610100600160a81b031916176101006001600160a01b0390921691909102179093558654935191825292859290917fbc39e138a9458bd0d43c125c566ada01ec7115b93b403823eb4deb739692c8ea910160405180910390a4505050565b6004810154600390600160a01b900460ff168181111561127e5761127e611906565b60ff1614156112a057604051631eb49d6d60e11b815260040160405180910390fd5b6004810154600160a01b900460ff1660038111156112c0576112c0611906565b6112cb906001611cdd565b60ff1660038111156112df576112df611906565b60048201805460ff60a01b1916600160a01b83600381111561130357611303611906565b02179055506004810154600160a01b900460ff16600381111561132857611328611906565b81546040517fddb4724e22824d7ff5149b1823d5658f841f871f8bb749de56e8ab88ca8ac1a790600090a350565b60606000611365836002611d02565b611370906002611d21565b67ffffffffffffffff81111561138857611388611766565b6040519080825280601f01601f1916602001820160405280156113b2576020820181803683370190505b509050600360fc1b816000815181106113cd576113cd611ad2565b60200101906001600160f81b031916908160001a905350600f60fb1b816001815181106113fc576113fc611ad2565b60200101906001600160f81b031916908160001a9053506000611420846002611d02565b61142b906001611d21565b90505b60018111156114a3576f181899199a1a9b1b9c1cb0b131b232b360811b85600f166010811061145f5761145f611ad2565b1a60f81b82828151811061147557611475611ad2565b60200101906001600160f81b031916908160001a90535060049490941c9361149c81611d39565b905061142e565b5083156110815760405162461bcd60e51b815260206004820181905260248201527f537472696e67733a20686578206c656e67746820696e73756666696369656e7460448201526064016104f3565b6060816001600160a01b031663015887d66040518163ffffffff1660e01b8152600401600060405180830381865afa158015611532573d6000803e3d6000fd5b505050506040513d6000823e601f3d908101601f191682016040526104569190810190611d50565b60006110818284611bfd565b60405180604001604052806002906020820280368337509192915050565b82600281019282156115b2579160200282015b828111156115b2578251825591602001919060010190611597565b506115be929150611643565b5090565b82600281019282156115b2579182015b828111156115b25782548255916001019190600101906115d2565b828054828255906000526020600020906002028101928215611637579160200282015b828111156116375782516116279083906002611584565b5091602001919060020190611610565b506115be929150611658565b5b808211156115be5760008155600101611644565b808211156115be5760008082556001820155600201611658565b60208082528251828201819052600091906040908185019086840185805b838110156116cd57825185835b60028110156116ba5782518252918901919089019060010161169d565b5050509385019391860191600101611690565b509298975050505050505050565b6000602082840312156116ed57600080fd5b81356001600160e01b03198116811461108157600080fd5b60006020828403121561171757600080fd5b5035919050565b6001600160a01b038116811461173357600080fd5b50565b6000806040838503121561174957600080fd5b82359150602083013561175b8161171e565b809150509250929050565b634e487b7160e01b600052604160045260246000fd5b6040805190810167ffffffffffffffff8111828210171561179f5761179f611766565b60405290565b604051601f8201601f1916810167ffffffffffffffff811182821017156117ce576117ce611766565b604052919050565b600082601f8301126117e757600080fd5b813567ffffffffffffffff81111561180157611801611766565b611814601f8201601f19166020016117a5565b81815284602083860101111561182957600080fd5b816020850160208301376000918101602001919091529392505050565b60008060008060008060e0878903121561185f57600080fd5b863595506020808801356118728161171e565b955060408801356118828161171e565b945060608801359350609f8801891361189a57600080fd5b6118a261177c565b8060c08a018b8111156118b457600080fd5b60808b015b818110156118d057803584529284019284016118b9565b509094503591505067ffffffffffffffff8111156118ed57600080fd5b6118f989828a016117d6565b9150509295509295509295565b634e487b7160e01b600052602160045260246000fd5b6004811061193a57634e487b7160e01b600052602160045260246000fd5b9052565b60208101610456828461191c565b6000806040838503121561195f57600080fd5b50508035926020909101359150565b60005b83811015611989578181015183820152602001611971565b83811115611998576000848401525b50505050565b600081518084526119b681602086016020860161196e565b601f01601f19169290920160200192915050565b602081526000611081602083018461199e565b60408101818360005b6002811015611a055781518352602092830192909101906001016119e6565b50505092915050565b600060408284031215611a2057600080fd5b82601f830112611a2f57600080fd5b611a3761177c565b806040840185811115611a4957600080fd5b845b81811015611a63578035845260209384019301611a4b565b509095945050505050565b801515811461173357600080fd5b600080600060608486031215611a9157600080fd5b83359250602084013591506040840135611aaa81611a6e565b809150509250925092565b600060208284031215611ac757600080fd5b815161108181611a6e565b634e487b7160e01b600052603260045260246000fd5b898152602081018990526101208101611b04604083018a61191c565b606082019790975260808101959095526001600160a01b0393841660a086015260c085019290925260e084015216610100909101529392505050565b828152604060208201526000610e76604083018461199e565b600060208284031215611b6b57600080fd5b5051919050565b7f416363657373436f6e74726f6c3a206163636f756e7420000000000000000000815260008351611baa81601785016020880161196e565b7001034b99036b4b9b9b4b733903937b6329607d1b6017918401918201528351611bdb81602884016020880161196e565b01602801949350505050565b634e487b7160e01b600052601160045260246000fd5b600082821015611c0f57611c0f611be7565b500390565b634e487b7160e01b600052603160045260246000fd5b600060208284031215611c3c57600080fd5b81516110818161171e565b8481526000602060018060a01b038616818401526040608081850152611c70608085018761199e565b848103606086015285548082526000878152848120909285019190835b82811015611ccc578382865b6002811015611cb657815483529189019160019182019101611c99565b5050509285019260029190910190600101611c8d565b50919b9a5050505050505050505050565b600060ff821660ff84168060ff03821115611cfa57611cfa611be7565b019392505050565b6000816000190483118215151615611d1c57611d1c611be7565b500290565b60008219821115611d3457611d34611be7565b500190565b600081611d4857611d48611be7565b506000190190565b60006020808385031215611d6357600080fd5b825167ffffffffffffffff80821115611d7b57600080fd5b8185019150601f8681840112611d9057600080fd5b825182811115611da257611da2611766565b611db0858260051b016117a5565b818152858101935060069190911b840185019088821115611dd057600080fd5b938501935b81851015611e35578883860112611dec5760008081fd5b611df461177c565b80604087018b811115611e075760008081fd5b875b81811015611e205780518452928901928901611e09565b50508552506040949094019392850192611dd5565b9897505050505050505056fea2646970667358221220edb350cef2bceff078ce7e47a5592c6b16f9c127b38c2b97493c52de6b3f1f3864736f6c634300080a0033",
  "devdoc": {
    "kind": "dev",
    "methods": {
      "approveCheck(uint256,uint256,bool)": {
        "details": "initiate a request",
        "params": {
          "_checkId": "check to approve",
          "_requestId": "type of the request"
        },
        "returns": {
          "_0": "boolean indicating op result"
        }
      },
      "callOracle(uint256,uint256)": {
        "details": "call oracle to try approve check",
        "params": {
          "_checkId": "check ID",
          "_requestId": "request ID"
        }
      },
      "createRequest(uint256,address,address,uint256,uint256[2],string)": {
        "details": "initiate a request",
        "params": {
          "_amount": "requested amount from the fund",
          "_coordinates": "coordinates pointing to request location",
          "_description": "a short description of the request",
          "_fundId": "id of the fund requested from",
          "_recipient": "ultimate recipient of the funds requested",
          "_tokenAddress": "token address"
        },
        "returns": {
          "_0": "id (index) of the initiated request"
        }
      },
      "getPendingChecksCount(uint256)": {
        "details": "get remaining checks for a request",
        "params": {
          "_requestId": "request ID"
        },
        "returns": {
          "_0": "remaining check count"
        }
      },
      "getRoleAdmin(bytes32)": {
        "details": "Returns the admin role that controls `role`. See {grantRole} and {revokeRole}. To change a role's admin, use {_setRoleAdmin}."
      },
      "getSigner(uint256,uint256)": {
        "details": "get approver address for a check",
        "params": {
          "_checkId": "check ID",
          "_id": "request ID"
        },
        "returns": {
          "_0": "remaining checks"
        }
      },
      "getStatus(uint256)": {
        "details": "get request status",
        "params": {
          "_requestId": "request ID"
        },
        "returns": {
          "_0": "request status"
        }
      },
      "grantRole(bytes32,address)": {
        "details": "Grants `role` to `account`. If `account` had not been already granted `role`, emits a {RoleGranted} event. Requirements: - the caller must have ``role``'s admin role."
      },
      "hasRole(bytes32,address)": {
        "details": "Returns `true` if `account` has been granted `role`."
      },
      "renounceRole(bytes32,address)": {
        "details": "Revokes `role` from the calling account. Roles are often managed via {grantRole} and {revokeRole}: this function's purpose is to provide a mechanism for accounts to lose their privileges if they are compromised (such as when a trusted device is misplaced). If the calling account had been revoked `role`, emits a {RoleRevoked} event. Requirements: - the caller must be `account`."
      },
      "revokeRole(bytes32,address)": {
        "details": "Revokes `role` from `account`. If `account` had been granted `role`, emits a {RoleRevoked} event. Requirements: - the caller must have ``role``'s admin role."
      },
      "supportsInterface(bytes4)": {
        "details": "See {IERC165-supportsInterface}."
      }
    },
    "version": 1
  },
  "userdoc": {
    "kind": "user",
    "methods": {},
    "version": 1
  },
  "storageLayout": {
    "storage": [
      {
        "astId": 4975,
        "contract": "contracts/Governor.sol:Governor",
        "label": "_roles",
        "offset": 0,
        "slot": "0",
        "type": "t_mapping(t_bytes32,t_struct(RoleData)4970_storage)"
      },
      {
        "astId": 9915,
        "contract": "contracts/Governor.sol:Governor",
        "label": "checks",
        "offset": 0,
        "slot": "1",
        "type": "t_array(t_array(t_bytes32)2_storage)dyn_storage"
      },
      {
        "astId": 11378,
        "contract": "contracts/Governor.sol:Governor",
        "label": "registry",
        "offset": 0,
        "slot": "2",
        "type": "t_contract(Registry)11699"
      },
      {
        "astId": 11760,
        "contract": "contracts/Governor.sol:Governor",
        "label": "requests",
        "offset": 0,
        "slot": "3",
        "type": "t_array(t_struct(Request)11799_storage)dyn_storage"
      }
    ],
    "types": {
      "t_address": {
        "encoding": "inplace",
        "label": "address",
        "numberOfBytes": "20"
      },
      "t_array(t_array(t_bytes32)2_storage)dyn_storage": {
        "base": "t_array(t_bytes32)2_storage",
        "encoding": "dynamic_array",
        "label": "bytes32[2][]",
        "numberOfBytes": "32"
      },
      "t_array(t_bytes32)2_storage": {
        "base": "t_bytes32",
        "encoding": "inplace",
        "label": "bytes32[2]",
        "numberOfBytes": "64"
      },
      "t_array(t_struct(Request)11799_storage)dyn_storage": {
        "base": "t_struct(Request)11799_storage",
        "encoding": "dynamic_array",
        "label": "struct RequestManager.Request[]",
        "numberOfBytes": "32"
      },
      "t_bool": {
        "encoding": "inplace",
        "label": "bool",
        "numberOfBytes": "1"
      },
      "t_bytes32": {
        "encoding": "inplace",
        "label": "bytes32",
        "numberOfBytes": "32"
      },
      "t_contract(Registry)11699": {
        "encoding": "inplace",
        "label": "contract Registry",
        "numberOfBytes": "20"
      },
      "t_enum(Status)11765": {
        "encoding": "inplace",
        "label": "enum RequestManager.Status",
        "numberOfBytes": "1"
      },
      "t_mapping(t_address,t_bool)": {
        "encoding": "mapping",
        "key": "t_address",
        "label": "mapping(address => bool)",
        "numberOfBytes": "32",
        "value": "t_bool"
      },
      "t_mapping(t_bytes32,t_struct(RoleData)4970_storage)": {
        "encoding": "mapping",
        "key": "t_bytes32",
        "label": "mapping(bytes32 => struct AccessControl.RoleData)",
        "numberOfBytes": "32",
        "value": "t_struct(RoleData)4970_storage"
      },
      "t_mapping(t_uint256,t_struct(Signature)11770_storage)": {
        "encoding": "mapping",
        "key": "t_uint256",
        "label": "mapping(uint256 => struct RequestManager.Signature)",
        "numberOfBytes": "32",
        "value": "t_struct(Signature)11770_storage"
      },
      "t_struct(Coordinates)13241_storage": {
        "encoding": "inplace",
        "label": "struct Geo.Coordinates",
        "members": [
          {
            "astId": 13238,
            "contract": "contracts/Governor.sol:Governor",
            "label": "lat",
            "offset": 0,
            "slot": "0",
            "type": "t_uint256"
          },
          {
            "astId": 13240,
            "contract": "contracts/Governor.sol:Governor",
            "label": "lon",
            "offset": 0,
            "slot": "1",
            "type": "t_uint256"
          }
        ],
        "numberOfBytes": "64"
      },
      "t_struct(Request)11799_storage": {
        "encoding": "inplace",
        "label": "struct RequestManager.Request",
        "members": [
          {
            "astId": 11772,
            "contract": "contracts/Governor.sol:Governor",
            "label": "id",
            "offset": 0,
            "slot": "0",
            "type": "t_uint256"
          },
          {
            "astId": 11774,
            "contract": "contracts/Governor.sol:Governor",
            "label": "fundId",
            "offset": 0,
            "slot": "1",
            "type": "t_uint256"
          },
          {
            "astId": 11776,
            "contract": "contracts/Governor.sol:Governor",
            "label": "amount",
            "offset": 0,
            "slot": "2",
            "type": "t_uint256"
          },
          {
            "astId": 11778,
            "contract": "contracts/Governor.sol:Governor",
            "label": "token",
            "offset": 0,
            "slot": "3",
            "type": "t_address"
          },
          {
            "astId": 11780,
            "contract": "contracts/Governor.sol:Governor",
            "label": "recipient",
            "offset": 0,
            "slot": "4",
            "type": "t_address"
          },
          {
            "astId": 11783,
            "contract": "contracts/Governor.sol:Governor",
            "label": "status",
            "offset": 20,
            "slot": "4",
            "type": "t_enum(Status)11765"
          },
          {
            "astId": 11786,
            "contract": "contracts/Governor.sol:Governor",
            "label": "location",
            "offset": 0,
            "slot": "5",
            "type": "t_struct(Coordinates)13241_storage"
          },
          {
            "astId": 11791,
            "contract": "contracts/Governor.sol:Governor",
            "label": "checks",
            "offset": 0,
            "slot": "7",
            "type": "t_array(t_array(t_bytes32)2_storage)dyn_storage"
          },
          {
            "astId": 11793,
            "contract": "contracts/Governor.sol:Governor",
            "label": "pendingCheckCount",
            "offset": 0,
            "slot": "8",
            "type": "t_uint256"
          },
          {
            "astId": 11798,
            "contract": "contracts/Governor.sol:Governor",
            "label": "signatures",
            "offset": 0,
            "slot": "9",
            "type": "t_mapping(t_uint256,t_struct(Signature)11770_storage)"
          }
        ],
        "numberOfBytes": "320"
      },
      "t_struct(RoleData)4970_storage": {
        "encoding": "inplace",
        "label": "struct AccessControl.RoleData",
        "members": [
          {
            "astId": 4967,
            "contract": "contracts/Governor.sol:Governor",
            "label": "members",
            "offset": 0,
            "slot": "0",
            "type": "t_mapping(t_address,t_bool)"
          },
          {
            "astId": 4969,
            "contract": "contracts/Governor.sol:Governor",
            "label": "adminRole",
            "offset": 0,
            "slot": "1",
            "type": "t_bytes32"
          }
        ],
        "numberOfBytes": "64"
      },
      "t_struct(Signature)11770_storage": {
        "encoding": "inplace",
        "label": "struct RequestManager.Signature",
        "members": [
          {
            "astId": 11767,
            "contract": "contracts/Governor.sol:Governor",
            "label": "approved",
            "offset": 0,
            "slot": "0",
            "type": "t_bool"
          },
          {
            "astId": 11769,
            "contract": "contracts/Governor.sol:Governor",
            "label": "signer",
            "offset": 1,
            "slot": "0",
            "type": "t_address"
          }
        ],
        "numberOfBytes": "32"
      },
      "t_uint256": {
        "encoding": "inplace",
        "label": "uint256",
        "numberOfBytes": "32"
      }
    }
  }
}