{
  "address": "0xfb16Fb7F7323A017863D65C8225C9d03b97C6F07",
  "abi": [
    {
      "anonymous": false,
      "inputs": [
        {
          "indexed": true,
          "internalType": "address",
          "name": "previousOwner",
          "type": "address"
        },
        {
          "indexed": true,
          "internalType": "address",
          "name": "newOwner",
          "type": "address"
        }
      ],
      "name": "OwnershipTransferred",
      "type": "event"
    },
    {
      "inputs": [
        {
          "internalType": "uint256",
          "name": "_tokenId",
          "type": "uint256"
        },
        {
          "internalType": "address",
          "name": "_ownerAddress",
          "type": "address"
        },
        {
          "internalType": "uint256",
          "name": "_supportAmount",
          "type": "uint256"
        },
        {
          "internalType": "address",
          "name": "_tokenAddress",
          "type": "address"
        },
        {
          "internalType": "string",
          "name": "_fundName",
          "type": "string"
        },
        {
          "internalType": "string",
          "name": "_fundFocus",
          "type": "string"
        }
      ],
      "name": "_buildSVG",
      "outputs": [
        {
          "internalType": "bytes",
          "name": "",
          "type": "bytes"
        }
      ],
      "stateMutability": "view",
      "type": "function"
    },
    {
      "inputs": [
        {
          "internalType": "uint256",
          "name": "_tokenId",
          "type": "uint256"
        },
        {
          "internalType": "address",
          "name": "_ownerAddress",
          "type": "address"
        },
        {
          "internalType": "uint256",
          "name": "_supportAmount",
          "type": "uint256"
        },
        {
          "internalType": "address",
          "name": "_tokenAddress",
          "type": "address"
        },
        {
          "internalType": "string",
          "name": "_fundName",
          "type": "string"
        },
        {
          "internalType": "string",
          "name": "_fundFocus",
          "type": "string"
        }
      ],
      "name": "buildSVG",
      "outputs": [
        {
          "internalType": "string",
          "name": "",
          "type": "string"
        }
      ],
      "stateMutability": "view",
      "type": "function"
    },
    {
      "inputs": [
        {
          "internalType": "uint256",
          "name": "_tokenId",
          "type": "uint256"
        },
        {
          "internalType": "address",
          "name": "_ownerAddress",
          "type": "address"
        },
        {
          "internalType": "uint256",
          "name": "_supportAmount",
          "type": "uint256"
        },
        {
          "internalType": "address",
          "name": "_tokenAddress",
          "type": "address"
        },
        {
          "internalType": "string",
          "name": "_fundName",
          "type": "string"
        },
        {
          "internalType": "string",
          "name": "_fundFocus",
          "type": "string"
        }
      ],
      "name": "encodeSVG",
      "outputs": [
        {
          "internalType": "string",
          "name": "",
          "type": "string"
        }
      ],
      "stateMutability": "view",
      "type": "function"
    },
    {
      "inputs": [
        {
          "internalType": "uint256",
          "name": "precision",
          "type": "uint256"
        },
        {
          "internalType": "uint256",
          "name": "decimals",
          "type": "uint256"
        },
        {
          "internalType": "uint256",
          "name": "amount",
          "type": "uint256"
        }
      ],
      "name": "formatUint",
      "outputs": [
        {
          "internalType": "string",
          "name": "",
          "type": "string"
        }
      ],
      "stateMutability": "pure",
      "type": "function"
    },
    {
      "inputs": [],
      "name": "owner",
      "outputs": [
        {
          "internalType": "address",
          "name": "",
          "type": "address"
        }
      ],
      "stateMutability": "view",
      "type": "function"
    },
    {
      "inputs": [],
      "name": "renounceOwnership",
      "outputs": [],
      "stateMutability": "nonpayable",
      "type": "function"
    },
    {
      "inputs": [
        {
          "internalType": "address",
          "name": "newOwner",
          "type": "address"
        }
      ],
      "name": "transferOwnership",
      "outputs": [],
      "stateMutability": "nonpayable",
      "type": "function"
    }
  ],
  "transactionHash": "0xff7fcf537f01bd5b2fb376d8da5337d9371b6cab72c106b4af5c1e17a438c597",
  "args": [],
  "numDeployments": 1,
  "solcInputHash": "f6cd8fdf77e9ee24ff95086f9565d816",
  "bytecode": "0x608060405234801561001057600080fd5b5061001a3361001f565b61006f565b600080546001600160a01b038381166001600160a01b0319831681178455604051919092169283917f8be0079c531659141344cd1fd0a4f28419497f9722a3daafe3b4186f6b6457e09190a35050565b6129cf8061007e6000396000f3fe608060405234801561001057600080fd5b506004361061007d5760003560e01c8063be4eeda71161005b578063be4eeda7146100d0578063cbecbf97146100e3578063f2fde38b146100f6578063f7e9aa411461010957600080fd5b8063011b665114610082578063715018a6146100ab5780638da5cb5b146100b5575b600080fd5b610095610090366004610ea2565b61011c565b6040516100a29190610f95565b60405180910390f35b6100b361045d565b005b6000546040516001600160a01b0390911681526020016100a2565b6100956100de366004610ea2565b6104c8565b6100956100f1366004610ea2565b6104e3565b6100b3610104366004610fa8565b6104fb565b610095610117366004610fc3565b6105c6565b6060600060405180606001604052806101368960036106df565b81526020016101468960396106df565b815260200161015689607a6106df565b815250905060006101cd6005876001600160a01b031663313ce5676040518163ffffffff1660e01b8152600401602060405180830381865afa1580156101a0573d6000803e3d6000fd5b505050506040513d601f19601f820116820180604052508101906101c49190610fef565b60ff16896105c6565b9050600061022f6101dd8b61071f565b60405180604001604052806016815260200175726f74617465283930203133322e35203134322e352960501b815250604051806040016040528060058152602001641cdd185c9d60da1b815250610825565b61029261023b8b610854565b6040518060400160405280601781526020017f726f74617465283930202d3130372e35203338322e352900000000000000000081525060405180604001604052806003815260200162195b9960ea1b815250610825565b6102db601e606e60405180604001604052806004815260200163119d5b9960e21b8152508b6040516020016102c7919061102e565b60405160208183030381529060405261086a565b610311601e60b460405180604001604052806005815260200164466f63757360d81b8152508b6040516020016102c7919061102e565b6103b1601e60fa604051806040016040528060088152602001672237b730ba34b7b760c11b815250898f6001600160a01b03166395d89b416040518163ffffffff1660e01b8152600401600060405180830381865afa158015610378573d6000803e3d6000fd5b505050506040513d6000823e601f3d908101601f191682016040526103a0919081019061104a565b6040516020016102c79291906110c1565b6103ba886108ac565b6040516020016103cf969594939291906110fd565b60408051601f1981840301815260c0830190915260998083529092506118af60208301396040518061052001604052806104fc81526020016119486104fc913960405180610b400160405280610b168152602001611e44610b1691398360405160200161043f949392919061117c565b60405160208183030381529060405293505050509695505050505050565b6000546001600160a01b031633146104bc5760405162461bcd60e51b815260206004820181905260248201527f4f776e61626c653a2063616c6c6572206973206e6f7420746865206f776e657260448201526064015b60405180910390fd5b6104c6600061097e565b565b60606104d887878787878761011c565b979650505050505050565b60606104d86104f688888888888861011c565b6109ce565b6000546001600160a01b031633146105555760405162461bcd60e51b815260206004820181905260248201527f4f776e61626c653a2063616c6c6572206973206e6f7420746865206f776e657260448201526064016104b3565b6001600160a01b0381166105ba5760405162461bcd60e51b815260206004820152602660248201527f4f776e61626c653a206e6577206f776e657220697320746865207a65726f206160448201526564647265737360d01b60648201526084016104b3565b6105c38161097e565b50565b606060006105d584600a61135e565b905060006105e38285611380565b905060006105f18787611394565b6105fc90600a61135e565b9050600061060b88600a61135e565b905060008161061a8489611380565b61062491906113ab565b905060006106318561071f565b9050600061063e8361071f565b9050600081518c61064f9190611394565b9050806004141561066a5782985050505050505050506106d8565b60005b818110156106aa578260405160200161068691906113bf565b604051602081830303815290604052925080806106a2906113e8565b91505061066d565b5082826040516020016106be929190611403565b604051602081830303815290604052985050505050505050505b9392505050565b60606106f76001600160a01b038416831c6003610b22565b6040516020016107079190611433565b60405160208183030381529060405290505b92915050565b6060816107435750506040805180820190915260018152600360fc1b602082015290565b8160005b811561076d5780610757816113e8565b91506107669050600a83611380565b9150610747565b60008167ffffffffffffffff81111561078857610788610ddd565b6040519080825280601f01601f1916602001820160405280156107b2576020820181803683370190505b5090505b841561081d576107c7600183611394565b91506107d4600a866113ab565b6107df90603061144f565b60f81b8183815181106107f4576107f4611467565b60200101906001600160f81b031916908160001a905350610816600a86611380565b94506107b6565b949350505050565b606082828560405160200161083c9392919061147d565b60405160208183030381529060405290509392505050565b60606107196001600160a01b0383166014610c00565b60606108758561071f565b61087e8561071f565b8484604051602001610893949392919061153a565b6040516020818303038152906040529050949350505050565b60606108d28260405180604001604052806002815260200161302560f01b815250610d9c565b6109576040518060600160405280856001600381106108f3576108f3611467565b602002015181526020018560006003811061091057610910611467565b602002015181526020018560026003811061092d5761092d611467565b6020020151815250604051806040016040528060048152602001633130302560e01b815250610d9c565b604051602001610968929190611665565b6040516020818303038152906040529050919050565b600080546001600160a01b038381166001600160a01b0319831681178455604051919092169283917f8be0079c531659141344cd1fd0a4f28419497f9722a3daafe3b4186f6b6457e09190a35050565b60608151600014156109ee57505060408051602081019091526000815290565b600060405180606001604052806040815260200161295a6040913990506000600384516002610a1d919061144f565b610a279190611380565b610a32906004611722565b67ffffffffffffffff811115610a4a57610a4a610ddd565b6040519080825280601f01601f191660200182016040528015610a74576020820181803683370190505b509050600182016020820185865187015b80821015610ae0576003820191508151603f8160121c168501518453600184019350603f81600c1c168501518453600184019350603f8160061c168501518453600184019350603f8116850151845350600183019250610a85565b5050600386510660018114610afc5760028114610b0f57610b17565b603d6001830353603d6002830353610b17565b603d60018303535b509195945050505050565b60606000610b31836002611722565b67ffffffffffffffff811115610b4957610b49610ddd565b6040519080825280601f01601f191660200182016040528015610b73576020820181803683370190505b5080519091505b8015610bf8576f181899199a1a9b1b9c1cb0b131b232b360811b85600f1660108110610ba857610ba8611467565b1a60f81b82610bb8600184611394565b81518110610bc857610bc8611467565b60200101906001600160f81b031916908160001a90535060049490941c9380610bf081611741565b915050610b7a565b509392505050565b60606000610c0f836002611722565b610c1a90600261144f565b67ffffffffffffffff811115610c3257610c32610ddd565b6040519080825280601f01601f191660200182016040528015610c5c576020820181803683370190505b509050600360fc1b81600081518110610c7757610c77611467565b60200101906001600160f81b031916908160001a905350600f60fb1b81600181518110610ca657610ca6611467565b60200101906001600160f81b031916908160001a9053506000610cca846002611722565b610cd590600161144f565b90505b6001811115610d4d576f181899199a1a9b1b9c1cb0b131b232b360811b85600f1660108110610d0957610d09611467565b1a60f81b828281518110610d1f57610d1f611467565b60200101906001600160f81b031916908160001a90535060049490941c93610d4681611741565b9050610cd8565b5083156106d85760405162461bcd60e51b815260206004820181905260248201527f537472696e67733a20686578206c656e67746820696e73756666696369656e7460448201526064016104b3565b8151604080840151602080860151925160609461070794879491938493849101611758565b80356001600160a01b0381168114610dd857600080fd5b919050565b634e487b7160e01b600052604160045260246000fd5b604051601f8201601f1916810167ffffffffffffffff81118282101715610e1c57610e1c610ddd565b604052919050565b600067ffffffffffffffff821115610e3e57610e3e610ddd565b50601f01601f191660200190565b600082601f830112610e5d57600080fd5b8135610e70610e6b82610e24565b610df3565b818152846020838601011115610e8557600080fd5b816020850160208301376000918101602001919091529392505050565b60008060008060008060c08789031215610ebb57600080fd5b86359550610ecb60208801610dc1565b945060408701359350610ee060608801610dc1565b9250608087013567ffffffffffffffff80821115610efd57600080fd5b610f098a838b01610e4c565b935060a0890135915080821115610f1f57600080fd5b50610f2c89828a01610e4c565b9150509295509295509295565b60005b83811015610f54578181015183820152602001610f3c565b83811115610f63576000848401525b50505050565b60008151808452610f81816020860160208601610f39565b601f01601f19169290920160200192915050565b6020815260006106d86020830184610f69565b600060208284031215610fba57600080fd5b6106d882610dc1565b600080600060608486031215610fd857600080fd5b505081359360208301359350604090920135919050565b60006020828403121561100157600080fd5b815160ff811681146106d857600080fd5b60008151611024818560208601610f39565b9290920192915050565b60008251611040818460208701610f39565b9190910192915050565b60006020828403121561105c57600080fd5b815167ffffffffffffffff81111561107357600080fd5b8201601f8101841361108457600080fd5b8051611092610e6b82610e24565b8181528560208385010111156110a757600080fd5b6110b8826020830160208601610f39565b95945050505050565b600083516110d3818460208801610f39565b600160fd1b90830190815283516110f1816001840160208801610f39565b01600101949350505050565b6000875160206111108285838d01610f39565b8851918401916111238184848d01610f39565b88519201916111358184848c01610f39565b87519201916111478184848b01610f39565b86519201916111598184848a01610f39565b855192019161116b8184848901610f39565b919091019998505050505050505050565b7f3c7376672077696474683d2232393022206865696768743d223530302220766981527f6577426f783d2230203020323930203530302220786d6c6e733d22687474703a60208201527f2f2f7777772e77332e6f72672f323030302f737667223e000000000000000000604082015260008551611200816057850160208a01610f39565b855190830190611217816057840160208a01610f39565b855191019061122d816057840160208901610f39565b8451910190611243816057840160208801610f39565b651e17b9bb339f60d11b60579290910191820152605d019695505050505050565b634e487b7160e01b600052601160045260246000fd5b600181815b808511156112b557816000190482111561129b5761129b611264565b808516156112a857918102915b93841c939080029061127f565b509250929050565b6000826112cc57506001610719565b816112d957506000610719565b81600181146112ef57600281146112f957611315565b6001915050610719565b60ff84111561130a5761130a611264565b50506001821b610719565b5060208310610133831016604e8410600b8410161715611338575081810a610719565b611342838361127a565b806000190482111561135657611356611264565b029392505050565b60006106d883836112bd565b634e487b7160e01b600052601260045260246000fd5b60008261138f5761138f61136a565b500490565b6000828210156113a6576113a6611264565b500390565b6000826113ba576113ba61136a565b500690565b600360fc1b8152600082516113db816001850160208701610f39565b9190910160010192915050565b60006000198214156113fc576113fc611264565b5060010190565b60008351611415818460208801610f39565b601760f91b90830190815283516110f1816001840160208801610f39565b602360f81b8152600082516113db816001850160208701610f39565b6000821982111561146257611462611264565b500190565b634e487b7160e01b600052603260045260246000fd5b7f3c7465787420636c6173733d22736d616c6c22207472616e73666f726d3d22008152600084516114b581601f850160208901610f39565b74111039ba3cb6329e913a32bc3a16b0b731b437b91d60591b601f9184019182015284516114ea816034840160208901610f39565b6d11103334b6361e9111a32323111f60911b603492909101918201528351611519816042840160208801610f39565b661e17ba32bc3a1f60c91b6042929091019182015260490195945050505050565b7f3c7465787420636c6173733d227469746c6522207472616e73666f726d3d22748152680e4c2dce6d8c2e8ca560bb1b602082015260008551611584816029850160208a01610f39565b600b60fa1b60299184019182015285516115a581602a840160208a01610f39565b7f29223e3c747370616e20636c6173733d226c617267652220783d2230223e0000602a929091019182015284516115e3816048840160208901610f39565b7f3c2f747370616e3e3c747370616e20636c6173733d22736d616c6c20616c706860489290910191820152703091103c1e91181110323c9e911918111f60791b6068820152835161163b816079840160208801610f39565b6e1e17ba39b830b71f1e17ba32bc3a1f60891b607992909101918201526088019695505050505050565b7f3c646566733e3c6c696e6561724772616469656e742069643d22677261642d6181527f6e696d222078313d223025222079313d223025222078323d2231303025222079602082015268191e9118981812911f60b91b6040820152600083516116d5816049850160208801610f39565b8351908301906116ec816049840160208801610f39565b7f3c2f6c696e6561724772616469656e743e3c2f646566733e000000000000000060499290910191820152606101949350505050565b600081600019048311821515161561173c5761173c611264565b500290565b60008161175057611750611264565b506000190190565b6d1e39ba37b81037b33339b2ba1e9160911b8152865160009061178281600e850160208c01610f39565b6d111039ba37b816b1b7b637b91e9160911b600e9184019182015287516117b081601c840160208c01610f39565b7f223e3c616e696d617465206174747269627574654e616d653d2273746f702d63601c92909101918201526d37b637b911103b30b63ab2b99e9160911b603c820152865161180581604a840160208b01610f39565b603b60f81b604a9290910191820152855161182781604b840160208a01610f39565b6118a061186261185c61184f611849604b86880101603b60f81b815260010190565b8a611012565b603b60f81b815260010190565b87611012565b7f22206475723d2237732220726570656174436f756e743d22696e646566696e6981526b3a3291179f1e17b9ba37b81f60a11b6020820152602c0190565b9a995050505050505050505056fe3c7374796c653e3c215b43444154415b746578747b666f6e742d66616d696c793a48656c7665746963613b666f6e742d7765696768743a3130307d2e616c7068617b6f7061636974793a302e357d2e736d616c6c7b666f6e742d73697a653a2e3872656d7d2e6c617267657b666f6e742d73697a653a312e3272656d7d2e7469746c657b66696c6c3a236666667d5d5d3e3c2f7374796c653e3c706174682066696c6c3d22233232323235452220643d224d3020323020412032302032302030203020312032302030204c203237302030204120302030203020302031203237302030204c20323730203530302041203020302030203020312032373020353030204c203230203530302041203230203230203020302031203020343830205a222f3e3c706174682066696c6c3d22233146314635352220643d224d323730203068323076353030682d32307a222f3e3c70617468207374726f6b653d22677265656e22207374726f6b652d77696474683d222e312220643d224d302033353020563438302051302c35303020323020353030204832373020513130302c33353020302c333530205a222066696c6c3d2275726c2823677261642d616e696d29222f3e3c7265637420783d223131302220793d22333730222077696474683d22343022206865696768743d223430222066696c6c3d2275726c2823677261642d616e696d29223e3c616e696d617465206174747269627574654e616d653d227278222076616c7565733d2231353b32303b313522206475723d2237732220726570656174436f756e743d22696e646566696e697465222f3e3c616e696d617465206174747269627574654e616d653d2278222076616c7565733d223131303b3132303b31313022206475723d2237732220726570656174436f756e743d22696e646566696e697465222f3e3c616e696d617465206174747269627574654e616d653d2279222076616c7565733d223337303b3336303b33373022206475723d2237732220726570656174436f756e743d22696e646566696e697465222f3e3c2f726563743e3c636972636c652063783d22313030222063793d223339302220723d22343022207374726f6b652d77696474683d222e31222066696c6c3d2275726c2823677261642d616e696d29223e3c616e696d617465206174747269627574654e616d653d2272222076616c7565733d22353b383b3522206475723d2237732220726570656174436f756e743d22696e646566696e697465222f3e3c616e696d617465206174747269627574654e616d653d226378222076616c7565733d223130303b3131303b31303022206475723d2237732220726570656174436f756e743d22696e646566696e697465222f3e3c616e696d617465206174747269627574654e616d653d226379222076616c7565733d223339303b3339353b33393022206475723d2237732220726570656174436f756e743d22696e646566696e697465222f3e3c2f636972636c653e3c636972636c652063783d22313235222063793d223337352220723d22343022207374726f6b652d77696474683d222e31222066696c6c3d2275726c2823677261642d616e696d29223e3c616e696d617465206174747269627574654e616d653d2272222076616c7565733d22353b383b3522206475723d2237732220726570656174436f756e743d22696e646566696e697465222f3e3c616e696d617465206174747269627574654e616d653d226378222076616c7565733d223132353b3133303b31323522206475723d2237732220726570656174436f756e743d22696e646566696e697465222f3e3c616e696d617465206174747269627574654e616d653d226379222076616c7565733d223337353b3336303b33373522206475723d2237732220726570656174436f756e743d22696e646566696e697465222f3e3c2f636972636c653e3c67207472616e73666f726d3d227472616e736c61746528323620313629223e3c70617468207374796c653d2266696c6c3a236666662220643d226d35322e372032372e3520332e362d322e31632e3820322e3220322e3420332e3320342e3920332e3320322e34203020332e342d2e3920332e342d322e3320302d2e372d2e342d312e342d312d312e372d2e372d2e342d312e392d2e392d332e362d312e342d312e392d2e362d332e312d312d342e342d322d312e332d2e392d322d322e342d322d342e34732e372d332e3520322d342e3663312e342d312e3120332e322d312e3820352d312e3720332e34203020362e3120312e3820372e3620342e386c2d332e352032632d2e392d312e382d322e322d322e372d342e312d322e372d312e3720302d322e382e392d322e3820322e312030202e372e3320312e332e3820312e362e362e3420312e362e3920332e3220312e336c312e352e35632e352e322e392e3320312e342e35732e392e3420312e332e37632e372e3420312e3620312e31203220312e392e352e392e382032202e382033203020322d2e3720332e352d322e3220342e372d312e3420312e312d332e3320312e372d352e3620312e372d342e3220302d372e312d322d382e332d352e327a6d323820352e32632d36202e312d31312d342e372d31312e312d31302e38762d2e33632d2e312d322e3920312e312d352e3820332e322d372e3820342e332d342e332031312e332d342e332031352e37203020322e31203220332e3320342e3920332e3220372e382e3120362d342e382031312d31302e382031312e312d2e312e312d2e312e312d2e3220307a6d302d342e3163312e382e3120332e362d2e3720342e392d3273322d332e3120322d35632e312d312e392d2e372d332e372d322d352d322e372d322e362d372e312d322e362d392e3820302d312e3320312e332d3220332e312d3220352d2e3120312e392e3720332e372032203520312e3320312e34203320322e3120342e3920327a6d31312e342d312e3120332e362d322e31632e3820322e3220322e3520332e3320342e3920332e3373332e342d2e3920332e342d322e3363302d2e372d2e342d312e342d312d312e372d2e372d2e342d312e392d2e392d332e362d312e342d312e392d2e362d332e312d312d342e342d322d312e332d2e392d322d322e342d322d342e34732e372d332e3520322d342e3663312e342d312e3120332e322d312e3820352d312e3720332e34203020362e3120312e3820372e3620342e386c2d332e352032632d2e392d312e382d322e322d322e372d342e312d322e372d312e3720302d322e382e392d322e3820322e312030202e372e3320312e332e3820312e362e362e3420312e362e3920332e3220312e336c312e352e35632e352e322e392e3320312e342e35732e392e3420312e332e37632e372e3420312e3620312e31203220312e392e352e392e382032202e382033203020322d2e3720332e352d322e3220342e37732d332e3320312e372d352e3620312e37632d342e3220302d372e312d322d382e332d352e327a6d32372e352032632d322e312d322e312d332e322d342e392d332e312d372e3820302d332e3120312d352e3720332e312d372e3873342e372d332e3220372e392d332e3263312e39203020332e372e3520352e3420312e3420312e362e3920322e3920322e3220332e3820332e376c2d312e342e38632d2e372d312e332d312e382d322e342d332e312d332e322d312e342d2e382d332d312e322d342e362d312e322d322e3820302d35202e392d362e3820322e37732d322e3720342e322d322e3620362e37632d2e3120322e352e3920342e3920322e3620362e3720312e3820312e3820342e3120322e3720362e3820322e3720332e33203020362e332d312e3820372e372d342e356c312e342e38632d312e3720332e322d352e3320352e322d392e3220352e322d332e322e322d352e382d2e392d372e392d337a4d3135332e3720313168312e367632312e33682d312e365632322e31682d31322e347631302e32682d312e3656313168312e3676392e366831322e345631317a6d32302e352032312e332d322e312d352e34682d31302e376c2d322e3120352e34682d312e376c382e332d32312e3368312e376c382e322032312e33682d312e367a6d2d31322e312d362e3968392e354c3136362e382031336c2d342e372031322e347a4d3137382e3320313168312e367632312e33682d312e365631317a6d32302e31203068312e367632312e33682d312e344c3138362031347631382e33682d312e3656313168312e346c31322e362031382e335631317a222f3e3c70617468207374796c653d2266696c6c3a75726c2823677261642d616e696d292220643d226d313420332e3720362e3220362e32632e392d2e3920322e342d2e3920332e332030732e3920322e34203020332e3363322e352d322e3420352e392d332e3620392e342d332e324333322e3120342032362e342d2e332032302e342e35203138202e382031352e3720312e3920313420332e377a222f3e3c70617468207374796c653d2266696c6c3a75726c2823677261642d616e696d292220643d224d31392e312033332e34632d2e392d2e392d2e392d322e3520302d332e342d322e3420322e342d352e3920332e372d392e3420332e332e3820362e3120362e342031302e332031322e3520392e3520322e342d2e3320342e362d312e3420362e332d332e326c2d362e322d362e32632d2e392e392d322e332e392d332e3220307a222f3e3c6c696e6561724772616469656e74206772616469656e745472616e73666f726d3d227472616e736c6174652830202d35352e373629207363616c65282e3330393729222079323d223239302e373331222078323d223130392e333931222079313d223230392e313831222078313d2232372e38343122206772616469656e74556e6974733d227573657253706163654f6e557365222069643d2253564749445f335f223e3c73746f70207374796c653d2273746f702d636f6c6f723a2364653031366122206f66667365743d2230222f3e3c73746f70207374796c653d2273746f702d636f6c6f723a2364383031366122206f66667365743d222e3138222f3e3c73746f70207374796c653d2273746f702d636f6c6f723a2363383032366122206f66667365743d222e3431222f3e3c73746f70207374796c653d2273746f702d636f6c6f723a2361643034363922206f66667365743d222e3636222f3e3c73746f70207374796c653d2273746f702d636f6c6f723a2338373036363822206f66667365743d222e3934222f3e3c73746f70207374796c653d2273746f702d636f6c6f723a2337663037363822206f66667365743d2231222f3e3c2f6c696e6561724772616469656e743e3c70617468207374796c653d2266696c6c3a75726c282353564749445f335f292220643d224d33392e322031332e32632d312e372d312e372d332e392d322e382d362e332d332e322d332e342d2e352d362e392e372d392e3420332e324c31322e382032332e39632d2e392e392d322e342e382d332e332d2e312d2e382d2e392d2e382d322e3320302d332e324c32302e3220392e3920313420332e3720332e332031342e34432d312031382e372d312032352e3820332e332033302e3163312e3720312e37203420322e3820362e3320332e3220332e342e3520362e392d2e3720392e342d332e326c31302e372d31302e372e322d2e3263312d2e3820322e352d2e3620332e332e342e372e392e3720322e322d2e3220332e314c32322e332033332e346c362e3220362e322031302e372d31302e3763342e342d342e3320342e342d31312e3320302d31352e377a222f3e3c2f673e4142434445464748494a4b4c4d4e4f505152535455565758595a6162636465666768696a6b6c6d6e6f707172737475767778797a303132333435363738392b2fa2646970667358221220d3e4e468d2ae83be57e2e459cd7c17cebc492be461bff1dfc54e5b005a1b221864736f6c634300080a0033",
  "devdoc": {
    "kind": "dev",
    "methods": {
      "owner()": {
        "details": "Returns the address of the current owner."
      },
      "renounceOwnership()": {
        "details": "Leaves the contract without owner. It will not be possible to call `onlyOwner` functions anymore. Can only be called by the current owner. NOTE: Renouncing ownership will leave the contract without an owner, thereby removing any functionality that is only available to the owner."
      },
      "transferOwnership(address)": {
        "details": "Transfers ownership of the contract to a new account (`newOwner`). Can only be called by the current owner."
      }
    },
    "version": 1
  },
  "userdoc": {
    "kind": "user",
    "methods": {},
    "version": 1
  },
  "storageLayout": {
    "storage": [
      {
        "astId": 5490,
        "contract": "contracts/NFTDescriptor.sol:NFTDescriptor",
        "label": "_owner",
        "offset": 0,
        "slot": "0",
        "type": "t_address"
      }
    ],
    "types": {
      "t_address": {
        "encoding": "inplace",
        "label": "address",
        "numberOfBytes": "20"
      }
    }
  }
}