{
  "address": "0xC8F20872bf634628e2E3B4adCe8d7B30d20BB859",
  "abi": [
    {
      "inputs": [
        {
          "internalType": "address",
          "name": "_oracle",
          "type": "address"
        },
        {
          "internalType": "address",
          "name": "_registry",
          "type": "address"
        },
        {
          "internalType": "address",
          "name": "_linkAddress",
          "type": "address"
        },
        {
          "internalType": "address",
          "name": "_governor",
          "type": "address"
        }
      ],
      "stateMutability": "nonpayable",
      "type": "constructor"
    },
    {
      "anonymous": false,
      "inputs": [
        {
          "indexed": true,
          "internalType": "bytes32",
          "name": "id",
          "type": "bytes32"
        }
      ],
      "name": "ChainlinkCancelled",
      "type": "event"
    },
    {
      "anonymous": false,
      "inputs": [
        {
          "indexed": true,
          "internalType": "bytes32",
          "name": "id",
          "type": "bytes32"
        }
      ],
      "name": "ChainlinkFulfilled",
      "type": "event"
    },
    {
      "anonymous": false,
      "inputs": [
        {
          "indexed": true,
          "internalType": "bytes32",
          "name": "id",
          "type": "bytes32"
        }
      ],
      "name": "ChainlinkRequested",
      "type": "event"
    },
    {
      "anonymous": false,
      "inputs": [
        {
          "indexed": true,
          "internalType": "address",
          "name": "from",
          "type": "address"
        },
        {
          "indexed": true,
          "internalType": "address",
          "name": "to",
          "type": "address"
        }
      ],
      "name": "OwnershipTransferRequested",
      "type": "event"
    },
    {
      "anonymous": false,
      "inputs": [
        {
          "indexed": true,
          "internalType": "address",
          "name": "from",
          "type": "address"
        },
        {
          "indexed": true,
          "internalType": "address",
          "name": "to",
          "type": "address"
        }
      ],
      "name": "OwnershipTransferred",
      "type": "event"
    },
    {
      "anonymous": false,
      "inputs": [
        {
          "indexed": true,
          "internalType": "bytes32",
          "name": "_requestId",
          "type": "bytes32"
        },
        {
          "indexed": true,
          "internalType": "uint256",
          "name": "_govRequestId",
          "type": "uint256"
        },
        {
          "indexed": true,
          "internalType": "uint256",
          "name": "_checkId",
          "type": "uint256"
        },
        {
          "indexed": false,
          "internalType": "bool",
          "name": "_success",
          "type": "bool"
        }
      ],
      "name": "RequestFullfiled",
      "type": "event"
    },
    {
      "inputs": [],
      "name": "acceptOwnership",
      "outputs": [],
      "stateMutability": "nonpayable",
      "type": "function"
    },
    {
      "inputs": [
        {
          "internalType": "bytes32",
          "name": "_requestId",
          "type": "bytes32"
        },
        {
          "internalType": "bool",
          "name": "_data",
          "type": "bool"
        },
        {
          "internalType": "uint256",
          "name": "_checkId",
          "type": "uint256"
        },
        {
          "internalType": "uint256",
          "name": "_govRequestId",
          "type": "uint256"
        }
      ],
      "name": "approveCheck",
      "outputs": [],
      "stateMutability": "nonpayable",
      "type": "function"
    },
    {
      "inputs": [
        {
          "internalType": "bytes32",
          "name": "_requestId",
          "type": "bytes32"
        },
        {
          "internalType": "uint256",
          "name": "_payment",
          "type": "uint256"
        },
        {
          "internalType": "bytes4",
          "name": "_callbackFunctionId",
          "type": "bytes4"
        },
        {
          "internalType": "uint256",
          "name": "_expiration",
          "type": "uint256"
        }
      ],
      "name": "cancelRequest",
      "outputs": [],
      "stateMutability": "nonpayable",
      "type": "function"
    },
    {
      "inputs": [],
      "name": "getChainlinkToken",
      "outputs": [
        {
          "internalType": "address",
          "name": "",
          "type": "address"
        }
      ],
      "stateMutability": "view",
      "type": "function"
    },
    {
      "inputs": [],
      "name": "owner",
      "outputs": [
        {
          "internalType": "address",
          "name": "",
          "type": "address"
        }
      ],
      "stateMutability": "view",
      "type": "function"
    },
    {
      "inputs": [
        {
          "internalType": "uint256",
          "name": "_fee",
          "type": "uint256"
        }
      ],
      "name": "setFee",
      "outputs": [],
      "stateMutability": "nonpayable",
      "type": "function"
    },
    {
      "inputs": [
        {
          "internalType": "address",
          "name": "_oracle",
          "type": "address"
        }
      ],
      "name": "setOracle",
      "outputs": [],
      "stateMutability": "nonpayable",
      "type": "function"
    },
    {
      "inputs": [
        {
          "internalType": "address",
          "name": "to",
          "type": "address"
        }
      ],
      "name": "transferOwnership",
      "outputs": [],
      "stateMutability": "nonpayable",
      "type": "function"
    },
    {
      "inputs": [
        {
          "internalType": "bytes32",
          "name": "_jobId",
          "type": "bytes32"
        },
        {
          "internalType": "bytes",
          "name": "_params",
          "type": "bytes"
        }
      ],
      "name": "tryApprove",
      "outputs": [
        {
          "internalType": "bytes32",
          "name": "",
          "type": "bytes32"
        }
      ],
      "stateMutability": "nonpayable",
      "type": "function"
    },
    {
      "inputs": [],
      "name": "withdrawLink",
      "outputs": [],
      "stateMutability": "nonpayable",
      "type": "function"
    }
  ],
  "transactionHash": "0x0bc4924dd6fb75e58412da5059f7e0a8b5b1afd49c1211aa5e17ab83191c7131",
  "args": [
    "0x9B832E3446257A0Dc17973a76F7ef9a6ba751b01",
    "0x5472cdcfc4af5d3E40ddf0a6747CA1104AEF5165",
    "0x0b9d5D9136855f6FEc3c0993feE6E9CE8a297846",
    "0x213bC6FB591B30A4880E1F406EeE48f22E487025"
  ],
  "numDeployments": 1,
  "solcInputHash": "34980bad82a6936982b26a89c5fb7961",
  "bytecode": "0x608060405260016004553480156200001657600080fd5b50604051620015fd380380620015fd833981016040819052620000399162000224565b808060006001600160a01b038216620000995760405162461bcd60e51b815260206004820152601860248201527f43616e6e6f7420736574206f776e657220746f207a65726f000000000000000060448201526064015b60405180910390fd5b600680546001600160a01b0319166001600160a01b0384811691909117909155811615620000cc57620000cc8162000138565b505050620000e082620001e560201b60201c565b600a80546001600160a01b0319166001600160a01b03861617905567016345785d8a00006009556200012e83600880546001600160a01b0319166001600160a01b0392909216919091179055565b5050505062000281565b6001600160a01b038116331415620001935760405162461bcd60e51b815260206004820152601760248201527f43616e6e6f74207472616e7366657220746f2073656c66000000000000000000604482015260640162000090565b600780546001600160a01b0319166001600160a01b03838116918217909255600654604051919216907fed8889f560326eb138920d842192f0eb3dd22b4f139c87a2c57538e05bae127890600090a350565b600280546001600160a01b0319166001600160a01b0392909216919091179055565b80516001600160a01b03811681146200021f57600080fd5b919050565b600080600080608085870312156200023b57600080fd5b620002468562000207565b9350620002566020860162000207565b9250620002666040860162000207565b9150620002766060860162000207565b905092959194509250565b61136c80620002916000396000f3fe608060405234801561001057600080fd5b506004361061009e5760003560e01c80638da5cb5b116100665780638da5cb5b146101195780638dc654a21461012a57806393c7dac214610132578063ec65d0f814610145578063f2fde38b1461015857600080fd5b8063165d35e1146100a357806369fe0e2d146100c85780637993a7a7146100dd57806379ba5097146100fe5780637adbf97314610106575b600080fd5b6100ab61016b565b6040516001600160a01b0390911681526020015b60405180910390f35b6100db6100d6366004610ede565b610184565b005b6100f06100eb366004610f0d565b610191565b6040519081526020016100bf565b6100db610200565b6100db610114366004610fdd565b6102b3565b6006546001600160a01b03166100ab565b6100db6102dd565b6100db610140366004611008565b610421565b6100db610153366004611045565b6105b3565b6100db610166366004610fdd565b6105cd565b600061017f6002546001600160a01b031690565b905090565b61018c6105de565b600955565b600061019b6105de565b60006101af84306349e3ed6160e11b610633565b604080518082019091526006815265706172616d7360d01b60208201529091506101db90829085610658565b600a546009546101f6916001600160a01b031690839061067b565b9150505b92915050565b6007546001600160a01b031633146102585760405162461bcd60e51b815260206004820152601660248201527526bab9ba10313290383937b837b9b2b21037bbb732b960511b60448201526064015b60405180910390fd5b600680546001600160a01b0319808216339081179093556007805490911690556040516001600160a01b03909116919082907f8be0079c531659141344cd1fd0a4f28419497f9722a3daafe3b4186f6b6457e090600090a350565b6102bb6105de565b600a80546001600160a01b0319166001600160a01b0392909216919091179055565b6102e56105de565b60006102f96002546001600160a01b031690565b6040516370a0823160e01b81523060048201529091506001600160a01b0382169063a9059cbb90339083906370a0823190602401602060405180830381865afa15801561034a573d6000803e3d6000fd5b505050506040513d601f19601f8201168201806040525081019061036e9190611091565b6040516001600160e01b031960e085901b1681526001600160a01b03909216600483015260248201526044016020604051808303816000875af11580156103b9573d6000803e3d6000fd5b505050506040513d601f19601f820116820180604052508101906103dd91906110aa565b61041e5760405162461bcd60e51b81526020600482015260126024820152712ab730b13632903a37903a3930b739b332b960711b604482015260640161024f565b50565b60008481526005602052604090205484906001600160a01b0316331461049a5760405162461bcd60e51b815260206004820152602860248201527f536f75726365206d75737420626520746865206f7261636c65206f6620746865604482015267081c995c5d595cdd60c21b606482015260840161024f565b60008181526005602052604080822080546001600160a01b03191690555182917f7cc135e0cebb02c3480ae5d74d377283180a2601f8f644edf7987b009316c63a91a26104f16723a7ab22a92727a960c11b61070e565b60405163715a6ef160e11b8152600481018490526024810185905285151560448201526001600160a01b03919091169063e2b4dde2906064016020604051808303816000875af1158015610549573d6000803e3d6000fd5b505050506040513d601f19601f8201168201806040525081019061056d91906110aa565b508282867fb1a69918c4cad7216bb4271c00d6b0cf8c4a52deb5ca27e67d5367c514e435f8876040516105a4911515815260200190565b60405180910390a45050505050565b6105bb6105de565b6105c78484848461077c565b50505050565b6105d56105de565b61041e8161084e565b6006546001600160a01b031633146106315760405162461bcd60e51b815260206004820152601660248201527527b7363c9031b0b63630b1363290313c9037bbb732b960511b604482015260640161024f565b565b61063b610ea3565b610643610ea3565b61064f818686866108f9565b95945050505050565b6080830151610667908361093f565b60808301516106769082610956565b505050565b60045460009061068c8160016110dd565b600455835160408086015160808701515191516000936320214ca360e11b936106c49386938493923092918a91600191602401611142565b60408051601f198184030181529190526020810180516001600160e01b03166001600160e01b031990931692909217909152905061070486838684610963565b9695505050505050565b60085460405163023aa9ab60e61b8152600481018390526000916001600160a01b031690638eaa6ac090602401602060405180830381865afa158015610758573d6000803e3d6000fd5b505050506040513d601f19601f820116820180604052508101906101fa91906111aa565b60008481526005602052604080822080546001600160a01b0319811690915590516001600160a01b039091169186917fe1fe3afa0f7f761ff0a8b89086790efd5140d2907ebd5b7ff6bfcb5e075fd4c59190a2604051636ee4d55360e01b815260048101869052602481018590526001600160e01b031984166044820152606481018390526001600160a01b03821690636ee4d55390608401600060405180830381600087803b15801561082f57600080fd5b505af1158015610843573d6000803e3d6000fd5b505050505050505050565b6001600160a01b0381163314156108a75760405162461bcd60e51b815260206004820152601760248201527f43616e6e6f74207472616e7366657220746f2073656c66000000000000000000604482015260640161024f565b600780546001600160a01b0319166001600160a01b03838116918217909255600654604051919216907fed8889f560326eb138920d842192f0eb3dd22b4f139c87a2c57538e05bae127890600090a350565b610901610ea3565b6109118560800151610100610ac1565b50508284526001600160a01b03821660208501526001600160e01b031981166040850152835b949350505050565b61094c8260038351610b26565b6106768282610c35565b61094c8260028351610b26565b6040516bffffffffffffffffffffffff193060601b1660208201526034810184905260009060540160408051808303601f1901815282825280516020918201206000818152600590925291812080546001600160a01b0319166001600160a01b038a1617905590925082917fb5e6e01e79f91267dc17b4e6314d5d4d03593d2ceee0fbb452b750bd70ea5af99190a2600254604051630200057560e51b81526001600160a01b0390911690634000aea090610a26908890879087906004016111c7565b6020604051808303816000875af1158015610a45573d6000803e3d6000fd5b505050506040513d601f19601f82011682018060405250810190610a6991906110aa565b6109375760405162461bcd60e51b815260206004820152602360248201527f756e61626c6520746f207472616e73666572416e6443616c6c20746f206f7261604482015262636c6560e81b606482015260840161024f565b604080518082019091526060815260006020820152610ae16020836111ee565b15610b0957610af16020836111ee565b610afc906020611210565b610b0690836110dd565b91505b506020828101829052604080518085526000815290920101905290565b60178167ffffffffffffffff1611610b4b576105c78360e0600585901b168317610c63565b60ff8167ffffffffffffffff1611610b8957610b72836018611fe0600586901b1617610c63565b506105c78367ffffffffffffffff83166001610c88565b61ffff8167ffffffffffffffff1611610bc857610bb1836019611fe0600586901b1617610c63565b506105c78367ffffffffffffffff83166002610c88565b63ffffffff8167ffffffffffffffff1611610c0957610bf283601a611fe0600586901b1617610c63565b506105c78367ffffffffffffffff83166004610c88565b610c1e83601b611fe0600586901b1617610c63565b506105c78367ffffffffffffffff83166008610c88565b604080518082019091526060815260006020820152610c5c83846000015151848551610cae565b9392505050565b604080518082019091526060815260006020820152610c5c8384600001515184610d98565b604080518082019091526060815260006020820152610937848560000151518585610df4565b6040805180820190915260608152600060208201528251821115610cd157600080fd5b6020850151610ce083866110dd565b1115610d1357610d1385610d0387602001518786610cfe91906110dd565b610e75565b610d0e906002611227565b610e8c565b600080865180518760208301019350808887011115610d325787860182525b505050602084015b60208410610d725780518252610d516020836110dd565b9150610d5e6020826110dd565b9050610d6b602085611210565b9350610d3a565b51815160001960208690036101000a019081169019919091161790525083949350505050565b60408051808201909152606081526000602082015283602001518310610dcd57610dcd8485602001516002610d0e9190611227565b835180516020858301018481535080851415610dea576001810182525b5093949350505050565b6040805180820190915260608152600060208201526020850151610e1885846110dd565b1115610e2c57610e2c85610d0386856110dd565b60006001610e3c8461010061132a565b610e469190611210565b9050855183868201018583198251161781525080518487011115610e6a5783860181525b509495945050505050565b600081831115610e865750816101fa565b50919050565b8151610e988383610ac1565b506105c78382610c35565b6040805160a0810182526000808252602080830182905282840182905260608084018390528451808601909552845283015290608082015290565b600060208284031215610ef057600080fd5b5035919050565b634e487b7160e01b600052604160045260246000fd5b60008060408385031215610f2057600080fd5b82359150602083013567ffffffffffffffff80821115610f3f57600080fd5b818501915085601f830112610f5357600080fd5b813581811115610f6557610f65610ef7565b604051601f8201601f19908116603f01168101908382118183101715610f8d57610f8d610ef7565b81604052828152886020848701011115610fa657600080fd5b8260208601602083013760006020848301015280955050505050509250929050565b6001600160a01b038116811461041e57600080fd5b600060208284031215610fef57600080fd5b8135610c5c81610fc8565b801515811461041e57600080fd5b6000806000806080858703121561101e57600080fd5b84359350602085013561103081610ffa565b93969395505050506040820135916060013590565b6000806000806080858703121561105b57600080fd5b843593506020850135925060408501356001600160e01b03198116811461108157600080fd5b9396929550929360600135925050565b6000602082840312156110a357600080fd5b5051919050565b6000602082840312156110bc57600080fd5b8151610c5c81610ffa565b634e487b7160e01b600052601160045260246000fd5b600082198211156110f0576110f06110c7565b500190565b6000815180845260005b8181101561111b576020818501810151868301820152016110ff565b8181111561112d576000602083870101525b50601f01601f19169290920160200192915050565b6001600160a01b0389811682526020820189905260408201889052861660608201526001600160e01b03198516608082015260a0810184905260c0810183905261010060e0820181905260009061119b838201856110f5565b9b9a5050505050505050505050565b6000602082840312156111bc57600080fd5b8151610c5c81610fc8565b60018060a01b038416815282602082015260606040820152600061064f60608301846110f5565b60008261120b57634e487b7160e01b600052601260045260246000fd5b500690565b600082821015611222576112226110c7565b500390565b6000816000190483118215151615611241576112416110c7565b500290565b600181815b80851115611281578160001904821115611267576112676110c7565b8085161561127457918102915b93841c939080029061124b565b509250929050565b600082611298575060016101fa565b816112a5575060006101fa565b81600181146112bb57600281146112c5576112e1565b60019150506101fa565b60ff8411156112d6576112d66110c7565b50506001821b6101fa565b5060208310610133831016604e8410600b8410161715611304575081810a6101fa565b61130e8383611246565b8060001904821115611322576113226110c7565b029392505050565b6000610c5c838361128956fea26469706673582212206e593a4766a3beb39f3aefdc785e3551deb8b6f1ee0bf7af0f8ac3cde7f1a40164736f6c634300080a0033",
  "devdoc": {
    "kind": "dev",
    "methods": {},
    "version": 1
  },
  "userdoc": {
    "kind": "user",
    "methods": {
      "acceptOwnership()": {
        "notice": "Allows an ownership transfer to be completed by the recipient."
      },
      "owner()": {
        "notice": "Get the current owner"
      },
      "transferOwnership(address)": {
        "notice": "Allows an owner to begin transferring ownership to a new address, pending."
      }
    },
    "version": 1
  },
  "storageLayout": {
    "storage": [
      {
        "astId": 319,
        "contract": "contracts/hybrid/OracleConsumer.sol:OracleConsumer",
        "label": "s_ens",
        "offset": 0,
        "slot": "0",
        "type": "t_contract(ENSInterface)1156"
      },
      {
        "astId": 321,
        "contract": "contracts/hybrid/OracleConsumer.sol:OracleConsumer",
        "label": "s_ensNode",
        "offset": 0,
        "slot": "1",
        "type": "t_bytes32"
      },
      {
        "astId": 324,
        "contract": "contracts/hybrid/OracleConsumer.sol:OracleConsumer",
        "label": "s_link",
        "offset": 0,
        "slot": "2",
        "type": "t_contract(LinkTokenInterface)1251"
      },
      {
        "astId": 327,
        "contract": "contracts/hybrid/OracleConsumer.sol:OracleConsumer",
        "label": "s_oracle",
        "offset": 0,
        "slot": "3",
        "type": "t_contract(OperatorInterface)1331"
      },
      {
        "astId": 330,
        "contract": "contracts/hybrid/OracleConsumer.sol:OracleConsumer",
        "label": "s_requestCount",
        "offset": 0,
        "slot": "4",
        "type": "t_uint256"
      },
      {
        "astId": 334,
        "contract": "contracts/hybrid/OracleConsumer.sol:OracleConsumer",
        "label": "s_pendingRequests",
        "offset": 0,
        "slot": "5",
        "type": "t_mapping(t_bytes32,t_address)"
      },
      {
        "astId": 889,
        "contract": "contracts/hybrid/OracleConsumer.sol:OracleConsumer",
        "label": "s_owner",
        "offset": 0,
        "slot": "6",
        "type": "t_address"
      },
      {
        "astId": 891,
        "contract": "contracts/hybrid/OracleConsumer.sol:OracleConsumer",
        "label": "s_pendingOwner",
        "offset": 0,
        "slot": "7",
        "type": "t_address"
      },
      {
        "astId": 11397,
        "contract": "contracts/hybrid/OracleConsumer.sol:OracleConsumer",
        "label": "registry",
        "offset": 0,
        "slot": "8",
        "type": "t_contract(Registry)11718"
      },
      {
        "astId": 13009,
        "contract": "contracts/hybrid/OracleConsumer.sol:OracleConsumer",
        "label": "fee",
        "offset": 0,
        "slot": "9",
        "type": "t_uint256"
      },
      {
        "astId": 13011,
        "contract": "contracts/hybrid/OracleConsumer.sol:OracleConsumer",
        "label": "oracle",
        "offset": 0,
        "slot": "10",
        "type": "t_address"
      }
    ],
    "types": {
      "t_address": {
        "encoding": "inplace",
        "label": "address",
        "numberOfBytes": "20"
      },
      "t_bytes32": {
        "encoding": "inplace",
        "label": "bytes32",
        "numberOfBytes": "32"
      },
      "t_contract(ENSInterface)1156": {
        "encoding": "inplace",
        "label": "contract ENSInterface",
        "numberOfBytes": "20"
      },
      "t_contract(LinkTokenInterface)1251": {
        "encoding": "inplace",
        "label": "contract LinkTokenInterface",
        "numberOfBytes": "20"
      },
      "t_contract(OperatorInterface)1331": {
        "encoding": "inplace",
        "label": "contract OperatorInterface",
        "numberOfBytes": "20"
      },
      "t_contract(Registry)11718": {
        "encoding": "inplace",
        "label": "contract Registry",
        "numberOfBytes": "20"
      },
      "t_mapping(t_bytes32,t_address)": {
        "encoding": "mapping",
        "key": "t_bytes32",
        "label": "mapping(bytes32 => address)",
        "numberOfBytes": "32",
        "value": "t_address"
      },
      "t_uint256": {
        "encoding": "inplace",
        "label": "uint256",
        "numberOfBytes": "32"
      }
    }
  }
}