{
  "address": "0xC7860B0c1EAe885f7aCbD7fdD336CE48B4b0c5F6",
  "abi": [
    {
      "inputs": [
        {
          "internalType": "address",
          "name": "_registry",
          "type": "address"
        }
      ],
      "stateMutability": "nonpayable",
      "type": "constructor"
    },
    {
      "anonymous": false,
      "inputs": [
        {
          "indexed": true,
          "internalType": "address",
          "name": "from",
          "type": "address"
        },
        {
          "indexed": true,
          "internalType": "uint256",
          "name": "fundId",
          "type": "uint256"
        },
        {
          "indexed": true,
          "internalType": "address",
          "name": "tokenAddress",
          "type": "address"
        },
        {
          "indexed": false,
          "internalType": "uint256",
          "name": "value",
          "type": "uint256"
        }
      ],
      "name": "Donated",
      "type": "event"
    },
    {
      "anonymous": false,
      "inputs": [
        {
          "indexed": true,
          "internalType": "address",
          "name": "previousOwner",
          "type": "address"
        },
        {
          "indexed": true,
          "internalType": "address",
          "name": "newOwner",
          "type": "address"
        }
      ],
      "name": "OwnershipTransferred",
      "type": "event"
    },
    {
      "inputs": [],
      "name": "MINTER_ROLE",
      "outputs": [
        {
          "internalType": "bytes32",
          "name": "",
          "type": "bytes32"
        }
      ],
      "stateMutability": "view",
      "type": "function"
    },
    {
      "inputs": [
        {
          "internalType": "uint256",
          "name": "_fundId",
          "type": "uint256"
        },
        {
          "internalType": "address",
          "name": "_tokenAddress",
          "type": "address"
        },
        {
          "internalType": "uint256",
          "name": "_amount",
          "type": "uint256"
        }
      ],
      "name": "donate",
      "outputs": [
        {
          "internalType": "bool",
          "name": "",
          "type": "bool"
        }
      ],
      "stateMutability": "nonpayable",
      "type": "function"
    },
    {
      "inputs": [],
      "name": "owner",
      "outputs": [
        {
          "internalType": "address",
          "name": "",
          "type": "address"
        }
      ],
      "stateMutability": "view",
      "type": "function"
    },
    {
      "inputs": [],
      "name": "renounceOwnership",
      "outputs": [],
      "stateMutability": "nonpayable",
      "type": "function"
    },
    {
      "inputs": [
        {
          "internalType": "address",
          "name": "newOwner",
          "type": "address"
        }
      ],
      "name": "transferOwnership",
      "outputs": [],
      "stateMutability": "nonpayable",
      "type": "function"
    }
  ],
  "transactionHash": "0x7f62bb3efc39ab40a435b6e7b113eb9b42492397c0ea85563dfa9cc7d3803104",
  "args": [
    "0xEB131cE3F45630269031D0515c109184Cb261982"
  ],
  "numDeployments": 1,
  "solcInputHash": "97977cda316c6e4de5c4224109da374e",
  "bytecode": "0x60806040523480156200001157600080fd5b50604051620012af380380620012af8339818101604052810190620000379190620001d8565b80806000806101000a81548173ffffffffffffffffffffffffffffffffffffffff021916908373ffffffffffffffffffffffffffffffffffffffff16021790555050620000996200008d620000a060201b60201c565b620000a860201b60201c565b506200020a565b600033905090565b6000600160009054906101000a900473ffffffffffffffffffffffffffffffffffffffff16905081600160006101000a81548173ffffffffffffffffffffffffffffffffffffffff021916908373ffffffffffffffffffffffffffffffffffffffff1602179055508173ffffffffffffffffffffffffffffffffffffffff168173ffffffffffffffffffffffffffffffffffffffff167f8be0079c531659141344cd1fd0a4f28419497f9722a3daafe3b4186f6b6457e060405160405180910390a35050565b600080fd5b600073ffffffffffffffffffffffffffffffffffffffff82169050919050565b6000620001a08262000173565b9050919050565b620001b28162000193565b8114620001be57600080fd5b50565b600081519050620001d281620001a7565b92915050565b600060208284031215620001f157620001f06200016e565b5b60006200020184828501620001c1565b91505092915050565b611095806200021a6000396000f3fe608060405234801561001057600080fd5b50600436106100575760003560e01c806325fb26801461005c578063715018a61461008c5780638da5cb5b14610096578063d5391393146100b4578063f2fde38b146100d2575b600080fd5b610076600480360381019061007191906109f8565b6100ee565b6040516100839190610a66565b60405180910390f35b61009461011d565b005b61009e6101a5565b6040516100ab9190610a90565b60405180910390f35b6100bc6101cf565b6040516100c99190610ac4565b60405180910390f35b6100ec60048036038101906100e79190610adf565b6101f3565b005b6000610105846100fe86866102eb565b8486610398565b61011133858486610431565b50600190509392505050565b6101256104e7565b73ffffffffffffffffffffffffffffffffffffffff166101436101a5565b73ffffffffffffffffffffffffffffffffffffffff1614610199576040517f08c379a000000000000000000000000000000000000000000000000000000000815260040161019090610b69565b60405180910390fd5b6101a360006104ef565b565b6000600160009054906101000a900473ffffffffffffffffffffffffffffffffffffffff16905090565b7f9f2df0fed2c77648de5860a4cc508cd0818c85b8b8a1ab4ceeef8d981c8956a681565b6101fb6104e7565b73ffffffffffffffffffffffffffffffffffffffff166102196101a5565b73ffffffffffffffffffffffffffffffffffffffff161461026f576040517f08c379a000000000000000000000000000000000000000000000000000000000815260040161026690610b69565b60405180910390fd5b600073ffffffffffffffffffffffffffffffffffffffff168173ffffffffffffffffffffffffffffffffffffffff1614156102df576040517f08c379a00000000000000000000000000000000000000000000000000000000081526004016102d690610bfb565b60405180910390fd5b6102e8816104ef565b50565b60006103167f46554e445f4d414e4147455200000000000000000000000000000000000000006105b5565b73ffffffffffffffffffffffffffffffffffffffff16624b287c84846040518363ffffffff1660e01b815260040161034f929190610c2a565b602060405180830381865afa15801561036c573d6000803e3d6000fd5b505050506040513d601f19601f820116820180604052508101906103909190610c68565b905092915050565b6103c53384848473ffffffffffffffffffffffffffffffffffffffff16610659909392919063ffffffff16565b8073ffffffffffffffffffffffffffffffffffffffff16843373ffffffffffffffffffffffffffffffffffffffff167fe2b926343fa3ba7319ed9e48decc996ea956c8fdf560973a4522fb2db38ac78e856040516104239190610c95565b60405180910390a450505050565b600061045c7f534f5300000000000000000000000000000000000000000000000000000000006105b5565b73ffffffffffffffffffffffffffffffffffffffff1663f74bfe8e868686866040518563ffffffff1660e01b815260040161049a9493929190610cb0565b6020604051808303816000875af11580156104b9573d6000803e3d6000fd5b505050506040513d601f19601f820116820180604052508101906104dd9190610d0a565b9050949350505050565b600033905090565b6000600160009054906101000a900473ffffffffffffffffffffffffffffffffffffffff16905081600160006101000a81548173ffffffffffffffffffffffffffffffffffffffff021916908373ffffffffffffffffffffffffffffffffffffffff1602179055508173ffffffffffffffffffffffffffffffffffffffff168173ffffffffffffffffffffffffffffffffffffffff167f8be0079c531659141344cd1fd0a4f28419497f9722a3daafe3b4186f6b6457e060405160405180910390a35050565b60008060009054906101000a900473ffffffffffffffffffffffffffffffffffffffff1673ffffffffffffffffffffffffffffffffffffffff16638eaa6ac0836040518263ffffffff1660e01b81526004016106119190610ac4565b602060405180830381865afa15801561062e573d6000803e3d6000fd5b505050506040513d601f19601f820116820180604052508101906106529190610c68565b9050919050565b6106dc846323b872dd60e01b85858560405160240161067a93929190610d37565b604051602081830303815290604052907bffffffffffffffffffffffffffffffffffffffffffffffffffffffff19166020820180517bffffffffffffffffffffffffffffffffffffffffffffffffffffffff83818316178352505050506106e2565b50505050565b6000610744826040518060400160405280602081526020017f5361666545524332303a206c6f772d6c6576656c2063616c6c206661696c65648152508573ffffffffffffffffffffffffffffffffffffffff166107a99092919063ffffffff16565b90506000815111156107a457808060200190518101906107649190610d9a565b6107a3576040517f08c379a000000000000000000000000000000000000000000000000000000000815260040161079a90610e39565b60405180910390fd5b5b505050565b60606107b884846000856107c1565b90509392505050565b606082471015610806576040517f08c379a00000000000000000000000000000000000000000000000000000000081526004016107fd90610ecb565b60405180910390fd5b61080f856108d5565b61084e576040517f08c379a000000000000000000000000000000000000000000000000000000000815260040161084590610f37565b60405180910390fd5b6000808673ffffffffffffffffffffffffffffffffffffffff1685876040516108779190610fd1565b60006040518083038185875af1925050503d80600081146108b4576040519150601f19603f3d011682016040523d82523d6000602084013e6108b9565b606091505b50915091506108c98282866108f8565b92505050949350505050565b6000808273ffffffffffffffffffffffffffffffffffffffff163b119050919050565b6060831561090857829050610958565b60008351111561091b5782518084602001fd5b816040517f08c379a000000000000000000000000000000000000000000000000000000000815260040161094f919061103d565b60405180910390fd5b9392505050565b600080fd5b6000819050919050565b61097781610964565b811461098257600080fd5b50565b6000813590506109948161096e565b92915050565b600073ffffffffffffffffffffffffffffffffffffffff82169050919050565b60006109c58261099a565b9050919050565b6109d5816109ba565b81146109e057600080fd5b50565b6000813590506109f2816109cc565b92915050565b600080600060608486031215610a1157610a1061095f565b5b6000610a1f86828701610985565b9350506020610a30868287016109e3565b9250506040610a4186828701610985565b9150509250925092565b60008115159050919050565b610a6081610a4b565b82525050565b6000602082019050610a7b6000830184610a57565b92915050565b610a8a816109ba565b82525050565b6000602082019050610aa56000830184610a81565b92915050565b6000819050919050565b610abe81610aab565b82525050565b6000602082019050610ad96000830184610ab5565b92915050565b600060208284031215610af557610af461095f565b5b6000610b03848285016109e3565b91505092915050565b600082825260208201905092915050565b7f4f776e61626c653a2063616c6c6572206973206e6f7420746865206f776e6572600082015250565b6000610b53602083610b0c565b9150610b5e82610b1d565b602082019050919050565b60006020820190508181036000830152610b8281610b46565b9050919050565b7f4f776e61626c653a206e6577206f776e657220697320746865207a65726f206160008201527f6464726573730000000000000000000000000000000000000000000000000000602082015250565b6000610be5602683610b0c565b9150610bf082610b89565b604082019050919050565b60006020820190508181036000830152610c1481610bd8565b9050919050565b610c2481610964565b82525050565b6000604082019050610c3f6000830185610c1b565b610c4c6020830184610a81565b9392505050565b600081519050610c62816109cc565b92915050565b600060208284031215610c7e57610c7d61095f565b5b6000610c8c84828501610c53565b91505092915050565b6000602082019050610caa6000830184610c1b565b92915050565b6000608082019050610cc56000830187610a81565b610cd26020830186610c1b565b610cdf6040830185610c1b565b610cec6060830184610a81565b95945050505050565b600081519050610d048161096e565b92915050565b600060208284031215610d2057610d1f61095f565b5b6000610d2e84828501610cf5565b91505092915050565b6000606082019050610d4c6000830186610a81565b610d596020830185610a81565b610d666040830184610c1b565b949350505050565b610d7781610a4b565b8114610d8257600080fd5b50565b600081519050610d9481610d6e565b92915050565b600060208284031215610db057610daf61095f565b5b6000610dbe84828501610d85565b91505092915050565b7f5361666545524332303a204552433230206f7065726174696f6e20646964206e60008201527f6f74207375636365656400000000000000000000000000000000000000000000602082015250565b6000610e23602a83610b0c565b9150610e2e82610dc7565b604082019050919050565b60006020820190508181036000830152610e5281610e16565b9050919050565b7f416464726573733a20696e73756666696369656e742062616c616e636520666f60008201527f722063616c6c0000000000000000000000000000000000000000000000000000602082015250565b6000610eb5602683610b0c565b9150610ec082610e59565b604082019050919050565b60006020820190508181036000830152610ee481610ea8565b9050919050565b7f416464726573733a2063616c6c20746f206e6f6e2d636f6e7472616374000000600082015250565b6000610f21601d83610b0c565b9150610f2c82610eeb565b602082019050919050565b60006020820190508181036000830152610f5081610f14565b9050919050565b600081519050919050565b600081905092915050565b60005b83811015610f8b578082015181840152602081019050610f70565b83811115610f9a576000848401525b50505050565b6000610fab82610f57565b610fb58185610f62565b9350610fc5818560208601610f6d565b80840191505092915050565b6000610fdd8284610fa0565b915081905092915050565b600081519050919050565b6000601f19601f8301169050919050565b600061100f82610fe8565b6110198185610b0c565b9350611029818560208601610f6d565b61103281610ff3565b840191505092915050565b600060208201905081810360008301526110578184611004565b90509291505056fea2646970667358221220402d126bcf82698b59d460af854f14536f107e0afc6b61919a5ef5e59a4fb31c64736f6c634300080a0033",
  "devdoc": {
    "kind": "dev",
    "methods": {
      "donate(uint256,address,uint256)": {
        "details": "deposit into the safe",
        "params": {
          "_amount": "amount to deposit",
          "_fundId": "unique identifier of the fund to deposit into",
          "_tokenAddress": "ERC20 address"
        }
      },
      "owner()": {
        "details": "Returns the address of the current owner."
      },
      "renounceOwnership()": {
        "details": "Leaves the contract without owner. It will not be possible to call `onlyOwner` functions anymore. Can only be called by the current owner. NOTE: Renouncing ownership will leave the contract without an owner, thereby removing any functionality that is only available to the owner."
      },
      "transferOwnership(address)": {
        "details": "Transfers ownership of the contract to a new account (`newOwner`). Can only be called by the current owner."
      }
    },
    "version": 1
  },
  "userdoc": {
    "kind": "user",
    "methods": {},
    "version": 1
  },
  "storageLayout": {
    "storage": [
      {
        "astId": 5366,
        "contract": "contracts/Donation.sol:Donation",
        "label": "registry",
        "offset": 0,
        "slot": "0",
        "type": "t_contract(Registry)5515"
      },
      {
        "astId": 389,
        "contract": "contracts/Donation.sol:Donation",
        "label": "_owner",
        "offset": 0,
        "slot": "1",
        "type": "t_address"
      }
    ],
    "types": {
      "t_address": {
        "encoding": "inplace",
        "label": "address",
        "numberOfBytes": "20"
      },
      "t_contract(Registry)5515": {
        "encoding": "inplace",
        "label": "contract Registry",
        "numberOfBytes": "20"
      }
    }
  }
}