{
  "address": "0x198506326a4bf7Bba2723570Df65269070D6EDC0",
  "abi": [
    {
      "inputs": [],
      "name": "Forbidden",
      "type": "error"
    },
    {
      "inputs": [],
      "name": "NotAllowed",
      "type": "error"
    },
    {
      "inputs": [],
      "name": "TokenNotAllowed",
      "type": "error"
    },
    {
      "anonymous": false,
      "inputs": [
        {
          "indexed": true,
          "internalType": "bytes32",
          "name": "role",
          "type": "bytes32"
        },
        {
          "indexed": true,
          "internalType": "bytes32",
          "name": "previousAdminRole",
          "type": "bytes32"
        },
        {
          "indexed": true,
          "internalType": "bytes32",
          "name": "newAdminRole",
          "type": "bytes32"
        }
      ],
      "name": "RoleAdminChanged",
      "type": "event"
    },
    {
      "anonymous": false,
      "inputs": [
        {
          "indexed": true,
          "internalType": "bytes32",
          "name": "role",
          "type": "bytes32"
        },
        {
          "indexed": true,
          "internalType": "address",
          "name": "account",
          "type": "address"
        },
        {
          "indexed": true,
          "internalType": "address",
          "name": "sender",
          "type": "address"
        }
      ],
      "name": "RoleGranted",
      "type": "event"
    },
    {
      "anonymous": false,
      "inputs": [
        {
          "indexed": true,
          "internalType": "bytes32",
          "name": "role",
          "type": "bytes32"
        },
        {
          "indexed": true,
          "internalType": "address",
          "name": "account",
          "type": "address"
        },
        {
          "indexed": true,
          "internalType": "address",
          "name": "sender",
          "type": "address"
        }
      ],
      "name": "RoleRevoked",
      "type": "event"
    },
    {
      "inputs": [],
      "name": "DEFAULT_ADMIN_ROLE",
      "outputs": [
        {
          "internalType": "bytes32",
          "name": "",
          "type": "bytes32"
        }
      ],
      "stateMutability": "view",
      "type": "function"
    },
    {
      "inputs": [
        {
          "internalType": "address",
          "name": "_address",
          "type": "address"
        }
      ],
      "name": "addToken",
      "outputs": [
        {
          "internalType": "bool",
          "name": "",
          "type": "bool"
        }
      ],
      "stateMutability": "nonpayable",
      "type": "function"
    },
    {
      "inputs": [],
      "name": "close",
      "outputs": [
        {
          "internalType": "bool",
          "name": "",
          "type": "bool"
        }
      ],
      "stateMutability": "nonpayable",
      "type": "function"
    },
    {
      "inputs": [],
      "name": "description",
      "outputs": [
        {
          "internalType": "string",
          "name": "",
          "type": "string"
        }
      ],
      "stateMutability": "view",
      "type": "function"
    },
    {
      "inputs": [],
      "name": "focus",
      "outputs": [
        {
          "internalType": "string",
          "name": "",
          "type": "string"
        }
      ],
      "stateMutability": "view",
      "type": "function"
    },
    {
      "inputs": [],
      "name": "getAllowedTokens",
      "outputs": [
        {
          "internalType": "address[]",
          "name": "",
          "type": "address[]"
        }
      ],
      "stateMutability": "view",
      "type": "function"
    },
    {
      "inputs": [
        {
          "internalType": "address",
          "name": "_tokenAddress",
          "type": "address"
        }
      ],
      "name": "getDepositAddressFor",
      "outputs": [
        {
          "internalType": "address",
          "name": "",
          "type": "address"
        }
      ],
      "stateMutability": "view",
      "type": "function"
    },
    {
      "inputs": [],
      "name": "getMeta",
      "outputs": [
        {
          "internalType": "string",
          "name": "",
          "type": "string"
        },
        {
          "internalType": "string",
          "name": "",
          "type": "string"
        },
        {
          "internalType": "string",
          "name": "",
          "type": "string"
        }
      ],
      "stateMutability": "view",
      "type": "function"
    },
    {
      "inputs": [
        {
          "internalType": "bytes32",
          "name": "role",
          "type": "bytes32"
        }
      ],
      "name": "getRoleAdmin",
      "outputs": [
        {
          "internalType": "bytes32",
          "name": "",
          "type": "bytes32"
        }
      ],
      "stateMutability": "view",
      "type": "function"
    },
    {
      "inputs": [
        {
          "internalType": "bytes32",
          "name": "role",
          "type": "bytes32"
        },
        {
          "internalType": "address",
          "name": "account",
          "type": "address"
        }
      ],
      "name": "grantRole",
      "outputs": [],
      "stateMutability": "nonpayable",
      "type": "function"
    },
    {
      "inputs": [
        {
          "internalType": "bytes32",
          "name": "role",
          "type": "bytes32"
        },
        {
          "internalType": "address",
          "name": "account",
          "type": "address"
        }
      ],
      "name": "hasRole",
      "outputs": [
        {
          "internalType": "bool",
          "name": "",
          "type": "bool"
        }
      ],
      "stateMutability": "view",
      "type": "function"
    },
    {
      "inputs": [],
      "name": "id",
      "outputs": [
        {
          "internalType": "uint256",
          "name": "",
          "type": "uint256"
        }
      ],
      "stateMutability": "view",
      "type": "function"
    },
    {
      "inputs": [
        {
          "internalType": "uint256",
          "name": "_id",
          "type": "uint256"
        },
        {
          "internalType": "string",
          "name": "_name",
          "type": "string"
        },
        {
          "internalType": "string",
          "name": "_focus",
          "type": "string"
        },
        {
          "internalType": "string",
          "name": "_description",
          "type": "string"
        },
        {
          "internalType": "address[]",
          "name": "_allowedTokens",
          "type": "address[]"
        },
        {
          "internalType": "address",
          "name": "_safeAddress",
          "type": "address"
        },
        {
          "internalType": "address",
          "name": "_owner",
          "type": "address"
        }
      ],
      "name": "initialize",
      "outputs": [],
      "stateMutability": "nonpayable",
      "type": "function"
    },
    {
      "inputs": [],
      "name": "isOpen",
      "outputs": [
        {
          "internalType": "bool",
          "name": "",
          "type": "bool"
        }
      ],
      "stateMutability": "view",
      "type": "function"
    },
    {
      "inputs": [
        {
          "internalType": "address",
          "name": "_address",
          "type": "address"
        }
      ],
      "name": "isTokenAllowed",
      "outputs": [
        {
          "internalType": "bool",
          "name": "",
          "type": "bool"
        }
      ],
      "stateMutability": "view",
      "type": "function"
    },
    {
      "inputs": [],
      "name": "name",
      "outputs": [
        {
          "internalType": "string",
          "name": "",
          "type": "string"
        }
      ],
      "stateMutability": "view",
      "type": "function"
    },
    {
      "inputs": [],
      "name": "pause",
      "outputs": [
        {
          "internalType": "bool",
          "name": "",
          "type": "bool"
        }
      ],
      "stateMutability": "nonpayable",
      "type": "function"
    },
    {
      "inputs": [
        {
          "internalType": "address",
          "name": "_address",
          "type": "address"
        }
      ],
      "name": "removeToken",
      "outputs": [
        {
          "internalType": "bool",
          "name": "",
          "type": "bool"
        }
      ],
      "stateMutability": "nonpayable",
      "type": "function"
    },
    {
      "inputs": [
        {
          "internalType": "bytes32",
          "name": "role",
          "type": "bytes32"
        },
        {
          "internalType": "address",
          "name": "account",
          "type": "address"
        }
      ],
      "name": "renounceRole",
      "outputs": [],
      "stateMutability": "nonpayable",
      "type": "function"
    },
    {
      "inputs": [],
      "name": "resume",
      "outputs": [
        {
          "internalType": "bool",
          "name": "",
          "type": "bool"
        }
      ],
      "stateMutability": "nonpayable",
      "type": "function"
    },
    {
      "inputs": [
        {
          "internalType": "bytes32",
          "name": "role",
          "type": "bytes32"
        },
        {
          "internalType": "address",
          "name": "account",
          "type": "address"
        }
      ],
      "name": "revokeRole",
      "outputs": [],
      "stateMutability": "nonpayable",
      "type": "function"
    },
    {
      "inputs": [],
      "name": "status",
      "outputs": [
        {
          "internalType": "enum Status",
          "name": "",
          "type": "uint8"
        }
      ],
      "stateMutability": "view",
      "type": "function"
    },
    {
      "inputs": [
        {
          "internalType": "bytes4",
          "name": "interfaceId",
          "type": "bytes4"
        }
      ],
      "name": "supportsInterface",
      "outputs": [
        {
          "internalType": "bool",
          "name": "",
          "type": "bool"
        }
      ],
      "stateMutability": "view",
      "type": "function"
    }
  ],
  "transactionHash": "0xf37a37eac5236a278fa31af8a16bea8bc4ee6415a1312160dec2f392a76c3a94",
  "args": [],
  "numDeployments": 1,
  "solcInputHash": "97977cda316c6e4de5c4224109da374e",
  "bytecode": "0x608060405234801561001057600080fd5b50612511806100206000396000f3fe608060405234801561001057600080fd5b506004361061014d5760003560e01c806347535d7b116100c3578063a217fddf1161007c578063a217fddf146103a4578063a79af2ce146103c2578063af640d0f146103e2578063d48bfca714610400578063d547741f14610430578063f9eaee0d1461044c5761014d565b806347535d7b146102cc5780635fa7b584146102ea5780637284e4161461031a578063805421ed146103385780638456cb591461035657806391d14854146103745761014d565b8063233fd7ed11610115578063233fd7ed146101fa578063248a9ca31461022a5780632ba3c4d21461025a5780632f2ff15d1461027657806336568abe1461029257806343d726d6146102ae5761014d565b806301ffc9a714610152578063024ece8914610182578063046f7da2146101a057806306fdde03146101be578063200d2ed2146101dc575b600080fd5b61016c600480360381019061016791906118bd565b61047c565b6040516101799190611905565b60405180910390f35b61018a6104f6565b6040516101979190611a10565b60405180910390f35b6101a8610507565b6040516101b59190611905565b60405180910390f35b6101c661059b565b6040516101d39190611acb565b60405180910390f35b6101e4610629565b6040516101f19190611b64565b60405180910390f35b610214600480360381019061020f9190611bab565b61063c565b6040516102219190611be7565b60405180910390f35b610244600480360381019061023f9190611c38565b61079c565b6040516102519190611c74565b60405180910390f35b610274600480360381019061026f9190611ec2565b6107bb565b005b610290600480360381019061028b9190611fd4565b6109a1565b005b6102ac60048036038101906102a79190611fd4565b6109ca565b005b6102b6610a4d565b6040516102c39190611905565b60405180910390f35b6102d4610ae1565b6040516102e19190611905565b60405180910390f35b61030460048036038101906102ff9190611bab565b610b1e565b6040516103119190611905565b60405180910390f35b610322610b51565b60405161032f9190611acb565b60405180910390f35b610340610bdf565b60405161034d9190611acb565b60405180910390f35b61035e610c6d565b60405161036b9190611905565b60405180910390f35b61038e60048036038101906103899190611fd4565b610d01565b60405161039b9190611905565b60405180910390f35b6103ac610d6b565b6040516103b99190611c74565b60405180910390f35b6103ca610d72565b6040516103d993929190612014565b60405180910390f35b6103ea610f2c565b6040516103f7919061206f565b60405180910390f35b61041a60048036038101906104159190611bab565b610f32565b6040516104279190611905565b60405180910390f35b61044a60048036038101906104459190611fd4565b610f65565b005b61046660048036038101906104619190611bab565b610f8e565b6040516104739190611905565b60405180910390f35b60007f7965db0b000000000000000000000000000000000000000000000000000000007bffffffffffffffffffffffffffffffffffffffffffffffffffffffff1916827bffffffffffffffffffffffffffffffffffffffffffffffffffffffff191614806104ef57506104ee82610fab565b5b9050919050565b60606105026001611015565b905090565b60008060001b61051e81610519611036565b61103e565b6001600281111561053257610531611aed565b5b600760009054906101000a900460ff16600281111561055457610553611aed565b5b1461058b576040517f3d693ada00000000000000000000000000000000000000000000000000000000815260040160405180910390fd5b61059560006110db565b91505090565b600480546105a8906120b9565b80601f01602080910402602001604051908101604052809291908181526020018280546105d4906120b9565b80156106215780601f106105f657610100808354040283529160200191610621565b820191906000526020600020905b81548152906001019060200180831161060457829003601f168201915b505050505081565b600760009054906101000a900460ff1681565b600080600281111561065157610650611aed565b5b600760009054906101000a900460ff16600281111561067357610672611aed565b5b146106aa576040517f3d693ada00000000000000000000000000000000000000000000000000000000815260040160405180910390fd5b6106b382610f8e565b6106e9576040517f3d693ada00000000000000000000000000000000000000000000000000000000815260040160405180910390fd5b600073ffffffffffffffffffffffffffffffffffffffff16600860009054906101000a900473ffffffffffffffffffffffffffffffffffffffff1673ffffffffffffffffffffffffffffffffffffffff161415610772576040517f3d693ada00000000000000000000000000000000000000000000000000000000815260040160405180910390fd5b600860009054906101000a900473ffffffffffffffffffffffffffffffffffffffff169050919050565b6000806000838152602001908152602001600020600101549050919050565b600073ffffffffffffffffffffffffffffffffffffffff16600760019054906101000a900473ffffffffffffffffffffffffffffffffffffffff1673ffffffffffffffffffffffffffffffffffffffff1614610843576040517fee90c46800000000000000000000000000000000000000000000000000000000815260040160405180910390fd5b6108506000801b82611110565b8660038190555033600760016101000a81548173ffffffffffffffffffffffffffffffffffffffff021916908373ffffffffffffffffffffffffffffffffffffffff16021790555085600490805190602001906108ae9291906117ae565b5084600590805190602001906108c59291906117ae565b5083600690805190602001906108dc9291906117ae565b5081600860006101000a81548173ffffffffffffffffffffffffffffffffffffffff021916908373ffffffffffffffffffffffffffffffffffffffff1602179055506000600760006101000a81548160ff0219169083600281111561094457610943611aed565b5b021790555060005b83518110156109975761098384828151811061096b5761096a6120eb565b5b6020026020010151600161111e90919063ffffffff16565b50808061098f90612149565b91505061094c565b5050505050505050565b6109aa8261079c565b6109bb816109b6611036565b61103e565b6109c5838361114e565b505050565b6109d2611036565b73ffffffffffffffffffffffffffffffffffffffff168173ffffffffffffffffffffffffffffffffffffffff1614610a3f576040517f08c379a0000000000000000000000000000000000000000000000000000000008152600401610a3690612204565b60405180910390fd5b610a49828261122e565b5050565b60008060001b610a6481610a5f611036565b61103e565b600280811115610a7757610a76611aed565b5b600760009054906101000a900460ff166002811115610a9957610a98611aed565b5b1415610ad1576040517f3d693ada00000000000000000000000000000000000000000000000000000000815260040160405180910390fd5b610adb60026110db565b91505090565b6000806002811115610af657610af5611aed565b5b600760009054906101000a900460ff166002811115610b1857610b17611aed565b5b14905090565b60008060001b610b3581610b30611036565b61103e565b610b4983600161130f90919063ffffffff16565b915050919050565b60068054610b5e906120b9565b80601f0160208091040260200160405190810160405280929190818152602001828054610b8a906120b9565b8015610bd75780601f10610bac57610100808354040283529160200191610bd7565b820191906000526020600020905b815481529060010190602001808311610bba57829003601f168201915b505050505081565b60058054610bec906120b9565b80601f0160208091040260200160405190810160405280929190818152602001828054610c18906120b9565b8015610c655780601f10610c3a57610100808354040283529160200191610c65565b820191906000526020600020905b815481529060010190602001808311610c4857829003601f168201915b505050505081565b60008060001b610c8481610c7f611036565b61103e565b60006002811115610c9857610c97611aed565b5b600760009054906101000a900460ff166002811115610cba57610cb9611aed565b5b14610cf1576040517f3d693ada00000000000000000000000000000000000000000000000000000000815260040160405180910390fd5b610cfb60016110db565b91505090565b600080600084815260200190815260200160002060000160008373ffffffffffffffffffffffffffffffffffffffff1673ffffffffffffffffffffffffffffffffffffffff16815260200190815260200160002060009054906101000a900460ff16905092915050565b6000801b81565b6060806060600460056006828054610d89906120b9565b80601f0160208091040260200160405190810160405280929190818152602001828054610db5906120b9565b8015610e025780601f10610dd757610100808354040283529160200191610e02565b820191906000526020600020905b815481529060010190602001808311610de557829003601f168201915b50505050509250818054610e15906120b9565b80601f0160208091040260200160405190810160405280929190818152602001828054610e41906120b9565b8015610e8e5780601f10610e6357610100808354040283529160200191610e8e565b820191906000526020600020905b815481529060010190602001808311610e7157829003601f168201915b50505050509150808054610ea1906120b9565b80601f0160208091040260200160405190810160405280929190818152602001828054610ecd906120b9565b8015610f1a5780601f10610eef57610100808354040283529160200191610f1a565b820191906000526020600020905b815481529060010190602001808311610efd57829003601f168201915b50505050509050925092509250909192565b60035481565b60008060001b610f4981610f44611036565b61103e565b610f5d83600161111e90919063ffffffff16565b915050919050565b610f6e8261079c565b610f7f81610f7a611036565b61103e565b610f89838361122e565b505050565b6000610fa482600161133f90919063ffffffff16565b9050919050565b60007f01ffc9a7000000000000000000000000000000000000000000000000000000007bffffffffffffffffffffffffffffffffffffffffffffffffffffffff1916827bffffffffffffffffffffffffffffffffffffffffffffffffffffffff1916149050919050565b606060006110258360000161136f565b905060608190508092505050919050565b600033905090565b6110488282610d01565b6110d75761106d8173ffffffffffffffffffffffffffffffffffffffff1660146113cb565b61107b8360001c60206113cb565b60405160200161108c9291906122f8565b6040516020818303038152906040526040517f08c379a00000000000000000000000000000000000000000000000000000000081526004016110ce9190611acb565b60405180910390fd5b5050565b600081600760006101000a81548160ff0219169083600281111561110257611101611aed565b5b021790555060019050919050565b61111a828261114e565b5050565b6000611146836000018373ffffffffffffffffffffffffffffffffffffffff1660001b611607565b905092915050565b6111588282610d01565b61122a57600160008084815260200190815260200160002060000160008373ffffffffffffffffffffffffffffffffffffffff1673ffffffffffffffffffffffffffffffffffffffff16815260200190815260200160002060006101000a81548160ff0219169083151502179055506111cf611036565b73ffffffffffffffffffffffffffffffffffffffff168173ffffffffffffffffffffffffffffffffffffffff16837f2f8788117e7eff1d82e926ec794901d17c78024a50270940304540a733656f0d60405160405180910390a45b5050565b6112388282610d01565b1561130b57600080600084815260200190815260200160002060000160008373ffffffffffffffffffffffffffffffffffffffff1673ffffffffffffffffffffffffffffffffffffffff16815260200190815260200160002060006101000a81548160ff0219169083151502179055506112b0611036565b73ffffffffffffffffffffffffffffffffffffffff168173ffffffffffffffffffffffffffffffffffffffff16837ff6391f5c32d9c69d2a47ea670b442974b53935d1edc7fd64eb21e047a839171b60405160405180910390a45b5050565b6000611337836000018373ffffffffffffffffffffffffffffffffffffffff1660001b611677565b905092915050565b6000611367836000018373ffffffffffffffffffffffffffffffffffffffff1660001b61178b565b905092915050565b6060816000018054806020026020016040519081016040528092919081815260200182805480156113bf57602002820191906000526020600020905b8154815260200190600101908083116113ab575b50505050509050919050565b6060600060028360026113de9190612332565b6113e8919061238c565b67ffffffffffffffff81111561140157611400611ccf565b5b6040519080825280601f01601f1916602001820160405280156114335781602001600182028036833780820191505090505b5090507f30000000000000000000000000000000000000000000000000000000000000008160008151811061146b5761146a6120eb565b5b60200101907effffffffffffffffffffffffffffffffffffffffffffffffffffffffffffff1916908160001a9053507f7800000000000000000000000000000000000000000000000000000000000000816001815181106114cf576114ce6120eb565b5b60200101907effffffffffffffffffffffffffffffffffffffffffffffffffffffffffffff1916908160001a9053506000600184600261150f9190612332565b611519919061238c565b90505b60018111156115b9577f3031323334353637383961626364656600000000000000000000000000000000600f86166010811061155b5761155a6120eb565b5b1a60f81b828281518110611572576115716120eb565b5b60200101907effffffffffffffffffffffffffffffffffffffffffffffffffffffffffffff1916908160001a905350600485901c9450806115b2906123e2565b905061151c565b50600084146115fd576040517f08c379a00000000000000000000000000000000000000000000000000000000081526004016115f490612458565b60405180910390fd5b8091505092915050565b6000611613838361178b565b61166c578260000182908060018154018082558091505060019003906000526020600020016000909190919091505582600001805490508360010160008481526020019081526020016000208190555060019050611671565b600090505b92915050565b6000808360010160008481526020019081526020016000205490506000811461177f5760006001826116a99190612478565b90506000600186600001805490506116c19190612478565b90508181146117305760008660000182815481106116e2576116e16120eb565b5b9060005260206000200154905080876000018481548110611706576117056120eb565b5b90600052602060002001819055508387600101600083815260200190815260200160002081905550505b85600001805480611744576117436124ac565b5b600190038181906000526020600020016000905590558560010160008681526020019081526020016000206000905560019350505050611785565b60009150505b92915050565b600080836001016000848152602001908152602001600020541415905092915050565b8280546117ba906120b9565b90600052602060002090601f0160209004810192826117dc5760008555611823565b82601f106117f557805160ff1916838001178555611823565b82800160010185558215611823579182015b82811115611822578251825591602001919060010190611807565b5b5090506118309190611834565b5090565b5b8082111561184d576000816000905550600101611835565b5090565b6000604051905090565b600080fd5b600080fd5b60007fffffffff0000000000000000000000000000000000000000000000000000000082169050919050565b61189a81611865565b81146118a557600080fd5b50565b6000813590506118b781611891565b92915050565b6000602082840312156118d3576118d261185b565b5b60006118e1848285016118a8565b91505092915050565b60008115159050919050565b6118ff816118ea565b82525050565b600060208201905061191a60008301846118f6565b92915050565b600081519050919050565b600082825260208201905092915050565b6000819050602082019050919050565b600073ffffffffffffffffffffffffffffffffffffffff82169050919050565b60006119778261194c565b9050919050565b6119878161196c565b82525050565b6000611999838361197e565b60208301905092915050565b6000602082019050919050565b60006119bd82611920565b6119c7818561192b565b93506119d28361193c565b8060005b83811015611a035781516119ea888261198d565b97506119f5836119a5565b9250506001810190506119d6565b5085935050505092915050565b60006020820190508181036000830152611a2a81846119b2565b905092915050565b600081519050919050565b600082825260208201905092915050565b60005b83811015611a6c578082015181840152602081019050611a51565b83811115611a7b576000848401525b50505050565b6000601f19601f8301169050919050565b6000611a9d82611a32565b611aa78185611a3d565b9350611ab7818560208601611a4e565b611ac081611a81565b840191505092915050565b60006020820190508181036000830152611ae58184611a92565b905092915050565b7f4e487b7100000000000000000000000000000000000000000000000000000000600052602160045260246000fd5b60038110611b2d57611b2c611aed565b5b50565b6000819050611b3e82611b1c565b919050565b6000611b4e82611b30565b9050919050565b611b5e81611b43565b82525050565b6000602082019050611b796000830184611b55565b92915050565b611b888161196c565b8114611b9357600080fd5b50565b600081359050611ba581611b7f565b92915050565b600060208284031215611bc157611bc061185b565b5b6000611bcf84828501611b96565b91505092915050565b611be18161196c565b82525050565b6000602082019050611bfc6000830184611bd8565b92915050565b6000819050919050565b611c1581611c02565b8114611c2057600080fd5b50565b600081359050611c3281611c0c565b92915050565b600060208284031215611c4e57611c4d61185b565b5b6000611c5c84828501611c23565b91505092915050565b611c6e81611c02565b82525050565b6000602082019050611c896000830184611c65565b92915050565b6000819050919050565b611ca281611c8f565b8114611cad57600080fd5b50565b600081359050611cbf81611c99565b92915050565b600080fd5b600080fd5b7f4e487b7100000000000000000000000000000000000000000000000000000000600052604160045260246000fd5b611d0782611a81565b810181811067ffffffffffffffff82111715611d2657611d25611ccf565b5b80604052505050565b6000611d39611851565b9050611d458282611cfe565b919050565b600067ffffffffffffffff821115611d6557611d64611ccf565b5b611d6e82611a81565b9050602081019050919050565b82818337600083830152505050565b6000611d9d611d9884611d4a565b611d2f565b905082815260208101848484011115611db957611db8611cca565b5b611dc4848285611d7b565b509392505050565b600082601f830112611de157611de0611cc5565b5b8135611df1848260208601611d8a565b91505092915050565b600067ffffffffffffffff821115611e1557611e14611ccf565b5b602082029050602081019050919050565b600080fd5b6000611e3e611e3984611dfa565b611d2f565b90508083825260208201905060208402830185811115611e6157611e60611e26565b5b835b81811015611e8a5780611e768882611b96565b845260208401935050602081019050611e63565b5050509392505050565b600082601f830112611ea957611ea8611cc5565b5b8135611eb9848260208601611e2b565b91505092915050565b600080600080600080600060e0888a031215611ee157611ee061185b565b5b6000611eef8a828b01611cb0565b975050602088013567ffffffffffffffff811115611f1057611f0f611860565b5b611f1c8a828b01611dcc565b965050604088013567ffffffffffffffff811115611f3d57611f3c611860565b5b611f498a828b01611dcc565b955050606088013567ffffffffffffffff811115611f6a57611f69611860565b5b611f768a828b01611dcc565b945050608088013567ffffffffffffffff811115611f9757611f96611860565b5b611fa38a828b01611e94565b93505060a0611fb48a828b01611b96565b92505060c0611fc58a828b01611b96565b91505092959891949750929550565b60008060408385031215611feb57611fea61185b565b5b6000611ff985828601611c23565b925050602061200a85828601611b96565b9150509250929050565b6000606082019050818103600083015261202e8186611a92565b905081810360208301526120428185611a92565b905081810360408301526120568184611a92565b9050949350505050565b61206981611c8f565b82525050565b60006020820190506120846000830184612060565b92915050565b7f4e487b7100000000000000000000000000000000000000000000000000000000600052602260045260246000fd5b600060028204905060018216806120d157607f821691505b602082108114156120e5576120e461208a565b5b50919050565b7f4e487b7100000000000000000000000000000000000000000000000000000000600052603260045260246000fd5b7f4e487b7100000000000000000000000000000000000000000000000000000000600052601160045260246000fd5b600061215482611c8f565b91507fffffffffffffffffffffffffffffffffffffffffffffffffffffffffffffffff8214156121875761218661211a565b5b600182019050919050565b7f416363657373436f6e74726f6c3a2063616e206f6e6c792072656e6f756e636560008201527f20726f6c657320666f722073656c660000000000000000000000000000000000602082015250565b60006121ee602f83611a3d565b91506121f982612192565b604082019050919050565b6000602082019050818103600083015261221d816121e1565b9050919050565b600081905092915050565b7f416363657373436f6e74726f6c3a206163636f756e7420000000000000000000600082015250565b6000612265601783612224565b91506122708261222f565b601782019050919050565b600061228682611a32565b6122908185612224565b93506122a0818560208601611a4e565b80840191505092915050565b7f206973206d697373696e6720726f6c6520000000000000000000000000000000600082015250565b60006122e2601183612224565b91506122ed826122ac565b601182019050919050565b600061230382612258565b915061230f828561227b565b915061231a826122d5565b9150612326828461227b565b91508190509392505050565b600061233d82611c8f565b915061234883611c8f565b9250817fffffffffffffffffffffffffffffffffffffffffffffffffffffffffffffffff04831182151516156123815761238061211a565b5b828202905092915050565b600061239782611c8f565b91506123a283611c8f565b9250827fffffffffffffffffffffffffffffffffffffffffffffffffffffffffffffffff038211156123d7576123d661211a565b5b828201905092915050565b60006123ed82611c8f565b915060008214156124015761240061211a565b5b600182039050919050565b7f537472696e67733a20686578206c656e67746820696e73756666696369656e74600082015250565b6000612442602083611a3d565b915061244d8261240c565b602082019050919050565b6000602082019050818103600083015261247181612435565b9050919050565b600061248382611c8f565b915061248e83611c8f565b9250828210156124a1576124a061211a565b5b828203905092915050565b7f4e487b7100000000000000000000000000000000000000000000000000000000600052603160045260246000fdfea26469706673582212207836b462d4a3b7211ba1cc612bc0c648b69b8418f270c3bb6865ff10b435781764736f6c634300080a0033",
  "devdoc": {
    "kind": "dev",
    "methods": {
      "addToken(address)": {
        "details": "add a token to the list of allowed tokens",
        "params": {
          "_address": "tracker address of the token"
        },
        "returns": {
          "_0": "boolean indicating result of the operation"
        }
      },
      "close()": {
        "details": "close fund",
        "returns": {
          "_0": "boolean indicating result of the operation"
        }
      },
      "getAllowedTokens()": {
        "details": "list of allowed token contract addresses",
        "returns": {
          "_0": "return a list of allowed token contract addresses"
        }
      },
      "getDepositAddressFor(address)": {
        "details": "get deposit address for a token",
        "params": {
          "_tokenAddress": "tracker address of the token to deposit (must be an allowed token)"
        },
        "returns": {
          "_0": "deposit address for a token"
        }
      },
      "getMeta()": {
        "details": "get metadata for a fund",
        "returns": {
          "_0": "metadata of the fund"
        }
      },
      "getRoleAdmin(bytes32)": {
        "details": "Returns the admin role that controls `role`. See {grantRole} and {revokeRole}. To change a role's admin, use {_setRoleAdmin}."
      },
      "grantRole(bytes32,address)": {
        "details": "Grants `role` to `account`. If `account` had not been already granted `role`, emits a {RoleGranted} event. Requirements: - the caller must have ``role``'s admin role."
      },
      "hasRole(bytes32,address)": {
        "details": "Returns `true` if `account` has been granted `role`."
      },
      "isOpen()": {
        "details": "check if a fund is open for donations",
        "returns": {
          "_0": "boolean indicating status"
        }
      },
      "isTokenAllowed(address)": {
        "details": "add a token to the list of allowed tokens",
        "params": {
          "_address": "tracker address of the token"
        },
        "returns": {
          "_0": "boolean indicating if a token is allowed for deposit"
        }
      },
      "pause()": {
        "details": "pause fund",
        "returns": {
          "_0": "boolean indicating result of the operation"
        }
      },
      "removeToken(address)": {
        "details": "remove a token from the list of allowed tokens",
        "params": {
          "_address": "tracker address of the token"
        },
        "returns": {
          "_0": "boolean indicating result of the operation"
        }
      },
      "renounceRole(bytes32,address)": {
        "details": "Revokes `role` from the calling account. Roles are often managed via {grantRole} and {revokeRole}: this function's purpose is to provide a mechanism for accounts to lose their privileges if they are compromised (such as when a trusted device is misplaced). If the calling account had been revoked `role`, emits a {RoleRevoked} event. Requirements: - the caller must be `account`."
      },
      "resume()": {
        "details": "resume fund",
        "returns": {
          "_0": "boolean indicating result of the operation"
        }
      },
      "revokeRole(bytes32,address)": {
        "details": "Revokes `role` from `account`. If `account` had been granted `role`, emits a {RoleRevoked} event. Requirements: - the caller must have ``role``'s admin role."
      },
      "supportsInterface(bytes4)": {
        "details": "See {IERC165-supportsInterface}."
      }
    },
    "version": 1
  },
  "userdoc": {
    "kind": "user",
    "methods": {
      "close()": {
        "notice": "this is final, a closed fund cannot be reopened"
      }
    },
    "version": 1
  },
  "storageLayout": {
    "storage": [
      {
        "astId": 24,
        "contract": "contracts/FundV1.sol:FundV1",
        "label": "_roles",
        "offset": 0,
        "slot": "0",
        "type": "t_mapping(t_bytes32,t_struct(RoleData)19_storage)"
      },
      {
        "astId": 6283,
        "contract": "contracts/FundV1.sol:FundV1",
        "label": "allowedTokens",
        "offset": 0,
        "slot": "1",
        "type": "t_struct(AddressSet)3260_storage"
      },
      {
        "astId": 4116,
        "contract": "contracts/FundV1.sol:FundV1",
        "label": "id",
        "offset": 0,
        "slot": "3",
        "type": "t_uint256"
      },
      {
        "astId": 4118,
        "contract": "contracts/FundV1.sol:FundV1",
        "label": "name",
        "offset": 0,
        "slot": "4",
        "type": "t_string_storage"
      },
      {
        "astId": 4120,
        "contract": "contracts/FundV1.sol:FundV1",
        "label": "focus",
        "offset": 0,
        "slot": "5",
        "type": "t_string_storage"
      },
      {
        "astId": 4122,
        "contract": "contracts/FundV1.sol:FundV1",
        "label": "description",
        "offset": 0,
        "slot": "6",
        "type": "t_string_storage"
      },
      {
        "astId": 4125,
        "contract": "contracts/FundV1.sol:FundV1",
        "label": "status",
        "offset": 0,
        "slot": "7",
        "type": "t_enum(Status)4106"
      },
      {
        "astId": 4127,
        "contract": "contracts/FundV1.sol:FundV1",
        "label": "factory",
        "offset": 1,
        "slot": "7",
        "type": "t_address"
      },
      {
        "astId": 4129,
        "contract": "contracts/FundV1.sol:FundV1",
        "label": "safeAddress",
        "offset": 0,
        "slot": "8",
        "type": "t_address"
      }
    ],
    "types": {
      "t_address": {
        "encoding": "inplace",
        "label": "address",
        "numberOfBytes": "20"
      },
      "t_array(t_bytes32)dyn_storage": {
        "base": "t_bytes32",
        "encoding": "dynamic_array",
        "label": "bytes32[]",
        "numberOfBytes": "32"
      },
      "t_bool": {
        "encoding": "inplace",
        "label": "bool",
        "numberOfBytes": "1"
      },
      "t_bytes32": {
        "encoding": "inplace",
        "label": "bytes32",
        "numberOfBytes": "32"
      },
      "t_enum(Status)4106": {
        "encoding": "inplace",
        "label": "enum Status",
        "numberOfBytes": "1"
      },
      "t_mapping(t_address,t_bool)": {
        "encoding": "mapping",
        "key": "t_address",
        "label": "mapping(address => bool)",
        "numberOfBytes": "32",
        "value": "t_bool"
      },
      "t_mapping(t_bytes32,t_struct(RoleData)19_storage)": {
        "encoding": "mapping",
        "key": "t_bytes32",
        "label": "mapping(bytes32 => struct AccessControl.RoleData)",
        "numberOfBytes": "32",
        "value": "t_struct(RoleData)19_storage"
      },
      "t_mapping(t_bytes32,t_uint256)": {
        "encoding": "mapping",
        "key": "t_bytes32",
        "label": "mapping(bytes32 => uint256)",
        "numberOfBytes": "32",
        "value": "t_uint256"
      },
      "t_string_storage": {
        "encoding": "bytes",
        "label": "string",
        "numberOfBytes": "32"
      },
      "t_struct(AddressSet)3260_storage": {
        "encoding": "inplace",
        "label": "struct EnumerableSet.AddressSet",
        "members": [
          {
            "astId": 3259,
            "contract": "contracts/FundV1.sol:FundV1",
            "label": "_inner",
            "offset": 0,
            "slot": "0",
            "type": "t_struct(Set)2959_storage"
          }
        ],
        "numberOfBytes": "64"
      },
      "t_struct(RoleData)19_storage": {
        "encoding": "inplace",
        "label": "struct AccessControl.RoleData",
        "members": [
          {
            "astId": 16,
            "contract": "contracts/FundV1.sol:FundV1",
            "label": "members",
            "offset": 0,
            "slot": "0",
            "type": "t_mapping(t_address,t_bool)"
          },
          {
            "astId": 18,
            "contract": "contracts/FundV1.sol:FundV1",
            "label": "adminRole",
            "offset": 0,
            "slot": "1",
            "type": "t_bytes32"
          }
        ],
        "numberOfBytes": "64"
      },
      "t_struct(Set)2959_storage": {
        "encoding": "inplace",
        "label": "struct EnumerableSet.Set",
        "members": [
          {
            "astId": 2954,
            "contract": "contracts/FundV1.sol:FundV1",
            "label": "_values",
            "offset": 0,
            "slot": "0",
            "type": "t_array(t_bytes32)dyn_storage"
          },
          {
            "astId": 2958,
            "contract": "contracts/FundV1.sol:FundV1",
            "label": "_indexes",
            "offset": 0,
            "slot": "1",
            "type": "t_mapping(t_bytes32,t_uint256)"
          }
        ],
        "numberOfBytes": "64"
      },
      "t_uint256": {
        "encoding": "inplace",
        "label": "uint256",
        "numberOfBytes": "32"
      }
    }
  }
}