{
  "address": "0xC43d6a0870e0915D1D32f8B2d20a9743FCa9991B",
  "abi": [
    {
      "inputs": [],
      "name": "Forbidden",
      "type": "error"
    },
    {
      "inputs": [],
      "name": "NotAllowed",
      "type": "error"
    },
    {
      "inputs": [],
      "name": "TokenNotAllowed",
      "type": "error"
    },
    {
      "anonymous": false,
      "inputs": [
        {
          "indexed": true,
          "internalType": "bytes32",
          "name": "role",
          "type": "bytes32"
        },
        {
          "indexed": true,
          "internalType": "bytes32",
          "name": "previousAdminRole",
          "type": "bytes32"
        },
        {
          "indexed": true,
          "internalType": "bytes32",
          "name": "newAdminRole",
          "type": "bytes32"
        }
      ],
      "name": "RoleAdminChanged",
      "type": "event"
    },
    {
      "anonymous": false,
      "inputs": [
        {
          "indexed": true,
          "internalType": "bytes32",
          "name": "role",
          "type": "bytes32"
        },
        {
          "indexed": true,
          "internalType": "address",
          "name": "account",
          "type": "address"
        },
        {
          "indexed": true,
          "internalType": "address",
          "name": "sender",
          "type": "address"
        }
      ],
      "name": "RoleGranted",
      "type": "event"
    },
    {
      "anonymous": false,
      "inputs": [
        {
          "indexed": true,
          "internalType": "bytes32",
          "name": "role",
          "type": "bytes32"
        },
        {
          "indexed": true,
          "internalType": "address",
          "name": "account",
          "type": "address"
        },
        {
          "indexed": true,
          "internalType": "address",
          "name": "sender",
          "type": "address"
        }
      ],
      "name": "RoleRevoked",
      "type": "event"
    },
    {
      "anonymous": false,
      "inputs": [
        {
          "indexed": true,
          "internalType": "uint256",
          "name": "id",
          "type": "uint256"
        }
      ],
      "name": "StatusChange",
      "type": "event"
    },
    {
      "inputs": [],
      "name": "DEFAULT_ADMIN_ROLE",
      "outputs": [
        {
          "internalType": "bytes32",
          "name": "",
          "type": "bytes32"
        }
      ],
      "stateMutability": "view",
      "type": "function"
    },
    {
      "inputs": [
        {
          "internalType": "address",
          "name": "_address",
          "type": "address"
        }
      ],
      "name": "addToken",
      "outputs": [
        {
          "internalType": "bool",
          "name": "",
          "type": "bool"
        }
      ],
      "stateMutability": "nonpayable",
      "type": "function"
    },
    {
      "inputs": [],
      "name": "close",
      "outputs": [
        {
          "internalType": "bool",
          "name": "",
          "type": "bool"
        }
      ],
      "stateMutability": "nonpayable",
      "type": "function"
    },
    {
      "inputs": [],
      "name": "description",
      "outputs": [
        {
          "internalType": "string",
          "name": "",
          "type": "string"
        }
      ],
      "stateMutability": "view",
      "type": "function"
    },
    {
      "inputs": [],
      "name": "focus",
      "outputs": [
        {
          "internalType": "string",
          "name": "",
          "type": "string"
        }
      ],
      "stateMutability": "view",
      "type": "function"
    },
    {
      "inputs": [],
      "name": "getAllowedTokens",
      "outputs": [
        {
          "internalType": "address[]",
          "name": "",
          "type": "address[]"
        }
      ],
      "stateMutability": "view",
      "type": "function"
    },
    {
      "inputs": [],
      "name": "getBalances",
      "outputs": [
        {
          "internalType": "address[]",
          "name": "",
          "type": "address[]"
        },
        {
          "internalType": "uint256[]",
          "name": "",
          "type": "uint256[]"
        }
      ],
      "stateMutability": "view",
      "type": "function"
    },
    {
      "inputs": [
        {
          "internalType": "address",
          "name": "_tokenAddress",
          "type": "address"
        }
      ],
      "name": "getDepositAddressFor",
      "outputs": [
        {
          "internalType": "address",
          "name": "",
          "type": "address"
        }
      ],
      "stateMutability": "view",
      "type": "function"
    },
    {
      "inputs": [],
      "name": "getMeta",
      "outputs": [
        {
          "internalType": "string",
          "name": "",
          "type": "string"
        },
        {
          "internalType": "string",
          "name": "",
          "type": "string"
        },
        {
          "internalType": "string",
          "name": "",
          "type": "string"
        },
        {
          "internalType": "uint256",
          "name": "",
          "type": "uint256"
        }
      ],
      "stateMutability": "view",
      "type": "function"
    },
    {
      "inputs": [
        {
          "internalType": "bytes32",
          "name": "role",
          "type": "bytes32"
        }
      ],
      "name": "getRoleAdmin",
      "outputs": [
        {
          "internalType": "bytes32",
          "name": "",
          "type": "bytes32"
        }
      ],
      "stateMutability": "view",
      "type": "function"
    },
    {
      "inputs": [
        {
          "internalType": "bytes32",
          "name": "role",
          "type": "bytes32"
        },
        {
          "internalType": "address",
          "name": "account",
          "type": "address"
        }
      ],
      "name": "grantRole",
      "outputs": [],
      "stateMutability": "nonpayable",
      "type": "function"
    },
    {
      "inputs": [
        {
          "internalType": "bytes32",
          "name": "role",
          "type": "bytes32"
        },
        {
          "internalType": "address",
          "name": "account",
          "type": "address"
        }
      ],
      "name": "hasRole",
      "outputs": [
        {
          "internalType": "bool",
          "name": "",
          "type": "bool"
        }
      ],
      "stateMutability": "view",
      "type": "function"
    },
    {
      "inputs": [
        {
          "internalType": "string",
          "name": "_name",
          "type": "string"
        },
        {
          "internalType": "string",
          "name": "_focus",
          "type": "string"
        },
        {
          "internalType": "string",
          "name": "_description",
          "type": "string"
        },
        {
          "internalType": "address[]",
          "name": "_allowedTokens",
          "type": "address[]"
        },
        {
          "internalType": "address",
          "name": "_safeAddress",
          "type": "address"
        },
        {
          "internalType": "address",
          "name": "_owner",
          "type": "address"
        }
      ],
      "name": "initialize",
      "outputs": [],
      "stateMutability": "nonpayable",
      "type": "function"
    },
    {
      "inputs": [],
      "name": "isOpen",
      "outputs": [
        {
          "internalType": "bool",
          "name": "",
          "type": "bool"
        }
      ],
      "stateMutability": "view",
      "type": "function"
    },
    {
      "inputs": [
        {
          "internalType": "address",
          "name": "_address",
          "type": "address"
        }
      ],
      "name": "isTokenAllowed",
      "outputs": [
        {
          "internalType": "bool",
          "name": "",
          "type": "bool"
        }
      ],
      "stateMutability": "view",
      "type": "function"
    },
    {
      "inputs": [],
      "name": "name",
      "outputs": [
        {
          "internalType": "string",
          "name": "",
          "type": "string"
        }
      ],
      "stateMutability": "view",
      "type": "function"
    },
    {
      "inputs": [],
      "name": "pause",
      "outputs": [
        {
          "internalType": "bool",
          "name": "",
          "type": "bool"
        }
      ],
      "stateMutability": "nonpayable",
      "type": "function"
    },
    {
      "inputs": [
        {
          "internalType": "address",
          "name": "_address",
          "type": "address"
        }
      ],
      "name": "removeToken",
      "outputs": [
        {
          "internalType": "bool",
          "name": "",
          "type": "bool"
        }
      ],
      "stateMutability": "nonpayable",
      "type": "function"
    },
    {
      "inputs": [
        {
          "internalType": "bytes32",
          "name": "role",
          "type": "bytes32"
        },
        {
          "internalType": "address",
          "name": "account",
          "type": "address"
        }
      ],
      "name": "renounceRole",
      "outputs": [],
      "stateMutability": "nonpayable",
      "type": "function"
    },
    {
      "inputs": [],
      "name": "resume",
      "outputs": [
        {
          "internalType": "bool",
          "name": "",
          "type": "bool"
        }
      ],
      "stateMutability": "nonpayable",
      "type": "function"
    },
    {
      "inputs": [
        {
          "internalType": "bytes32",
          "name": "role",
          "type": "bytes32"
        },
        {
          "internalType": "address",
          "name": "account",
          "type": "address"
        }
      ],
      "name": "revokeRole",
      "outputs": [],
      "stateMutability": "nonpayable",
      "type": "function"
    },
    {
      "inputs": [],
      "name": "status",
      "outputs": [
        {
          "internalType": "enum FundV1.Status",
          "name": "",
          "type": "uint8"
        }
      ],
      "stateMutability": "view",
      "type": "function"
    },
    {
      "inputs": [
        {
          "internalType": "bytes4",
          "name": "interfaceId",
          "type": "bytes4"
        }
      ],
      "name": "supportsInterface",
      "outputs": [
        {
          "internalType": "bool",
          "name": "",
          "type": "bool"
        }
      ],
      "stateMutability": "view",
      "type": "function"
    }
  ],
  "transactionHash": "0x77520dd2c8efbc7ff2311b82b1bdb657e0c183063711ac463f35c94219feb2b6",
  "args": [],
  "numDeployments": 1,
  "solcInputHash": "8323e950d3265946019da87932f3fa7f",
  "bytecode": "0x608060405234801561001057600080fd5b506117b3806100206000396000f3fe608060405234801561001057600080fd5b506004361061014c5760003560e01c806347535d7b116100c357806391d148541161007c57806391d14854146102b1578063a217fddf146102c4578063a79af2ce146102cc578063d48bfca7146102e4578063d547741f146102f7578063f9eaee0d1461030a57600080fd5b806347535d7b1461026b5780635fa7b584146102735780637284e41614610286578063805421ed1461028e5780638456cb59146102965780638dd52af41461029e57600080fd5b8063200d2ed211610115578063200d2ed2146101c5578063233fd7ed146101df578063248a9ca31461020a5780632f2ff15d1461023b57806336568abe1461025057806343d726d61461026357600080fd5b8062113e081461015157806301ffc9a714610170578063024ece8914610193578063046f7da2146101a857806306fdde03146101b0575b600080fd5b61015961031d565b6040516101679291906111e5565b60405180910390f35b61018361017e36600461123c565b6104b3565b6040519015158152602001610167565b61019b6104ea565b6040516101679190611266565b6101836104fb565b6101b8610550565b60405161016791906112d5565b6003546101d29060ff1681565b60405161016791906112fe565b6101f26101ed366004611342565b6105de565b6040516001600160a01b039091168152602001610167565b61022d61021836600461135d565b60009081526020819052604090206001015490565b604051908152602001610167565b61024e610249366004611376565b610676565b005b61024e61025e366004611376565b6106a1565b610183610724565b610183610773565b610183610281366004611342565b610793565b6101b86107b4565b6101b86107c1565b6101836107ce565b61024e6102ac3660046114e0565b61081c565b6101836102bf366004611376565b610923565b61022d600081565b6102d461094c565b60405161016794939291906115ad565b6101836102f2366004611342565b610b2c565b61024e610305366004611376565b610b44565b610183610318366004611342565b610b6a565b606080600061032c6001610b77565b905060008167ffffffffffffffff811115610349576103496113a2565b604051908082528060200260200182016040528015610372578160200160208202803683370190505b50905060008267ffffffffffffffff811115610390576103906113a2565b6040519080825280602002602001820160405280156103b9578160200160208202803683370190505b50905060005b838110156104a8576103d2600182610b81565b8382815181106103e4576103e46115f8565b6001600160a01b0390921660209283029190910190910152610407600182610b81565b600480546040516370a0823160e01b81526001600160a01b039182169281019290925291909116906370a0823190602401602060405180830381865afa158015610455573d6000803e3d6000fd5b505050506040513d601f19601f82011682018060405250810190610479919061160e565b82828151811061048b5761048b6115f8565b6020908102919091010152806104a08161163d565b9150506103bf565b509094909350915050565b60006001600160e01b03198216637965db0b60e01b14806104e457506301ffc9a760e01b6001600160e01b03198316145b92915050565b60606104f66001610b94565b905090565b6000806105088133610ba1565b600160035460ff166002811115610521576105216112e8565b1461053f57604051631eb49d6d60e11b815260040160405180910390fd5b6105496000610c05565b91505b5090565b6005805461055d90611658565b80601f016020809104026020016040519081016040528092919081815260200182805461058990611658565b80156105d65780601f106105ab576101008083540402835291602001916105d6565b820191906000526020600020905b8154815290600101906020018083116105b957829003601f168201915b505050505081565b60008060035460ff1660028111156105f8576105f86112e8565b1461061657604051631eb49d6d60e11b815260040160405180910390fd5b61061f82610b6a565b61063c57604051631eb49d6d60e11b815260040160405180910390fd5b6004546001600160a01b031661066557604051631eb49d6d60e11b815260040160405180910390fd5b50506004546001600160a01b031690565b6000828152602081905260409020600101546106928133610ba1565b61069c8383610c6e565b505050565b6001600160a01b03811633146107165760405162461bcd60e51b815260206004820152602f60248201527f416363657373436f6e74726f6c3a2063616e206f6e6c792072656e6f756e636560448201526e103937b632b9903337b91039b2b63360891b60648201526084015b60405180910390fd5b6107208282610cf2565b5050565b6000806107318133610ba1565b600260035460ff16600281111561074a5761074a6112e8565b141561076957604051631eb49d6d60e11b815260040160405180910390fd5b6105496002610c05565b60008060035460ff16600281111561078d5761078d6112e8565b14905090565b6000806107a08133610ba1565b6107ab600184610d57565b91505b50919050565b6007805461055d90611658565b6006805461055d90611658565b6000806107db8133610ba1565b600060035460ff1660028111156107f4576107f46112e8565b1461081257604051631eb49d6d60e11b815260040160405180910390fd5b6105496001610c05565b60035461010090046001600160a01b03161561084b57604051631dd2188d60e31b815260040160405180910390fd5b610856600082610d6c565b60038054610100600160a81b03191633610100021790558551610880906005906020890190611111565b508451610894906006906020880190611111565b5083516108a8906007906020870190611111565b50600480546001600160a01b0319166001600160a01b0384161790556003805460ff1916905560005b835181101561091a576109078482815181106108ef576108ef6115f8565b60200260200101516001610d7690919063ffffffff16565b50806109128161163d565b9150506108d1565b50505050505050565b6000918252602082815260408084206001600160a01b0393909316845291905290205460ff1690565b60608060606000600560066007600360009054906101000a900460ff16600281111561097a5761097a6112e8565b83805461098690611658565b80601f01602080910402602001604051908101604052809291908181526020018280546109b290611658565b80156109ff5780601f106109d4576101008083540402835291602001916109ff565b820191906000526020600020905b8154815290600101906020018083116109e257829003601f168201915b50505050509350828054610a1290611658565b80601f0160208091040260200160405190810160405280929190818152602001828054610a3e90611658565b8015610a8b5780601f10610a6057610100808354040283529160200191610a8b565b820191906000526020600020905b815481529060010190602001808311610a6e57829003601f168201915b50505050509250818054610a9e90611658565b80601f0160208091040260200160405190810160405280929190818152602001828054610aca90611658565b8015610b175780601f10610aec57610100808354040283529160200191610b17565b820191906000526020600020905b815481529060010190602001808311610afa57829003601f168201915b50505050509150935093509350935090919293565b600080610b398133610ba1565b6107ab600184610d76565b600082815260208190526040902060010154610b608133610ba1565b61069c8383610cf2565b60006104e4600183610d8b565b60006104e4825490565b6000610b8d8383610dad565b9392505050565b60606000610b8d83610dd7565b610bab8282610923565b61072057610bc3816001600160a01b03166014610e33565b610bce836020610e33565b604051602001610bdf92919061168d565b60408051601f198184030181529082905262461bcd60e51b825261070d916004016112d5565b60038054600091839160ff19166001836002811115610c2657610c266112e8565b0217905550816002811115610c3d57610c3d6112e8565b6040517f4884fc8861710f82d3dd1858f3e1978853d51909a2e9a0efafe95d8cce5f3b9a90600090a2506001919050565b610c788282610923565b610720576000828152602081815260408083206001600160a01b03851684529091529020805460ff19166001179055610cae3390565b6001600160a01b0316816001600160a01b0316837f2f8788117e7eff1d82e926ec794901d17c78024a50270940304540a733656f0d60405160405180910390a45050565b610cfc8282610923565b15610720576000828152602081815260408083206001600160a01b0385168085529252808320805460ff1916905551339285917ff6391f5c32d9c69d2a47ea670b442974b53935d1edc7fd64eb21e047a839171b9190a45050565b6000610b8d836001600160a01b038416610fcf565b6107208282610c6e565b6000610b8d836001600160a01b0384166110c2565b6001600160a01b03811660009081526001830160205260408120541515610b8d565b6000826000018281548110610dc457610dc46115f8565b9060005260206000200154905092915050565b606081600001805480602002602001604051908101604052809291908181526020018280548015610e2757602002820191906000526020600020905b815481526020019060010190808311610e13575b50505050509050919050565b60606000610e42836002611702565b610e4d906002611721565b67ffffffffffffffff811115610e6557610e656113a2565b6040519080825280601f01601f191660200182016040528015610e8f576020820181803683370190505b509050600360fc1b81600081518110610eaa57610eaa6115f8565b60200101906001600160f81b031916908160001a905350600f60fb1b81600181518110610ed957610ed96115f8565b60200101906001600160f81b031916908160001a9053506000610efd846002611702565b610f08906001611721565b90505b6001811115610f80576f181899199a1a9b1b9c1cb0b131b232b360811b85600f1660108110610f3c57610f3c6115f8565b1a60f81b828281518110610f5257610f526115f8565b60200101906001600160f81b031916908160001a90535060049490941c93610f7981611739565b9050610f0b565b508315610b8d5760405162461bcd60e51b815260206004820181905260248201527f537472696e67733a20686578206c656e67746820696e73756666696369656e74604482015260640161070d565b600081815260018301602052604081205480156110b8576000610ff3600183611750565b855490915060009061100790600190611750565b905081811461106c576000866000018281548110611027576110276115f8565b906000526020600020015490508087600001848154811061104a5761104a6115f8565b6000918252602080832090910192909255918252600188019052604090208390555b855486908061107d5761107d611767565b6001900381819060005260206000200160009055905585600101600086815260200190815260200160002060009055600193505050506104e4565b60009150506104e4565b6000818152600183016020526040812054611109575081546001818101845560008481526020808220909301849055845484825282860190935260409020919091556104e4565b5060006104e4565b82805461111d90611658565b90600052602060002090601f01602090048101928261113f5760008555611185565b82601f1061115857805160ff1916838001178555611185565b82800160010185558215611185579182015b8281111561118557825182559160200191906001019061116a565b5061054c9291505b8082111561054c576000815560010161118d565b600081518084526020808501945080840160005b838110156111da5781516001600160a01b0316875295820195908201906001016111b5565b509495945050505050565b6040815260006111f860408301856111a1565b82810360208481019190915284518083528582019282019060005b8181101561122f57845183529383019391830191600101611213565b5090979650505050505050565b60006020828403121561124e57600080fd5b81356001600160e01b031981168114610b8d57600080fd5b602081526000610b8d60208301846111a1565b60005b8381101561129457818101518382015260200161127c565b838111156112a3576000848401525b50505050565b600081518084526112c1816020860160208601611279565b601f01601f19169290920160200192915050565b602081526000610b8d60208301846112a9565b634e487b7160e01b600052602160045260246000fd5b602081016003831061132057634e487b7160e01b600052602160045260246000fd5b91905290565b80356001600160a01b038116811461133d57600080fd5b919050565b60006020828403121561135457600080fd5b610b8d82611326565b60006020828403121561136f57600080fd5b5035919050565b6000806040838503121561138957600080fd5b8235915061139960208401611326565b90509250929050565b634e487b7160e01b600052604160045260246000fd5b604051601f8201601f1916810167ffffffffffffffff811182821017156113e1576113e16113a2565b604052919050565b600082601f8301126113fa57600080fd5b813567ffffffffffffffff811115611414576114146113a2565b611427601f8201601f19166020016113b8565b81815284602083860101111561143c57600080fd5b816020850160208301376000918101602001919091529392505050565b600082601f83011261146a57600080fd5b8135602067ffffffffffffffff821115611486576114866113a2565b8160051b6114958282016113b8565b92835284810182019282810190878511156114af57600080fd5b83870192505b848310156114d5576114c683611326565b825291830191908301906114b5565b979650505050505050565b60008060008060008060c087890312156114f957600080fd5b863567ffffffffffffffff8082111561151157600080fd5b61151d8a838b016113e9565b9750602089013591508082111561153357600080fd5b61153f8a838b016113e9565b9650604089013591508082111561155557600080fd5b6115618a838b016113e9565b9550606089013591508082111561157757600080fd5b5061158489828a01611459565b93505061159360808801611326565b91506115a160a08801611326565b90509295509295509295565b6080815260006115c060808301876112a9565b82810360208401526115d281876112a9565b905082810360408401526115e681866112a9565b91505082606083015295945050505050565b634e487b7160e01b600052603260045260246000fd5b60006020828403121561162057600080fd5b5051919050565b634e487b7160e01b600052601160045260246000fd5b600060001982141561165157611651611627565b5060010190565b600181811c9082168061166c57607f821691505b602082108114156107ae57634e487b7160e01b600052602260045260246000fd5b7f416363657373436f6e74726f6c3a206163636f756e74200000000000000000008152600083516116c5816017850160208801611279565b7001034b99036b4b9b9b4b733903937b6329607d1b60179184019182015283516116f6816028840160208801611279565b01602801949350505050565b600081600019048311821515161561171c5761171c611627565b500290565b6000821982111561173457611734611627565b500190565b60008161174857611748611627565b506000190190565b60008282101561176257611762611627565b500390565b634e487b7160e01b600052603160045260246000fdfea2646970667358221220d329cf987a6e45f266e5c2a1ca995956e57e798ff0cacf7a6aaa4b9b719b52e864736f6c634300080a0033",
  "devdoc": {
    "kind": "dev",
    "methods": {
      "addToken(address)": {
        "details": "add a token to the list of allowed tokens",
        "params": {
          "_address": "tracker address of the token"
        },
        "returns": {
          "_0": "boolean indicating result of the operation"
        }
      },
      "close()": {
        "details": "close fund",
        "returns": {
          "_0": "boolean indicating result of the operation"
        }
      },
      "getAllowedTokens()": {
        "details": "list of allowed token contract addresses",
        "returns": {
          "_0": "return a list of allowed token contract addresses"
        }
      },
      "getBalances()": {
        "details": "get fund safe balances",
        "returns": {
          "_0": "tuple of (tokenAddress[], balance[])"
        }
      },
      "getDepositAddressFor(address)": {
        "details": "get deposit address for a token",
        "params": {
          "_tokenAddress": "tracker address of the token to deposit (must be an allowed token)"
        },
        "returns": {
          "_0": "deposit address for a token"
        }
      },
      "getMeta()": {
        "details": "get metadata for a fund",
        "returns": {
          "_0": "metadata of the fund"
        }
      },
      "getRoleAdmin(bytes32)": {
        "details": "Returns the admin role that controls `role`. See {grantRole} and {revokeRole}. To change a role's admin, use {_setRoleAdmin}."
      },
      "grantRole(bytes32,address)": {
        "details": "Grants `role` to `account`. If `account` had not been already granted `role`, emits a {RoleGranted} event. Requirements: - the caller must have ``role``'s admin role."
      },
      "hasRole(bytes32,address)": {
        "details": "Returns `true` if `account` has been granted `role`."
      },
      "isOpen()": {
        "details": "check if a fund is open for donations",
        "returns": {
          "_0": "boolean indicating status"
        }
      },
      "isTokenAllowed(address)": {
        "details": "add a token to the list of allowed tokens",
        "params": {
          "_address": "tracker address of the token"
        },
        "returns": {
          "_0": "boolean indicating if a token is allowed for deposit"
        }
      },
      "pause()": {
        "details": "pause fund",
        "returns": {
          "_0": "boolean indicating result of the operation"
        }
      },
      "removeToken(address)": {
        "details": "remove a token from the list of allowed tokens",
        "params": {
          "_address": "tracker address of the token"
        },
        "returns": {
          "_0": "boolean indicating result of the operation"
        }
      },
      "renounceRole(bytes32,address)": {
        "details": "Revokes `role` from the calling account. Roles are often managed via {grantRole} and {revokeRole}: this function's purpose is to provide a mechanism for accounts to lose their privileges if they are compromised (such as when a trusted device is misplaced). If the calling account had been revoked `role`, emits a {RoleRevoked} event. Requirements: - the caller must be `account`."
      },
      "resume()": {
        "details": "resume fund",
        "returns": {
          "_0": "boolean indicating result of the operation"
        }
      },
      "revokeRole(bytes32,address)": {
        "details": "Revokes `role` from `account`. If `account` had been granted `role`, emits a {RoleRevoked} event. Requirements: - the caller must have ``role``'s admin role."
      },
      "supportsInterface(bytes4)": {
        "details": "See {IERC165-supportsInterface}."
      }
    },
    "version": 1
  },
  "userdoc": {
    "kind": "user",
    "methods": {
      "close()": {
        "notice": "this is final, a closed fund cannot be reopened"
      }
    },
    "version": 1
  },
  "storageLayout": {
    "storage": [
      {
        "astId": 24,
        "contract": "contracts/FundV1.sol:FundV1",
        "label": "_roles",
        "offset": 0,
        "slot": "0",
        "type": "t_mapping(t_bytes32,t_struct(RoleData)19_storage)"
      },
      {
        "astId": 7227,
        "contract": "contracts/FundV1.sol:FundV1",
        "label": "allowedTokens",
        "offset": 0,
        "slot": "1",
        "type": "t_struct(AddressSet)4289_storage"
      },
      {
        "astId": 5297,
        "contract": "contracts/FundV1.sol:FundV1",
        "label": "status",
        "offset": 0,
        "slot": "3",
        "type": "t_enum(Status)5311"
      },
      {
        "astId": 5299,
        "contract": "contracts/FundV1.sol:FundV1",
        "label": "factory",
        "offset": 1,
        "slot": "3",
        "type": "t_address"
      },
      {
        "astId": 5301,
        "contract": "contracts/FundV1.sol:FundV1",
        "label": "safeAddress",
        "offset": 0,
        "slot": "4",
        "type": "t_address"
      },
      {
        "astId": 5303,
        "contract": "contracts/FundV1.sol:FundV1",
        "label": "name",
        "offset": 0,
        "slot": "5",
        "type": "t_string_storage"
      },
      {
        "astId": 5305,
        "contract": "contracts/FundV1.sol:FundV1",
        "label": "focus",
        "offset": 0,
        "slot": "6",
        "type": "t_string_storage"
      },
      {
        "astId": 5307,
        "contract": "contracts/FundV1.sol:FundV1",
        "label": "description",
        "offset": 0,
        "slot": "7",
        "type": "t_string_storage"
      }
    ],
    "types": {
      "t_address": {
        "encoding": "inplace",
        "label": "address",
        "numberOfBytes": "20"
      },
      "t_array(t_bytes32)dyn_storage": {
        "base": "t_bytes32",
        "encoding": "dynamic_array",
        "label": "bytes32[]",
        "numberOfBytes": "32"
      },
      "t_bool": {
        "encoding": "inplace",
        "label": "bool",
        "numberOfBytes": "1"
      },
      "t_bytes32": {
        "encoding": "inplace",
        "label": "bytes32",
        "numberOfBytes": "32"
      },
      "t_enum(Status)5311": {
        "encoding": "inplace",
        "label": "enum FundV1.Status",
        "numberOfBytes": "1"
      },
      "t_mapping(t_address,t_bool)": {
        "encoding": "mapping",
        "key": "t_address",
        "label": "mapping(address => bool)",
        "numberOfBytes": "32",
        "value": "t_bool"
      },
      "t_mapping(t_bytes32,t_struct(RoleData)19_storage)": {
        "encoding": "mapping",
        "key": "t_bytes32",
        "label": "mapping(bytes32 => struct AccessControl.RoleData)",
        "numberOfBytes": "32",
        "value": "t_struct(RoleData)19_storage"
      },
      "t_mapping(t_bytes32,t_uint256)": {
        "encoding": "mapping",
        "key": "t_bytes32",
        "label": "mapping(bytes32 => uint256)",
        "numberOfBytes": "32",
        "value": "t_uint256"
      },
      "t_string_storage": {
        "encoding": "bytes",
        "label": "string",
        "numberOfBytes": "32"
      },
      "t_struct(AddressSet)4289_storage": {
        "encoding": "inplace",
        "label": "struct EnumerableSet.AddressSet",
        "members": [
          {
            "astId": 4288,
            "contract": "contracts/FundV1.sol:FundV1",
            "label": "_inner",
            "offset": 0,
            "slot": "0",
            "type": "t_struct(Set)3988_storage"
          }
        ],
        "numberOfBytes": "64"
      },
      "t_struct(RoleData)19_storage": {
        "encoding": "inplace",
        "label": "struct AccessControl.RoleData",
        "members": [
          {
            "astId": 16,
            "contract": "contracts/FundV1.sol:FundV1",
            "label": "members",
            "offset": 0,
            "slot": "0",
            "type": "t_mapping(t_address,t_bool)"
          },
          {
            "astId": 18,
            "contract": "contracts/FundV1.sol:FundV1",
            "label": "adminRole",
            "offset": 0,
            "slot": "1",
            "type": "t_bytes32"
          }
        ],
        "numberOfBytes": "64"
      },
      "t_struct(Set)3988_storage": {
        "encoding": "inplace",
        "label": "struct EnumerableSet.Set",
        "members": [
          {
            "astId": 3983,
            "contract": "contracts/FundV1.sol:FundV1",
            "label": "_values",
            "offset": 0,
            "slot": "0",
            "type": "t_array(t_bytes32)dyn_storage"
          },
          {
            "astId": 3987,
            "contract": "contracts/FundV1.sol:FundV1",
            "label": "_indexes",
            "offset": 0,
            "slot": "1",
            "type": "t_mapping(t_bytes32,t_uint256)"
          }
        ],
        "numberOfBytes": "64"
      },
      "t_uint256": {
        "encoding": "inplace",
        "label": "uint256",
        "numberOfBytes": "32"
      }
    }
  }
}