{
  "address": "0x28483F8377c1416C6Ac1511E3f6c55d7F39cF290",
  "abi": [
    {
      "inputs": [
        {
          "internalType": "address",
          "name": "_registry",
          "type": "address"
        },
        {
          "internalType": "bytes32[]",
          "name": "_initialChecks",
          "type": "bytes32[]"
        }
      ],
      "stateMutability": "nonpayable",
      "type": "constructor"
    },
    {
      "inputs": [],
      "name": "CheckAlreadyApproved",
      "type": "error"
    },
    {
      "inputs": [],
      "name": "NoZeroChecks",
      "type": "error"
    },
    {
      "inputs": [],
      "name": "NotAllowed",
      "type": "error"
    },
    {
      "anonymous": false,
      "inputs": [
        {
          "indexed": true,
          "internalType": "uint256",
          "name": "id",
          "type": "uint256"
        },
        {
          "indexed": true,
          "internalType": "uint256",
          "name": "fundId",
          "type": "uint256"
        },
        {
          "indexed": true,
          "internalType": "address",
          "name": "recipient",
          "type": "address"
        }
      ],
      "name": "RequestCreated",
      "type": "event"
    },
    {
      "anonymous": false,
      "inputs": [
        {
          "indexed": true,
          "internalType": "bytes32",
          "name": "role",
          "type": "bytes32"
        },
        {
          "indexed": true,
          "internalType": "bytes32",
          "name": "previousAdminRole",
          "type": "bytes32"
        },
        {
          "indexed": true,
          "internalType": "bytes32",
          "name": "newAdminRole",
          "type": "bytes32"
        }
      ],
      "name": "RoleAdminChanged",
      "type": "event"
    },
    {
      "anonymous": false,
      "inputs": [
        {
          "indexed": true,
          "internalType": "bytes32",
          "name": "role",
          "type": "bytes32"
        },
        {
          "indexed": true,
          "internalType": "address",
          "name": "account",
          "type": "address"
        },
        {
          "indexed": true,
          "internalType": "address",
          "name": "sender",
          "type": "address"
        }
      ],
      "name": "RoleGranted",
      "type": "event"
    },
    {
      "anonymous": false,
      "inputs": [
        {
          "indexed": true,
          "internalType": "bytes32",
          "name": "role",
          "type": "bytes32"
        },
        {
          "indexed": true,
          "internalType": "address",
          "name": "account",
          "type": "address"
        },
        {
          "indexed": true,
          "internalType": "address",
          "name": "sender",
          "type": "address"
        }
      ],
      "name": "RoleRevoked",
      "type": "event"
    },
    {
      "anonymous": false,
      "inputs": [
        {
          "indexed": true,
          "internalType": "uint256",
          "name": "id",
          "type": "uint256"
        },
        {
          "indexed": true,
          "internalType": "enum RequestManager.Status",
          "name": "status",
          "type": "uint8"
        }
      ],
      "name": "StatusChange",
      "type": "event"
    },
    {
      "inputs": [],
      "name": "APPROVER_ROLE",
      "outputs": [
        {
          "internalType": "bytes32",
          "name": "",
          "type": "bytes32"
        }
      ],
      "stateMutability": "view",
      "type": "function"
    },
    {
      "inputs": [],
      "name": "AUDIT_ROLE",
      "outputs": [
        {
          "internalType": "bytes32",
          "name": "",
          "type": "bytes32"
        }
      ],
      "stateMutability": "view",
      "type": "function"
    },
    {
      "inputs": [],
      "name": "DEFAULT_ADMIN_ROLE",
      "outputs": [
        {
          "internalType": "bytes32",
          "name": "",
          "type": "bytes32"
        }
      ],
      "stateMutability": "view",
      "type": "function"
    },
    {
      "inputs": [],
      "name": "EXECUTOR_ROLE",
      "outputs": [
        {
          "internalType": "bytes32",
          "name": "",
          "type": "bytes32"
        }
      ],
      "stateMutability": "view",
      "type": "function"
    },
    {
      "inputs": [],
      "name": "FINALIZER_ROLE",
      "outputs": [
        {
          "internalType": "bytes32",
          "name": "",
          "type": "bytes32"
        }
      ],
      "stateMutability": "view",
      "type": "function"
    },
    {
      "inputs": [
        {
          "internalType": "bytes32",
          "name": "_check",
          "type": "bytes32"
        }
      ],
      "name": "addCheck",
      "outputs": [
        {
          "internalType": "bool",
          "name": "",
          "type": "bool"
        }
      ],
      "stateMutability": "nonpayable",
      "type": "function"
    },
    {
      "inputs": [],
      "name": "allChecks",
      "outputs": [
        {
          "internalType": "bytes32[]",
          "name": "",
          "type": "bytes32[]"
        }
      ],
      "stateMutability": "view",
      "type": "function"
    },
    {
      "inputs": [
        {
          "internalType": "uint256",
          "name": "_id",
          "type": "uint256"
        },
        {
          "internalType": "bytes32",
          "name": "_check",
          "type": "bytes32"
        }
      ],
      "name": "approveRequest",
      "outputs": [
        {
          "internalType": "bool",
          "name": "",
          "type": "bool"
        }
      ],
      "stateMutability": "nonpayable",
      "type": "function"
    },
    {
      "inputs": [
        {
          "internalType": "bytes32",
          "name": "_type",
          "type": "bytes32"
        },
        {
          "internalType": "uint256",
          "name": "_amount",
          "type": "uint256"
        },
        {
          "internalType": "address",
          "name": "_recipient",
          "type": "address"
        },
        {
          "internalType": "uint256",
          "name": "_fundId",
          "type": "uint256"
        },
        {
          "internalType": "uint256[2]",
          "name": "_coordinates",
          "type": "uint256[2]"
        },
        {
          "internalType": "bytes32[]",
          "name": "_checks",
          "type": "bytes32[]"
        }
      ],
      "name": "createRequest",
      "outputs": [
        {
          "internalType": "uint256",
          "name": "",
          "type": "uint256"
        }
      ],
      "stateMutability": "nonpayable",
      "type": "function"
    },
    {
      "inputs": [
        {
          "internalType": "uint256",
          "name": "_id",
          "type": "uint256"
        }
      ],
      "name": "getApprovedChecks",
      "outputs": [
        {
          "internalType": "bytes32[]",
          "name": "",
          "type": "bytes32[]"
        },
        {
          "internalType": "address[]",
          "name": "",
          "type": "address[]"
        }
      ],
      "stateMutability": "view",
      "type": "function"
    },
    {
      "inputs": [
        {
          "internalType": "uint256",
          "name": "_id",
          "type": "uint256"
        },
        {
          "internalType": "bytes32",
          "name": "_check",
          "type": "bytes32"
        }
      ],
      "name": "getApprover",
      "outputs": [
        {
          "internalType": "address",
          "name": "",
          "type": "address"
        }
      ],
      "stateMutability": "view",
      "type": "function"
    },
    {
      "inputs": [
        {
          "internalType": "uint256",
          "name": "_index",
          "type": "uint256"
        }
      ],
      "name": "getCheck",
      "outputs": [
        {
          "internalType": "bytes32",
          "name": "",
          "type": "bytes32"
        }
      ],
      "stateMutability": "view",
      "type": "function"
    },
    {
      "inputs": [
        {
          "internalType": "uint256",
          "name": "_id",
          "type": "uint256"
        }
      ],
      "name": "getRemainingChecks",
      "outputs": [
        {
          "internalType": "bytes32[]",
          "name": "",
          "type": "bytes32[]"
        }
      ],
      "stateMutability": "view",
      "type": "function"
    },
    {
      "inputs": [
        {
          "internalType": "bytes32",
          "name": "role",
          "type": "bytes32"
        }
      ],
      "name": "getRoleAdmin",
      "outputs": [
        {
          "internalType": "bytes32",
          "name": "",
          "type": "bytes32"
        }
      ],
      "stateMutability": "view",
      "type": "function"
    },
    {
      "inputs": [
        {
          "internalType": "uint256",
          "name": "_id",
          "type": "uint256"
        }
      ],
      "name": "getStatus",
      "outputs": [
        {
          "internalType": "enum RequestManager.Status",
          "name": "",
          "type": "uint8"
        }
      ],
      "stateMutability": "view",
      "type": "function"
    },
    {
      "inputs": [
        {
          "internalType": "bytes32",
          "name": "role",
          "type": "bytes32"
        },
        {
          "internalType": "address",
          "name": "account",
          "type": "address"
        }
      ],
      "name": "grantRole",
      "outputs": [],
      "stateMutability": "nonpayable",
      "type": "function"
    },
    {
      "inputs": [
        {
          "internalType": "bytes32",
          "name": "role",
          "type": "bytes32"
        },
        {
          "internalType": "address",
          "name": "account",
          "type": "address"
        }
      ],
      "name": "hasRole",
      "outputs": [
        {
          "internalType": "bool",
          "name": "",
          "type": "bool"
        }
      ],
      "stateMutability": "view",
      "type": "function"
    },
    {
      "inputs": [
        {
          "internalType": "uint256",
          "name": "_index",
          "type": "uint256"
        }
      ],
      "name": "removeCheck",
      "outputs": [
        {
          "internalType": "bool",
          "name": "",
          "type": "bool"
        }
      ],
      "stateMutability": "nonpayable",
      "type": "function"
    },
    {
      "inputs": [
        {
          "internalType": "bytes32",
          "name": "role",
          "type": "bytes32"
        },
        {
          "internalType": "address",
          "name": "account",
          "type": "address"
        }
      ],
      "name": "renounceRole",
      "outputs": [],
      "stateMutability": "nonpayable",
      "type": "function"
    },
    {
      "inputs": [
        {
          "internalType": "bytes32",
          "name": "role",
          "type": "bytes32"
        },
        {
          "internalType": "address",
          "name": "account",
          "type": "address"
        }
      ],
      "name": "revokeRole",
      "outputs": [],
      "stateMutability": "nonpayable",
      "type": "function"
    },
    {
      "inputs": [
        {
          "internalType": "bytes4",
          "name": "interfaceId",
          "type": "bytes4"
        }
      ],
      "name": "supportsInterface",
      "outputs": [
        {
          "internalType": "bool",
          "name": "",
          "type": "bool"
        }
      ],
      "stateMutability": "view",
      "type": "function"
    }
  ],
  "transactionHash": "0xafa1ee3d4d2a7ee495bfa8174e56a4621b287329ff12a847c9701b1d4c0bdbc5",
  "args": [
    "0xAb2Fdb1704f86ccB3E70f168dC9Aa1a311D92aDD",
    [
      "0x544553545f434845434b5f303031000000000000000000000000000000000000",
      "0x544553545f434845434b5f303032000000000000000000000000000000000000",
      "0x544553545f434845434b5f303033000000000000000000000000000000000000"
    ]
  ],
  "numDeployments": 3,
  "solcInputHash": "6cb82f7a921c98be42a4ff10f68bfddf",
  "bytecode": "0x60806040523480156200001157600080fd5b5060405162001a1838038062001a188339810160408190526200003491620001d5565b8082816001815110156200005b57604051631acfaa2560e21b815260040160405180910390fd5b80516200007090600190602084019062000158565b5050600280546001600160a01b0319166001600160a01b039290921691909117905550620000a0600033620000a8565b5050620002c2565b620000b48282620000b8565b5050565b6000828152602081815260408083206001600160a01b038516845290915290205460ff16620000b4576000828152602081815260408083206001600160a01b03851684529091529020805460ff19166001179055620001143390565b6001600160a01b0316816001600160a01b0316837f2f8788117e7eff1d82e926ec794901d17c78024a50270940304540a733656f0d60405160405180910390a45050565b82805482825590600052602060002090810192821562000196579160200282015b828111156200019657825182559160200191906001019062000179565b50620001a4929150620001a8565b5090565b5b80821115620001a45760008155600101620001a9565b634e487b7160e01b600052604160045260246000fd5b60008060408385031215620001e957600080fd5b82516001600160a01b03811681146200020157600080fd5b602084810151919350906001600160401b03808211156200022157600080fd5b818601915086601f8301126200023657600080fd5b8151818111156200024b576200024b620001bf565b8060051b604051601f19603f83011681018181108582111715620002735762000273620001bf565b6040529182528482019250838101850191898311156200029257600080fd5b938501935b82851015620002b25784518452938501939285019262000297565b8096505050505050509250929050565b61174680620002d26000396000f3fe608060405234801561001057600080fd5b50600436106101375760003560e01c806347976d81116100b8578063937b3bce1161007c578063937b3bce146102ff5780639db797f014610312578063a217fddf14610325578063c35c68fd1461032d578063d547741f14610358578063e1d3c4e11461036b57600080fd5b806347976d8114610271578063503642bb146102925780635c622a0e146102b957806377a80589146102d957806391d14854146102ec57600080fd5b80632f2ff15d116100ff5780632f2ff15d146101e857806336568abe146101fd5780633b5862c1146102105780633df55efd146102235780634245962b1461024a57600080fd5b8063015887d61461013c57806301ffc9a71461015a57806307bd02651461017d5780630df7b45a146101b2578063248a9ca3146101c5575b600080fd5b61014461037e565b6040516101519190611264565b60405180910390f35b61016d610168366004611277565b6103d6565b6040519015158152602001610151565b6101a47fd8aa0f3194971a2a116679f7c2090f6939c8d4e01a2a8d7e41d55e5351469e6381565b604051908152602001610151565b6101a46101c0366004611397565b61040d565b6101a46101d336600461144c565b60009081526020819052604090206001015490565b6101fb6101f6366004611465565b6105b4565b005b6101fb61020b366004611465565b6105df565b61016d61021e36600461144c565b610662565b6101a47f53ea8c2084bd069d8c2df22bdca7223415cd9c0b605c29d1a0d06f15fcd3eed481565b6101a47f408a36151f841709116a4e8aca4e0202874f7f54687dcb863b1ea4672dc9d8cf81565b61028461027f36600461144c565b6106c5565b604051610151929190611491565b6101a47f5db53b6955dc773ef555b3cc1835ee528ea8da7adbe1cd523fbff73209b77e0b81565b6102cc6102c736600461144c565b61086e565b6040516101519190611507565b61016d6102e736600461144c565b6108a7565b61016d6102fa366004611465565b61090d565b61016d61030d36600461152f565b610936565b6101a461032036600461144c565b610a68565b6101a4600081565b61034061033b36600461152f565b610a8f565b6040516001600160a01b039091168152602001610151565b6101fb610366366004611465565b610ad4565b61014461037936600461144c565b610afa565b606060018054806020026020016040519081016040528092919081815260200182805480156103cc57602002820191906000526020600020905b8154815260200190600101908083116103b8575b5050505050905090565b60006001600160e01b03198216637965db0b60e01b148061040757506301ffc9a760e01b6001600160e01b03198316145b92915050565b60018054600091111561043357604051631acfaa2560e21b815260040160405180910390fd5b600380546001810180835560008381529192908390811061045657610456611551565b60009182526020909120600c90910201828155600381018a905560048101805460ff60a01b1916905590506104b3856040805180820182526000808252602091820152815180830190925282518252918201519181019190915290565b805160058301556020015160068201556004810180546001600160a01b0319166001600160a01b0389161790556001810186905560028101889055835160005b8181101561056d5761052a86828151811061051057610510611551565b602002602001015184600701610b2890919063ffffffff16565b5061055a86828151811061054057610540611551565b602002602001015184600901610b2890919063ffffffff16565b50806105658161157d565b9150506104f3565b886001600160a01b031688857fd460eb8f7211a74f45f31f6ff12b3877311cde98027a1104dc667ee2bee34b8e60405160405180910390a450919998505050505050505050565b6000828152602081905260409020600101546105d08133610b3b565b6105da8383610b9f565b505050565b6001600160a01b03811633146106545760405162461bcd60e51b815260206004820152602f60248201527f416363657373436f6e74726f6c3a2063616e206f6e6c792072656e6f756e636560448201526e103937b632b9903337b91039b2b63360891b60648201526084015b60405180910390fd5b61065e8282610c23565b5050565b60007f5db53b6955dc773ef555b3cc1835ee528ea8da7adbe1cd523fbff73209b77e0b61068f8133610b3b565b60018054116106b157604051631acfaa2560e21b815260040160405180910390fd5b6106bc600184610c88565b50600192915050565b6060806000600384815481106106dd576106dd611551565b90600052602060002090600c0201905060006106fb82600701610d22565b9050600061070b83600901610d22565b6107159083611598565b905060008167ffffffffffffffff811115610732576107326112bd565b60405190808252806020026020018201604052801561075b578160200160208202803683370190505b50905060008267ffffffffffffffff811115610779576107796112bd565b6040519080825280602002602001820160405280156107a2578160200160208202803683370190505b50905060005b848110156108605760006107bf6007880183610d2c565b90506107ce6009880182610d38565b156107d9575061084e565b808483815181106107ec576107ec611551565b6020908102919091018101919091526000828152600b8901909152604090205483516001600160a01b039091169084908490811061082c5761082c611551565b60200260200101906001600160a01b031690816001600160a01b031681525050505b806108588161157d565b9150506107a8565b509097909650945050505050565b60006003828154811061088357610883611551565b60009182526020909120600c9091020160040154600160a01b900460ff1692915050565b60007f5db53b6955dc773ef555b3cc1835ee528ea8da7adbe1cd523fbff73209b77e0b6108d48133610b3b565b505060018054808201825560008290527fb10e2d527612073b26eecdfd717e6a320cf44b4afac2b0732d9fcbe2b7fa0cf6019190915590565b6000918252602082815260408084206001600160a01b0393909316845291905290205460ff1690565b60007f408a36151f841709116a4e8aca4e0202874f7f54687dcb863b1ea4672dc9d8cf6109638133610b3b565b600084816003828154811061097a5761097a611551565b90600052602060002090600c020160040160149054906101000a900460ff1660038111156109aa576109aa6114f1565b146109c857604051631eb49d6d60e11b815260040160405180910390fd5b6000600387815481106109dd576109dd611551565b90600052602060002090600c020190506109f78187610d50565b610a1457604051631eb49d6d60e11b815260040160405180910390fd5b610a1e8187610d87565b610a2a81600901610d22565b610a3757610a3781610db4565b60016004820154600160a01b900460ff166003811115610a5957610a596114f1565b50600198975050505050505050565b600060018281548110610a7d57610a7d611551565b90600052602060002001549050919050565b600060038381548110610aa457610aa4611551565b60009182526020808320948352600c91909102909301600b019092525060409020546001600160a01b0316919050565b600082815260208190526040902060010154610af08133610b3b565b6105da8383610c23565b606061040760038381548110610b1257610b12611551565b90600052602060002090600c0201600901610eae565b6000610b348383610eb9565b9392505050565b610b45828261090d565b61065e57610b5d816001600160a01b03166014610f08565b610b68836020610f08565b604051602001610b799291906115df565b60408051601f198184030181529082905262461bcd60e51b825261064b91600401611654565b610ba9828261090d565b61065e576000828152602081815260408083206001600160a01b03851684529091529020805460ff19166001179055610bdf3390565b6001600160a01b0316816001600160a01b0316837f2f8788117e7eff1d82e926ec794901d17c78024a50270940304540a733656f0d60405160405180910390a45050565b610c2d828261090d565b1561065e576000828152602081815260408083206001600160a01b0385168085529252808320805460ff1916905551339285917ff6391f5c32d9c69d2a47ea670b442974b53935d1edc7fd64eb21e047a839171b9190a45050565b8154610c9357600080fd5b8154610ca190600190611598565b811115610cad57600080fd5b81548290610cbd90600190611598565b81548110610ccd57610ccd611551565b9060005260206000200154828281548110610cea57610cea611551565b906000526020600020018190555081805480610d0857610d08611687565b600190038181906000526020600020016000905590555050565b6000610407825490565b6000610b3483836110a4565b60008181526001830160205260408120541515610b34565b6000610d5f6009840183610d38565b8015610b345750506000908152600b9190910160205260409020546001600160a01b03161590565b6000818152600b83016020526040902080546001600160a01b031916331790556105da60098301826110ce565b6004810154600390600160a01b900460ff1681811115610dd657610dd66114f1565b60ff161415610df857604051631eb49d6d60e11b815260040160405180910390fd5b6004810154600160a01b900460ff166003811115610e1857610e186114f1565b610e2390600161169d565b60ff166003811115610e3757610e376114f1565b60048201805460ff60a01b1916600160a01b836003811115610e5b57610e5b6114f1565b02179055506004810154600160a01b900460ff166003811115610e8057610e806114f1565b81546040517fddb4724e22824d7ff5149b1823d5658f841f871f8bb749de56e8ab88ca8ac1a790600090a350565b6060610407826110da565b6000818152600183016020526040812054610f0057508154600181810184556000848152602080822090930184905584548482528286019093526040902091909155610407565b506000610407565b60606000610f178360026116c2565b610f229060026116e1565b67ffffffffffffffff811115610f3a57610f3a6112bd565b6040519080825280601f01601f191660200182016040528015610f64576020820181803683370190505b509050600360fc1b81600081518110610f7f57610f7f611551565b60200101906001600160f81b031916908160001a905350600f60fb1b81600181518110610fae57610fae611551565b60200101906001600160f81b031916908160001a9053506000610fd28460026116c2565b610fdd9060016116e1565b90505b6001811115611055576f181899199a1a9b1b9c1cb0b131b232b360811b85600f166010811061101157611011611551565b1a60f81b82828151811061102757611027611551565b60200101906001600160f81b031916908160001a90535060049490941c9361104e816116f9565b9050610fe0565b508315610b345760405162461bcd60e51b815260206004820181905260248201527f537472696e67733a20686578206c656e67746820696e73756666696369656e74604482015260640161064b565b60008260000182815481106110bb576110bb611551565b9060005260206000200154905092915050565b6000610b348383611136565b60608160000180548060200260200160405190810160405280929190818152602001828054801561112a57602002820191906000526020600020905b815481526020019060010190808311611116575b50505050509050919050565b6000818152600183016020526040812054801561121f57600061115a600183611598565b855490915060009061116e90600190611598565b90508181146111d357600086600001828154811061118e5761118e611551565b90600052602060002001549050808760000184815481106111b1576111b1611551565b6000918252602080832090910192909255918252600188019052604090208390555b85548690806111e4576111e4611687565b600190038181906000526020600020016000905590558560010160008681526020019081526020016000206000905560019350505050610407565b6000915050610407565b600081518084526020808501945080840160005b838110156112595781518752958201959082019060010161123d565b509495945050505050565b602081526000610b346020830184611229565b60006020828403121561128957600080fd5b81356001600160e01b031981168114610b3457600080fd5b80356001600160a01b03811681146112b857600080fd5b919050565b634e487b7160e01b600052604160045260246000fd5b6040805190810167ffffffffffffffff811182821017156112f6576112f66112bd565b60405290565b600082601f83011261130d57600080fd5b8135602067ffffffffffffffff8083111561132a5761132a6112bd565b8260051b604051601f19603f8301168101818110848211171561134f5761134f6112bd565b60405293845285810183019383810192508785111561136d57600080fd5b83870191505b8482101561138c57813583529183019190830190611373565b979650505050505050565b60008060008060008060e087890312156113b057600080fd5b8635955060208088013595506113c8604089016112a1565b94506060880135935088609f8901126113e057600080fd5b6113e86112d3565b8060c08a018b8111156113fa57600080fd5b60808b015b8181101561141657803584529284019284016113ff565b509094503591505067ffffffffffffffff81111561143357600080fd5b61143f89828a016112fc565b9150509295509295509295565b60006020828403121561145e57600080fd5b5035919050565b6000806040838503121561147857600080fd5b82359150611488602084016112a1565b90509250929050565b6040815260006114a46040830185611229565b82810360208481019190915284518083528582019282019060005b818110156114e45784516001600160a01b0316835293830193918301916001016114bf565b5090979650505050505050565b634e487b7160e01b600052602160045260246000fd5b602081016004831061152957634e487b7160e01b600052602160045260246000fd5b91905290565b6000806040838503121561154257600080fd5b50508035926020909101359150565b634e487b7160e01b600052603260045260246000fd5b634e487b7160e01b600052601160045260246000fd5b600060001982141561159157611591611567565b5060010190565b6000828210156115aa576115aa611567565b500390565b60005b838110156115ca5781810151838201526020016115b2565b838111156115d9576000848401525b50505050565b7f416363657373436f6e74726f6c3a206163636f756e74200000000000000000008152600083516116178160178501602088016115af565b7001034b99036b4b9b9b4b733903937b6329607d1b60179184019182015283516116488160288401602088016115af565b01602801949350505050565b60208152600082518060208401526116738160408501602087016115af565b601f01601f19169190910160400192915050565b634e487b7160e01b600052603160045260246000fd5b600060ff821660ff84168060ff038211156116ba576116ba611567565b019392505050565b60008160001904831182151516156116dc576116dc611567565b500290565b600082198211156116f4576116f4611567565b500190565b60008161170857611708611567565b50600019019056fea264697066735822122082b24dc478a5eff4dbab4f21acf9665cc3e9f1f9136157a37d176ba13bc0ed2864736f6c634300080a0033",
  "devdoc": {
    "kind": "dev",
    "methods": {
      "approveRequest(uint256,bytes32)": {
        "details": "initiate a request",
        "params": {
          "_check": "check to approve",
          "_id": "type of the request"
        },
        "returns": {
          "_0": "boolean indicating op result"
        }
      },
      "createRequest(bytes32,uint256,address,uint256,uint256[2],bytes32[])": {
        "details": "initiate a request",
        "params": {
          "_amount": "requested amount from the fund",
          "_checks": "coordinates pointing to request location",
          "_coordinates": "coordinates pointing to request location",
          "_fundId": "id of the fund requested from",
          "_recipient": "ultimate recipient of the funds requested",
          "_type": "type of the request"
        },
        "returns": {
          "_0": "id (index) of the initiated request"
        }
      },
      "getApprovedChecks(uint256)": {
        "details": "get approved checks for a request",
        "params": {
          "_id": "request ID"
        },
        "returns": {
          "_0": "approved checks"
        }
      },
      "getApprover(uint256,bytes32)": {
        "details": "get approver address for a check",
        "params": {
          "_check": "check",
          "_id": "request ID"
        },
        "returns": {
          "_0": "remaining checks"
        }
      },
      "getRemainingChecks(uint256)": {
        "details": "get remaining checks for a request",
        "params": {
          "_id": "request ID"
        },
        "returns": {
          "_0": "remaining checks"
        }
      },
      "getRoleAdmin(bytes32)": {
        "details": "Returns the admin role that controls `role`. See {grantRole} and {revokeRole}. To change a role's admin, use {_setRoleAdmin}."
      },
      "getStatus(uint256)": {
        "details": "get request status",
        "params": {
          "_id": "request ID"
        },
        "returns": {
          "_0": "request status"
        }
      },
      "grantRole(bytes32,address)": {
        "details": "Grants `role` to `account`. If `account` had not been already granted `role`, emits a {RoleGranted} event. Requirements: - the caller must have ``role``'s admin role."
      },
      "hasRole(bytes32,address)": {
        "details": "Returns `true` if `account` has been granted `role`."
      },
      "renounceRole(bytes32,address)": {
        "details": "Revokes `role` from the calling account. Roles are often managed via {grantRole} and {revokeRole}: this function's purpose is to provide a mechanism for accounts to lose their privileges if they are compromised (such as when a trusted device is misplaced). If the calling account had been revoked `role`, emits a {RoleRevoked} event. Requirements: - the caller must be `account`."
      },
      "revokeRole(bytes32,address)": {
        "details": "Revokes `role` from `account`. If `account` had been granted `role`, emits a {RoleRevoked} event. Requirements: - the caller must have ``role``'s admin role."
      },
      "supportsInterface(bytes4)": {
        "details": "See {IERC165-supportsInterface}."
      }
    },
    "version": 1
  },
  "userdoc": {
    "kind": "user",
    "methods": {},
    "version": 1
  },
  "storageLayout": {
    "storage": [
      {
        "astId": 24,
        "contract": "contracts/Governor.sol:Governor",
        "label": "_roles",
        "offset": 0,
        "slot": "0",
        "type": "t_mapping(t_bytes32,t_struct(RoleData)19_storage)"
      },
      {
        "astId": 4809,
        "contract": "contracts/Governor.sol:Governor",
        "label": "checks",
        "offset": 0,
        "slot": "1",
        "type": "t_array(t_bytes32)dyn_storage"
      },
      {
        "astId": 6053,
        "contract": "contracts/Governor.sol:Governor",
        "label": "registry",
        "offset": 0,
        "slot": "2",
        "type": "t_contract(Registry)6202"
      },
      {
        "astId": 6245,
        "contract": "contracts/Governor.sol:Governor",
        "label": "requests",
        "offset": 0,
        "slot": "3",
        "type": "t_array(t_struct(Request)6277_storage)dyn_storage"
      }
    ],
    "types": {
      "t_address": {
        "encoding": "inplace",
        "label": "address",
        "numberOfBytes": "20"
      },
      "t_array(t_bytes32)dyn_storage": {
        "base": "t_bytes32",
        "encoding": "dynamic_array",
        "label": "bytes32[]",
        "numberOfBytes": "32"
      },
      "t_array(t_struct(Request)6277_storage)dyn_storage": {
        "base": "t_struct(Request)6277_storage",
        "encoding": "dynamic_array",
        "label": "struct RequestManager.Request[]",
        "numberOfBytes": "32"
      },
      "t_bool": {
        "encoding": "inplace",
        "label": "bool",
        "numberOfBytes": "1"
      },
      "t_bytes32": {
        "encoding": "inplace",
        "label": "bytes32",
        "numberOfBytes": "32"
      },
      "t_contract(Registry)6202": {
        "encoding": "inplace",
        "label": "contract Registry",
        "numberOfBytes": "20"
      },
      "t_enum(Status)6250": {
        "encoding": "inplace",
        "label": "enum RequestManager.Status",
        "numberOfBytes": "1"
      },
      "t_mapping(t_address,t_bool)": {
        "encoding": "mapping",
        "key": "t_address",
        "label": "mapping(address => bool)",
        "numberOfBytes": "32",
        "value": "t_bool"
      },
      "t_mapping(t_bytes32,t_address)": {
        "encoding": "mapping",
        "key": "t_bytes32",
        "label": "mapping(bytes32 => address)",
        "numberOfBytes": "32",
        "value": "t_address"
      },
      "t_mapping(t_bytes32,t_struct(RoleData)19_storage)": {
        "encoding": "mapping",
        "key": "t_bytes32",
        "label": "mapping(bytes32 => struct AccessControl.RoleData)",
        "numberOfBytes": "32",
        "value": "t_struct(RoleData)19_storage"
      },
      "t_mapping(t_bytes32,t_uint256)": {
        "encoding": "mapping",
        "key": "t_bytes32",
        "label": "mapping(bytes32 => uint256)",
        "numberOfBytes": "32",
        "value": "t_uint256"
      },
      "t_struct(Bytes32Set)4182_storage": {
        "encoding": "inplace",
        "label": "struct EnumerableSet.Bytes32Set",
        "members": [
          {
            "astId": 4181,
            "contract": "contracts/Governor.sol:Governor",
            "label": "_inner",
            "offset": 0,
            "slot": "0",
            "type": "t_struct(Set)3988_storage"
          }
        ],
        "numberOfBytes": "64"
      },
      "t_struct(Coordinates)7294_storage": {
        "encoding": "inplace",
        "label": "struct Geo.Coordinates",
        "members": [
          {
            "astId": 7291,
            "contract": "contracts/Governor.sol:Governor",
            "label": "lat",
            "offset": 0,
            "slot": "0",
            "type": "t_uint256"
          },
          {
            "astId": 7293,
            "contract": "contracts/Governor.sol:Governor",
            "label": "lon",
            "offset": 0,
            "slot": "1",
            "type": "t_uint256"
          }
        ],
        "numberOfBytes": "64"
      },
      "t_struct(Request)6277_storage": {
        "encoding": "inplace",
        "label": "struct RequestManager.Request",
        "members": [
          {
            "astId": 6252,
            "contract": "contracts/Governor.sol:Governor",
            "label": "id",
            "offset": 0,
            "slot": "0",
            "type": "t_uint256"
          },
          {
            "astId": 6254,
            "contract": "contracts/Governor.sol:Governor",
            "label": "fundId",
            "offset": 0,
            "slot": "1",
            "type": "t_uint256"
          },
          {
            "astId": 6256,
            "contract": "contracts/Governor.sol:Governor",
            "label": "amount",
            "offset": 0,
            "slot": "2",
            "type": "t_uint256"
          },
          {
            "astId": 6258,
            "contract": "contracts/Governor.sol:Governor",
            "label": "_type",
            "offset": 0,
            "slot": "3",
            "type": "t_bytes32"
          },
          {
            "astId": 6260,
            "contract": "contracts/Governor.sol:Governor",
            "label": "recipient",
            "offset": 0,
            "slot": "4",
            "type": "t_address"
          },
          {
            "astId": 6263,
            "contract": "contracts/Governor.sol:Governor",
            "label": "status",
            "offset": 20,
            "slot": "4",
            "type": "t_enum(Status)6250"
          },
          {
            "astId": 6266,
            "contract": "contracts/Governor.sol:Governor",
            "label": "location",
            "offset": 0,
            "slot": "5",
            "type": "t_struct(Coordinates)7294_storage"
          },
          {
            "astId": 6269,
            "contract": "contracts/Governor.sol:Governor",
            "label": "checks",
            "offset": 0,
            "slot": "7",
            "type": "t_struct(Bytes32Set)4182_storage"
          },
          {
            "astId": 6272,
            "contract": "contracts/Governor.sol:Governor",
            "label": "pending",
            "offset": 0,
            "slot": "9",
            "type": "t_struct(Bytes32Set)4182_storage"
          },
          {
            "astId": 6276,
            "contract": "contracts/Governor.sol:Governor",
            "label": "approvals",
            "offset": 0,
            "slot": "11",
            "type": "t_mapping(t_bytes32,t_address)"
          }
        ],
        "numberOfBytes": "384"
      },
      "t_struct(RoleData)19_storage": {
        "encoding": "inplace",
        "label": "struct AccessControl.RoleData",
        "members": [
          {
            "astId": 16,
            "contract": "contracts/Governor.sol:Governor",
            "label": "members",
            "offset": 0,
            "slot": "0",
            "type": "t_mapping(t_address,t_bool)"
          },
          {
            "astId": 18,
            "contract": "contracts/Governor.sol:Governor",
            "label": "adminRole",
            "offset": 0,
            "slot": "1",
            "type": "t_bytes32"
          }
        ],
        "numberOfBytes": "64"
      },
      "t_struct(Set)3988_storage": {
        "encoding": "inplace",
        "label": "struct EnumerableSet.Set",
        "members": [
          {
            "astId": 3983,
            "contract": "contracts/Governor.sol:Governor",
            "label": "_values",
            "offset": 0,
            "slot": "0",
            "type": "t_array(t_bytes32)dyn_storage"
          },
          {
            "astId": 3987,
            "contract": "contracts/Governor.sol:Governor",
            "label": "_indexes",
            "offset": 0,
            "slot": "1",
            "type": "t_mapping(t_bytes32,t_uint256)"
          }
        ],
        "numberOfBytes": "64"
      },
      "t_uint256": {
        "encoding": "inplace",
        "label": "uint256",
        "numberOfBytes": "32"
      }
    }
  }
}