{
  "address": "0xe2D81117E6C2B5DFdD2b85C8C57Ee0A7D39e3013",
  "abi": [
    {
      "inputs": [
        {
          "internalType": "address",
          "name": "_registry",
          "type": "address"
        },
        {
          "internalType": "bytes32[]",
          "name": "_initialChecks",
          "type": "bytes32[]"
        }
      ],
      "stateMutability": "nonpayable",
      "type": "constructor"
    },
    {
      "inputs": [],
      "name": "CheckAlreadyApproved",
      "type": "error"
    },
    {
      "inputs": [
        {
          "internalType": "bytes32",
          "name": "",
          "type": "bytes32"
        }
      ],
      "name": "MissingRole",
      "type": "error"
    },
    {
      "inputs": [],
      "name": "NoZeroChecks",
      "type": "error"
    },
    {
      "inputs": [],
      "name": "NotAllowed",
      "type": "error"
    },
    {
      "inputs": [
        {
          "internalType": "uint256",
          "name": "",
          "type": "uint256"
        }
      ],
      "name": "NotAllowedForFund",
      "type": "error"
    },
    {
      "anonymous": false,
      "inputs": [
        {
          "indexed": true,
          "internalType": "uint256",
          "name": "id",
          "type": "uint256"
        },
        {
          "indexed": true,
          "internalType": "uint256",
          "name": "fundId",
          "type": "uint256"
        },
        {
          "indexed": true,
          "internalType": "address",
          "name": "recipient",
          "type": "address"
        }
      ],
      "name": "RequestCreated",
      "type": "event"
    },
    {
      "anonymous": false,
      "inputs": [
        {
          "indexed": true,
          "internalType": "uint256",
          "name": "id",
          "type": "uint256"
        },
        {
          "indexed": true,
          "internalType": "enum RequestStatus",
          "name": "status",
          "type": "uint8"
        }
      ],
      "name": "RequestStatusChange",
      "type": "event"
    },
    {
      "anonymous": false,
      "inputs": [
        {
          "indexed": true,
          "internalType": "bytes32",
          "name": "role",
          "type": "bytes32"
        },
        {
          "indexed": true,
          "internalType": "bytes32",
          "name": "previousAdminRole",
          "type": "bytes32"
        },
        {
          "indexed": true,
          "internalType": "bytes32",
          "name": "newAdminRole",
          "type": "bytes32"
        }
      ],
      "name": "RoleAdminChanged",
      "type": "event"
    },
    {
      "anonymous": false,
      "inputs": [
        {
          "indexed": true,
          "internalType": "bytes32",
          "name": "role",
          "type": "bytes32"
        },
        {
          "indexed": true,
          "internalType": "address",
          "name": "account",
          "type": "address"
        },
        {
          "indexed": true,
          "internalType": "address",
          "name": "sender",
          "type": "address"
        }
      ],
      "name": "RoleGranted",
      "type": "event"
    },
    {
      "anonymous": false,
      "inputs": [
        {
          "indexed": true,
          "internalType": "bytes32",
          "name": "role",
          "type": "bytes32"
        },
        {
          "indexed": true,
          "internalType": "address",
          "name": "account",
          "type": "address"
        },
        {
          "indexed": true,
          "internalType": "address",
          "name": "sender",
          "type": "address"
        }
      ],
      "name": "RoleRevoked",
      "type": "event"
    },
    {
      "inputs": [],
      "name": "APPROVER_ROLE",
      "outputs": [
        {
          "internalType": "bytes32",
          "name": "",
          "type": "bytes32"
        }
      ],
      "stateMutability": "view",
      "type": "function"
    },
    {
      "inputs": [],
      "name": "AUDIT_ROLE",
      "outputs": [
        {
          "internalType": "bytes32",
          "name": "",
          "type": "bytes32"
        }
      ],
      "stateMutability": "view",
      "type": "function"
    },
    {
      "inputs": [],
      "name": "DEFAULT_ADMIN_ROLE",
      "outputs": [
        {
          "internalType": "bytes32",
          "name": "",
          "type": "bytes32"
        }
      ],
      "stateMutability": "view",
      "type": "function"
    },
    {
      "inputs": [],
      "name": "EXECUTOR_ROLE",
      "outputs": [
        {
          "internalType": "bytes32",
          "name": "",
          "type": "bytes32"
        }
      ],
      "stateMutability": "view",
      "type": "function"
    },
    {
      "inputs": [],
      "name": "FINALIZER_ROLE",
      "outputs": [
        {
          "internalType": "bytes32",
          "name": "",
          "type": "bytes32"
        }
      ],
      "stateMutability": "view",
      "type": "function"
    },
    {
      "inputs": [
        {
          "internalType": "bytes32",
          "name": "_check",
          "type": "bytes32"
        }
      ],
      "name": "addCheck",
      "outputs": [
        {
          "internalType": "bool",
          "name": "",
          "type": "bool"
        }
      ],
      "stateMutability": "nonpayable",
      "type": "function"
    },
    {
      "inputs": [],
      "name": "allChecks",
      "outputs": [
        {
          "internalType": "bytes32[]",
          "name": "",
          "type": "bytes32[]"
        }
      ],
      "stateMutability": "view",
      "type": "function"
    },
    {
      "inputs": [
        {
          "internalType": "uint256",
          "name": "_id",
          "type": "uint256"
        },
        {
          "internalType": "uint256",
          "name": "_checkIndex",
          "type": "uint256"
        }
      ],
      "name": "approveRequest",
      "outputs": [
        {
          "internalType": "bool",
          "name": "",
          "type": "bool"
        }
      ],
      "stateMutability": "nonpayable",
      "type": "function"
    },
    {
      "inputs": [
        {
          "internalType": "bytes32",
          "name": "_type",
          "type": "bytes32"
        },
        {
          "internalType": "uint256",
          "name": "_amount",
          "type": "uint256"
        },
        {
          "internalType": "address",
          "name": "_recipient",
          "type": "address"
        },
        {
          "internalType": "uint256",
          "name": "_fundId",
          "type": "uint256"
        },
        {
          "internalType": "uint256[2]",
          "name": "_coordinates",
          "type": "uint256[2]"
        }
      ],
      "name": "createRequest",
      "outputs": [
        {
          "internalType": "uint256",
          "name": "",
          "type": "uint256"
        }
      ],
      "stateMutability": "nonpayable",
      "type": "function"
    },
    {
      "inputs": [
        {
          "internalType": "uint256",
          "name": "_index",
          "type": "uint256"
        }
      ],
      "name": "getCheck",
      "outputs": [
        {
          "internalType": "bytes32",
          "name": "",
          "type": "bytes32"
        }
      ],
      "stateMutability": "view",
      "type": "function"
    },
    {
      "inputs": [
        {
          "internalType": "uint256",
          "name": "_id",
          "type": "uint256"
        }
      ],
      "name": "getRequestStatus",
      "outputs": [
        {
          "internalType": "enum RequestStatus",
          "name": "",
          "type": "uint8"
        }
      ],
      "stateMutability": "view",
      "type": "function"
    },
    {
      "inputs": [
        {
          "internalType": "bytes32",
          "name": "role",
          "type": "bytes32"
        }
      ],
      "name": "getRoleAdmin",
      "outputs": [
        {
          "internalType": "bytes32",
          "name": "",
          "type": "bytes32"
        }
      ],
      "stateMutability": "view",
      "type": "function"
    },
    {
      "inputs": [
        {
          "internalType": "bytes32",
          "name": "role",
          "type": "bytes32"
        },
        {
          "internalType": "address",
          "name": "account",
          "type": "address"
        }
      ],
      "name": "grantRole",
      "outputs": [],
      "stateMutability": "nonpayable",
      "type": "function"
    },
    {
      "inputs": [
        {
          "internalType": "bytes32",
          "name": "role",
          "type": "bytes32"
        },
        {
          "internalType": "address",
          "name": "account",
          "type": "address"
        }
      ],
      "name": "hasRole",
      "outputs": [
        {
          "internalType": "bool",
          "name": "",
          "type": "bool"
        }
      ],
      "stateMutability": "view",
      "type": "function"
    },
    {
      "inputs": [
        {
          "internalType": "uint256",
          "name": "_index",
          "type": "uint256"
        }
      ],
      "name": "removeCheck",
      "outputs": [
        {
          "internalType": "bool",
          "name": "",
          "type": "bool"
        }
      ],
      "stateMutability": "nonpayable",
      "type": "function"
    },
    {
      "inputs": [
        {
          "internalType": "bytes32",
          "name": "role",
          "type": "bytes32"
        },
        {
          "internalType": "address",
          "name": "account",
          "type": "address"
        }
      ],
      "name": "renounceRole",
      "outputs": [],
      "stateMutability": "nonpayable",
      "type": "function"
    },
    {
      "inputs": [
        {
          "internalType": "bytes32",
          "name": "role",
          "type": "bytes32"
        },
        {
          "internalType": "address",
          "name": "account",
          "type": "address"
        }
      ],
      "name": "revokeRole",
      "outputs": [],
      "stateMutability": "nonpayable",
      "type": "function"
    },
    {
      "inputs": [
        {
          "internalType": "bytes4",
          "name": "interfaceId",
          "type": "bytes4"
        }
      ],
      "name": "supportsInterface",
      "outputs": [
        {
          "internalType": "bool",
          "name": "",
          "type": "bool"
        }
      ],
      "stateMutability": "view",
      "type": "function"
    }
  ],
  "transactionHash": "0x53082546b10f20b55536afcdee55ebb7e79716c1776df9176eba90785e6e3e90",
  "args": [
    "0xEB131cE3F45630269031D0515c109184Cb261982",
    [
      "0x544553545f434845434b5f303031000000000000000000000000000000000000",
      "0x544553545f434845434b5f303032000000000000000000000000000000000000",
      "0x544553545f434845434b5f303033000000000000000000000000000000000000"
    ]
  ],
  "numDeployments": 1,
  "solcInputHash": "97977cda316c6e4de5c4224109da374e",
  "bytecode": "0x60806040523480156200001157600080fd5b506040516200256f3803806200256f833981810160405281019062000037919062000504565b80828160018151101562000077576040517f6b3ea89400000000000000000000000000000000000000000000000000000000815260040160405180910390fd5b80600190805190602001906200008f9291906200026a565b505080600260006101000a81548173ffffffffffffffffffffffffffffffffffffffff021916908373ffffffffffffffffffffffffffffffffffffffff1602179055505050620000e96000801b33620000f160201b60201c565b50506200056a565b6200010382826200010760201b60201c565b5050565b620001198282620001f860201b60201c565b620001f457600160008084815260200190815260200160002060000160008373ffffffffffffffffffffffffffffffffffffffff1673ffffffffffffffffffffffffffffffffffffffff16815260200190815260200160002060006101000a81548160ff021916908315150217905550620001996200026260201b60201c565b73ffffffffffffffffffffffffffffffffffffffff168173ffffffffffffffffffffffffffffffffffffffff16837f2f8788117e7eff1d82e926ec794901d17c78024a50270940304540a733656f0d60405160405180910390a45b5050565b600080600084815260200190815260200160002060000160008373ffffffffffffffffffffffffffffffffffffffff1673ffffffffffffffffffffffffffffffffffffffff16815260200190815260200160002060009054906101000a900460ff16905092915050565b600033905090565b828054828255906000526020600020908101928215620002a9579160200282015b82811115620002a85782518255916020019190600101906200028b565b5b509050620002b89190620002bc565b5090565b5b80821115620002d7576000816000905550600101620002bd565b5090565b6000604051905090565b600080fd5b600080fd5b600073ffffffffffffffffffffffffffffffffffffffff82169050919050565b60006200031c82620002ef565b9050919050565b6200032e816200030f565b81146200033a57600080fd5b50565b6000815190506200034e8162000323565b92915050565b600080fd5b6000601f19601f8301169050919050565b7f4e487b7100000000000000000000000000000000000000000000000000000000600052604160045260246000fd5b620003a48262000359565b810181811067ffffffffffffffff82111715620003c657620003c56200036a565b5b80604052505050565b6000620003db620002db565b9050620003e9828262000399565b919050565b600067ffffffffffffffff8211156200040c576200040b6200036a565b5b602082029050602081019050919050565b600080fd5b6000819050919050565b620004378162000422565b81146200044357600080fd5b50565b60008151905062000457816200042c565b92915050565b6000620004746200046e84620003ee565b620003cf565b905080838252602082019050602084028301858111156200049a57620004996200041d565b5b835b81811015620004c75780620004b2888262000446565b8452602084019350506020810190506200049c565b5050509392505050565b600082601f830112620004e957620004e862000354565b5b8151620004fb8482602086016200045d565b91505092915050565b600080604083850312156200051e576200051d620002e5565b5b60006200052e858286016200033d565b925050602083015167ffffffffffffffff811115620005525762000551620002ea565b5b6200056085828601620004d1565b9150509250929050565b611ff5806200057a6000396000f3fe608060405234801561001057600080fd5b50600436106101165760003560e01c80634245962b116100a25780639db797f0116100715780639db797f014610309578063a217fddf14610339578063ab48d1fb14610357578063d547741f14610387578063d8a4676f146103a357610116565b80634245962b1461026d578063503642bb1461028b57806377a80589146102a957806391d14854146102d957610116565b80632c0a90a9116100e95780632c0a90a9146101b75780632f2ff15d146101e757806336568abe146102035780633b5862c11461021f5780633df55efd1461024f57610116565b8063015887d61461011b57806301ffc9a71461013957806307bd026514610169578063248a9ca314610187575b600080fd5b6101236103d3565b60405161013091906115fc565b60405180910390f35b610153600480360381019061014e9190611685565b61042b565b60405161016091906116cd565b60405180910390f35b6101716104a5565b60405161017e91906116f7565b60405180910390f35b6101a1600480360381019061019c919061173e565b6104c9565b6040516101ae91906116f7565b60405180910390f35b6101d160048036038101906101cc91906117a1565b6104e8565b6040516101de91906116cd565b60405180910390f35b61020160048036038101906101fc919061183f565b610805565b005b61021d6004803603810190610218919061183f565b61082e565b005b6102396004803603810190610234919061187f565b6108b1565b60405161024691906116cd565b60405180910390f35b610257610938565b60405161026491906116f7565b60405180910390f35b61027561095c565b60405161028291906116f7565b60405180910390f35b610293610980565b6040516102a091906116f7565b60405180910390f35b6102c360048036038101906102be919061173e565b6109a4565b6040516102d091906116cd565b60405180910390f35b6102f360048036038101906102ee919061183f565b610a0b565b60405161030091906116cd565b60405180910390f35b610323600480360381019061031e919061187f565b610a75565b60405161033091906116f7565b60405180910390f35b610341610a9d565b60405161034e91906116f7565b60405180910390f35b610371600480360381019061036c91906119f3565b610aa4565b60405161037e9190611a7d565b60405180910390f35b6103a1600480360381019061039c919061183f565b610c53565b005b6103bd60048036038101906103b8919061187f565b610c7c565b6040516103ca9190611b0f565b60405180910390f35b6060600180548060200260200160405190810160405280929190818152602001828054801561042157602002820191906000526020600020905b81548152602001906001019080831161040d575b5050505050905090565b60007f7965db0b000000000000000000000000000000000000000000000000000000007bffffffffffffffffffffffffffffffffffffffffffffffffffffffff1916827bffffffffffffffffffffffffffffffffffffffffffffffffffffffff1916148061049e575061049d82610cb8565b5b9050919050565b7fd8aa0f3194971a2a116679f7c2090f6939c8d4e01a2a8d7e41d55e5351469e6381565b6000806000838152602001908152602001600020600101549050919050565b60007f408a36151f841709116a4e8aca4e0202874f7f54687dcb863b1ea4672dc9d8cf61051c81610517610d22565b610d2a565b60008481600381111561053257610531611a98565b5b6003828154811061054657610545611b2a565b5b90600052602060002090600a020160030160009054906101000a900460ff16600381111561057757610576611a98565b5b146105ae576040517f3d693ada00000000000000000000000000000000000000000000000000000000815260040160405180910390fd5b6000600387815481106105c4576105c3611b2a565b5b90600052602060002090600a020160080186815481106105e7576105e6611b2a565b5b90600052602060002001549050600073ffffffffffffffffffffffffffffffffffffffff16600388815481106106205761061f611b2a565b5b90600052602060002090600a0201600901600083815260200190815260200160002060009054906101000a900473ffffffffffffffffffffffffffffffffffffffff1673ffffffffffffffffffffffffffffffffffffffff16146106b0576040517f19c80c7e00000000000000000000000000000000000000000000000000000000815260040160405180910390fd5b33600388815481106106c5576106c4611b2a565b5b90600052602060002090600a0201600901600083815260200190815260200160002060006101000a81548173ffffffffffffffffffffffffffffffffffffffff021916908373ffffffffffffffffffffffffffffffffffffffff1602179055506107536003888154811061073c5761073b611b2a565b5b90600052602060002090600a020160080187610dc7565b60006003888154811061076957610768611b2a565b5b90600052602060002090600a020160080180549050141561078e5761078d87610e6f565b5b600160038111156107a2576107a1611a98565b5b600388815481106107b6576107b5611b2a565b5b90600052602060002090600a020160030160009054906101000a900460ff1660038111156107e7576107e6611a98565b5b14156107f7576107f687610fba565b5b600194505050505092915050565b61080e826104c9565b61081f8161081a610d22565b610d2a565b610829838361105a565b505050565b610836610d22565b73ffffffffffffffffffffffffffffffffffffffff168173ffffffffffffffffffffffffffffffffffffffff16146108a3576040517f08c379a000000000000000000000000000000000000000000000000000000000815260040161089a90611bdc565b60405180910390fd5b6108ad828261113a565b5050565b60007f5db53b6955dc773ef555b3cc1835ee528ea8da7adbe1cd523fbff73209b77e0b6108e5816108e0610d22565b610d2a565b6001808054905011610923576040517f6b3ea89400000000000000000000000000000000000000000000000000000000815260040160405180910390fd5b61092e600184610dc7565b6001915050919050565b7f53ea8c2084bd069d8c2df22bdca7223415cd9c0b605c29d1a0d06f15fcd3eed481565b7f408a36151f841709116a4e8aca4e0202874f7f54687dcb863b1ea4672dc9d8cf81565b7f5db53b6955dc773ef555b3cc1835ee528ea8da7adbe1cd523fbff73209b77e0b81565b60007f5db53b6955dc773ef555b3cc1835ee528ea8da7adbe1cd523fbff73209b77e0b6109d8816109d3610d22565b610d2a565b60018390806001815401808255809150506001900390600052602060002001600090919091909150556001915050919050565b600080600084815260200190815260200160002060000160008373ffffffffffffffffffffffffffffffffffffffff1673ffffffffffffffffffffffffffffffffffffffff16815260200190815260200160002060009054906101000a900460ff16905092915050565b600060018281548110610a8b57610a8a611b2a565b5b90600052602060002001549050919050565b6000801b81565b6000600180805490501015610ae5576040517f6b3ea89400000000000000000000000000000000000000000000000000000000815260040160405180910390fd5b60006003805490509050600360018160018154018082558091505003906000526020600020905050600060038281548110610b2357610b22611b2a565b5b90600052602060002090600a0201905081816000018190555087816002018190555060008160030160006101000a81548160ff02191690836003811115610b6d57610b6c611a98565b5b0217905550610b7b8461121b565b816004016000820151816000015560208201518160010155905050858160060160006101000a81548173ffffffffffffffffffffffffffffffffffffffff021916908373ffffffffffffffffffffffffffffffffffffffff160217905550848160010181905550868160070181905550600181600801908054610bff9291906114ab565b508573ffffffffffffffffffffffffffffffffffffffff1685837fd460eb8f7211a74f45f31f6ff12b3877311cde98027a1104dc667ee2bee34b8e60405160405180910390a4819250505095945050505050565b610c5c826104c9565b610c6d81610c68610d22565b610d2a565b610c77838361113a565b505050565b600060038281548110610c9257610c91611b2a565b5b90600052602060002090600a020160030160009054906101000a900460ff169050919050565b60007f01ffc9a7000000000000000000000000000000000000000000000000000000007bffffffffffffffffffffffffffffffffffffffffffffffffffffffff1916827bffffffffffffffffffffffffffffffffffffffffffffffffffffffff1916149050919050565b600033905090565b610d348282610a0b565b610dc357610d598173ffffffffffffffffffffffffffffffffffffffff16601461126f565b610d678360001c602061126f565b604051602001610d78929190611d0e565b6040516020818303038152906040526040517f08c379a0000000000000000000000000000000000000000000000000000000008152600401610dba9190611d81565b60405180910390fd5b5050565b6000828054905011610dd857600080fd5b60018280549050610de99190611dd2565b811115610df557600080fd5b8160018380549050610e079190611dd2565b81548110610e1857610e17611b2a565b5b9060005260206000200154828281548110610e3657610e35611b2a565b5b906000526020600020018190555081805480610e5557610e54611e06565b5b600190038181906000526020600020016000905590555050565b600380811115610e8257610e81611a98565b5b60ff1660038281548110610e9957610e98611b2a565b5b90600052602060002090600a020160030160009054906101000a900460ff166003811115610eca57610ec9611a98565b5b60ff161415610f05576040517f3d693ada00000000000000000000000000000000000000000000000000000000815260040160405180910390fd5b600160038281548110610f1b57610f1a611b2a565b5b90600052602060002090600a020160030160009054906101000a900460ff166003811115610f4c57610f4b611a98565b5b610f569190611e42565b60ff166003811115610f6b57610f6a611a98565b5b60038281548110610f7f57610f7e611b2a565b5b90600052602060002090600a020160030160006101000a81548160ff02191690836003811115610fb257610fb1611a98565b5b021790555050565b600181816003811115610fd057610fcf611a98565b5b60038281548110610fe457610fe3611b2a565b5b90600052602060002090600a020160030160009054906101000a900460ff16600381111561101557611014611a98565b5b1461104c576040517f3d693ada00000000000000000000000000000000000000000000000000000000815260040160405180910390fd5b61105583610e6f565b505050565b6110648282610a0b565b61113657600160008084815260200190815260200160002060000160008373ffffffffffffffffffffffffffffffffffffffff1673ffffffffffffffffffffffffffffffffffffffff16815260200190815260200160002060006101000a81548160ff0219169083151502179055506110db610d22565b73ffffffffffffffffffffffffffffffffffffffff168173ffffffffffffffffffffffffffffffffffffffff16837f2f8788117e7eff1d82e926ec794901d17c78024a50270940304540a733656f0d60405160405180910390a45b5050565b6111448282610a0b565b1561121757600080600084815260200190815260200160002060000160008373ffffffffffffffffffffffffffffffffffffffff1673ffffffffffffffffffffffffffffffffffffffff16815260200190815260200160002060006101000a81548160ff0219169083151502179055506111bc610d22565b73ffffffffffffffffffffffffffffffffffffffff168173ffffffffffffffffffffffffffffffffffffffff16837ff6391f5c32d9c69d2a47ea670b442974b53935d1edc7fd64eb21e047a839171b60405160405180910390a45b5050565b6112236114fd565b60405180604001604052808360006002811061124257611241611b2a565b5b60200201518152602001836001600281106112605761125f611b2a565b5b60200201518152509050919050565b6060600060028360026112829190611e79565b61128c9190611ed3565b67ffffffffffffffff8111156112a5576112a46118c2565b5b6040519080825280601f01601f1916602001820160405280156112d75781602001600182028036833780820191505090505b5090507f30000000000000000000000000000000000000000000000000000000000000008160008151811061130f5761130e611b2a565b5b60200101907effffffffffffffffffffffffffffffffffffffffffffffffffffffffffffff1916908160001a9053507f78000000000000000000000000000000000000000000000000000000000000008160018151811061137357611372611b2a565b5b60200101907effffffffffffffffffffffffffffffffffffffffffffffffffffffffffffff1916908160001a905350600060018460026113b39190611e79565b6113bd9190611ed3565b90505b600181111561145d577f3031323334353637383961626364656600000000000000000000000000000000600f8616601081106113ff576113fe611b2a565b5b1a60f81b82828151811061141657611415611b2a565b5b60200101907effffffffffffffffffffffffffffffffffffffffffffffffffffffffffffff1916908160001a905350600485901c94508061145690611f29565b90506113c0565b50600084146114a1576040517f08c379a000000000000000000000000000000000000000000000000000000000815260040161149890611f9f565b60405180910390fd5b8091505092915050565b8280548282559060005260206000209081019282156114ec5760005260206000209182015b828111156114eb5782548255916001019190600101906114d0565b5b5090506114f99190611517565b5090565b604051806040016040528060008152602001600081525090565b5b80821115611530576000816000905550600101611518565b5090565b600081519050919050565b600082825260208201905092915050565b6000819050602082019050919050565b6000819050919050565b61157381611560565b82525050565b6000611585838361156a565b60208301905092915050565b6000602082019050919050565b60006115a982611534565b6115b3818561153f565b93506115be83611550565b8060005b838110156115ef5781516115d68882611579565b97506115e183611591565b9250506001810190506115c2565b5085935050505092915050565b60006020820190508181036000830152611616818461159e565b905092915050565b6000604051905090565b600080fd5b60007fffffffff0000000000000000000000000000000000000000000000000000000082169050919050565b6116628161162d565b811461166d57600080fd5b50565b60008135905061167f81611659565b92915050565b60006020828403121561169b5761169a611628565b5b60006116a984828501611670565b91505092915050565b60008115159050919050565b6116c7816116b2565b82525050565b60006020820190506116e260008301846116be565b92915050565b6116f181611560565b82525050565b600060208201905061170c60008301846116e8565b92915050565b61171b81611560565b811461172657600080fd5b50565b60008135905061173881611712565b92915050565b60006020828403121561175457611753611628565b5b600061176284828501611729565b91505092915050565b6000819050919050565b61177e8161176b565b811461178957600080fd5b50565b60008135905061179b81611775565b92915050565b600080604083850312156117b8576117b7611628565b5b60006117c68582860161178c565b92505060206117d78582860161178c565b9150509250929050565b600073ffffffffffffffffffffffffffffffffffffffff82169050919050565b600061180c826117e1565b9050919050565b61181c81611801565b811461182757600080fd5b50565b60008135905061183981611813565b92915050565b6000806040838503121561185657611855611628565b5b600061186485828601611729565b92505060206118758582860161182a565b9150509250929050565b60006020828403121561189557611894611628565b5b60006118a38482850161178c565b91505092915050565b600080fd5b6000601f19601f8301169050919050565b7f4e487b7100000000000000000000000000000000000000000000000000000000600052604160045260246000fd5b6118fa826118b1565b810181811067ffffffffffffffff82111715611919576119186118c2565b5b80604052505050565b600061192c61161e565b905061193882826118f1565b919050565b600067ffffffffffffffff821115611958576119576118c2565b5b602082029050919050565b600080fd5b600061197b6119768461193d565b611922565b9050806020840283018581111561199557611994611963565b5b835b818110156119be57806119aa888261178c565b845260208401935050602081019050611997565b5050509392505050565b600082601f8301126119dd576119dc6118ac565b5b60026119ea848285611968565b91505092915050565b600080600080600060c08688031215611a0f57611a0e611628565b5b6000611a1d88828901611729565b9550506020611a2e8882890161178c565b9450506040611a3f8882890161182a565b9350506060611a508882890161178c565b9250506080611a61888289016119c8565b9150509295509295909350565b611a778161176b565b82525050565b6000602082019050611a926000830184611a6e565b92915050565b7f4e487b7100000000000000000000000000000000000000000000000000000000600052602160045260246000fd5b60048110611ad857611ad7611a98565b5b50565b6000819050611ae982611ac7565b919050565b6000611af982611adb565b9050919050565b611b0981611aee565b82525050565b6000602082019050611b246000830184611b00565b92915050565b7f4e487b7100000000000000000000000000000000000000000000000000000000600052603260045260246000fd5b600082825260208201905092915050565b7f416363657373436f6e74726f6c3a2063616e206f6e6c792072656e6f756e636560008201527f20726f6c657320666f722073656c660000000000000000000000000000000000602082015250565b6000611bc6602f83611b59565b9150611bd182611b6a565b604082019050919050565b60006020820190508181036000830152611bf581611bb9565b9050919050565b600081905092915050565b7f416363657373436f6e74726f6c3a206163636f756e7420000000000000000000600082015250565b6000611c3d601783611bfc565b9150611c4882611c07565b601782019050919050565b600081519050919050565b60005b83811015611c7c578082015181840152602081019050611c61565b83811115611c8b576000848401525b50505050565b6000611c9c82611c53565b611ca68185611bfc565b9350611cb6818560208601611c5e565b80840191505092915050565b7f206973206d697373696e6720726f6c6520000000000000000000000000000000600082015250565b6000611cf8601183611bfc565b9150611d0382611cc2565b601182019050919050565b6000611d1982611c30565b9150611d258285611c91565b9150611d3082611ceb565b9150611d3c8284611c91565b91508190509392505050565b6000611d5382611c53565b611d5d8185611b59565b9350611d6d818560208601611c5e565b611d76816118b1565b840191505092915050565b60006020820190508181036000830152611d9b8184611d48565b905092915050565b7f4e487b7100000000000000000000000000000000000000000000000000000000600052601160045260246000fd5b6000611ddd8261176b565b9150611de88361176b565b925082821015611dfb57611dfa611da3565b5b828203905092915050565b7f4e487b7100000000000000000000000000000000000000000000000000000000600052603160045260246000fd5b600060ff82169050919050565b6000611e4d82611e35565b9150611e5883611e35565b92508260ff03821115611e6e57611e6d611da3565b5b828201905092915050565b6000611e848261176b565b9150611e8f8361176b565b9250817fffffffffffffffffffffffffffffffffffffffffffffffffffffffffffffffff0483118215151615611ec857611ec7611da3565b5b828202905092915050565b6000611ede8261176b565b9150611ee98361176b565b9250827fffffffffffffffffffffffffffffffffffffffffffffffffffffffffffffffff03821115611f1e57611f1d611da3565b5b828201905092915050565b6000611f348261176b565b91506000821415611f4857611f47611da3565b5b600182039050919050565b7f537472696e67733a20686578206c656e67746820696e73756666696369656e74600082015250565b6000611f89602083611b59565b9150611f9482611f53565b602082019050919050565b60006020820190508181036000830152611fb881611f7c565b905091905056fea2646970667358221220ee1903a2c57ce29b94b42c02af404f037a7fff50adf504c37eb91ebedcabc10364736f6c634300080a0033",
  "devdoc": {
    "kind": "dev",
    "methods": {
      "approveRequest(uint256,uint256)": {
        "details": "initiate a request",
        "params": {
          "_checkIndex": "index of the check being approved",
          "_id": "type of the request"
        },
        "returns": {
          "_0": "boolean indicating result of the operation"
        }
      },
      "createRequest(bytes32,uint256,address,uint256,uint256[2])": {
        "details": "initiate a request",
        "params": {
          "_amount": "requested amount from the fund",
          "_coordinates": "coordinates pointing to request location",
          "_fundId": "id of the fund requested from",
          "_recipient": "ultimate recipient of the funds requested",
          "_type": "type of the request"
        },
        "returns": {
          "_0": "id (index) of the initiated request"
        }
      },
      "getRoleAdmin(bytes32)": {
        "details": "Returns the admin role that controls `role`. See {grantRole} and {revokeRole}. To change a role's admin, use {_setRoleAdmin}."
      },
      "grantRole(bytes32,address)": {
        "details": "Grants `role` to `account`. If `account` had not been already granted `role`, emits a {RoleGranted} event. Requirements: - the caller must have ``role``'s admin role."
      },
      "hasRole(bytes32,address)": {
        "details": "Returns `true` if `account` has been granted `role`."
      },
      "renounceRole(bytes32,address)": {
        "details": "Revokes `role` from the calling account. Roles are often managed via {grantRole} and {revokeRole}: this function's purpose is to provide a mechanism for accounts to lose their privileges if they are compromised (such as when a trusted device is misplaced). If the calling account had been revoked `role`, emits a {RoleRevoked} event. Requirements: - the caller must be `account`."
      },
      "revokeRole(bytes32,address)": {
        "details": "Revokes `role` from `account`. If `account` had been granted `role`, emits a {RoleRevoked} event. Requirements: - the caller must have ``role``'s admin role."
      },
      "supportsInterface(bytes4)": {
        "details": "See {IERC165-supportsInterface}."
      }
    },
    "version": 1
  },
  "userdoc": {
    "kind": "user",
    "methods": {},
    "version": 1
  },
  "storageLayout": {
    "storage": [
      {
        "astId": 24,
        "contract": "contracts/Governor.sol:Governor",
        "label": "_roles",
        "offset": 0,
        "slot": "0",
        "type": "t_mapping(t_bytes32,t_struct(RoleData)19_storage)"
      },
      {
        "astId": 3719,
        "contract": "contracts/Governor.sol:Governor",
        "label": "checks",
        "offset": 0,
        "slot": "1",
        "type": "t_array(t_bytes32)dyn_storage"
      },
      {
        "astId": 5366,
        "contract": "contracts/Governor.sol:Governor",
        "label": "registry",
        "offset": 0,
        "slot": "2",
        "type": "t_contract(Registry)5515"
      },
      {
        "astId": 5562,
        "contract": "contracts/Governor.sol:Governor",
        "label": "requests",
        "offset": 0,
        "slot": "3",
        "type": "t_array(t_struct(Request)5554_storage)dyn_storage"
      }
    ],
    "types": {
      "t_address": {
        "encoding": "inplace",
        "label": "address",
        "numberOfBytes": "20"
      },
      "t_array(t_bytes32)dyn_storage": {
        "base": "t_bytes32",
        "encoding": "dynamic_array",
        "label": "bytes32[]",
        "numberOfBytes": "32"
      },
      "t_array(t_struct(Request)5554_storage)dyn_storage": {
        "base": "t_struct(Request)5554_storage",
        "encoding": "dynamic_array",
        "label": "struct Request[]",
        "numberOfBytes": "32"
      },
      "t_bool": {
        "encoding": "inplace",
        "label": "bool",
        "numberOfBytes": "1"
      },
      "t_bytes32": {
        "encoding": "inplace",
        "label": "bytes32",
        "numberOfBytes": "32"
      },
      "t_contract(Registry)5515": {
        "encoding": "inplace",
        "label": "contract Registry",
        "numberOfBytes": "20"
      },
      "t_enum(RequestStatus)5530": {
        "encoding": "inplace",
        "label": "enum RequestStatus",
        "numberOfBytes": "1"
      },
      "t_mapping(t_address,t_bool)": {
        "encoding": "mapping",
        "key": "t_address",
        "label": "mapping(address => bool)",
        "numberOfBytes": "32",
        "value": "t_bool"
      },
      "t_mapping(t_bytes32,t_address)": {
        "encoding": "mapping",
        "key": "t_bytes32",
        "label": "mapping(bytes32 => address)",
        "numberOfBytes": "32",
        "value": "t_address"
      },
      "t_mapping(t_bytes32,t_struct(RoleData)19_storage)": {
        "encoding": "mapping",
        "key": "t_bytes32",
        "label": "mapping(bytes32 => struct AccessControl.RoleData)",
        "numberOfBytes": "32",
        "value": "t_struct(RoleData)19_storage"
      },
      "t_struct(Coordinates)6356_storage": {
        "encoding": "inplace",
        "label": "struct Geo.Coordinates",
        "members": [
          {
            "astId": 6353,
            "contract": "contracts/Governor.sol:Governor",
            "label": "lat",
            "offset": 0,
            "slot": "0",
            "type": "t_uint256"
          },
          {
            "astId": 6355,
            "contract": "contracts/Governor.sol:Governor",
            "label": "lon",
            "offset": 0,
            "slot": "1",
            "type": "t_uint256"
          }
        ],
        "numberOfBytes": "64"
      },
      "t_struct(Request)5554_storage": {
        "encoding": "inplace",
        "label": "struct Request",
        "members": [
          {
            "astId": 5532,
            "contract": "contracts/Governor.sol:Governor",
            "label": "id",
            "offset": 0,
            "slot": "0",
            "type": "t_uint256"
          },
          {
            "astId": 5534,
            "contract": "contracts/Governor.sol:Governor",
            "label": "fundId",
            "offset": 0,
            "slot": "1",
            "type": "t_uint256"
          },
          {
            "astId": 5536,
            "contract": "contracts/Governor.sol:Governor",
            "label": "_type",
            "offset": 0,
            "slot": "2",
            "type": "t_bytes32"
          },
          {
            "astId": 5539,
            "contract": "contracts/Governor.sol:Governor",
            "label": "status",
            "offset": 0,
            "slot": "3",
            "type": "t_enum(RequestStatus)5530"
          },
          {
            "astId": 5542,
            "contract": "contracts/Governor.sol:Governor",
            "label": "location",
            "offset": 0,
            "slot": "4",
            "type": "t_struct(Coordinates)6356_storage"
          },
          {
            "astId": 5544,
            "contract": "contracts/Governor.sol:Governor",
            "label": "recipient",
            "offset": 0,
            "slot": "6",
            "type": "t_address"
          },
          {
            "astId": 5546,
            "contract": "contracts/Governor.sol:Governor",
            "label": "amount",
            "offset": 0,
            "slot": "7",
            "type": "t_uint256"
          },
          {
            "astId": 5549,
            "contract": "contracts/Governor.sol:Governor",
            "label": "remainingChecks",
            "offset": 0,
            "slot": "8",
            "type": "t_array(t_bytes32)dyn_storage"
          },
          {
            "astId": 5553,
            "contract": "contracts/Governor.sol:Governor",
            "label": "approvals",
            "offset": 0,
            "slot": "9",
            "type": "t_mapping(t_bytes32,t_address)"
          }
        ],
        "numberOfBytes": "320"
      },
      "t_struct(RoleData)19_storage": {
        "encoding": "inplace",
        "label": "struct AccessControl.RoleData",
        "members": [
          {
            "astId": 16,
            "contract": "contracts/Governor.sol:Governor",
            "label": "members",
            "offset": 0,
            "slot": "0",
            "type": "t_mapping(t_address,t_bool)"
          },
          {
            "astId": 18,
            "contract": "contracts/Governor.sol:Governor",
            "label": "adminRole",
            "offset": 0,
            "slot": "1",
            "type": "t_bytes32"
          }
        ],
        "numberOfBytes": "64"
      },
      "t_uint256": {
        "encoding": "inplace",
        "label": "uint256",
        "numberOfBytes": "32"
      }
    }
  }
}