{
  "address": "0xa620f1DFE48607Fcf2FbFeBa43Ca9A841cb9e08B",
  "abi": [
    {
      "inputs": [
        {
          "internalType": "uint256",
          "name": "_tokenId",
          "type": "uint256"
        },
        {
          "internalType": "address",
          "name": "_ownerAddress",
          "type": "address"
        },
        {
          "internalType": "uint256",
          "name": "_supportAmount",
          "type": "uint256"
        },
        {
          "internalType": "address",
          "name": "_tokenAddress",
          "type": "address"
        },
        {
          "internalType": "string",
          "name": "_fundName",
          "type": "string"
        },
        {
          "internalType": "string",
          "name": "_fundFocus",
          "type": "string"
        }
      ],
      "name": "_buildSVG",
      "outputs": [
        {
          "internalType": "bytes",
          "name": "",
          "type": "bytes"
        }
      ],
      "stateMutability": "view",
      "type": "function"
    },
    {
      "inputs": [
        {
          "internalType": "uint256",
          "name": "_tokenId",
          "type": "uint256"
        },
        {
          "internalType": "address",
          "name": "_ownerAddress",
          "type": "address"
        },
        {
          "internalType": "uint256",
          "name": "_supportAmount",
          "type": "uint256"
        },
        {
          "internalType": "address",
          "name": "_tokenAddress",
          "type": "address"
        },
        {
          "internalType": "string",
          "name": "_fundName",
          "type": "string"
        },
        {
          "internalType": "string",
          "name": "_fundFocus",
          "type": "string"
        }
      ],
      "name": "buildSVG",
      "outputs": [
        {
          "internalType": "string",
          "name": "",
          "type": "string"
        }
      ],
      "stateMutability": "view",
      "type": "function"
    },
    {
      "inputs": [
        {
          "internalType": "uint256",
          "name": "_tokenId",
          "type": "uint256"
        },
        {
          "internalType": "address",
          "name": "_ownerAddress",
          "type": "address"
        },
        {
          "internalType": "uint256",
          "name": "_supportAmount",
          "type": "uint256"
        },
        {
          "internalType": "address",
          "name": "_tokenAddress",
          "type": "address"
        },
        {
          "internalType": "string",
          "name": "_fundName",
          "type": "string"
        },
        {
          "internalType": "string",
          "name": "_fundFocus",
          "type": "string"
        }
      ],
      "name": "encodeSVG",
      "outputs": [
        {
          "internalType": "string",
          "name": "",
          "type": "string"
        }
      ],
      "stateMutability": "view",
      "type": "function"
    }
  ],
  "transactionHash": "0xefcb2cefe2d86a55572a4e5e042418f68ab2585128508ee9836c2e833305a520",
  "args": [],
  "numDeployments": 1,
  "solcInputHash": "8323e950d3265946019da87932f3fa7f",
  "bytecode": "0x608060405234801561001057600080fd5b50612633806100206000396000f3fe608060405234801561001057600080fd5b50600436106100415760003560e01c8063011b665114610046578063be4eeda71461006f578063cbecbf9714610082575b600080fd5b610059610054366004610b96565b610095565b6040516100669190610c89565b60405180910390f35b61005961007d366004610b96565b6103e5565b610059610090366004610b96565b610400565b6060600060405180606001604052806100af89604d610418565b81526020016100bf896088610418565b81526020016100cf896011610418565b81525090506000610155866001600160a01b031663313ce5676040518163ffffffff1660e01b8152600401602060405180830381865afa158015610117573d6000803e3d6000fd5b505050506040513d601f19601f8201168201806040525081019061013b9190610c9c565b61014690600a610db9565b6101509089610dde565b610458565b905060006101b76101658b610458565b60405180604001604052806016815260200175726f74617465283930203133322e35203134322e352960501b815250604051806040016040528060058152602001641cdd185c9d60da1b81525061055e565b61021a6101c38b61058d565b6040518060400160405280601781526020017f726f74617465283930202d3130372e35203338322e352900000000000000000081525060405180604001604052806003815260200162195b9960ea1b81525061055e565b610263601e606e60405180604001604052806004815260200163119d5b9960e21b8152508b60405160200161024f9190610e0e565b6040516020818303038152906040526105a3565b610299601e60b460405180604001604052806005815260200164466f63757360d81b8152508b60405160200161024f9190610e0e565b610339601e60fa604051806040016040528060088152602001672237b730ba34b7b760c11b815250898f6001600160a01b03166395d89b416040518163ffffffff1660e01b8152600401600060405180830381865afa158015610300573d6000803e3d6000fd5b505050506040513d6000823e601f3d908101601f191682016040526103289190810190610e2a565b60405160200161024f929190610ea1565b610342886105e5565b60405160200161035796959493929190610edd565b60408051601f1981840301815260c08301909152609980835290925061151360208301396040518061052001604052806104fc81526020016115ac6104fc913960405180610b400160405280610b168152602001611aa8610b169139836040516020016103c79493929190610f5c565b60405160208183030381529060405293505050509695505050505050565b60606103f5878787878787610095565b979650505050505050565b60606103f5610413888888888888610095565b6106b7565b60606104306001600160a01b038416831c600361080b565b6040516020016104409190611044565b60405160208183030381529060405290505b92915050565b60608161047c5750506040805180820190915260018152600360fc1b602082015290565b8160005b81156104a657806104908161106d565b915061049f9050600a83610dde565b9150610480565b60008167ffffffffffffffff8111156104c1576104c1610ad1565b6040519080825280601f01601f1916602001820160405280156104eb576020820181803683370190505b5090505b841561055657610500600183611088565b915061050d600a8661109f565b6105189060306110b3565b60f81b81838151811061052d5761052d6110cb565b60200101906001600160f81b031916908160001a90535061054f600a86610dde565b94506104ef565b949350505050565b6060828285604051602001610575939291906110e1565b60405160208183030381529060405290509392505050565b60606104526001600160a01b03831660146108e9565b60606105ae85610458565b6105b785610458565b84846040516020016105cc949392919061119e565b6040516020818303038152906040529050949350505050565b606061060b8260405180604001604052806002815260200161302560f01b815250610a90565b61069060405180606001604052808560016003811061062c5761062c6110cb565b6020020151815260200185600060038110610649576106496110cb565b6020020151815260200185600260038110610666576106666110cb565b6020020151815250604051806040016040528060048152602001633130302560e01b815250610a90565b6040516020016106a19291906112c9565b6040516020818303038152906040529050919050565b60608151600014156106d757505060408051602081019091526000815290565b60006040518060600160405280604081526020016125be604091399050600060038451600261070691906110b3565b6107109190610dde565b61071b906004611386565b67ffffffffffffffff81111561073357610733610ad1565b6040519080825280601f01601f19166020018201604052801561075d576020820181803683370190505b509050600182016020820185865187015b808210156107c9576003820191508151603f8160121c168501518453600184019350603f81600c1c168501518453600184019350603f8160061c168501518453600184019350603f811685015184535060018301925061076e565b50506003865106600181146107e557600281146107f857610800565b603d6001830353603d6002830353610800565b603d60018303535b509195945050505050565b6060600061081a836002611386565b67ffffffffffffffff81111561083257610832610ad1565b6040519080825280601f01601f19166020018201604052801561085c576020820181803683370190505b5080519091505b80156108e1576f181899199a1a9b1b9c1cb0b131b232b360811b85600f1660108110610891576108916110cb565b1a60f81b826108a1600184611088565b815181106108b1576108b16110cb565b60200101906001600160f81b031916908160001a90535060049490941c93806108d9816113a5565b915050610863565b509392505050565b606060006108f8836002611386565b6109039060026110b3565b67ffffffffffffffff81111561091b5761091b610ad1565b6040519080825280601f01601f191660200182016040528015610945576020820181803683370190505b509050600360fc1b81600081518110610960576109606110cb565b60200101906001600160f81b031916908160001a905350600f60fb1b8160018151811061098f5761098f6110cb565b60200101906001600160f81b031916908160001a90535060006109b3846002611386565b6109be9060016110b3565b90505b6001811115610a36576f181899199a1a9b1b9c1cb0b131b232b360811b85600f16601081106109f2576109f26110cb565b1a60f81b828281518110610a0857610a086110cb565b60200101906001600160f81b031916908160001a90535060049490941c93610a2f816113a5565b90506109c1565b508315610a895760405162461bcd60e51b815260206004820181905260248201527f537472696e67733a20686578206c656e67746820696e73756666696369656e74604482015260640160405180910390fd5b9392505050565b81516040808401516020808601519251606094610440948794919384938491016113bc565b80356001600160a01b0381168114610acc57600080fd5b919050565b634e487b7160e01b600052604160045260246000fd5b604051601f8201601f1916810167ffffffffffffffff81118282101715610b1057610b10610ad1565b604052919050565b600067ffffffffffffffff821115610b3257610b32610ad1565b50601f01601f191660200190565b600082601f830112610b5157600080fd5b8135610b64610b5f82610b18565b610ae7565b818152846020838601011115610b7957600080fd5b816020850160208301376000918101602001919091529392505050565b60008060008060008060c08789031215610baf57600080fd5b86359550610bbf60208801610ab5565b945060408701359350610bd460608801610ab5565b9250608087013567ffffffffffffffff80821115610bf157600080fd5b610bfd8a838b01610b40565b935060a0890135915080821115610c1357600080fd5b50610c2089828a01610b40565b9150509295509295509295565b60005b83811015610c48578181015183820152602001610c30565b83811115610c57576000848401525b50505050565b60008151808452610c75816020860160208601610c2d565b601f01601f19169290920160200192915050565b602081526000610a896020830184610c5d565b600060208284031215610cae57600080fd5b815160ff81168114610a8957600080fd5b634e487b7160e01b600052601160045260246000fd5b600181815b80851115610d10578160001904821115610cf657610cf6610cbf565b80851615610d0357918102915b93841c9390800290610cda565b509250929050565b600082610d2757506001610452565b81610d3457506000610452565b8160018114610d4a5760028114610d5457610d70565b6001915050610452565b60ff841115610d6557610d65610cbf565b50506001821b610452565b5060208310610133831016604e8410600b8410161715610d93575081810a610452565b610d9d8383610cd5565b8060001904821115610db157610db1610cbf565b029392505050565b6000610a8960ff841683610d18565b634e487b7160e01b600052601260045260246000fd5b600082610ded57610ded610dc8565b500490565b60008151610e04818560208601610c2d565b9290920192915050565b60008251610e20818460208701610c2d565b9190910192915050565b600060208284031215610e3c57600080fd5b815167ffffffffffffffff811115610e5357600080fd5b8201601f81018413610e6457600080fd5b8051610e72610b5f82610b18565b818152856020838501011115610e8757600080fd5b610e98826020830160208601610c2d565b95945050505050565b60008351610eb3818460208801610c2d565b600160fd1b9083019081528351610ed1816001840160208801610c2d565b01600101949350505050565b600087516020610ef08285838d01610c2d565b885191840191610f038184848d01610c2d565b8851920191610f158184848c01610c2d565b8751920191610f278184848b01610c2d565b8651920191610f398184848a01610c2d565b8551920191610f4b8184848901610c2d565b919091019998505050505050505050565b7f3c7376672077696474683d2232393022206865696768743d223530302220766981527f6577426f783d2230203020323930203530302220786d6c6e733d22687474703a60208201527f2f2f7777772e77332e6f72672f323030302f737667223e000000000000000000604082015260008551610fe0816057850160208a01610c2d565b855190830190610ff7816057840160208a01610c2d565b855191019061100d816057840160208901610c2d565b8451910190611023816057840160208801610c2d565b651e17b9bb339f60d11b60579290910191820152605d019695505050505050565b602360f81b815260008251611060816001850160208701610c2d565b9190910160010192915050565b600060001982141561108157611081610cbf565b5060010190565b60008282101561109a5761109a610cbf565b500390565b6000826110ae576110ae610dc8565b500690565b600082198211156110c6576110c6610cbf565b500190565b634e487b7160e01b600052603260045260246000fd5b7f3c7465787420636c6173733d22736d616c6c22207472616e73666f726d3d220081526000845161111981601f850160208901610c2d565b74111039ba3cb6329e913a32bc3a16b0b731b437b91d60591b601f91840191820152845161114e816034840160208901610c2d565b6d11103334b6361e9111a32323111f60911b60349290910191820152835161117d816042840160208801610c2d565b661e17ba32bc3a1f60c91b6042929091019182015260490195945050505050565b7f3c7465787420636c6173733d227469746c6522207472616e73666f726d3d22748152680e4c2dce6d8c2e8ca560bb1b6020820152600085516111e8816029850160208a01610c2d565b600b60fa1b602991840191820152855161120981602a840160208a01610c2d565b7f29223e3c747370616e20636c6173733d226c617267652220783d2230223e0000602a92909101918201528451611247816048840160208901610c2d565b7f3c2f747370616e3e3c747370616e20636c6173733d22736d616c6c20616c706860489290910191820152703091103c1e91181110323c9e911918111f60791b6068820152835161129f816079840160208801610c2d565b6e1e17ba39b830b71f1e17ba32bc3a1f60891b607992909101918201526088019695505050505050565b7f3c646566733e3c6c696e6561724772616469656e742069643d22677261642d6181527f6e696d222078313d223025222079313d223025222078323d2231303025222079602082015268191e9118981812911f60b91b604082015260008351611339816049850160208801610c2d565b835190830190611350816049840160208801610c2d565b7f3c2f6c696e6561724772616469656e743e3c2f646566733e000000000000000060499290910191820152606101949350505050565b60008160001904831182151516156113a0576113a0610cbf565b500290565b6000816113b4576113b4610cbf565b506000190190565b6d1e39ba37b81037b33339b2ba1e9160911b815286516000906113e681600e850160208c01610c2d565b6d111039ba37b816b1b7b637b91e9160911b600e91840191820152875161141481601c840160208c01610c2d565b7f223e3c616e696d617465206174747269627574654e616d653d2273746f702d63601c92909101918201526d37b637b911103b30b63ab2b99e9160911b603c820152865161146981604a840160208b01610c2d565b603b60f81b604a9290910191820152855161148b81604b840160208a01610c2d565b6115046114c66114c06114b36114ad604b86880101603b60f81b815260010190565b8a610df2565b603b60f81b815260010190565b87610df2565b7f22206475723d2237732220726570656174436f756e743d22696e646566696e6981526b3a3291179f1e17b9ba37b81f60a11b6020820152602c0190565b9a995050505050505050505056fe3c7374796c653e3c215b43444154415b746578747b666f6e742d66616d696c793a48656c7665746963613b666f6e742d7765696768743a3130307d2e616c7068617b6f7061636974793a302e357d2e736d616c6c7b666f6e742d73697a653a2e3872656d7d2e6c617267657b666f6e742d73697a653a312e3272656d7d2e7469746c657b66696c6c3a236666667d5d5d3e3c2f7374796c653e3c706174682066696c6c3d22233232323235452220643d224d3020323020412032302032302030203020312032302030204c203237302030204120302030203020302031203237302030204c20323730203530302041203020302030203020312032373020353030204c203230203530302041203230203230203020302031203020343830205a222f3e3c706174682066696c6c3d22233146314635352220643d224d323730203068323076353030682d32307a222f3e3c70617468207374726f6b653d22677265656e22207374726f6b652d77696474683d222e312220643d224d302033353020563438302051302c35303020323020353030204832373020513130302c33353020302c333530205a222066696c6c3d2275726c2823677261642d616e696d29222f3e3c7265637420783d223131302220793d22333730222077696474683d22343022206865696768743d223430222066696c6c3d2275726c2823677261642d616e696d29223e3c616e696d617465206174747269627574654e616d653d227278222076616c7565733d2231353b32303b313522206475723d2237732220726570656174436f756e743d22696e646566696e697465222f3e3c616e696d617465206174747269627574654e616d653d2278222076616c7565733d223131303b3132303b31313022206475723d2237732220726570656174436f756e743d22696e646566696e697465222f3e3c616e696d617465206174747269627574654e616d653d2279222076616c7565733d223337303b3336303b33373022206475723d2237732220726570656174436f756e743d22696e646566696e697465222f3e3c2f726563743e3c636972636c652063783d22313030222063793d223339302220723d22343022207374726f6b652d77696474683d222e31222066696c6c3d2275726c2823677261642d616e696d29223e3c616e696d617465206174747269627574654e616d653d2272222076616c7565733d22353b383b3522206475723d2237732220726570656174436f756e743d22696e646566696e697465222f3e3c616e696d617465206174747269627574654e616d653d226378222076616c7565733d223130303b3131303b31303022206475723d2237732220726570656174436f756e743d22696e646566696e697465222f3e3c616e696d617465206174747269627574654e616d653d226379222076616c7565733d223339303b3339353b33393022206475723d2237732220726570656174436f756e743d22696e646566696e697465222f3e3c2f636972636c653e3c636972636c652063783d22313235222063793d223337352220723d22343022207374726f6b652d77696474683d222e31222066696c6c3d2275726c2823677261642d616e696d29223e3c616e696d617465206174747269627574654e616d653d2272222076616c7565733d22353b383b3522206475723d2237732220726570656174436f756e743d22696e646566696e697465222f3e3c616e696d617465206174747269627574654e616d653d226378222076616c7565733d223132353b3133303b31323522206475723d2237732220726570656174436f756e743d22696e646566696e697465222f3e3c616e696d617465206174747269627574654e616d653d226379222076616c7565733d223337353b3336303b33373522206475723d2237732220726570656174436f756e743d22696e646566696e697465222f3e3c2f636972636c653e3c67207472616e73666f726d3d227472616e736c61746528323620313629223e3c70617468207374796c653d2266696c6c3a236666662220643d226d35322e372032372e3520332e362d322e31632e3820322e3220322e3420332e3320342e3920332e3320322e34203020332e342d2e3920332e342d322e3320302d2e372d2e342d312e342d312d312e372d2e372d2e342d312e392d2e392d332e362d312e342d312e392d2e362d332e312d312d342e342d322d312e332d2e392d322d322e342d322d342e34732e372d332e3520322d342e3663312e342d312e3120332e322d312e3820352d312e3720332e34203020362e3120312e3820372e3620342e386c2d332e352032632d2e392d312e382d322e322d322e372d342e312d322e372d312e3720302d322e382e392d322e3820322e312030202e372e3320312e332e3820312e362e362e3420312e362e3920332e3220312e336c312e352e35632e352e322e392e3320312e342e35732e392e3420312e332e37632e372e3420312e3620312e31203220312e392e352e392e382032202e382033203020322d2e3720332e352d322e3220342e372d312e3420312e312d332e3320312e372d352e3620312e372d342e3220302d372e312d322d382e332d352e327a6d323820352e32632d36202e312d31312d342e372d31312e312d31302e38762d2e33632d2e312d322e3920312e312d352e3820332e322d372e3820342e332d342e332031312e332d342e332031352e37203020322e31203220332e3320342e3920332e3220372e382e3120362d342e382031312d31302e382031312e312d2e312e312d2e312e312d2e3220307a6d302d342e3163312e382e3120332e362d2e3720342e392d3273322d332e3120322d35632e312d312e392d2e372d332e372d322d352d322e372d322e362d372e312d322e362d392e3820302d312e3320312e332d3220332e312d3220352d2e3120312e392e3720332e372032203520312e3320312e34203320322e3120342e3920327a6d31312e342d312e3120332e362d322e31632e3820322e3220322e3520332e3320342e3920332e3373332e342d2e3920332e342d322e3363302d2e372d2e342d312e342d312d312e372d2e372d2e342d312e392d2e392d332e362d312e342d312e392d2e362d332e312d312d342e342d322d312e332d2e392d322d322e342d322d342e34732e372d332e3520322d342e3663312e342d312e3120332e322d312e3820352d312e3720332e34203020362e3120312e3820372e3620342e386c2d332e352032632d2e392d312e382d322e322d322e372d342e312d322e372d312e3720302d322e382e392d322e3820322e312030202e372e3320312e332e3820312e362e362e3420312e362e3920332e3220312e336c312e352e35632e352e322e392e3320312e342e35732e392e3420312e332e37632e372e3420312e3620312e31203220312e392e352e392e382032202e382033203020322d2e3720332e352d322e3220342e37732d332e3320312e372d352e3620312e37632d342e3220302d372e312d322d382e332d352e327a6d32372e352032632d322e312d322e312d332e322d342e392d332e312d372e3820302d332e3120312d352e3720332e312d372e3873342e372d332e3220372e392d332e3263312e39203020332e372e3520352e3420312e3420312e362e3920322e3920322e3220332e3820332e376c2d312e342e38632d2e372d312e332d312e382d322e342d332e312d332e322d312e342d2e382d332d312e322d342e362d312e322d322e3820302d35202e392d362e3820322e37732d322e3720342e322d322e3620362e37632d2e3120322e352e3920342e3920322e3620362e3720312e3820312e3820342e3120322e3720362e3820322e3720332e33203020362e332d312e3820372e372d342e356c312e342e38632d312e3720332e322d352e3320352e322d392e3220352e322d332e322e322d352e382d2e392d372e392d337a4d3135332e3720313168312e367632312e33682d312e365632322e31682d31322e347631302e32682d312e3656313168312e3676392e366831322e345631317a6d32302e352032312e332d322e312d352e34682d31302e376c2d322e3120352e34682d312e376c382e332d32312e3368312e376c382e322032312e33682d312e367a6d2d31322e312d362e3968392e354c3136362e382031336c2d342e372031322e347a4d3137382e3320313168312e367632312e33682d312e365631317a6d32302e31203068312e367632312e33682d312e344c3138362031347631382e33682d312e3656313168312e346c31322e362031382e335631317a222f3e3c70617468207374796c653d2266696c6c3a75726c2823677261642d616e696d292220643d226d313420332e3720362e3220362e32632e392d2e3920322e342d2e3920332e332030732e3920322e34203020332e3363322e352d322e3420352e392d332e3620392e342d332e324333322e3120342032362e342d2e332032302e342e35203138202e382031352e3720312e3920313420332e377a222f3e3c70617468207374796c653d2266696c6c3a75726c2823677261642d616e696d292220643d224d31392e312033332e34632d2e392d2e392d2e392d322e3520302d332e342d322e3420322e342d352e3920332e372d392e3420332e332e3820362e3120362e342031302e332031322e3520392e3520322e342d2e3320342e362d312e3420362e332d332e326c2d362e322d362e32632d2e392e392d322e332e392d332e3220307a222f3e3c6c696e6561724772616469656e74206772616469656e745472616e73666f726d3d227472616e736c6174652830202d35352e373629207363616c65282e3330393729222079323d223239302e373331222078323d223130392e333931222079313d223230392e313831222078313d2232372e38343122206772616469656e74556e6974733d227573657253706163654f6e557365222069643d2253564749445f335f223e3c73746f70207374796c653d2273746f702d636f6c6f723a2364653031366122206f66667365743d2230222f3e3c73746f70207374796c653d2273746f702d636f6c6f723a2364383031366122206f66667365743d222e3138222f3e3c73746f70207374796c653d2273746f702d636f6c6f723a2363383032366122206f66667365743d222e3431222f3e3c73746f70207374796c653d2273746f702d636f6c6f723a2361643034363922206f66667365743d222e3636222f3e3c73746f70207374796c653d2273746f702d636f6c6f723a2338373036363822206f66667365743d222e3934222f3e3c73746f70207374796c653d2273746f702d636f6c6f723a2337663037363822206f66667365743d2231222f3e3c2f6c696e6561724772616469656e743e3c70617468207374796c653d2266696c6c3a75726c282353564749445f335f292220643d224d33392e322031332e32632d312e372d312e372d332e392d322e382d362e332d332e322d332e342d2e352d362e392e372d392e3420332e324c31322e382032332e39632d2e392e392d322e342e382d332e332d2e312d2e382d2e392d2e382d322e3320302d332e324c32302e3220392e3920313420332e3720332e332031342e34432d312031382e372d312032352e3820332e332033302e3163312e3720312e37203420322e3820362e3320332e3220332e342e3520362e392d2e3720392e342d332e326c31302e372d31302e372e322d2e3263312d2e3820322e352d2e3620332e332e342e372e392e3720322e322d2e3220332e314c32322e332033332e346c362e3220362e322031302e372d31302e3763342e342d342e3320342e342d31312e3320302d31352e377a222f3e3c2f673e4142434445464748494a4b4c4d4e4f505152535455565758595a6162636465666768696a6b6c6d6e6f707172737475767778797a303132333435363738392b2fa2646970667358221220268c9c4ee342aba5820bfff6b8f5ac7b9a79c1614d994fb4880c48636a6f59f664736f6c634300080a0033",
  "devdoc": {
    "kind": "dev",
    "methods": {},
    "version": 1
  },
  "userdoc": {
    "kind": "user",
    "methods": {},
    "version": 1
  },
  "storageLayout": {
    "storage": [],
    "types": null
  }
}