{
  "address": "0x9543127f4483364200aA99b6C10B8c8C9Ce364Cb",
  "abi": [
    {
      "inputs": [],
      "name": "NotFound",
      "type": "error"
    },
    {
      "anonymous": false,
      "inputs": [
        {
          "indexed": true,
          "internalType": "address",
          "name": "previousOwner",
          "type": "address"
        },
        {
          "indexed": true,
          "internalType": "address",
          "name": "newOwner",
          "type": "address"
        }
      ],
      "name": "OwnershipTransferred",
      "type": "event"
    },
    {
      "inputs": [
        {
          "internalType": "bytes32",
          "name": "_name",
          "type": "bytes32"
        }
      ],
      "name": "get",
      "outputs": [
        {
          "internalType": "address",
          "name": "",
          "type": "address"
        }
      ],
      "stateMutability": "view",
      "type": "function"
    },
    {
      "inputs": [],
      "name": "owner",
      "outputs": [
        {
          "internalType": "address",
          "name": "",
          "type": "address"
        }
      ],
      "stateMutability": "view",
      "type": "function"
    },
    {
      "inputs": [
        {
          "internalType": "bytes32",
          "name": "_name",
          "type": "bytes32"
        },
        {
          "internalType": "address",
          "name": "_address",
          "type": "address"
        }
      ],
      "name": "register",
      "outputs": [
        {
          "internalType": "bool",
          "name": "",
          "type": "bool"
        }
      ],
      "stateMutability": "nonpayable",
      "type": "function"
    },
    {
      "inputs": [],
      "name": "registered",
      "outputs": [
        {
          "internalType": "bytes32[]",
          "name": "",
          "type": "bytes32[]"
        }
      ],
      "stateMutability": "view",
      "type": "function"
    },
    {
      "inputs": [],
      "name": "renounceOwnership",
      "outputs": [],
      "stateMutability": "nonpayable",
      "type": "function"
    },
    {
      "inputs": [
        {
          "internalType": "address",
          "name": "newOwner",
          "type": "address"
        }
      ],
      "name": "transferOwnership",
      "outputs": [],
      "stateMutability": "nonpayable",
      "type": "function"
    },
    {
      "inputs": [
        {
          "internalType": "bytes32",
          "name": "_name",
          "type": "bytes32"
        },
        {
          "internalType": "address",
          "name": "_address",
          "type": "address"
        }
      ],
      "name": "update",
      "outputs": [
        {
          "internalType": "bool",
          "name": "",
          "type": "bool"
        }
      ],
      "stateMutability": "nonpayable",
      "type": "function"
    }
  ],
  "transactionHash": "0xd294ad5401797567404a2f970e06f8869cc70ef94c24819db25f321a2d735f7f",
  "args": [],
  "numDeployments": 1,
  "solcInputHash": "8323e950d3265946019da87932f3fa7f",
  "bytecode": "0x608060405234801561001057600080fd5b5061001a3361001f565b61006f565b600080546001600160a01b038381166001600160a01b0319831681178455604051919092169283917f8be0079c531659141344cd1fd0a4f28419497f9722a3daafe3b4186f6b6457e09190a35050565b6105758061007e6000396000f3fe608060405234801561001057600080fd5b506004361061007d5760003560e01c80638da5cb5b1161005b5780638da5cb5b146100cd5780638eaa6ac0146100f2578063d22057a914610105578063f2fde38b1461011857600080fd5b80632de40ce3146100825780634ae2ffc0146100a0578063715018a6146100c3575b600080fd5b61008a61012b565b6040516100979190610443565b60405180910390f35b6100b36100ae3660046104a3565b610183565b6040519015158152602001610097565b6100cb61021d565b005b6000546001600160a01b03165b6040516001600160a01b039091168152602001610097565b6100da6101003660046104cf565b610253565b6100b36101133660046104a3565b6102a4565b6100cb6101263660046104e8565b610358565b6060600180548060200260200160405190810160405280929190818152602001828054801561017957602002820191906000526020600020905b815481526020019060010190808311610165575b5050505050905090565b600080546001600160a01b031633146101b75760405162461bcd60e51b81526004016101ae9061050a565b60405180910390fd5b6000838152600260205260409020546001600160a01b03166101ec5760405163c5723b5160e01b815260040160405180910390fd5b50600082815260026020526040902080546001600160a01b0319166001600160a01b03831617905560015b92915050565b6000546001600160a01b031633146102475760405162461bcd60e51b81526004016101ae9061050a565b61025160006103f3565b565b6000818152600260205260408120546001600160a01b03166102885760405163c5723b5160e01b815260040160405180910390fd5b506000908152600260205260409020546001600160a01b031690565b600080546001600160a01b031633146102cf5760405162461bcd60e51b81526004016101ae9061050a565b6000838152600260205260409020546001600160a01b0316156102f457506001610217565b50600082815260026020526040812080546001600160a01b0384166001600160a01b0319909116179055600180548082018255918190527fb10e2d527612073b26eecdfd717e6a320cf44b4afac2b0732d9fcbe2b7fa0cf690910183905592915050565b6000546001600160a01b031633146103825760405162461bcd60e51b81526004016101ae9061050a565b6001600160a01b0381166103e75760405162461bcd60e51b815260206004820152602660248201527f4f776e61626c653a206e6577206f776e657220697320746865207a65726f206160448201526564647265737360d01b60648201526084016101ae565b6103f0816103f3565b50565b600080546001600160a01b038381166001600160a01b0319831681178455604051919092169283917f8be0079c531659141344cd1fd0a4f28419497f9722a3daafe3b4186f6b6457e09190a35050565b6020808252825182820181905260009190848201906040850190845b8181101561047b5783518352928401929184019160010161045f565b50909695505050505050565b80356001600160a01b038116811461049e57600080fd5b919050565b600080604083850312156104b657600080fd5b823591506104c660208401610487565b90509250929050565b6000602082840312156104e157600080fd5b5035919050565b6000602082840312156104fa57600080fd5b61050382610487565b9392505050565b6020808252818101527f4f776e61626c653a2063616c6c6572206973206e6f7420746865206f776e657260408201526060019056fea2646970667358221220d23c7f9294f6a018aa637c3c6deafe3b6a172cc02a692f8f0c5eb218ae4c239364736f6c634300080a0033",
  "devdoc": {
    "kind": "dev",
    "methods": {
      "get(bytes32)": {
        "details": "get contract address",
        "params": {
          "_name": "name of the contract"
        },
        "returns": {
          "_0": "address of the queried contract"
        }
      },
      "owner()": {
        "details": "Returns the address of the current owner."
      },
      "register(bytes32,address)": {
        "details": "register contract address",
        "params": {
          "_address": "address of the contract",
          "_name": "name of the contract"
        },
        "returns": {
          "_0": "boolean indicating result of the operation"
        }
      },
      "registered()": {
        "details": "get a list of registered contract names",
        "returns": {
          "_0": "a list of registered contract names"
        }
      },
      "renounceOwnership()": {
        "details": "Leaves the contract without owner. It will not be possible to call `onlyOwner` functions anymore. Can only be called by the current owner. NOTE: Renouncing ownership will leave the contract without an owner, thereby removing any functionality that is only available to the owner."
      },
      "transferOwnership(address)": {
        "details": "Transfers ownership of the contract to a new account (`newOwner`). Can only be called by the current owner."
      },
      "update(bytes32,address)": {
        "details": "update contract address",
        "params": {
          "_address": "address of the contract",
          "_name": "name of the contract"
        },
        "returns": {
          "_0": "boolean indicating result of the operation"
        }
      }
    },
    "version": 1
  },
  "userdoc": {
    "kind": "user",
    "methods": {},
    "version": 1
  },
  "storageLayout": {
    "storage": [
      {
        "astId": 389,
        "contract": "contracts/Registry.sol:Registry",
        "label": "_owner",
        "offset": 0,
        "slot": "0",
        "type": "t_address"
      },
      {
        "astId": 6091,
        "contract": "contracts/Registry.sol:Registry",
        "label": "contracts",
        "offset": 0,
        "slot": "1",
        "type": "t_array(t_bytes32)dyn_storage"
      },
      {
        "astId": 6095,
        "contract": "contracts/Registry.sol:Registry",
        "label": "registry",
        "offset": 0,
        "slot": "2",
        "type": "t_mapping(t_bytes32,t_address)"
      }
    ],
    "types": {
      "t_address": {
        "encoding": "inplace",
        "label": "address",
        "numberOfBytes": "20"
      },
      "t_array(t_bytes32)dyn_storage": {
        "base": "t_bytes32",
        "encoding": "dynamic_array",
        "label": "bytes32[]",
        "numberOfBytes": "32"
      },
      "t_bytes32": {
        "encoding": "inplace",
        "label": "bytes32",
        "numberOfBytes": "32"
      },
      "t_mapping(t_bytes32,t_address)": {
        "encoding": "mapping",
        "key": "t_bytes32",
        "label": "mapping(bytes32 => address)",
        "numberOfBytes": "32",
        "value": "t_address"
      }
    }
  }
}