{
  "address": "0xEB131cE3F45630269031D0515c109184Cb261982",
  "abi": [
    {
      "inputs": [],
      "name": "NotFound",
      "type": "error"
    },
    {
      "anonymous": false,
      "inputs": [
        {
          "indexed": true,
          "internalType": "address",
          "name": "previousOwner",
          "type": "address"
        },
        {
          "indexed": true,
          "internalType": "address",
          "name": "newOwner",
          "type": "address"
        }
      ],
      "name": "OwnershipTransferred",
      "type": "event"
    },
    {
      "inputs": [
        {
          "internalType": "bytes32",
          "name": "_name",
          "type": "bytes32"
        }
      ],
      "name": "get",
      "outputs": [
        {
          "internalType": "address",
          "name": "",
          "type": "address"
        }
      ],
      "stateMutability": "view",
      "type": "function"
    },
    {
      "inputs": [],
      "name": "owner",
      "outputs": [
        {
          "internalType": "address",
          "name": "",
          "type": "address"
        }
      ],
      "stateMutability": "view",
      "type": "function"
    },
    {
      "inputs": [
        {
          "internalType": "bytes32",
          "name": "_name",
          "type": "bytes32"
        },
        {
          "internalType": "address",
          "name": "_address",
          "type": "address"
        }
      ],
      "name": "register",
      "outputs": [
        {
          "internalType": "bool",
          "name": "",
          "type": "bool"
        }
      ],
      "stateMutability": "nonpayable",
      "type": "function"
    },
    {
      "inputs": [],
      "name": "registered",
      "outputs": [
        {
          "internalType": "bytes32[]",
          "name": "",
          "type": "bytes32[]"
        }
      ],
      "stateMutability": "view",
      "type": "function"
    },
    {
      "inputs": [],
      "name": "renounceOwnership",
      "outputs": [],
      "stateMutability": "nonpayable",
      "type": "function"
    },
    {
      "inputs": [
        {
          "internalType": "address",
          "name": "newOwner",
          "type": "address"
        }
      ],
      "name": "transferOwnership",
      "outputs": [],
      "stateMutability": "nonpayable",
      "type": "function"
    },
    {
      "inputs": [
        {
          "internalType": "bytes32",
          "name": "_name",
          "type": "bytes32"
        },
        {
          "internalType": "address",
          "name": "_address",
          "type": "address"
        }
      ],
      "name": "update",
      "outputs": [
        {
          "internalType": "bool",
          "name": "",
          "type": "bool"
        }
      ],
      "stateMutability": "nonpayable",
      "type": "function"
    }
  ],
  "transactionHash": "0x0c09c3ab533726f7f83c5bc930967472349f05cc75a500657b129c7cf7582b6d",
  "args": [],
  "numDeployments": 1,
  "solcInputHash": "d0b77f2a3c5e65abe0ad8ab465e0bc73",
  "bytecode": "0x608060405234801561001057600080fd5b5061002d61002261003260201b60201c565b61003a60201b60201c565b6100fe565b600033905090565b60008060009054906101000a900473ffffffffffffffffffffffffffffffffffffffff169050816000806101000a81548173ffffffffffffffffffffffffffffffffffffffff021916908373ffffffffffffffffffffffffffffffffffffffff1602179055508173ffffffffffffffffffffffffffffffffffffffff168173ffffffffffffffffffffffffffffffffffffffff167f8be0079c531659141344cd1fd0a4f28419497f9722a3daafe3b4186f6b6457e060405160405180910390a35050565b610bb78061010d6000396000f3fe608060405234801561001057600080fd5b506004361061007d5760003560e01c80638da5cb5b1161005b5780638da5cb5b146100da5780638eaa6ac0146100f8578063d22057a914610128578063f2fde38b146101585761007d565b80632de40ce3146100825780634ae2ffc0146100a0578063715018a6146100d0575b600080fd5b61008a610174565b60405161009791906108c7565b60405180910390f35b6100ba60048036038101906100b59190610978565b6101cc565b6040516100c791906109d3565b60405180910390f35b6100d8610340565b005b6100e26103c8565b6040516100ef91906109fd565b60405180910390f35b610112600480360381019061010d9190610a18565b6103f1565b60405161011f91906109fd565b60405180910390f35b610142600480360381019061013d9190610978565b6104c7565b60405161014f91906109d3565b60405180910390f35b610172600480360381019061016d9190610a45565b61063b565b005b606060018054806020026020016040519081016040528092919081815260200182805480156101c257602002820191906000526020600020905b8154815260200190600101908083116101ae575b5050505050905090565b60006101d6610733565b73ffffffffffffffffffffffffffffffffffffffff166101f46103c8565b73ffffffffffffffffffffffffffffffffffffffff161461024a576040517f08c379a000000000000000000000000000000000000000000000000000000000815260040161024190610acf565b60405180910390fd5b600073ffffffffffffffffffffffffffffffffffffffff166002600085815260200190815260200160002060009054906101000a900473ffffffffffffffffffffffffffffffffffffffff1673ffffffffffffffffffffffffffffffffffffffff1614156102e4576040517fc5723b5100000000000000000000000000000000000000000000000000000000815260040160405180910390fd5b816002600085815260200190815260200160002060006101000a81548173ffffffffffffffffffffffffffffffffffffffff021916908373ffffffffffffffffffffffffffffffffffffffff1602179055506001905092915050565b610348610733565b73ffffffffffffffffffffffffffffffffffffffff166103666103c8565b73ffffffffffffffffffffffffffffffffffffffff16146103bc576040517f08c379a00000000000000000000000000000000000000000000000000000000081526004016103b390610acf565b60405180910390fd5b6103c6600061073b565b565b60008060009054906101000a900473ffffffffffffffffffffffffffffffffffffffff16905090565b60008073ffffffffffffffffffffffffffffffffffffffff166002600084815260200190815260200160002060009054906101000a900473ffffffffffffffffffffffffffffffffffffffff1673ffffffffffffffffffffffffffffffffffffffff16141561048c576040517fc5723b5100000000000000000000000000000000000000000000000000000000815260040160405180910390fd5b6002600083815260200190815260200160002060009054906101000a900473ffffffffffffffffffffffffffffffffffffffff169050919050565b60006104d1610733565b73ffffffffffffffffffffffffffffffffffffffff166104ef6103c8565b73ffffffffffffffffffffffffffffffffffffffff1614610545576040517f08c379a000000000000000000000000000000000000000000000000000000000815260040161053c90610acf565b60405180910390fd5b600073ffffffffffffffffffffffffffffffffffffffff166002600085815260200190815260200160002060009054906101000a900473ffffffffffffffffffffffffffffffffffffffff1673ffffffffffffffffffffffffffffffffffffffff16146105b55760019050610635565b816002600085815260200190815260200160002060006101000a81548173ffffffffffffffffffffffffffffffffffffffff021916908373ffffffffffffffffffffffffffffffffffffffff1602179055506001839080600181540180825580915050600190039060005260206000200160009091909190915055600190505b92915050565b610643610733565b73ffffffffffffffffffffffffffffffffffffffff166106616103c8565b73ffffffffffffffffffffffffffffffffffffffff16146106b7576040517f08c379a00000000000000000000000000000000000000000000000000000000081526004016106ae90610acf565b60405180910390fd5b600073ffffffffffffffffffffffffffffffffffffffff168173ffffffffffffffffffffffffffffffffffffffff161415610727576040517f08c379a000000000000000000000000000000000000000000000000000000000815260040161071e90610b61565b60405180910390fd5b6107308161073b565b50565b600033905090565b60008060009054906101000a900473ffffffffffffffffffffffffffffffffffffffff169050816000806101000a81548173ffffffffffffffffffffffffffffffffffffffff021916908373ffffffffffffffffffffffffffffffffffffffff1602179055508173ffffffffffffffffffffffffffffffffffffffff168173ffffffffffffffffffffffffffffffffffffffff167f8be0079c531659141344cd1fd0a4f28419497f9722a3daafe3b4186f6b6457e060405160405180910390a35050565b600081519050919050565b600082825260208201905092915050565b6000819050602082019050919050565b6000819050919050565b61083e8161082b565b82525050565b60006108508383610835565b60208301905092915050565b6000602082019050919050565b6000610874826107ff565b61087e818561080a565b93506108898361081b565b8060005b838110156108ba5781516108a18882610844565b97506108ac8361085c565b92505060018101905061088d565b5085935050505092915050565b600060208201905081810360008301526108e18184610869565b905092915050565b600080fd5b6108f78161082b565b811461090257600080fd5b50565b600081359050610914816108ee565b92915050565b600073ffffffffffffffffffffffffffffffffffffffff82169050919050565b60006109458261091a565b9050919050565b6109558161093a565b811461096057600080fd5b50565b6000813590506109728161094c565b92915050565b6000806040838503121561098f5761098e6108e9565b5b600061099d85828601610905565b92505060206109ae85828601610963565b9150509250929050565b60008115159050919050565b6109cd816109b8565b82525050565b60006020820190506109e860008301846109c4565b92915050565b6109f78161093a565b82525050565b6000602082019050610a1260008301846109ee565b92915050565b600060208284031215610a2e57610a2d6108e9565b5b6000610a3c84828501610905565b91505092915050565b600060208284031215610a5b57610a5a6108e9565b5b6000610a6984828501610963565b91505092915050565b600082825260208201905092915050565b7f4f776e61626c653a2063616c6c6572206973206e6f7420746865206f776e6572600082015250565b6000610ab9602083610a72565b9150610ac482610a83565b602082019050919050565b60006020820190508181036000830152610ae881610aac565b9050919050565b7f4f776e61626c653a206e6577206f776e657220697320746865207a65726f206160008201527f6464726573730000000000000000000000000000000000000000000000000000602082015250565b6000610b4b602683610a72565b9150610b5682610aef565b604082019050919050565b60006020820190508181036000830152610b7a81610b3e565b905091905056fea2646970667358221220fbaa8a628ef79c6671e2b65138fa337770babdc373445dd7d7d3419491c3b98264736f6c634300080a0033",
  "devdoc": {
    "kind": "dev",
    "methods": {
      "get(bytes32)": {
        "details": "get contract address",
        "params": {
          "_name": "name of the contract"
        },
        "returns": {
          "_0": "address of the queried contract"
        }
      },
      "owner()": {
        "details": "Returns the address of the current owner."
      },
      "register(bytes32,address)": {
        "details": "register contract address",
        "params": {
          "_address": "address of the contract",
          "_name": "name of the contract"
        },
        "returns": {
          "_0": "boolean indicating result of the operation"
        }
      },
      "registered()": {
        "details": "get a list of registered contract names",
        "returns": {
          "_0": "a list of registered contract names"
        }
      },
      "renounceOwnership()": {
        "details": "Leaves the contract without owner. It will not be possible to call `onlyOwner` functions anymore. Can only be called by the current owner. NOTE: Renouncing ownership will leave the contract without an owner, thereby removing any functionality that is only available to the owner."
      },
      "transferOwnership(address)": {
        "details": "Transfers ownership of the contract to a new account (`newOwner`). Can only be called by the current owner."
      },
      "update(bytes32,address)": {
        "details": "update contract address",
        "params": {
          "_address": "address of the contract",
          "_name": "name of the contract"
        },
        "returns": {
          "_0": "boolean indicating result of the operation"
        }
      }
    },
    "version": 1
  },
  "userdoc": {
    "kind": "user",
    "methods": {},
    "version": 1
  },
  "storageLayout": {
    "storage": [
      {
        "astId": 389,
        "contract": "contracts/Registry.sol:Registry",
        "label": "_owner",
        "offset": 0,
        "slot": "0",
        "type": "t_address"
      },
      {
        "astId": 5401,
        "contract": "contracts/Registry.sol:Registry",
        "label": "contracts",
        "offset": 0,
        "slot": "1",
        "type": "t_array(t_bytes32)dyn_storage"
      },
      {
        "astId": 5405,
        "contract": "contracts/Registry.sol:Registry",
        "label": "registry",
        "offset": 0,
        "slot": "2",
        "type": "t_mapping(t_bytes32,t_address)"
      }
    ],
    "types": {
      "t_address": {
        "encoding": "inplace",
        "label": "address",
        "numberOfBytes": "20"
      },
      "t_array(t_bytes32)dyn_storage": {
        "base": "t_bytes32",
        "encoding": "dynamic_array",
        "label": "bytes32[]",
        "numberOfBytes": "32"
      },
      "t_bytes32": {
        "encoding": "inplace",
        "label": "bytes32",
        "numberOfBytes": "32"
      },
      "t_mapping(t_bytes32,t_address)": {
        "encoding": "mapping",
        "key": "t_bytes32",
        "label": "mapping(bytes32 => address)",
        "numberOfBytes": "32",
        "value": "t_address"
      }
    }
  }
}