{
  "address": "0xFaF8CC0Ad927D5EC4847Ac54756Faafc5d9ffF5a",
  "abi": [
    {
      "inputs": [
        {
          "internalType": "address",
          "name": "_registry",
          "type": "address"
        },
        {
          "internalType": "address",
          "name": "_minterAddress",
          "type": "address"
        }
      ],
      "stateMutability": "nonpayable",
      "type": "constructor"
    },
    {
      "anonymous": false,
      "inputs": [
        {
          "indexed": true,
          "internalType": "address",
          "name": "owner",
          "type": "address"
        },
        {
          "indexed": true,
          "internalType": "address",
          "name": "approved",
          "type": "address"
        },
        {
          "indexed": true,
          "internalType": "uint256",
          "name": "tokenId",
          "type": "uint256"
        }
      ],
      "name": "Approval",
      "type": "event"
    },
    {
      "anonymous": false,
      "inputs": [
        {
          "indexed": true,
          "internalType": "address",
          "name": "owner",
          "type": "address"
        },
        {
          "indexed": true,
          "internalType": "address",
          "name": "operator",
          "type": "address"
        },
        {
          "indexed": false,
          "internalType": "bool",
          "name": "approved",
          "type": "bool"
        }
      ],
      "name": "ApprovalForAll",
      "type": "event"
    },
    {
      "anonymous": false,
      "inputs": [
        {
          "indexed": true,
          "internalType": "bytes32",
          "name": "role",
          "type": "bytes32"
        },
        {
          "indexed": true,
          "internalType": "bytes32",
          "name": "previousAdminRole",
          "type": "bytes32"
        },
        {
          "indexed": true,
          "internalType": "bytes32",
          "name": "newAdminRole",
          "type": "bytes32"
        }
      ],
      "name": "RoleAdminChanged",
      "type": "event"
    },
    {
      "anonymous": false,
      "inputs": [
        {
          "indexed": true,
          "internalType": "bytes32",
          "name": "role",
          "type": "bytes32"
        },
        {
          "indexed": true,
          "internalType": "address",
          "name": "account",
          "type": "address"
        },
        {
          "indexed": true,
          "internalType": "address",
          "name": "sender",
          "type": "address"
        }
      ],
      "name": "RoleGranted",
      "type": "event"
    },
    {
      "anonymous": false,
      "inputs": [
        {
          "indexed": true,
          "internalType": "bytes32",
          "name": "role",
          "type": "bytes32"
        },
        {
          "indexed": true,
          "internalType": "address",
          "name": "account",
          "type": "address"
        },
        {
          "indexed": true,
          "internalType": "address",
          "name": "sender",
          "type": "address"
        }
      ],
      "name": "RoleRevoked",
      "type": "event"
    },
    {
      "anonymous": false,
      "inputs": [
        {
          "indexed": true,
          "internalType": "address",
          "name": "from",
          "type": "address"
        },
        {
          "indexed": true,
          "internalType": "address",
          "name": "to",
          "type": "address"
        },
        {
          "indexed": true,
          "internalType": "uint256",
          "name": "tokenId",
          "type": "uint256"
        }
      ],
      "name": "Transfer",
      "type": "event"
    },
    {
      "inputs": [],
      "name": "DEFAULT_ADMIN_ROLE",
      "outputs": [
        {
          "internalType": "bytes32",
          "name": "",
          "type": "bytes32"
        }
      ],
      "stateMutability": "view",
      "type": "function"
    },
    {
      "inputs": [],
      "name": "MINTER_ROLE",
      "outputs": [
        {
          "internalType": "bytes32",
          "name": "",
          "type": "bytes32"
        }
      ],
      "stateMutability": "view",
      "type": "function"
    },
    {
      "inputs": [
        {
          "internalType": "uint256",
          "name": "_tokenId",
          "type": "uint256"
        }
      ],
      "name": "SVG",
      "outputs": [
        {
          "internalType": "string",
          "name": "",
          "type": "string"
        }
      ],
      "stateMutability": "view",
      "type": "function"
    },
    {
      "inputs": [
        {
          "internalType": "address",
          "name": "to",
          "type": "address"
        },
        {
          "internalType": "uint256",
          "name": "tokenId",
          "type": "uint256"
        }
      ],
      "name": "approve",
      "outputs": [],
      "stateMutability": "nonpayable",
      "type": "function"
    },
    {
      "inputs": [
        {
          "internalType": "address",
          "name": "owner",
          "type": "address"
        }
      ],
      "name": "balanceOf",
      "outputs": [
        {
          "internalType": "uint256",
          "name": "",
          "type": "uint256"
        }
      ],
      "stateMutability": "view",
      "type": "function"
    },
    {
      "inputs": [
        {
          "internalType": "uint256",
          "name": "",
          "type": "uint256"
        }
      ],
      "name": "donations",
      "outputs": [
        {
          "internalType": "uint256",
          "name": "",
          "type": "uint256"
        }
      ],
      "stateMutability": "view",
      "type": "function"
    },
    {
      "inputs": [
        {
          "internalType": "uint256",
          "name": "tokenId",
          "type": "uint256"
        }
      ],
      "name": "getApproved",
      "outputs": [
        {
          "internalType": "address",
          "name": "",
          "type": "address"
        }
      ],
      "stateMutability": "view",
      "type": "function"
    },
    {
      "inputs": [
        {
          "internalType": "bytes32",
          "name": "role",
          "type": "bytes32"
        }
      ],
      "name": "getRoleAdmin",
      "outputs": [
        {
          "internalType": "bytes32",
          "name": "",
          "type": "bytes32"
        }
      ],
      "stateMutability": "view",
      "type": "function"
    },
    {
      "inputs": [
        {
          "internalType": "bytes32",
          "name": "role",
          "type": "bytes32"
        },
        {
          "internalType": "address",
          "name": "account",
          "type": "address"
        }
      ],
      "name": "grantRole",
      "outputs": [],
      "stateMutability": "nonpayable",
      "type": "function"
    },
    {
      "inputs": [
        {
          "internalType": "bytes32",
          "name": "role",
          "type": "bytes32"
        },
        {
          "internalType": "address",
          "name": "account",
          "type": "address"
        }
      ],
      "name": "hasRole",
      "outputs": [
        {
          "internalType": "bool",
          "name": "",
          "type": "bool"
        }
      ],
      "stateMutability": "view",
      "type": "function"
    },
    {
      "inputs": [
        {
          "internalType": "address",
          "name": "owner",
          "type": "address"
        },
        {
          "internalType": "address",
          "name": "operator",
          "type": "address"
        }
      ],
      "name": "isApprovedForAll",
      "outputs": [
        {
          "internalType": "bool",
          "name": "",
          "type": "bool"
        }
      ],
      "stateMutability": "view",
      "type": "function"
    },
    {
      "inputs": [
        {
          "internalType": "address",
          "name": "_recipient",
          "type": "address"
        },
        {
          "internalType": "uint256",
          "name": "_donationId",
          "type": "uint256"
        }
      ],
      "name": "mint",
      "outputs": [
        {
          "internalType": "uint256",
          "name": "",
          "type": "uint256"
        }
      ],
      "stateMutability": "nonpayable",
      "type": "function"
    },
    {
      "inputs": [],
      "name": "name",
      "outputs": [
        {
          "internalType": "string",
          "name": "",
          "type": "string"
        }
      ],
      "stateMutability": "view",
      "type": "function"
    },
    {
      "inputs": [
        {
          "internalType": "uint256",
          "name": "tokenId",
          "type": "uint256"
        }
      ],
      "name": "ownerOf",
      "outputs": [
        {
          "internalType": "address",
          "name": "",
          "type": "address"
        }
      ],
      "stateMutability": "view",
      "type": "function"
    },
    {
      "inputs": [
        {
          "internalType": "bytes32",
          "name": "role",
          "type": "bytes32"
        },
        {
          "internalType": "address",
          "name": "account",
          "type": "address"
        }
      ],
      "name": "renounceRole",
      "outputs": [],
      "stateMutability": "nonpayable",
      "type": "function"
    },
    {
      "inputs": [
        {
          "internalType": "bytes32",
          "name": "role",
          "type": "bytes32"
        },
        {
          "internalType": "address",
          "name": "account",
          "type": "address"
        }
      ],
      "name": "revokeRole",
      "outputs": [],
      "stateMutability": "nonpayable",
      "type": "function"
    },
    {
      "inputs": [
        {
          "internalType": "address",
          "name": "from",
          "type": "address"
        },
        {
          "internalType": "address",
          "name": "to",
          "type": "address"
        },
        {
          "internalType": "uint256",
          "name": "tokenId",
          "type": "uint256"
        }
      ],
      "name": "safeTransferFrom",
      "outputs": [],
      "stateMutability": "nonpayable",
      "type": "function"
    },
    {
      "inputs": [
        {
          "internalType": "address",
          "name": "from",
          "type": "address"
        },
        {
          "internalType": "address",
          "name": "to",
          "type": "address"
        },
        {
          "internalType": "uint256",
          "name": "tokenId",
          "type": "uint256"
        },
        {
          "internalType": "bytes",
          "name": "_data",
          "type": "bytes"
        }
      ],
      "name": "safeTransferFrom",
      "outputs": [],
      "stateMutability": "nonpayable",
      "type": "function"
    },
    {
      "inputs": [
        {
          "internalType": "address",
          "name": "operator",
          "type": "address"
        },
        {
          "internalType": "bool",
          "name": "approved",
          "type": "bool"
        }
      ],
      "name": "setApprovalForAll",
      "outputs": [],
      "stateMutability": "nonpayable",
      "type": "function"
    },
    {
      "inputs": [
        {
          "internalType": "bytes4",
          "name": "_interfaceId",
          "type": "bytes4"
        }
      ],
      "name": "supportsInterface",
      "outputs": [
        {
          "internalType": "bool",
          "name": "",
          "type": "bool"
        }
      ],
      "stateMutability": "view",
      "type": "function"
    },
    {
      "inputs": [],
      "name": "symbol",
      "outputs": [
        {
          "internalType": "string",
          "name": "",
          "type": "string"
        }
      ],
      "stateMutability": "view",
      "type": "function"
    },
    {
      "inputs": [
        {
          "internalType": "uint256",
          "name": "_tokenId",
          "type": "uint256"
        }
      ],
      "name": "tokenURI",
      "outputs": [
        {
          "internalType": "string",
          "name": "",
          "type": "string"
        }
      ],
      "stateMutability": "view",
      "type": "function"
    },
    {
      "inputs": [
        {
          "internalType": "address",
          "name": "from",
          "type": "address"
        },
        {
          "internalType": "address",
          "name": "to",
          "type": "address"
        },
        {
          "internalType": "uint256",
          "name": "tokenId",
          "type": "uint256"
        }
      ],
      "name": "transferFrom",
      "outputs": [],
      "stateMutability": "nonpayable",
      "type": "function"
    }
  ],
  "transactionHash": "0x8165aa9aa86f8a33dd7c46ab3809c47910f5dc6bac753a776cecba13fedd3b66",
  "args": [
    "0x9543127f4483364200aA99b6C10B8c8C9Ce364Cb",
    "0x7A90b193eFdE63bF85a9cB42A3060a6e693cA97F"
  ],
  "numDeployments": 1,
  "solcInputHash": "8323e950d3265946019da87932f3fa7f",
  "bytecode": "0x60806040523480156200001157600080fd5b50604051620024333803806200243383398101604081905262000034916200026f565b604080518082018252600981526829a7a99021b430b4b760b91b602080830191825283518085019094526003845262534f5360e81b908401528151859391620000819160019190620001ac565b50805162000097906002906020840190620001ac565b5050600780546001600160a01b0319166001600160a01b03939093169290921790915550620000c8600033620000fc565b620000f47f9f2df0fed2c77648de5860a4cc508cd0818c85b8b8a1ab4ceeef8d981c8956a682620000fc565b5050620002e4565b6200010882826200010c565b5050565b6000828152602081815260408083206001600160a01b038516845290915290205460ff1662000108576000828152602081815260408083206001600160a01b03851684529091529020805460ff19166001179055620001683390565b6001600160a01b0316816001600160a01b0316837f2f8788117e7eff1d82e926ec794901d17c78024a50270940304540a733656f0d60405160405180910390a45050565b828054620001ba90620002a7565b90600052602060002090601f016020900481019282620001de576000855562000229565b82601f10620001f957805160ff191683800117855562000229565b8280016001018555821562000229579182015b82811115620002295782518255916020019190600101906200020c565b50620002379291506200023b565b5090565b5b808211156200023757600081556001016200023c565b80516001600160a01b03811681146200026a57600080fd5b919050565b600080604083850312156200028357600080fd5b6200028e8362000252565b91506200029e6020840162000252565b90509250929050565b600181811c90821680620002bc57607f821691505b60208210811415620002de57634e487b7160e01b600052602260045260246000fd5b50919050565b61213f80620002f46000396000f3fe608060405234801561001057600080fd5b506004361061014d5760003560e01c80636352211e116100c3578063b88d4fde1161007c578063b88d4fde146102ce578063c87b56dd146102e1578063d5391393146102f4578063d547741f1461031b578063e985e9c51461032e578063f8626af81461036a57600080fd5b80636352211e1461027257806370a082311461028557806391d148541461029857806395d89b41146102ab578063a217fddf146102b3578063a22cb465146102bb57600080fd5b8063248a9ca311610115578063248a9ca3146101e25780632f2ff15d1461021357806336568abe1461022657806340c10f191461023957806342842e0e1461024c5780635eb7deda1461025f57600080fd5b806301ffc9a71461015257806306fdde031461017a578063081812fc1461018f578063095ea7b3146101ba57806323b872dd146101cf575b600080fd5b61016561016036600461187f565b61038a565b60405190151581526020015b60405180910390f35b61018261039b565b60405161017191906118f4565b6101a261019d366004611907565b61042d565b6040516001600160a01b039091168152602001610171565b6101cd6101c8366004611935565b6104c7565b005b6101cd6101dd366004611961565b6105dd565b6102056101f0366004611907565b60009081526020819052604090206001015490565b604051908152602001610171565b6101cd6102213660046119a2565b61060e565b6101cd6102343660046119a2565b610634565b610205610247366004611935565b6106b2565b6101cd61025a366004611961565b61071e565b61018261026d366004611907565b610739565b6101a2610280366004611907565b610920565b6102056102933660046119d2565b610997565b6101656102a63660046119a2565b610a1e565b610182610a47565b610205600081565b6101cd6102c93660046119ef565b610a56565b6101cd6102dc366004611a91565b610a61565b6101826102ef366004611907565b610a99565b6102057f9f2df0fed2c77648de5860a4cc508cd0818c85b8b8a1ab4ceeef8d981c8956a681565b6101cd6103293660046119a2565b610cd6565b61016561033c366004611b40565b6001600160a01b03918216600090815260066020908152604080832093909416825291909152205460ff1690565b610205610378366004611907565b60096020526000908152604090205481565b600061039582610cfc565b92915050565b6060600180546103aa90611b6e565b80601f01602080910402602001604051908101604052809291908181526020018280546103d690611b6e565b80156104235780601f106103f857610100808354040283529160200191610423565b820191906000526020600020905b81548152906001019060200180831161040657829003601f168201915b5050505050905090565b6000818152600360205260408120546001600160a01b03166104ab5760405162461bcd60e51b815260206004820152602c60248201527f4552433732313a20617070726f76656420717565727920666f72206e6f6e657860448201526b34b9ba32b73a103a37b5b2b760a11b60648201526084015b60405180910390fd5b506000908152600560205260409020546001600160a01b031690565b60006104d282610920565b9050806001600160a01b0316836001600160a01b031614156105405760405162461bcd60e51b815260206004820152602160248201527f4552433732313a20617070726f76616c20746f2063757272656e74206f776e656044820152603960f91b60648201526084016104a2565b336001600160a01b038216148061055c575061055c813361033c565b6105ce5760405162461bcd60e51b815260206004820152603860248201527f4552433732313a20617070726f76652063616c6c6572206973206e6f74206f7760448201527f6e6572206e6f7220617070726f76656420666f7220616c6c000000000000000060648201526084016104a2565b6105d88383610d3c565b505050565b6105e73382610daa565b6106035760405162461bcd60e51b81526004016104a290611ba9565b6105d8838383610ea1565b60008281526020819052604090206001015461062a813361103d565b6105d883836110a1565b6001600160a01b03811633146106a45760405162461bcd60e51b815260206004820152602f60248201527f416363657373436f6e74726f6c3a2063616e206f6e6c792072656e6f756e636560448201526e103937b632b9903337b91039b2b63360891b60648201526084016104a2565b6106ae8282611125565b5050565b60007f9f2df0fed2c77648de5860a4cc508cd0818c85b8b8a1ab4ceeef8d981c8956a66106df813361103d565b6106ed600880546001019055565b60006106f860085490565b9050610704858261118a565b600081815260096020526040902084905591505092915050565b6105d883838360405180602001604052806000815250610a61565b60008181526009602052604081205460609161075f672227a720aa24a7a760c11b6112cc565b6001600160a01b03166303e9e609836040518263ffffffff1660e01b815260040161078c91815260200190565b608060405180830381865afa1580156107a9573d6000803e3d6000fd5b505050506040513d601f19601f820116820180604052508101906107cd9190611bfa565b90506000806107ea6b232aa7222fa6a0a720a3a2a960a11b6112cc565b6001600160a01b0316634dad0c7884602001516040518263ffffffff1660e01b815260040161081b91815260200190565b600060405180830381865afa158015610838573d6000803e3d6000fd5b505050506040513d6000823e601f3d908101601f191682016040526108609190810190611cb4565b50509150915060006108826d27232a2fa222a9a1a924a82a27a960911b6112cc565b9050600061088f88610920565b6040808701516060880151915163be4eeda760e01b81529293506001600160a01b0385169263be4eeda7926108cf928d928792908b908b90600401611d44565b600060405180830381865afa1580156108ec573d6000803e3d6000fd5b505050506040513d6000823e601f3d908101601f191682016040526109149190810190611d9c565b98975050505050505050565b6000818152600360205260408120546001600160a01b0316806103955760405162461bcd60e51b815260206004820152602960248201527f4552433732313a206f776e657220717565727920666f72206e6f6e657869737460448201526832b73a103a37b5b2b760b91b60648201526084016104a2565b60006001600160a01b038216610a025760405162461bcd60e51b815260206004820152602a60248201527f4552433732313a2062616c616e636520717565727920666f7220746865207a65604482015269726f206164647265737360b01b60648201526084016104a2565b506001600160a01b031660009081526004602052604090205490565b6000918252602082815260408084206001600160a01b0393909316845291905290205460ff1690565b6060600280546103aa90611b6e565b6106ae33838361133a565b610a6b3383610daa565b610a875760405162461bcd60e51b81526004016104a290611ba9565b610a9384848484611409565b50505050565b600081815260096020526040812054606091610abf672227a720aa24a7a760c11b6112cc565b6001600160a01b03166303e9e609836040518263ffffffff1660e01b8152600401610aec91815260200190565b608060405180830381865afa158015610b09573d6000803e3d6000fd5b505050506040513d601f19601f82011682018060405250810190610b2d9190611bfa565b9050600080610b4a6b232aa7222fa6a0a720a3a2a960a11b6112cc565b6001600160a01b0316634dad0c7884602001516040518263ffffffff1660e01b8152600401610b7b91815260200190565b600060405180830381865afa158015610b98573d6000803e3d6000fd5b505050506040513d6000823e601f3d908101601f19168201604052610bc09190810190611cb4565b5050915091506000610be26d27232a2fa222a9a1a924a82a27a960911b6112cc565b90506000610bef88610920565b90506000826001600160a01b031663cbecbf978a8489604001518a606001518a8a6040518763ffffffff1660e01b8152600401610c3196959493929190611d44565b600060405180830381865afa158015610c4e573d6000803e3d6000fd5b505050506040513d6000823e601f3d908101601f19168201604052610c769190810190611d9c565b9050610ca9610c8361039b565b82604051602001610c95929190611dd1565b60405160208183030381529060405261143c565b604051602001610cb99190611e93565b604051602081830303815290604052975050505050505050919050565b600082815260208190526040902060010154610cf2813361103d565b6105d88383611125565b60006001600160e01b031982166380ac58cd60e01b1480610d2d57506001600160e01b03198216635b5e139f60e01b145b80610395575061039582611590565b600081815260056020526040902080546001600160a01b0319166001600160a01b0384169081179091558190610d7182610920565b6001600160a01b03167f8c5be1e5ebec7d5bd14f71427d1e84f3dd0314c0f7b2291e5b200ac8c7c3b92560405160405180910390a45050565b6000818152600360205260408120546001600160a01b0316610e235760405162461bcd60e51b815260206004820152602c60248201527f4552433732313a206f70657261746f7220717565727920666f72206e6f6e657860448201526b34b9ba32b73a103a37b5b2b760a11b60648201526084016104a2565b6000610e2e83610920565b9050806001600160a01b0316846001600160a01b03161480610e695750836001600160a01b0316610e5e8461042d565b6001600160a01b0316145b80610e9957506001600160a01b0380821660009081526006602090815260408083209388168352929052205460ff165b949350505050565b826001600160a01b0316610eb482610920565b6001600160a01b031614610f185760405162461bcd60e51b815260206004820152602560248201527f4552433732313a207472616e736665722066726f6d20696e636f72726563742060448201526437bbb732b960d91b60648201526084016104a2565b6001600160a01b038216610f7a5760405162461bcd60e51b8152602060048201526024808201527f4552433732313a207472616e7366657220746f20746865207a65726f206164646044820152637265737360e01b60648201526084016104a2565b610f85600082610d3c565b6001600160a01b0383166000908152600460205260408120805460019290610fae908490611eee565b90915550506001600160a01b0382166000908152600460205260408120805460019290610fdc908490611f05565b909155505060008181526003602052604080822080546001600160a01b0319166001600160a01b0386811691821790925591518493918716917fddf252ad1be2c89b69c2b068fc378daa952ba7f163c4a11628f55a4df523b3ef91a4505050565b6110478282610a1e565b6106ae5761105f816001600160a01b031660146115c5565b61106a8360206115c5565b60405160200161107b929190611f1d565b60408051601f198184030181529082905262461bcd60e51b82526104a2916004016118f4565b6110ab8282610a1e565b6106ae576000828152602081815260408083206001600160a01b03851684529091529020805460ff191660011790556110e13390565b6001600160a01b0316816001600160a01b0316837f2f8788117e7eff1d82e926ec794901d17c78024a50270940304540a733656f0d60405160405180910390a45050565b61112f8282610a1e565b156106ae576000828152602081815260408083206001600160a01b0385168085529252808320805460ff1916905551339285917ff6391f5c32d9c69d2a47ea670b442974b53935d1edc7fd64eb21e047a839171b9190a45050565b6001600160a01b0382166111e05760405162461bcd60e51b815260206004820181905260248201527f4552433732313a206d696e7420746f20746865207a65726f206164647265737360448201526064016104a2565b6000818152600360205260409020546001600160a01b0316156112455760405162461bcd60e51b815260206004820152601c60248201527f4552433732313a20746f6b656e20616c7265616479206d696e7465640000000060448201526064016104a2565b6001600160a01b038216600090815260046020526040812080546001929061126e908490611f05565b909155505060008181526003602052604080822080546001600160a01b0319166001600160a01b03861690811790915590518392907fddf252ad1be2c89b69c2b068fc378daa952ba7f163c4a11628f55a4df523b3ef908290a45050565b60075460405163023aa9ab60e61b8152600481018390526000916001600160a01b031690638eaa6ac090602401602060405180830381865afa158015611316573d6000803e3d6000fd5b505050506040513d601f19601f820116820180604052508101906103959190611f92565b816001600160a01b0316836001600160a01b0316141561139c5760405162461bcd60e51b815260206004820152601960248201527f4552433732313a20617070726f766520746f2063616c6c65720000000000000060448201526064016104a2565b6001600160a01b03838116600081815260066020908152604080832094871680845294825291829020805460ff191686151590811790915591519182527f17307eab39ab6107e8899845ad3d59bd9653f200f220920489ca2b5937696c31910160405180910390a3505050565b611414848484610ea1565b61142084848484611768565b610a935760405162461bcd60e51b81526004016104a290611faf565b606081516000141561145c57505060408051602081019091526000815290565b60006040518060600160405280604081526020016120ca604091399050600060038451600261148b9190611f05565b6114959190612001565b6114a0906004612023565b67ffffffffffffffff8111156114b8576114b8611a22565b6040519080825280601f01601f1916602001820160405280156114e2576020820181803683370190505b509050600182016020820185865187015b8082101561154e576003820191508151603f8160121c168501518453600184019350603f81600c1c168501518453600184019350603f8160061c168501518453600184019350603f81168501518453506001830192506114f3565b505060038651066001811461156a576002811461157d57611585565b603d6001830353603d6002830353611585565b603d60018303535b509195945050505050565b60006001600160e01b03198216637965db0b60e01b148061039557506301ffc9a760e01b6001600160e01b0319831614610395565b606060006115d4836002612023565b6115df906002611f05565b67ffffffffffffffff8111156115f7576115f7611a22565b6040519080825280601f01601f191660200182016040528015611621576020820181803683370190505b509050600360fc1b8160008151811061163c5761163c612042565b60200101906001600160f81b031916908160001a905350600f60fb1b8160018151811061166b5761166b612042565b60200101906001600160f81b031916908160001a905350600061168f846002612023565b61169a906001611f05565b90505b6001811115611712576f181899199a1a9b1b9c1cb0b131b232b360811b85600f16601081106116ce576116ce612042565b1a60f81b8282815181106116e4576116e4612042565b60200101906001600160f81b031916908160001a90535060049490941c9361170b81612058565b905061169d565b5083156117615760405162461bcd60e51b815260206004820181905260248201527f537472696e67733a20686578206c656e67746820696e73756666696369656e7460448201526064016104a2565b9392505050565b60006001600160a01b0384163b1561185b57604051630a85bd0160e11b81526001600160a01b0385169063150b7a02906117ac90339089908890889060040161206f565b6020604051808303816000875af19250505080156117e7575060408051601f3d908101601f191682019092526117e4918101906120ac565b60015b611841573d808015611815576040519150601f19603f3d011682016040523d82523d6000602084013e61181a565b606091505b5080516118395760405162461bcd60e51b81526004016104a290611faf565b805181602001fd5b6001600160e01b031916630a85bd0160e11b149050610e99565b506001949350505050565b6001600160e01b03198116811461187c57600080fd5b50565b60006020828403121561189157600080fd5b813561176181611866565b60005b838110156118b757818101518382015260200161189f565b83811115610a935750506000910152565b600081518084526118e081602086016020860161189c565b601f01601f19169290920160200192915050565b60208152600061176160208301846118c8565b60006020828403121561191957600080fd5b5035919050565b6001600160a01b038116811461187c57600080fd5b6000806040838503121561194857600080fd5b823561195381611920565b946020939093013593505050565b60008060006060848603121561197657600080fd5b833561198181611920565b9250602084013561199181611920565b929592945050506040919091013590565b600080604083850312156119b557600080fd5b8235915060208301356119c781611920565b809150509250929050565b6000602082840312156119e457600080fd5b813561176181611920565b60008060408385031215611a0257600080fd5b8235611a0d81611920565b9150602083013580151581146119c757600080fd5b634e487b7160e01b600052604160045260246000fd5b604051601f8201601f1916810167ffffffffffffffff81118282101715611a6157611a61611a22565b604052919050565b600067ffffffffffffffff821115611a8357611a83611a22565b50601f01601f191660200190565b60008060008060808587031215611aa757600080fd5b8435611ab281611920565b93506020850135611ac281611920565b925060408501359150606085013567ffffffffffffffff811115611ae557600080fd5b8501601f81018713611af657600080fd5b8035611b09611b0482611a69565b611a38565b818152886020838501011115611b1e57600080fd5b8160208401602083013760006020838301015280935050505092959194509250565b60008060408385031215611b5357600080fd5b8235611b5e81611920565b915060208301356119c781611920565b600181811c90821680611b8257607f821691505b60208210811415611ba357634e487b7160e01b600052602260045260246000fd5b50919050565b60208082526031908201527f4552433732313a207472616e736665722063616c6c6572206973206e6f74206f6040820152701ddb995c881b9bdc88185c1c1c9bdd9959607a1b606082015260800190565b600060808284031215611c0c57600080fd5b6040516080810181811067ffffffffffffffff82111715611c2f57611c2f611a22565b6040528251611c3d81611920565b8082525060208301516020820152604083015160408201526060830151611c6381611920565b60608201529392505050565b600082601f830112611c8057600080fd5b8151611c8e611b0482611a69565b818152846020838601011115611ca357600080fd5b610e9982602083016020870161189c565b60008060008060808587031215611cca57600080fd5b845167ffffffffffffffff80821115611ce257600080fd5b611cee88838901611c6f565b95506020870151915080821115611d0457600080fd5b611d1088838901611c6f565b94506040870151915080821115611d2657600080fd5b50611d3387828801611c6f565b606096909601519497939650505050565b8681526001600160a01b038681166020830152604082018690528416606082015260c060808201819052600090611d7d908301856118c8565b82810360a0840152611d8f81856118c8565b9998505050505050505050565b600060208284031215611dae57600080fd5b815167ffffffffffffffff811115611dc557600080fd5b610e9984828501611c6f565b683d913730b6b2911d1160b91b81528251600090611df681600985016020880161189c565b7f222c20226465736372697074696f6e223a2022534f5320436861696e20446f6e6009918401918201527530ba34b7b71027232a1116101134b6b0b3b2911d101160511b60298201527f646174613a696d6167652f7376672b786d6c3b6261736536342c000000000000603f8201528351611e7881605984016020880161189c565b61227d60f01b60599290910191820152605b01949350505050565b7f646174613a6170706c69636174696f6e2f6a736f6e3b6261736536342c000000815260008251611ecb81601d85016020870161189c565b91909101601d0192915050565b634e487b7160e01b600052601160045260246000fd5b600082821015611f0057611f00611ed8565b500390565b60008219821115611f1857611f18611ed8565b500190565b7f416363657373436f6e74726f6c3a206163636f756e7420000000000000000000815260008351611f5581601785016020880161189c565b7001034b99036b4b9b9b4b733903937b6329607d1b6017918401918201528351611f8681602884016020880161189c565b01602801949350505050565b600060208284031215611fa457600080fd5b815161176181611920565b60208082526032908201527f4552433732313a207472616e7366657220746f206e6f6e20455243373231526560408201527131b2b4bb32b91034b6b83632b6b2b73a32b960711b606082015260800190565b60008261201e57634e487b7160e01b600052601260045260246000fd5b500490565b600081600019048311821515161561203d5761203d611ed8565b500290565b634e487b7160e01b600052603260045260246000fd5b60008161206757612067611ed8565b506000190190565b6001600160a01b03858116825284166020820152604081018390526080606082018190526000906120a2908301846118c8565b9695505050505050565b6000602082840312156120be57600080fd5b81516117618161186656fe4142434445464748494a4b4c4d4e4f505152535455565758595a6162636465666768696a6b6c6d6e6f707172737475767778797a303132333435363738392b2fa26469706673582212208e4fa5c6a01b8de7602166c0a06080fe8f2da9e6d46f53d5789b9db96ff4a22f64736f6c634300080a0033",
  "devdoc": {
    "kind": "dev",
    "methods": {
      "approve(address,uint256)": {
        "details": "See {IERC721-approve}."
      },
      "balanceOf(address)": {
        "details": "See {IERC721-balanceOf}."
      },
      "getApproved(uint256)": {
        "details": "See {IERC721-getApproved}."
      },
      "getRoleAdmin(bytes32)": {
        "details": "Returns the admin role that controls `role`. See {grantRole} and {revokeRole}. To change a role's admin, use {_setRoleAdmin}."
      },
      "grantRole(bytes32,address)": {
        "details": "Grants `role` to `account`. If `account` had not been already granted `role`, emits a {RoleGranted} event. Requirements: - the caller must have ``role``'s admin role."
      },
      "hasRole(bytes32,address)": {
        "details": "Returns `true` if `account` has been granted `role`."
      },
      "isApprovedForAll(address,address)": {
        "details": "See {IERC721-isApprovedForAll}."
      },
      "mint(address,uint256)": {
        "details": "mint an nft",
        "params": {
          "_donationId": "donation ID",
          "_recipient": "recipient address"
        },
        "returns": {
          "_0": "id of the minted ERC721"
        }
      },
      "name()": {
        "details": "See {IERC721Metadata-name}."
      },
      "ownerOf(uint256)": {
        "details": "See {IERC721-ownerOf}."
      },
      "renounceRole(bytes32,address)": {
        "details": "Revokes `role` from the calling account. Roles are often managed via {grantRole} and {revokeRole}: this function's purpose is to provide a mechanism for accounts to lose their privileges if they are compromised (such as when a trusted device is misplaced). If the calling account had been revoked `role`, emits a {RoleRevoked} event. Requirements: - the caller must be `account`."
      },
      "revokeRole(bytes32,address)": {
        "details": "Revokes `role` from `account`. If `account` had been granted `role`, emits a {RoleRevoked} event. Requirements: - the caller must have ``role``'s admin role."
      },
      "safeTransferFrom(address,address,uint256)": {
        "details": "See {IERC721-safeTransferFrom}."
      },
      "safeTransferFrom(address,address,uint256,bytes)": {
        "details": "See {IERC721-safeTransferFrom}."
      },
      "setApprovalForAll(address,bool)": {
        "details": "See {IERC721-setApprovalForAll}."
      },
      "symbol()": {
        "details": "See {IERC721Metadata-symbol}."
      },
      "transferFrom(address,address,uint256)": {
        "details": "See {IERC721-transferFrom}."
      }
    },
    "version": 1
  },
  "userdoc": {
    "kind": "user",
    "methods": {},
    "version": 1
  },
  "storageLayout": {
    "storage": [
      {
        "astId": 24,
        "contract": "contracts/SOS.sol:SOS",
        "label": "_roles",
        "offset": 0,
        "slot": "0",
        "type": "t_mapping(t_bytes32,t_struct(RoleData)19_storage)"
      },
      {
        "astId": 1507,
        "contract": "contracts/SOS.sol:SOS",
        "label": "_name",
        "offset": 0,
        "slot": "1",
        "type": "t_string_storage"
      },
      {
        "astId": 1509,
        "contract": "contracts/SOS.sol:SOS",
        "label": "_symbol",
        "offset": 0,
        "slot": "2",
        "type": "t_string_storage"
      },
      {
        "astId": 1513,
        "contract": "contracts/SOS.sol:SOS",
        "label": "_owners",
        "offset": 0,
        "slot": "3",
        "type": "t_mapping(t_uint256,t_address)"
      },
      {
        "astId": 1517,
        "contract": "contracts/SOS.sol:SOS",
        "label": "_balances",
        "offset": 0,
        "slot": "4",
        "type": "t_mapping(t_address,t_uint256)"
      },
      {
        "astId": 1521,
        "contract": "contracts/SOS.sol:SOS",
        "label": "_tokenApprovals",
        "offset": 0,
        "slot": "5",
        "type": "t_mapping(t_uint256,t_address)"
      },
      {
        "astId": 1527,
        "contract": "contracts/SOS.sol:SOS",
        "label": "_operatorApprovals",
        "offset": 0,
        "slot": "6",
        "type": "t_mapping(t_address,t_mapping(t_address,t_bool))"
      },
      {
        "astId": 6053,
        "contract": "contracts/SOS.sol:SOS",
        "label": "registry",
        "offset": 0,
        "slot": "7",
        "type": "t_contract(Registry)6202"
      },
      {
        "astId": 6814,
        "contract": "contracts/SOS.sol:SOS",
        "label": "tokenIds",
        "offset": 0,
        "slot": "8",
        "type": "t_struct(Counter)2878_storage"
      },
      {
        "astId": 6823,
        "contract": "contracts/SOS.sol:SOS",
        "label": "donations",
        "offset": 0,
        "slot": "9",
        "type": "t_mapping(t_uint256,t_uint256)"
      }
    ],
    "types": {
      "t_address": {
        "encoding": "inplace",
        "label": "address",
        "numberOfBytes": "20"
      },
      "t_bool": {
        "encoding": "inplace",
        "label": "bool",
        "numberOfBytes": "1"
      },
      "t_bytes32": {
        "encoding": "inplace",
        "label": "bytes32",
        "numberOfBytes": "32"
      },
      "t_contract(Registry)6202": {
        "encoding": "inplace",
        "label": "contract Registry",
        "numberOfBytes": "20"
      },
      "t_mapping(t_address,t_bool)": {
        "encoding": "mapping",
        "key": "t_address",
        "label": "mapping(address => bool)",
        "numberOfBytes": "32",
        "value": "t_bool"
      },
      "t_mapping(t_address,t_mapping(t_address,t_bool))": {
        "encoding": "mapping",
        "key": "t_address",
        "label": "mapping(address => mapping(address => bool))",
        "numberOfBytes": "32",
        "value": "t_mapping(t_address,t_bool)"
      },
      "t_mapping(t_address,t_uint256)": {
        "encoding": "mapping",
        "key": "t_address",
        "label": "mapping(address => uint256)",
        "numberOfBytes": "32",
        "value": "t_uint256"
      },
      "t_mapping(t_bytes32,t_struct(RoleData)19_storage)": {
        "encoding": "mapping",
        "key": "t_bytes32",
        "label": "mapping(bytes32 => struct AccessControl.RoleData)",
        "numberOfBytes": "32",
        "value": "t_struct(RoleData)19_storage"
      },
      "t_mapping(t_uint256,t_address)": {
        "encoding": "mapping",
        "key": "t_uint256",
        "label": "mapping(uint256 => address)",
        "numberOfBytes": "32",
        "value": "t_address"
      },
      "t_mapping(t_uint256,t_uint256)": {
        "encoding": "mapping",
        "key": "t_uint256",
        "label": "mapping(uint256 => uint256)",
        "numberOfBytes": "32",
        "value": "t_uint256"
      },
      "t_string_storage": {
        "encoding": "bytes",
        "label": "string",
        "numberOfBytes": "32"
      },
      "t_struct(Counter)2878_storage": {
        "encoding": "inplace",
        "label": "struct Counters.Counter",
        "members": [
          {
            "astId": 2877,
            "contract": "contracts/SOS.sol:SOS",
            "label": "_value",
            "offset": 0,
            "slot": "0",
            "type": "t_uint256"
          }
        ],
        "numberOfBytes": "32"
      },
      "t_struct(RoleData)19_storage": {
        "encoding": "inplace",
        "label": "struct AccessControl.RoleData",
        "members": [
          {
            "astId": 16,
            "contract": "contracts/SOS.sol:SOS",
            "label": "members",
            "offset": 0,
            "slot": "0",
            "type": "t_mapping(t_address,t_bool)"
          },
          {
            "astId": 18,
            "contract": "contracts/SOS.sol:SOS",
            "label": "adminRole",
            "offset": 0,
            "slot": "1",
            "type": "t_bytes32"
          }
        ],
        "numberOfBytes": "64"
      },
      "t_uint256": {
        "encoding": "inplace",
        "label": "uint256",
        "numberOfBytes": "32"
      }
    }
  }
}