{
  "address": "0x43f8e17bE1B28DCB1f057e8be640Bb7Ffc686c44",
  "abi": [
    {
      "inputs": [
        {
          "internalType": "address",
          "name": "_registry",
          "type": "address"
        },
        {
          "internalType": "address",
          "name": "_minterAddress",
          "type": "address"
        }
      ],
      "stateMutability": "nonpayable",
      "type": "constructor"
    },
    {
      "anonymous": false,
      "inputs": [
        {
          "indexed": true,
          "internalType": "address",
          "name": "owner",
          "type": "address"
        },
        {
          "indexed": true,
          "internalType": "address",
          "name": "approved",
          "type": "address"
        },
        {
          "indexed": true,
          "internalType": "uint256",
          "name": "tokenId",
          "type": "uint256"
        }
      ],
      "name": "Approval",
      "type": "event"
    },
    {
      "anonymous": false,
      "inputs": [
        {
          "indexed": true,
          "internalType": "address",
          "name": "owner",
          "type": "address"
        },
        {
          "indexed": true,
          "internalType": "address",
          "name": "operator",
          "type": "address"
        },
        {
          "indexed": false,
          "internalType": "bool",
          "name": "approved",
          "type": "bool"
        }
      ],
      "name": "ApprovalForAll",
      "type": "event"
    },
    {
      "anonymous": false,
      "inputs": [
        {
          "indexed": true,
          "internalType": "bytes32",
          "name": "role",
          "type": "bytes32"
        },
        {
          "indexed": true,
          "internalType": "bytes32",
          "name": "previousAdminRole",
          "type": "bytes32"
        },
        {
          "indexed": true,
          "internalType": "bytes32",
          "name": "newAdminRole",
          "type": "bytes32"
        }
      ],
      "name": "RoleAdminChanged",
      "type": "event"
    },
    {
      "anonymous": false,
      "inputs": [
        {
          "indexed": true,
          "internalType": "bytes32",
          "name": "role",
          "type": "bytes32"
        },
        {
          "indexed": true,
          "internalType": "address",
          "name": "account",
          "type": "address"
        },
        {
          "indexed": true,
          "internalType": "address",
          "name": "sender",
          "type": "address"
        }
      ],
      "name": "RoleGranted",
      "type": "event"
    },
    {
      "anonymous": false,
      "inputs": [
        {
          "indexed": true,
          "internalType": "bytes32",
          "name": "role",
          "type": "bytes32"
        },
        {
          "indexed": true,
          "internalType": "address",
          "name": "account",
          "type": "address"
        },
        {
          "indexed": true,
          "internalType": "address",
          "name": "sender",
          "type": "address"
        }
      ],
      "name": "RoleRevoked",
      "type": "event"
    },
    {
      "anonymous": false,
      "inputs": [
        {
          "indexed": true,
          "internalType": "address",
          "name": "from",
          "type": "address"
        },
        {
          "indexed": true,
          "internalType": "address",
          "name": "to",
          "type": "address"
        },
        {
          "indexed": true,
          "internalType": "uint256",
          "name": "tokenId",
          "type": "uint256"
        }
      ],
      "name": "Transfer",
      "type": "event"
    },
    {
      "inputs": [],
      "name": "DEFAULT_ADMIN_ROLE",
      "outputs": [
        {
          "internalType": "bytes32",
          "name": "",
          "type": "bytes32"
        }
      ],
      "stateMutability": "view",
      "type": "function"
    },
    {
      "inputs": [],
      "name": "MINTER_ROLE",
      "outputs": [
        {
          "internalType": "bytes32",
          "name": "",
          "type": "bytes32"
        }
      ],
      "stateMutability": "view",
      "type": "function"
    },
    {
      "inputs": [
        {
          "internalType": "address",
          "name": "to",
          "type": "address"
        },
        {
          "internalType": "uint256",
          "name": "tokenId",
          "type": "uint256"
        }
      ],
      "name": "approve",
      "outputs": [],
      "stateMutability": "nonpayable",
      "type": "function"
    },
    {
      "inputs": [
        {
          "internalType": "address",
          "name": "owner",
          "type": "address"
        }
      ],
      "name": "balanceOf",
      "outputs": [
        {
          "internalType": "uint256",
          "name": "",
          "type": "uint256"
        }
      ],
      "stateMutability": "view",
      "type": "function"
    },
    {
      "inputs": [
        {
          "internalType": "uint256",
          "name": "tokenId",
          "type": "uint256"
        }
      ],
      "name": "getApproved",
      "outputs": [
        {
          "internalType": "address",
          "name": "",
          "type": "address"
        }
      ],
      "stateMutability": "view",
      "type": "function"
    },
    {
      "inputs": [
        {
          "internalType": "bytes32",
          "name": "role",
          "type": "bytes32"
        }
      ],
      "name": "getRoleAdmin",
      "outputs": [
        {
          "internalType": "bytes32",
          "name": "",
          "type": "bytes32"
        }
      ],
      "stateMutability": "view",
      "type": "function"
    },
    {
      "inputs": [
        {
          "internalType": "bytes32",
          "name": "role",
          "type": "bytes32"
        },
        {
          "internalType": "address",
          "name": "account",
          "type": "address"
        }
      ],
      "name": "grantRole",
      "outputs": [],
      "stateMutability": "nonpayable",
      "type": "function"
    },
    {
      "inputs": [
        {
          "internalType": "bytes32",
          "name": "role",
          "type": "bytes32"
        },
        {
          "internalType": "address",
          "name": "account",
          "type": "address"
        }
      ],
      "name": "hasRole",
      "outputs": [
        {
          "internalType": "bool",
          "name": "",
          "type": "bool"
        }
      ],
      "stateMutability": "view",
      "type": "function"
    },
    {
      "inputs": [
        {
          "internalType": "address",
          "name": "owner",
          "type": "address"
        },
        {
          "internalType": "address",
          "name": "operator",
          "type": "address"
        }
      ],
      "name": "isApprovedForAll",
      "outputs": [
        {
          "internalType": "bool",
          "name": "",
          "type": "bool"
        }
      ],
      "stateMutability": "view",
      "type": "function"
    },
    {
      "inputs": [
        {
          "internalType": "uint256",
          "name": "",
          "type": "uint256"
        }
      ],
      "name": "metadata",
      "outputs": [
        {
          "internalType": "uint256",
          "name": "fundId",
          "type": "uint256"
        },
        {
          "internalType": "uint256",
          "name": "amount",
          "type": "uint256"
        },
        {
          "internalType": "address",
          "name": "tokenAddress",
          "type": "address"
        }
      ],
      "stateMutability": "view",
      "type": "function"
    },
    {
      "inputs": [
        {
          "internalType": "address",
          "name": "_recipient",
          "type": "address"
        },
        {
          "internalType": "uint256",
          "name": "_fundId",
          "type": "uint256"
        },
        {
          "internalType": "uint256",
          "name": "_amount",
          "type": "uint256"
        },
        {
          "internalType": "address",
          "name": "_tokenAddress",
          "type": "address"
        }
      ],
      "name": "mint",
      "outputs": [
        {
          "internalType": "uint256",
          "name": "",
          "type": "uint256"
        }
      ],
      "stateMutability": "nonpayable",
      "type": "function"
    },
    {
      "inputs": [],
      "name": "name",
      "outputs": [
        {
          "internalType": "string",
          "name": "",
          "type": "string"
        }
      ],
      "stateMutability": "view",
      "type": "function"
    },
    {
      "inputs": [
        {
          "internalType": "uint256",
          "name": "tokenId",
          "type": "uint256"
        }
      ],
      "name": "ownerOf",
      "outputs": [
        {
          "internalType": "address",
          "name": "",
          "type": "address"
        }
      ],
      "stateMutability": "view",
      "type": "function"
    },
    {
      "inputs": [
        {
          "internalType": "bytes32",
          "name": "role",
          "type": "bytes32"
        },
        {
          "internalType": "address",
          "name": "account",
          "type": "address"
        }
      ],
      "name": "renounceRole",
      "outputs": [],
      "stateMutability": "nonpayable",
      "type": "function"
    },
    {
      "inputs": [
        {
          "internalType": "bytes32",
          "name": "role",
          "type": "bytes32"
        },
        {
          "internalType": "address",
          "name": "account",
          "type": "address"
        }
      ],
      "name": "revokeRole",
      "outputs": [],
      "stateMutability": "nonpayable",
      "type": "function"
    },
    {
      "inputs": [
        {
          "internalType": "address",
          "name": "from",
          "type": "address"
        },
        {
          "internalType": "address",
          "name": "to",
          "type": "address"
        },
        {
          "internalType": "uint256",
          "name": "tokenId",
          "type": "uint256"
        }
      ],
      "name": "safeTransferFrom",
      "outputs": [],
      "stateMutability": "nonpayable",
      "type": "function"
    },
    {
      "inputs": [
        {
          "internalType": "address",
          "name": "from",
          "type": "address"
        },
        {
          "internalType": "address",
          "name": "to",
          "type": "address"
        },
        {
          "internalType": "uint256",
          "name": "tokenId",
          "type": "uint256"
        },
        {
          "internalType": "bytes",
          "name": "_data",
          "type": "bytes"
        }
      ],
      "name": "safeTransferFrom",
      "outputs": [],
      "stateMutability": "nonpayable",
      "type": "function"
    },
    {
      "inputs": [
        {
          "internalType": "address",
          "name": "operator",
          "type": "address"
        },
        {
          "internalType": "bool",
          "name": "approved",
          "type": "bool"
        }
      ],
      "name": "setApprovalForAll",
      "outputs": [],
      "stateMutability": "nonpayable",
      "type": "function"
    },
    {
      "inputs": [
        {
          "internalType": "bytes4",
          "name": "_interfaceId",
          "type": "bytes4"
        }
      ],
      "name": "supportsInterface",
      "outputs": [
        {
          "internalType": "bool",
          "name": "",
          "type": "bool"
        }
      ],
      "stateMutability": "view",
      "type": "function"
    },
    {
      "inputs": [],
      "name": "symbol",
      "outputs": [
        {
          "internalType": "string",
          "name": "",
          "type": "string"
        }
      ],
      "stateMutability": "view",
      "type": "function"
    },
    {
      "inputs": [
        {
          "internalType": "uint256",
          "name": "_tokenId",
          "type": "uint256"
        }
      ],
      "name": "tokenURI",
      "outputs": [
        {
          "internalType": "string",
          "name": "",
          "type": "string"
        }
      ],
      "stateMutability": "view",
      "type": "function"
    },
    {
      "inputs": [
        {
          "internalType": "address",
          "name": "from",
          "type": "address"
        },
        {
          "internalType": "address",
          "name": "to",
          "type": "address"
        },
        {
          "internalType": "uint256",
          "name": "tokenId",
          "type": "uint256"
        }
      ],
      "name": "transferFrom",
      "outputs": [],
      "stateMutability": "nonpayable",
      "type": "function"
    }
  ],
  "transactionHash": "0x15c5fc5d49b03114cc6e1dc7142400740adc66a2ac4e020456769c10ded005c9",
  "args": [
    "0xEB131cE3F45630269031D0515c109184Cb261982",
    "0xC7860B0c1EAe885f7aCbD7fdD336CE48B4b0c5F6"
  ],
  "numDeployments": 1,
  "solcInputHash": "97977cda316c6e4de5c4224109da374e",
  "bytecode": "0x60806040523480156200001157600080fd5b5060405162003a6238038062003a628339818101604052810190620000379190620003fc565b816040518060400160405280600981526020017f534f5320436861696e00000000000000000000000000000000000000000000008152506040518060400160405280600381526020017f534f5300000000000000000000000000000000000000000000000000000000008152508160019080519060200190620000bc929190620002e2565b508060029080519060200190620000d5929190620002e2565b50505080600760006101000a81548173ffffffffffffffffffffffffffffffffffffffff021916908373ffffffffffffffffffffffffffffffffffffffff160217905550506200012f6000801b336200016960201b60201c565b620001617f9f2df0fed2c77648de5860a4cc508cd0818c85b8b8a1ab4ceeef8d981c8956a6826200016960201b60201c565b5050620004a8565b6200017b82826200017f60201b60201c565b5050565b6200019182826200027060201b60201c565b6200026c57600160008084815260200190815260200160002060000160008373ffffffffffffffffffffffffffffffffffffffff1673ffffffffffffffffffffffffffffffffffffffff16815260200190815260200160002060006101000a81548160ff02191690831515021790555062000211620002da60201b60201c565b73ffffffffffffffffffffffffffffffffffffffff168173ffffffffffffffffffffffffffffffffffffffff16837f2f8788117e7eff1d82e926ec794901d17c78024a50270940304540a733656f0d60405160405180910390a45b5050565b600080600084815260200190815260200160002060000160008373ffffffffffffffffffffffffffffffffffffffff1673ffffffffffffffffffffffffffffffffffffffff16815260200190815260200160002060009054906101000a900460ff16905092915050565b600033905090565b828054620002f09062000472565b90600052602060002090601f01602090048101928262000314576000855562000360565b82601f106200032f57805160ff191683800117855562000360565b8280016001018555821562000360579182015b828111156200035f57825182559160200191906001019062000342565b5b5090506200036f919062000373565b5090565b5b808211156200038e57600081600090555060010162000374565b5090565b600080fd5b600073ffffffffffffffffffffffffffffffffffffffff82169050919050565b6000620003c48262000397565b9050919050565b620003d681620003b7565b8114620003e257600080fd5b50565b600081519050620003f681620003cb565b92915050565b6000806040838503121562000416576200041562000392565b5b60006200042685828601620003e5565b92505060206200043985828601620003e5565b9150509250929050565b7f4e487b7100000000000000000000000000000000000000000000000000000000600052602260045260246000fd5b600060028204905060018216806200048b57607f821691505b60208210811415620004a257620004a162000443565b5b50919050565b6135aa80620004b86000396000f3fe608060405234801561001057600080fd5b50600436106101425760003560e01c806391d14854116100b8578063c87b56dd1161007c578063c87b56dd14610385578063d5391393146103b5578063d547741f146103d3578063e3684e39146103ef578063e985e9c514610421578063f74bfe8e1461045157610142565b806391d14854146102e157806395d89b4114610311578063a217fddf1461032f578063a22cb4651461034d578063b88d4fde1461036957610142565b8063248a9ca31161010a578063248a9ca3146101fd5780632f2ff15d1461022d57806336568abe1461024957806342842e0e146102655780636352211e1461028157806370a08231146102b157610142565b806301ffc9a71461014757806306fdde0314610177578063081812fc14610195578063095ea7b3146101c557806323b872dd146101e1575b600080fd5b610161600480360381019061015c91906120bc565b610481565b60405161016e9190612104565b60405180910390f35b61017f610493565b60405161018c91906121b8565b60405180910390f35b6101af60048036038101906101aa9190612210565b610525565b6040516101bc919061227e565b60405180910390f35b6101df60048036038101906101da91906122c5565b6105aa565b005b6101fb60048036038101906101f69190612305565b6106c2565b005b6102176004803603810190610212919061238e565b610722565b60405161022491906123ca565b60405180910390f35b610247600480360381019061024291906123e5565b610741565b005b610263600480360381019061025e91906123e5565b61076a565b005b61027f600480360381019061027a9190612305565b6107ed565b005b61029b60048036038101906102969190612210565b61080d565b6040516102a8919061227e565b60405180910390f35b6102cb60048036038101906102c69190612425565b6108bf565b6040516102d89190612461565b60405180910390f35b6102fb60048036038101906102f691906123e5565b610977565b6040516103089190612104565b60405180910390f35b6103196109e1565b60405161032691906121b8565b60405180910390f35b610337610a73565b60405161034491906123ca565b60405180910390f35b610367600480360381019061036291906124a8565b610a7a565b005b610383600480360381019061037e919061261d565b610a90565b005b61039f600480360381019061039a9190612210565b610af2565b6040516103ac91906121b8565b60405180910390f35b6103bd610d2d565b6040516103ca91906123ca565b60405180910390f35b6103ed60048036038101906103e891906123e5565b610d51565b005b61040960048036038101906104049190612210565b610d7a565b604051610418939291906126a0565b60405180910390f35b61043b600480360381019061043691906126d7565b610dc4565b6040516104489190612104565b60405180910390f35b61046b60048036038101906104669190612717565b610e58565b6040516104789190612461565b60405180910390f35b600061048c82610f5d565b9050919050565b6060600180546104a2906127ad565b80601f01602080910402602001604051908101604052809291908181526020018280546104ce906127ad565b801561051b5780601f106104f05761010080835404028352916020019161051b565b820191906000526020600020905b8154815290600101906020018083116104fe57829003601f168201915b5050505050905090565b60006105308261103f565b61056f576040517f08c379a000000000000000000000000000000000000000000000000000000000815260040161056690612851565b60405180910390fd5b6005600083815260200190815260200160002060009054906101000a900473ffffffffffffffffffffffffffffffffffffffff169050919050565b60006105b58261080d565b90508073ffffffffffffffffffffffffffffffffffffffff168373ffffffffffffffffffffffffffffffffffffffff161415610626576040517f08c379a000000000000000000000000000000000000000000000000000000000815260040161061d906128e3565b60405180910390fd5b8073ffffffffffffffffffffffffffffffffffffffff166106456110ab565b73ffffffffffffffffffffffffffffffffffffffff16148061067457506106738161066e6110ab565b610dc4565b5b6106b3576040517f08c379a00000000000000000000000000000000000000000000000000000000081526004016106aa90612975565b60405180910390fd5b6106bd83836110b3565b505050565b6106d36106cd6110ab565b8261116c565b610712576040517f08c379a000000000000000000000000000000000000000000000000000000000815260040161070990612a07565b60405180910390fd5b61071d83838361124a565b505050565b6000806000838152602001908152602001600020600101549050919050565b61074a82610722565b61075b816107566110ab565b6114b1565b610765838361154e565b505050565b6107726110ab565b73ffffffffffffffffffffffffffffffffffffffff168173ffffffffffffffffffffffffffffffffffffffff16146107df576040517f08c379a00000000000000000000000000000000000000000000000000000000081526004016107d690612a99565b60405180910390fd5b6107e9828261162e565b5050565b61080883838360405180602001604052806000815250610a90565b505050565b6000806003600084815260200190815260200160002060009054906101000a900473ffffffffffffffffffffffffffffffffffffffff169050600073ffffffffffffffffffffffffffffffffffffffff168173ffffffffffffffffffffffffffffffffffffffff1614156108b6576040517f08c379a00000000000000000000000000000000000000000000000000000000081526004016108ad90612b2b565b60405180910390fd5b80915050919050565b60008073ffffffffffffffffffffffffffffffffffffffff168273ffffffffffffffffffffffffffffffffffffffff161415610930576040517f08c379a000000000000000000000000000000000000000000000000000000000815260040161092790612bbd565b60405180910390fd5b600460008373ffffffffffffffffffffffffffffffffffffffff1673ffffffffffffffffffffffffffffffffffffffff168152602001908152602001600020549050919050565b600080600084815260200190815260200160002060000160008373ffffffffffffffffffffffffffffffffffffffff1673ffffffffffffffffffffffffffffffffffffffff16815260200190815260200160002060009054906101000a900460ff16905092915050565b6060600280546109f0906127ad565b80601f0160208091040260200160405190810160405280929190818152602001828054610a1c906127ad565b8015610a695780601f10610a3e57610100808354040283529160200191610a69565b820191906000526020600020905b815481529060010190602001808311610a4c57829003601f168201915b5050505050905090565b6000801b81565b610a8c610a856110ab565b838361170f565b5050565b610aa1610a9b6110ab565b8361116c565b610ae0576040517f08c379a0000000000000000000000000000000000000000000000000000000008152600401610ad790612a07565b60405180910390fd5b610aec8484848461187c565b50505050565b606060006009600084815260200190815260200160002090506000610b367f46554e445f4d414e4147455200000000000000000000000000000000000000006118d8565b73ffffffffffffffffffffffffffffffffffffffff166337b0420383600001546040518263ffffffff1660e01b8152600401610b729190612461565b602060405180830381865afa158015610b8f573d6000803e3d6000fd5b505050506040513d601f19601f82011682018060405250810190610bb39190612bf2565b905060008060008373ffffffffffffffffffffffffffffffffffffffff1663a79af2ce6040518163ffffffff1660e01b8152600401600060405180830381865afa158015610c05573d6000803e3d6000fd5b505050506040513d6000823e3d601f19601f82011682018060405250810190610c2e9190612cc0565b9250925092506000610c5f7f4e46545f44455343524950544f520000000000000000000000000000000000006118d8565b90506000610c6c8961080d565b90508173ffffffffffffffffffffffffffffffffffffffff1663b29e697c8a838a600101548b60020160009054906101000a900473ffffffffffffffffffffffffffffffffffffffff168a8a6040518763ffffffff1660e01b8152600401610cd996959493929190612d67565b600060405180830381865afa158015610cf6573d6000803e3d6000fd5b505050506040513d6000823e3d601f19601f82011682018060405250810190610d1f9190612dd6565b975050505050505050919050565b7f9f2df0fed2c77648de5860a4cc508cd0818c85b8b8a1ab4ceeef8d981c8956a681565b610d5a82610722565b610d6b81610d666110ab565b6114b1565b610d75838361162e565b505050565b60096020528060005260406000206000915090508060000154908060010154908060020160009054906101000a900473ffffffffffffffffffffffffffffffffffffffff16905083565b6000600660008473ffffffffffffffffffffffffffffffffffffffff1673ffffffffffffffffffffffffffffffffffffffff16815260200190815260200160002060008373ffffffffffffffffffffffffffffffffffffffff1673ffffffffffffffffffffffffffffffffffffffff16815260200190815260200160002060009054906101000a900460ff16905092915050565b60007f9f2df0fed2c77648de5860a4cc508cd0818c85b8b8a1ab4ceeef8d981c8956a6610e8c81610e876110ab565b6114b1565b610e96600861197d565b6000610ea26008611993565b9050610eae87826119a1565b60405180606001604052808781526020018681526020018573ffffffffffffffffffffffffffffffffffffffff1681525060096000838152602001908152602001600020600082015181600001556020820151816001015560408201518160020160006101000a81548173ffffffffffffffffffffffffffffffffffffffff021916908373ffffffffffffffffffffffffffffffffffffffff1602179055509050508092505050949350505050565b60007f80ac58cd000000000000000000000000000000000000000000000000000000007bffffffffffffffffffffffffffffffffffffffffffffffffffffffff1916827bffffffffffffffffffffffffffffffffffffffffffffffffffffffff1916148061102857507f5b5e139f000000000000000000000000000000000000000000000000000000007bffffffffffffffffffffffffffffffffffffffffffffffffffffffff1916827bffffffffffffffffffffffffffffffffffffffffffffffffffffffff1916145b80611038575061103782611b7b565b5b9050919050565b60008073ffffffffffffffffffffffffffffffffffffffff166003600084815260200190815260200160002060009054906101000a900473ffffffffffffffffffffffffffffffffffffffff1673ffffffffffffffffffffffffffffffffffffffff1614159050919050565b600033905090565b816005600083815260200190815260200160002060006101000a81548173ffffffffffffffffffffffffffffffffffffffff021916908373ffffffffffffffffffffffffffffffffffffffff160217905550808273ffffffffffffffffffffffffffffffffffffffff166111268361080d565b73ffffffffffffffffffffffffffffffffffffffff167f8c5be1e5ebec7d5bd14f71427d1e84f3dd0314c0f7b2291e5b200ac8c7c3b92560405160405180910390a45050565b60006111778261103f565b6111b6576040517f08c379a00000000000000000000000000000000000000000000000000000000081526004016111ad90612e91565b60405180910390fd5b60006111c18361080d565b90508073ffffffffffffffffffffffffffffffffffffffff168473ffffffffffffffffffffffffffffffffffffffff16148061123057508373ffffffffffffffffffffffffffffffffffffffff1661121884610525565b73ffffffffffffffffffffffffffffffffffffffff16145b8061124157506112408185610dc4565b5b91505092915050565b8273ffffffffffffffffffffffffffffffffffffffff1661126a8261080d565b73ffffffffffffffffffffffffffffffffffffffff16146112c0576040517f08c379a00000000000000000000000000000000000000000000000000000000081526004016112b790612f23565b60405180910390fd5b600073ffffffffffffffffffffffffffffffffffffffff168273ffffffffffffffffffffffffffffffffffffffff161415611330576040517f08c379a000000000000000000000000000000000000000000000000000000000815260040161132790612fb5565b60405180910390fd5b61133b838383611bf5565b6113466000826110b3565b6001600460008573ffffffffffffffffffffffffffffffffffffffff1673ffffffffffffffffffffffffffffffffffffffff16815260200190815260200160002060008282546113969190613004565b925050819055506001600460008473ffffffffffffffffffffffffffffffffffffffff1673ffffffffffffffffffffffffffffffffffffffff16815260200190815260200160002060008282546113ed9190613038565b92505081905550816003600083815260200190815260200160002060006101000a81548173ffffffffffffffffffffffffffffffffffffffff021916908373ffffffffffffffffffffffffffffffffffffffff160217905550808273ffffffffffffffffffffffffffffffffffffffff168473ffffffffffffffffffffffffffffffffffffffff167fddf252ad1be2c89b69c2b068fc378daa952ba7f163c4a11628f55a4df523b3ef60405160405180910390a46114ac838383611bfa565b505050565b6114bb8282610977565b61154a576114e08173ffffffffffffffffffffffffffffffffffffffff166014611bff565b6114ee8360001c6020611bff565b6040516020016114ff929190613162565b6040516020818303038152906040526040517f08c379a000000000000000000000000000000000000000000000000000000000815260040161154191906121b8565b60405180910390fd5b5050565b6115588282610977565b61162a57600160008084815260200190815260200160002060000160008373ffffffffffffffffffffffffffffffffffffffff1673ffffffffffffffffffffffffffffffffffffffff16815260200190815260200160002060006101000a81548160ff0219169083151502179055506115cf6110ab565b73ffffffffffffffffffffffffffffffffffffffff168173ffffffffffffffffffffffffffffffffffffffff16837f2f8788117e7eff1d82e926ec794901d17c78024a50270940304540a733656f0d60405160405180910390a45b5050565b6116388282610977565b1561170b57600080600084815260200190815260200160002060000160008373ffffffffffffffffffffffffffffffffffffffff1673ffffffffffffffffffffffffffffffffffffffff16815260200190815260200160002060006101000a81548160ff0219169083151502179055506116b06110ab565b73ffffffffffffffffffffffffffffffffffffffff168173ffffffffffffffffffffffffffffffffffffffff16837ff6391f5c32d9c69d2a47ea670b442974b53935d1edc7fd64eb21e047a839171b60405160405180910390a45b5050565b8173ffffffffffffffffffffffffffffffffffffffff168373ffffffffffffffffffffffffffffffffffffffff16141561177e576040517f08c379a0000000000000000000000000000000000000000000000000000000008152600401611775906131e8565b60405180910390fd5b80600660008573ffffffffffffffffffffffffffffffffffffffff1673ffffffffffffffffffffffffffffffffffffffff16815260200190815260200160002060008473ffffffffffffffffffffffffffffffffffffffff1673ffffffffffffffffffffffffffffffffffffffff16815260200190815260200160002060006101000a81548160ff0219169083151502179055508173ffffffffffffffffffffffffffffffffffffffff168373ffffffffffffffffffffffffffffffffffffffff167f17307eab39ab6107e8899845ad3d59bd9653f200f220920489ca2b5937696c318360405161186f9190612104565b60405180910390a3505050565b61188784848461124a565b61189384848484611e3b565b6118d2576040517f08c379a00000000000000000000000000000000000000000000000000000000081526004016118c99061327a565b60405180910390fd5b50505050565b6000600760009054906101000a900473ffffffffffffffffffffffffffffffffffffffff1673ffffffffffffffffffffffffffffffffffffffff16638eaa6ac0836040518263ffffffff1660e01b815260040161193591906123ca565b602060405180830381865afa158015611952573d6000803e3d6000fd5b505050506040513d601f19601f820116820180604052508101906119769190612bf2565b9050919050565b6001816000016000828254019250508190555050565b600081600001549050919050565b600073ffffffffffffffffffffffffffffffffffffffff168273ffffffffffffffffffffffffffffffffffffffff161415611a11576040517f08c379a0000000000000000000000000000000000000000000000000000000008152600401611a08906132e6565b60405180910390fd5b611a1a8161103f565b15611a5a576040517f08c379a0000000000000000000000000000000000000000000000000000000008152600401611a5190613352565b60405180910390fd5b611a6660008383611bf5565b6001600460008473ffffffffffffffffffffffffffffffffffffffff1673ffffffffffffffffffffffffffffffffffffffff1681526020019081526020016000206000828254611ab69190613038565b92505081905550816003600083815260200190815260200160002060006101000a81548173ffffffffffffffffffffffffffffffffffffffff021916908373ffffffffffffffffffffffffffffffffffffffff160217905550808273ffffffffffffffffffffffffffffffffffffffff16600073ffffffffffffffffffffffffffffffffffffffff167fddf252ad1be2c89b69c2b068fc378daa952ba7f163c4a11628f55a4df523b3ef60405160405180910390a4611b7760008383611bfa565b5050565b60007f7965db0b000000000000000000000000000000000000000000000000000000007bffffffffffffffffffffffffffffffffffffffffffffffffffffffff1916827bffffffffffffffffffffffffffffffffffffffffffffffffffffffff19161480611bee5750611bed82611fc3565b5b9050919050565b505050565b505050565b606060006002836002611c129190613372565b611c1c9190613038565b67ffffffffffffffff811115611c3557611c346124f2565b5b6040519080825280601f01601f191660200182016040528015611c675781602001600182028036833780820191505090505b5090507f300000000000000000000000000000000000000000000000000000000000000081600081518110611c9f57611c9e6133cc565b5b60200101907effffffffffffffffffffffffffffffffffffffffffffffffffffffffffffff1916908160001a9053507f780000000000000000000000000000000000000000000000000000000000000081600181518110611d0357611d026133cc565b5b60200101907effffffffffffffffffffffffffffffffffffffffffffffffffffffffffffff1916908160001a90535060006001846002611d439190613372565b611d4d9190613038565b90505b6001811115611ded577f3031323334353637383961626364656600000000000000000000000000000000600f861660108110611d8f57611d8e6133cc565b5b1a60f81b828281518110611da657611da56133cc565b5b60200101907effffffffffffffffffffffffffffffffffffffffffffffffffffffffffffff1916908160001a905350600485901c945080611de6906133fb565b9050611d50565b5060008414611e31576040517f08c379a0000000000000000000000000000000000000000000000000000000008152600401611e2890613471565b60405180910390fd5b8091505092915050565b6000611e5c8473ffffffffffffffffffffffffffffffffffffffff1661202d565b15611fb6578373ffffffffffffffffffffffffffffffffffffffff1663150b7a02611e856110ab565b8786866040518563ffffffff1660e01b8152600401611ea794939291906134e6565b6020604051808303816000875af1925050508015611ee357506040513d601f19601f82011682018060405250810190611ee09190613547565b60015b611f66573d8060008114611f13576040519150601f19603f3d011682016040523d82523d6000602084013e611f18565b606091505b50600081511415611f5e576040517f08c379a0000000000000000000000000000000000000000000000000000000008152600401611f559061327a565b60405180910390fd5b805181602001fd5b63150b7a0260e01b7bffffffffffffffffffffffffffffffffffffffffffffffffffffffff1916817bffffffffffffffffffffffffffffffffffffffffffffffffffffffff191614915050611fbb565b600190505b949350505050565b60007f01ffc9a7000000000000000000000000000000000000000000000000000000007bffffffffffffffffffffffffffffffffffffffffffffffffffffffff1916827bffffffffffffffffffffffffffffffffffffffffffffffffffffffff1916149050919050565b6000808273ffffffffffffffffffffffffffffffffffffffff163b119050919050565b6000604051905090565b600080fd5b600080fd5b60007fffffffff0000000000000000000000000000000000000000000000000000000082169050919050565b61209981612064565b81146120a457600080fd5b50565b6000813590506120b681612090565b92915050565b6000602082840312156120d2576120d161205a565b5b60006120e0848285016120a7565b91505092915050565b60008115159050919050565b6120fe816120e9565b82525050565b600060208201905061211960008301846120f5565b92915050565b600081519050919050565b600082825260208201905092915050565b60005b8381101561215957808201518184015260208101905061213e565b83811115612168576000848401525b50505050565b6000601f19601f8301169050919050565b600061218a8261211f565b612194818561212a565b93506121a481856020860161213b565b6121ad8161216e565b840191505092915050565b600060208201905081810360008301526121d2818461217f565b905092915050565b6000819050919050565b6121ed816121da565b81146121f857600080fd5b50565b60008135905061220a816121e4565b92915050565b6000602082840312156122265761222561205a565b5b6000612234848285016121fb565b91505092915050565b600073ffffffffffffffffffffffffffffffffffffffff82169050919050565b60006122688261223d565b9050919050565b6122788161225d565b82525050565b6000602082019050612293600083018461226f565b92915050565b6122a28161225d565b81146122ad57600080fd5b50565b6000813590506122bf81612299565b92915050565b600080604083850312156122dc576122db61205a565b5b60006122ea858286016122b0565b92505060206122fb858286016121fb565b9150509250929050565b60008060006060848603121561231e5761231d61205a565b5b600061232c868287016122b0565b935050602061233d868287016122b0565b925050604061234e868287016121fb565b9150509250925092565b6000819050919050565b61236b81612358565b811461237657600080fd5b50565b60008135905061238881612362565b92915050565b6000602082840312156123a4576123a361205a565b5b60006123b284828501612379565b91505092915050565b6123c481612358565b82525050565b60006020820190506123df60008301846123bb565b92915050565b600080604083850312156123fc576123fb61205a565b5b600061240a85828601612379565b925050602061241b858286016122b0565b9150509250929050565b60006020828403121561243b5761243a61205a565b5b6000612449848285016122b0565b91505092915050565b61245b816121da565b82525050565b60006020820190506124766000830184612452565b92915050565b612485816120e9565b811461249057600080fd5b50565b6000813590506124a28161247c565b92915050565b600080604083850312156124bf576124be61205a565b5b60006124cd858286016122b0565b92505060206124de85828601612493565b9150509250929050565b600080fd5b600080fd5b7f4e487b7100000000000000000000000000000000000000000000000000000000600052604160045260246000fd5b61252a8261216e565b810181811067ffffffffffffffff82111715612549576125486124f2565b5b80604052505050565b600061255c612050565b90506125688282612521565b919050565b600067ffffffffffffffff821115612588576125876124f2565b5b6125918261216e565b9050602081019050919050565b82818337600083830152505050565b60006125c06125bb8461256d565b612552565b9050828152602081018484840111156125dc576125db6124ed565b5b6125e784828561259e565b509392505050565b600082601f830112612604576126036124e8565b5b81356126148482602086016125ad565b91505092915050565b600080600080608085870312156126375761263661205a565b5b6000612645878288016122b0565b9450506020612656878288016122b0565b9350506040612667878288016121fb565b925050606085013567ffffffffffffffff8111156126885761268761205f565b5b612694878288016125ef565b91505092959194509250565b60006060820190506126b56000830186612452565b6126c26020830185612452565b6126cf604083018461226f565b949350505050565b600080604083850312156126ee576126ed61205a565b5b60006126fc858286016122b0565b925050602061270d858286016122b0565b9150509250929050565b600080600080608085870312156127315761273061205a565b5b600061273f878288016122b0565b9450506020612750878288016121fb565b9350506040612761878288016121fb565b9250506060612772878288016122b0565b91505092959194509250565b7f4e487b7100000000000000000000000000000000000000000000000000000000600052602260045260246000fd5b600060028204905060018216806127c557607f821691505b602082108114156127d9576127d861277e565b5b50919050565b7f4552433732313a20617070726f76656420717565727920666f72206e6f6e657860008201527f697374656e7420746f6b656e0000000000000000000000000000000000000000602082015250565b600061283b602c8361212a565b9150612846826127df565b604082019050919050565b6000602082019050818103600083015261286a8161282e565b9050919050565b7f4552433732313a20617070726f76616c20746f2063757272656e74206f776e6560008201527f7200000000000000000000000000000000000000000000000000000000000000602082015250565b60006128cd60218361212a565b91506128d882612871565b604082019050919050565b600060208201905081810360008301526128fc816128c0565b9050919050565b7f4552433732313a20617070726f76652063616c6c6572206973206e6f74206f7760008201527f6e6572206e6f7220617070726f76656420666f7220616c6c0000000000000000602082015250565b600061295f60388361212a565b915061296a82612903565b604082019050919050565b6000602082019050818103600083015261298e81612952565b9050919050565b7f4552433732313a207472616e736665722063616c6c6572206973206e6f74206f60008201527f776e6572206e6f7220617070726f766564000000000000000000000000000000602082015250565b60006129f160318361212a565b91506129fc82612995565b604082019050919050565b60006020820190508181036000830152612a20816129e4565b9050919050565b7f416363657373436f6e74726f6c3a2063616e206f6e6c792072656e6f756e636560008201527f20726f6c657320666f722073656c660000000000000000000000000000000000602082015250565b6000612a83602f8361212a565b9150612a8e82612a27565b604082019050919050565b60006020820190508181036000830152612ab281612a76565b9050919050565b7f4552433732313a206f776e657220717565727920666f72206e6f6e657869737460008201527f656e7420746f6b656e0000000000000000000000000000000000000000000000602082015250565b6000612b1560298361212a565b9150612b2082612ab9565b604082019050919050565b60006020820190508181036000830152612b4481612b08565b9050919050565b7f4552433732313a2062616c616e636520717565727920666f7220746865207a6560008201527f726f206164647265737300000000000000000000000000000000000000000000602082015250565b6000612ba7602a8361212a565b9150612bb282612b4b565b604082019050919050565b60006020820190508181036000830152612bd681612b9a565b9050919050565b600081519050612bec81612299565b92915050565b600060208284031215612c0857612c0761205a565b5b6000612c1684828501612bdd565b91505092915050565b600067ffffffffffffffff821115612c3a57612c396124f2565b5b612c438261216e565b9050602081019050919050565b6000612c63612c5e84612c1f565b612552565b905082815260208101848484011115612c7f57612c7e6124ed565b5b612c8a84828561213b565b509392505050565b600082601f830112612ca757612ca66124e8565b5b8151612cb7848260208601612c50565b91505092915050565b600080600060608486031215612cd957612cd861205a565b5b600084015167ffffffffffffffff811115612cf757612cf661205f565b5b612d0386828701612c92565b935050602084015167ffffffffffffffff811115612d2457612d2361205f565b5b612d3086828701612c92565b925050604084015167ffffffffffffffff811115612d5157612d5061205f565b5b612d5d86828701612c92565b9150509250925092565b600060c082019050612d7c6000830189612452565b612d89602083018861226f565b612d966040830187612452565b612da3606083018661226f565b8181036080830152612db5818561217f565b905081810360a0830152612dc9818461217f565b9050979650505050505050565b600060208284031215612dec57612deb61205a565b5b600082015167ffffffffffffffff811115612e0a57612e0961205f565b5b612e1684828501612c92565b91505092915050565b7f4552433732313a206f70657261746f7220717565727920666f72206e6f6e657860008201527f697374656e7420746f6b656e0000000000000000000000000000000000000000602082015250565b6000612e7b602c8361212a565b9150612e8682612e1f565b604082019050919050565b60006020820190508181036000830152612eaa81612e6e565b9050919050565b7f4552433732313a207472616e736665722066726f6d20696e636f72726563742060008201527f6f776e6572000000000000000000000000000000000000000000000000000000602082015250565b6000612f0d60258361212a565b9150612f1882612eb1565b604082019050919050565b60006020820190508181036000830152612f3c81612f00565b9050919050565b7f4552433732313a207472616e7366657220746f20746865207a65726f2061646460008201527f7265737300000000000000000000000000000000000000000000000000000000602082015250565b6000612f9f60248361212a565b9150612faa82612f43565b604082019050919050565b60006020820190508181036000830152612fce81612f92565b9050919050565b7f4e487b7100000000000000000000000000000000000000000000000000000000600052601160045260246000fd5b600061300f826121da565b915061301a836121da565b92508282101561302d5761302c612fd5565b5b828203905092915050565b6000613043826121da565b915061304e836121da565b9250827fffffffffffffffffffffffffffffffffffffffffffffffffffffffffffffffff0382111561308357613082612fd5565b5b828201905092915050565b600081905092915050565b7f416363657373436f6e74726f6c3a206163636f756e7420000000000000000000600082015250565b60006130cf60178361308e565b91506130da82613099565b601782019050919050565b60006130f08261211f565b6130fa818561308e565b935061310a81856020860161213b565b80840191505092915050565b7f206973206d697373696e6720726f6c6520000000000000000000000000000000600082015250565b600061314c60118361308e565b915061315782613116565b601182019050919050565b600061316d826130c2565b915061317982856130e5565b91506131848261313f565b915061319082846130e5565b91508190509392505050565b7f4552433732313a20617070726f766520746f2063616c6c657200000000000000600082015250565b60006131d260198361212a565b91506131dd8261319c565b602082019050919050565b60006020820190508181036000830152613201816131c5565b9050919050565b7f4552433732313a207472616e7366657220746f206e6f6e20455243373231526560008201527f63656976657220696d706c656d656e7465720000000000000000000000000000602082015250565b600061326460328361212a565b915061326f82613208565b604082019050919050565b6000602082019050818103600083015261329381613257565b9050919050565b7f4552433732313a206d696e7420746f20746865207a65726f2061646472657373600082015250565b60006132d060208361212a565b91506132db8261329a565b602082019050919050565b600060208201905081810360008301526132ff816132c3565b9050919050565b7f4552433732313a20746f6b656e20616c7265616479206d696e74656400000000600082015250565b600061333c601c8361212a565b915061334782613306565b602082019050919050565b6000602082019050818103600083015261336b8161332f565b9050919050565b600061337d826121da565b9150613388836121da565b9250817fffffffffffffffffffffffffffffffffffffffffffffffffffffffffffffffff04831182151516156133c1576133c0612fd5565b5b828202905092915050565b7f4e487b7100000000000000000000000000000000000000000000000000000000600052603260045260246000fd5b6000613406826121da565b9150600082141561341a57613419612fd5565b5b600182039050919050565b7f537472696e67733a20686578206c656e67746820696e73756666696369656e74600082015250565b600061345b60208361212a565b915061346682613425565b602082019050919050565b6000602082019050818103600083015261348a8161344e565b9050919050565b600081519050919050565b600082825260208201905092915050565b60006134b882613491565b6134c2818561349c565b93506134d281856020860161213b565b6134db8161216e565b840191505092915050565b60006080820190506134fb600083018761226f565b613508602083018661226f565b6135156040830185612452565b818103606083015261352781846134ad565b905095945050505050565b60008151905061354181612090565b92915050565b60006020828403121561355d5761355c61205a565b5b600061356b84828501613532565b9150509291505056fea2646970667358221220e7a19180ade6f5048c5f06aa3e4b9f49b9faef4b900f7e5bf3ad7876189c705064736f6c634300080a0033",
  "devdoc": {
    "kind": "dev",
    "methods": {
      "approve(address,uint256)": {
        "details": "See {IERC721-approve}."
      },
      "balanceOf(address)": {
        "details": "See {IERC721-balanceOf}."
      },
      "getApproved(uint256)": {
        "details": "See {IERC721-getApproved}."
      },
      "getRoleAdmin(bytes32)": {
        "details": "Returns the admin role that controls `role`. See {grantRole} and {revokeRole}. To change a role's admin, use {_setRoleAdmin}."
      },
      "grantRole(bytes32,address)": {
        "details": "Grants `role` to `account`. If `account` had not been already granted `role`, emits a {RoleGranted} event. Requirements: - the caller must have ``role``'s admin role."
      },
      "hasRole(bytes32,address)": {
        "details": "Returns `true` if `account` has been granted `role`."
      },
      "isApprovedForAll(address,address)": {
        "details": "See {IERC721-isApprovedForAll}."
      },
      "mint(address,uint256,uint256,address)": {
        "details": "mint an nft",
        "params": {
          "_amount": "amount deposited",
          "_fundId": "id of the fund",
          "_recipient": "address of the recipient",
          "_tokenAddress": "tracked address of the deposited token"
        },
        "returns": {
          "_0": "id of the minted ERC721"
        }
      },
      "name()": {
        "details": "See {IERC721Metadata-name}."
      },
      "ownerOf(uint256)": {
        "details": "See {IERC721-ownerOf}."
      },
      "renounceRole(bytes32,address)": {
        "details": "Revokes `role` from the calling account. Roles are often managed via {grantRole} and {revokeRole}: this function's purpose is to provide a mechanism for accounts to lose their privileges if they are compromised (such as when a trusted device is misplaced). If the calling account had been revoked `role`, emits a {RoleRevoked} event. Requirements: - the caller must be `account`."
      },
      "revokeRole(bytes32,address)": {
        "details": "Revokes `role` from `account`. If `account` had been granted `role`, emits a {RoleRevoked} event. Requirements: - the caller must have ``role``'s admin role."
      },
      "safeTransferFrom(address,address,uint256)": {
        "details": "See {IERC721-safeTransferFrom}."
      },
      "safeTransferFrom(address,address,uint256,bytes)": {
        "details": "See {IERC721-safeTransferFrom}."
      },
      "setApprovalForAll(address,bool)": {
        "details": "See {IERC721-setApprovalForAll}."
      },
      "symbol()": {
        "details": "See {IERC721Metadata-symbol}."
      },
      "transferFrom(address,address,uint256)": {
        "details": "See {IERC721-transferFrom}."
      }
    },
    "version": 1
  },
  "userdoc": {
    "kind": "user",
    "methods": {},
    "version": 1
  },
  "storageLayout": {
    "storage": [
      {
        "astId": 24,
        "contract": "contracts/SOS.sol:SOS",
        "label": "_roles",
        "offset": 0,
        "slot": "0",
        "type": "t_mapping(t_bytes32,t_struct(RoleData)19_storage)"
      },
      {
        "astId": 894,
        "contract": "contracts/SOS.sol:SOS",
        "label": "_name",
        "offset": 0,
        "slot": "1",
        "type": "t_string_storage"
      },
      {
        "astId": 896,
        "contract": "contracts/SOS.sol:SOS",
        "label": "_symbol",
        "offset": 0,
        "slot": "2",
        "type": "t_string_storage"
      },
      {
        "astId": 900,
        "contract": "contracts/SOS.sol:SOS",
        "label": "_owners",
        "offset": 0,
        "slot": "3",
        "type": "t_mapping(t_uint256,t_address)"
      },
      {
        "astId": 904,
        "contract": "contracts/SOS.sol:SOS",
        "label": "_balances",
        "offset": 0,
        "slot": "4",
        "type": "t_mapping(t_address,t_uint256)"
      },
      {
        "astId": 908,
        "contract": "contracts/SOS.sol:SOS",
        "label": "_tokenApprovals",
        "offset": 0,
        "slot": "5",
        "type": "t_mapping(t_uint256,t_address)"
      },
      {
        "astId": 914,
        "contract": "contracts/SOS.sol:SOS",
        "label": "_operatorApprovals",
        "offset": 0,
        "slot": "6",
        "type": "t_mapping(t_address,t_mapping(t_address,t_bool))"
      },
      {
        "astId": 5366,
        "contract": "contracts/SOS.sol:SOS",
        "label": "registry",
        "offset": 0,
        "slot": "7",
        "type": "t_contract(Registry)5515"
      },
      {
        "astId": 5926,
        "contract": "contracts/SOS.sol:SOS",
        "label": "tokenIds",
        "offset": 0,
        "slot": "8",
        "type": "t_struct(Counter)2265_storage"
      },
      {
        "astId": 5931,
        "contract": "contracts/SOS.sol:SOS",
        "label": "metadata",
        "offset": 0,
        "slot": "9",
        "type": "t_mapping(t_uint256,t_struct(DonationRecord)5913_storage)"
      }
    ],
    "types": {
      "t_address": {
        "encoding": "inplace",
        "label": "address",
        "numberOfBytes": "20"
      },
      "t_bool": {
        "encoding": "inplace",
        "label": "bool",
        "numberOfBytes": "1"
      },
      "t_bytes32": {
        "encoding": "inplace",
        "label": "bytes32",
        "numberOfBytes": "32"
      },
      "t_contract(Registry)5515": {
        "encoding": "inplace",
        "label": "contract Registry",
        "numberOfBytes": "20"
      },
      "t_mapping(t_address,t_bool)": {
        "encoding": "mapping",
        "key": "t_address",
        "label": "mapping(address => bool)",
        "numberOfBytes": "32",
        "value": "t_bool"
      },
      "t_mapping(t_address,t_mapping(t_address,t_bool))": {
        "encoding": "mapping",
        "key": "t_address",
        "label": "mapping(address => mapping(address => bool))",
        "numberOfBytes": "32",
        "value": "t_mapping(t_address,t_bool)"
      },
      "t_mapping(t_address,t_uint256)": {
        "encoding": "mapping",
        "key": "t_address",
        "label": "mapping(address => uint256)",
        "numberOfBytes": "32",
        "value": "t_uint256"
      },
      "t_mapping(t_bytes32,t_struct(RoleData)19_storage)": {
        "encoding": "mapping",
        "key": "t_bytes32",
        "label": "mapping(bytes32 => struct AccessControl.RoleData)",
        "numberOfBytes": "32",
        "value": "t_struct(RoleData)19_storage"
      },
      "t_mapping(t_uint256,t_address)": {
        "encoding": "mapping",
        "key": "t_uint256",
        "label": "mapping(uint256 => address)",
        "numberOfBytes": "32",
        "value": "t_address"
      },
      "t_mapping(t_uint256,t_struct(DonationRecord)5913_storage)": {
        "encoding": "mapping",
        "key": "t_uint256",
        "label": "mapping(uint256 => struct DonationRecord)",
        "numberOfBytes": "32",
        "value": "t_struct(DonationRecord)5913_storage"
      },
      "t_string_storage": {
        "encoding": "bytes",
        "label": "string",
        "numberOfBytes": "32"
      },
      "t_struct(Counter)2265_storage": {
        "encoding": "inplace",
        "label": "struct Counters.Counter",
        "members": [
          {
            "astId": 2264,
            "contract": "contracts/SOS.sol:SOS",
            "label": "_value",
            "offset": 0,
            "slot": "0",
            "type": "t_uint256"
          }
        ],
        "numberOfBytes": "32"
      },
      "t_struct(DonationRecord)5913_storage": {
        "encoding": "inplace",
        "label": "struct DonationRecord",
        "members": [
          {
            "astId": 5908,
            "contract": "contracts/SOS.sol:SOS",
            "label": "fundId",
            "offset": 0,
            "slot": "0",
            "type": "t_uint256"
          },
          {
            "astId": 5910,
            "contract": "contracts/SOS.sol:SOS",
            "label": "amount",
            "offset": 0,
            "slot": "1",
            "type": "t_uint256"
          },
          {
            "astId": 5912,
            "contract": "contracts/SOS.sol:SOS",
            "label": "tokenAddress",
            "offset": 0,
            "slot": "2",
            "type": "t_address"
          }
        ],
        "numberOfBytes": "96"
      },
      "t_struct(RoleData)19_storage": {
        "encoding": "inplace",
        "label": "struct AccessControl.RoleData",
        "members": [
          {
            "astId": 16,
            "contract": "contracts/SOS.sol:SOS",
            "label": "members",
            "offset": 0,
            "slot": "0",
            "type": "t_mapping(t_address,t_bool)"
          },
          {
            "astId": 18,
            "contract": "contracts/SOS.sol:SOS",
            "label": "adminRole",
            "offset": 0,
            "slot": "1",
            "type": "t_bytes32"
          }
        ],
        "numberOfBytes": "64"
      },
      "t_uint256": {
        "encoding": "inplace",
        "label": "uint256",
        "numberOfBytes": "32"
      }
    }
  }
}